:020000040000FA
:10000000D07A0010AD010000B5010000B70100007A
:10001000B9010000BB010000BD01000000000000AC
:10002000000000000000000000000000BF01000010
:10003000C101000000000000C3010000290200000F
:10004000C7010000931B0000AB1B0000C11B000098
:10005000C701000071120000EF100000C70100008E
:10006000C7010000FF1E0000350D0000C7010000A1
:10007000C7010000C7010000C7010000C701000060
:10008000C7010000C7010000C7010000AB2100004C
:10009000C701000095220000C7010000C701000051
:1000A000C7010000C7010000C7010000C701000030
:1000B000C7010000C7010000C7010000C701000020
:1000C000C7010000C7010000C701000000F002F8EE
:1000D00000F05CF80AA090E8000C82448344AAF186
:1000E0000107DA4501D100F051F8AFF2090EBAE884
:1000F0000F0013F0010F18BFFB1A43F0010318475C
:1001000038FE040058FE04000A444FF0000C10F8BA
:10011000013B13F0070408BF10F8014B1D1108BF85
:1001200010F8015B641E05D010F8016B641E01F825
:10013000016BF9D113F0080F1EBF10F8014BAD1C75
:100140000C1B09D16D1E58BF01F801CBFAD505E093
:1001500014F8016B01F8016B6D1EF9D59142D6D3ED
:10016000704700000023002400250026103A28BF15
:1001700078C1FBD8520728BF30C148BF0B60704719
:100180001FB50FF06FF81FBD10B510BD0FF036F89A
:100190001146FFF7F5FF00F027F800F0A8F803B4C8
:1001A000FFF7F2FF03BC0FF057F800000948804743
:1001B00009480047FEE7FEE7FEE7FEE7FEE7FEE749
:1001C000FEE7FEE7FEE7FEE704480549034A054B64
:1001D0007047000001030000CD000000D07800103F
:1001E000D07A0010D078001000F0E1F807F087FB1B
:1001F00003A000F009FF01E007F0D5FBFCE70000D9
:100200003D3D3D3D3D68656C6C6F20313339207755
:100210006972656C657373206D6F643D3D3D3D3D56
:100220003D3D3D3D3D0A00000D480068401C0C4925
:1002300008607047704700BF411EC9B20800FBD17B
:10024000704700B5024605E0F520FFF7F4FFF52002
:10025000FFF7F1FF1000A2F10102F5D100BD00008F
:10026000040000101948006820F0010017490860D8
:100270000846006820F0020008601548006840F059
:100280000300134908600846C06940F00300C861D4
:1002900070470F48806940F001000D498861704740
:1002A0000B48C06940F001000949C861704708481F
:1002B000806940F002000649886170470448C069BF
:1002C00040F002000249C8617047000000C00240CF
:1002D00000C0092010B501F0C8FE07F097FD10BD61
:1002E00010B501F0D9FE10BD704770477047044645
:1002F000AFF300802046FFF752FF7047FFFFFFFF7C
:10030000002020217A4A116000BF7949096811F064
:10031000400FFAD00321774A11607749774AC2F833
:10032000A8114FF00001764A11604FF00101754AA3
:1003300011604FF00F01744A11604FF00101A2F1FA
:10034000040211604FF0AA01704A11604FF055018C
:100350006A4AC2F88C106B490968022906D000BFAE
:100360006B49096811F0806FFAD004E0002000E0CA
:10037000401C6428FCD90321664A11604FF0AA0191
:100380005E4AC2F88C104FF05501604A11604FF080
:100390000701614A11606149614A11604FF0000133
:1003A000604A116043F23A01544A1160704758485C
:1003B0000068C0F30160032868D15248006810F05B
:1003C000030006D0012823D002283FD003285CD1A7
:1003D00000E000BF4E480068C0F30E0000F10100CD
:1003E0004FEA40014548D0F88800C0F3074000F1CB
:1003F0000100B1FBF0F04C4900FB01F03D490968F8
:10040000C9B201F10101B0FBF1F0484908603CE0DC
:100410003F480068C0F30E0000F101004FEA4001C0
:100420003648D0F88800C0F3074000F10100B1FB66
:10043000F0F03F4900FB01F02E490968C9B201F113
:100440000101B0FBF1F0394908601EE03048006856
:10045000C0F30E0000F101004FEA40012748D0F838
:100460008800C0F3074000F10100B1FBF0F04FF449
:10047000FA4100FB01F01F490968C9B201F101010D
:10048000B0FBF1F02949086000BF2FE01D4800686B
:1004900010F0030006D0012810D0022819D003283C
:1004A00023D100E000BF13480068C0B200F1010092
:1004B0001D49B1FBF0F01D49086016E00D480068C9
:1004C000C0B200F101001A49B1FBF0F01749086011
:1004D0000BE008480068C0B200F101004FF4FA4197
:1004E000B1FBF0F01149086000BF00BF7047000089
:1004F000A0C10F4004C10F404010110000C00F40C8
:10050000ACC10F400CC10F4084C00F408CC00F40E5
:1005100088C00F4080C00F4008C10F40DEF7EFEFEA
:10052000C4C00F40C8C10F4000093D0000000010CA
:10053000001BB70070B931B9FE4AD26942F480326B
:10054000FC4BDA6116E0FB4A926942F48032F94BC7
:100550009A610FE001280DD131B9F64AD26942F013
:100560004002F44BDA6105E0F24A926942F040023F
:10057000F04B9A617047F048006840F48060EF49A2
:10058000C1F8C400EE48006820F48070EC490860AF
:100590000846006820F4007008600846006820F4EF
:1005A000806008600846006820F400600860084623
:1005B000006820F4805008600846006820F400506D
:1005C00008600846006820F480400860084600681B
:1005D00040F4004008600846006820F4803008605D
:1005E0000846006840F4003008600846006820F4BF
:1005F000802008600846006840F400200860CD486C
:10060000006840F01000CB4908600846006840F0E0
:10061000200008600846006840F040000860084676
:10062000C06940F01000C8610846806940F02000B1
:1006300088610846806940F0400088614FF00700FB
:10064000C04908604FF0020048604FF004000861A4
:10065000B848806940F04000B6498861704701465B
:10066000B848816000BFB748C06810F0100FFAD1D9
:10067000B4488068C0B2704700B50246AD48C06952
:1006800040F04000AB49C8611046FFF7E8FFA948B9
:10069000806940F04000A749886100BD00B502466E
:1006A000A448C06940F04000A249C861D0B2FFF739
:1006B000D6FFFF20FFF7D3FF03469E48806940F036
:1006C00040009C498861184600BD00B502460B46B3
:1006D0009848C06940F040009649C861D0B2FFF721
:1006E000BEFFD8B2FFF7BBFF9248806940F04000E0
:1006F0009049886100BD10B50520FFF7CFFF20F0BD
:100700007C0421460120FFF7E0FF0620FFF7B4FF3D
:100710008848806940F010008649886110BD10B596
:100720000520FFF7BBFF40F01C0421460120FFF726
:10073000CCFF0420FFF7A0FF7E48C06940F0100006
:100740007C49C86110BD00B505227A48C06940F0F7
:1007500040007849C8610520FFF781FFFF20FFF7BF
:100760007EFF03467348806940F04000714988610C
:1007700001E0501EC2B2002AFBDC03F0010000BD04
:1007800018B50446200C8DF80000200A8DF80100F1
:10079000E0B28DF80200FFF7AEFF6648C06940F096
:1007A00040006449C861D820FFF759FF9DF8000058
:1007B000FFF755FF9DF80100FFF751FF9DF802007C
:1007C000FFF74DFF5B48806940F040005949886160
:1007D00000BFFFF7B8FF0028FBD1FFF7A0FF18BD4F
:1007E00000B5FFF788FFC720FFF746FF00BFFFF700
:1007F000AAFF0028FBD1FFF792FF00BD38B50446E1
:100800000D46200C8DF80000200A8DF80100E0B2A2
:100810008DF80200FFF76FFF4648C06940F04000C6
:100820004449C8610220FFF71AFF9DF80000FFF756
:1008300016FF9DF80100FFF712FF9DF80200FFF779
:100840000EFF2846FFF70BFF3A48806940F0400052
:1008500038498861FFF763FF00BFFFF774FF002886
:10086000FBD138BDF8B504460D461646FFF743FFE9
:100870003048C06940F040002E49C861200C8DF816
:100880000000200A8DF80100E0B28DF8020002207D
:10089000FFF7E5FE9DF80000FFF7E1FE9DF801007F
:1008A000FFF7DDFE9DF80200FFF7D9FE002704E008
:1008B0002878FFF7D4FE781CC7B2B742F8DB1D4892
:1008C000806940F040001B498861FFF728FF00BFA6
:1008D000FFF739FF0028FBD1F8BD08B502461548DF
:1008E000C06940F040001349C861100C8DF8000049
:1008F000100A8DF80100D0B28DF802000320FFF736
:10090000AEFE9DF80000FFF7AAFE9DF80100FFF77C
:10091000A6FE9DF80200FFF7A2FEFF20FFF79FFE54
:1009200003460448806940F0400002498861184647
:1009300008BD000000C00920C4C00F4000C00F4027
:1009400000C0024000000340F8B504460D461646BC
:100950006048C06940F040005E49C861200C8DF8D5
:100960000000200A8DF80100E0B28DF8020003209B
:10097000FFF775FE9DF80000FFF771FE9DF801007E
:10098000FFF76DFE9DF80200FFF769FE002706E005
:10099000FF20FFF764FE05F8010B781CC7B2B742D1
:1009A000F6DB4C48806940F040004A49886100BF4E
:1009B000FFF7C9FE0028FBD1F8BD70B500BF0023CA
:1009C0002EE0A8B900BF444DED6805F01205022DD8
:1009D000F9D10D78404EB560491C00BF3E4DED6821
:1009E00005F01405042DF9D13B4DAD68ECB216E0CD
:1009F000012814D100BF394DED6805F01205022D14
:100A0000F9D10D78354EB560491C00BF334DED6806
:100A100005F01405042DF9D1304DAD68ECB25B1C26
:100A20009342CED370BD30B5002320E070B9FF24CF
:100A3000294DAC6000BF284CE46804F01404042C79
:100A4000F9D1254CA46801F8014B0FE001280DD124
:100A5000FF24224DAC6000BF204CE46804F0140475
:100A6000042CF9D11D4CA46801F8014B5B1C934286
:100A7000DCD330BD08B502461648C06940F04000DE
:100A80001449C861100C8DF80000100A8DF801009F
:100A9000D0B28DF802000B20FFF7E1FD9DF80000B9
:100AA000FFF7DDFD9DF80100FFF7D9FD9DF802007D
:100AB000FFF7D5FD0020FFF7D2FDFF20FFF7CFFDA8
:100AC00003460448806940F04000024988611846A6
:100AD00008BD000000C0092000800840000003405D
:100AE00010B5002807DACA06140EF74A00F00F0303
:100AF0001B1FD45403E0CA06130EF44A135410BD4E
:100B00000146F3480078012800D170470CE000222C
:100B100005E0EF480078012800D1F6E7521C41F2C9
:100B200088308242F5D3491E0029F0D10020ECE73D
:100B300010B50446E748006840F40020E649C1F8D3
:100B4000C400E648406820F07070E44948600846F8
:100B5000406840F0A07048604FF06C00E049886148
:100B6000E048844200D90446DF48B0FBF4F0401C62
:100B70004008DB490861DC48B0FBF4F040084861FC
:100B80002C208861402008600A2000F0F1F9402004
:100B9000D349086018210620FFF7A2FF10BD10B549
:100BA0000A2000F0E5F918210620FFF799FF10BD93
:100BB00010B50A2000F0E8F910BD10B50A2000F0C9
:100BC000E3F910BD10B50A2000F0D2F94020C44965
:100BD000086018210620FFF783FF10BD03B5034608
:100BE000C248037001A8C24908600120C1490860D9
:100BF0000020C1490870B64908702C20B8498861A6
:100C0000602008601420FFF77BFF0CBD10B5044680
:100C10000B46601CB5490870B54803600120B54912
:100C200008600020B4490870A94908702C20B34915
:100C30008861602008601420FFF762FF10BDF0B5E6
:100C400005460E461446059F002F35D0012E07D1CC
:100C5000681CA6490870AA4804600120A9490870C8
:100C6000022E07D1681CA1490870A5480460022023
:100C7000A4490870032E0CD10E2000EAD410284499
:100C8000401C9A490870E0B29D49086001209D49C6
:100C900008709748036097480760012096490870DC
:100CA00000208B4908702C208D49886160200860E5
:100CB0001420FFF725FFF0BD0020FCE7F0B5054646
:100CC0000E461446059F002F32D0012E06D18748CC
:100CD00005708B48046001208A490870022E06D1F5
:100CE0008248057086480460022086490870032EF9
:100CF0000BD10E2000EAD41028447C490870E0B2E1
:100D00007F49086001207F4908707948036079486D
:100D1000076002207849087000206D4908702C2077
:100D20006F498861602008601420FFF7E9FEF0BD7C
:100D30000020FCE76A48406800F0F80010F0070F58
:100D400079D1C0100C2876D2DFE800F075061920A2
:100D5000B421B5B6A5B7DEFC67480078012806D1F6
:100D60006248007800F0FE005D49886003E05F485B
:100D700000785B498860282059498861F6E05B4823
:100D800000785749886028208861EFE000BF5A4802
:100D90000078E8B95748006890B155480068007875
:100DA0004F49886052480068401C5149086028201B
:100DB0004B4988614F480068401E4E49086007E073
:100DC00010204749086028208861012040490870A8
:100DD0004948007801282FD14A48007802280DD1CF
:100DE00047480068C0F307203D4988602820886193
:100DF00044480078401E43490870B7E041480078F5
:100E000001280CD13E480068C0B2354988602820CE
:100E100088613C480078401E3A490870A6E039488D
:100E2000007848B908202E498861202008600020F9
:100E3000314908709AE098E02F480078022829D1BB
:100E400030480078002825DD2E48007802280DD192
:100E50002B480068C0F3072021498860282088615A
:100E600028480078401E274908707FE02548007810
:100E700001280FD122480068C0B219498860282093
:100E8000886120480078401E1E49087000201A49D9
:100E900008706BE06AE017480068012803D8042056
:100EA0000F49886102E004200D49086028200C49A0
:100EB00088615BE000BF00BF00BF2820084988614F
:100EC000FF200349087051E018ED00E000E400E065
:100ED0001C000010C4C00F4000C00F4000C0024002
:100EE00000C00140801A060000366E0108000010A4
:100EF00014000010180000101D00001000C0054074
:100F00000C00001010000010244880682449096873
:100F1000087023480068401C214908602148006887
:100F2000401E2049086008460068012804D12C2092
:100F30001A49886105E005E0042018490860282066
:100F4000886113E0154880681549096808701448DD
:100F50000068401C124908601020104908602820D1
:100F6000886101201049087000E000BF00BF704791
:100F700000F01F020121914042094FF0E02303EBF2
:100F80008202C2F80011704700F01F020121914057
:100F9000064A430942F823107047000000C0014090
:100FA00014000010180000101C00001080E100E088
:100FB00010B5002807DACA06140EF84A00F00F032D
:100FC0001B1FD45403E0CA06130EF54A135410BD78
:100FD000002004E00021F34A1154411CC8B20C283F
:100FE000F8DB70470020F049087070470146EF4871
:100FF000405C7047002004E00021EC4A1154411C81
:10100000C8B20928F8DB7047704710B54FF40020CC
:10101000FFF763FCE649087008460078FF2801D115
:1010200000200870E2480178E2A0FFF7EDFF10BD54
:1010300070B500242FE02146E3A0FFF7E5FF00256F
:1010400022E004EBC401C1EB841101F580214819B1
:10105000FFF743FC04EBC401C1EB8411DD4A1144EA
:10106000485504EBC400C0EB84101146085C80288E
:1010700008D104EBC400C0EB84101044415DD6A03D
:10108000FFF7C2FF681CC5B2372DDADBD3A0FFF72C
:10109000BBFF601CC4B2322CCDDB70BD024602EB3C
:1010A000C200C0EB8210CB4B1844405C704710B5B7
:1010B000BE488178002002F00CFABC48C1780120BB
:1010C00002F007FAB9480179022002F002FAB748A3
:1010D0004179032002F0FDF9B4488179042002F03F
:1010E000F8F9B248C179052002F0F3F910BD38B51E
:1010F000AD480078092843DAB9480068AB49AA4AE4
:101100001278885408460078822805D1A6480078CD
:10111000401CA549087002E00020A3490870A348BC
:101120004078382807D100209F49087003F08BF8D9
:1011300003F0A8F924E09C480078092820D1002079
:101140009949087003F07FF80DF008FD28B1FFF70A
:10115000AEFF0921412002F0C6F908F042FE78B145
:101160000020924C0090A378E2782179607902F017
:101170005EFA28B9FFF79BFF0921412002F0B3F97D
:1011800038BD98480078704770B50546FF260124A1
:101190000CE004EBC400C0EB84108E490844807856
:1011A000A84201D1264603E0601CC4B2322CF0DD17
:1011B00000BF31468CA0FFF727FF304670BD0246C6
:1011C00002290AD10A2A08D100BF8A48406910F0D2
:1011D000200FFAD00D20874B186000BF854840696A
:1011E00010F0200FFAD0834802600020704710B53D
:1011F000804800688049814A1288885408467F499F
:101200000988405C20280DD17C480088142809DD1D
:1012100079487A490988405C79490870774800889C
:1012200078490880744977480088C01C085C6E289B
:1012300011D174480088801C085C60B9714800882E
:10124000401C085C38B900206C4908806D49088052
:101250000120644908706849684A1288885C002146
:10126000FFF7ADFF65480088401C6449088010BD49
:1012700010B503F0E9FF10B1FFF7B9FF1EE05D48BC
:1012800000684849604A1278885408460078FF2868
:1012900005D15D480078401C5B49087002E00020E1
:1012A000594908703F48C07A832807D10020564921
:1012B0000870012003F010F9FFF78AFE10BD70B529
:1012C0004FF48020FFF75CFA002417E0002511E0BE
:1012D00004EBC402C2EB84123E4B1A44515D04EB92
:1012E000C402C2EB841202F580225019FFF786FA7D
:1012F000681CC5B2372DEBDB601CC4B2322CE5DBB9
:1013000070BD2DE9F0414FF00008002600270025B0
:1013100034480078012840D100241AE03648005DA6
:101320001F2804D18021344A601D1154A046324840
:10133000005D20B9444502DD701CC6B200E0002605
:10134000042E04D18721E01E2B4A11540026601C74
:1013500084B2B4F5FA6FE1DB002477E02648005D43
:10136000802855D12449A01C0D5C322D00DD6BE096
:1013700005B969E02048015D05EBC500C0EB8510AB
:10138000144A0244214803780078401CDFF87CC0EE
:101390008CF80000D154012755E06DE018ED00E015
:1013A00000E400E0F81E001023000010FA13001003
:1013B000260000106E6F746520636F756E74657221
:1013C0003A25640A0000000064617461325B2564A0
:1013D0005D3A000003140010256420000A0000009C
:1013E0000000014022000010726F772069733A25D7
:1013F000640A000000C00040200C00101E00001015
:10140000F013001020000010250000102400001030
:10141000012F18D1C748015D05EBC500C0EB851051
:10142000C54A0244C54803780078401CDFF80CC365
:101430008CF80000D154BF48005D872803D10020FC
:1014400061460870002700BF601C84B2B4F5FA6FD3
:1014500084DB002404E00020B6490855601C84B2F7
:10146000B4F5FA6FF7DBFFF72AFF0020B4490870E4
:1014700003F004FF03F0E4FEBDE8F0812DE9F04144
:1014800007468846002F4CD1AE48006840F008005F
:10149000AD49C1F8C400AD48006820F0F000AB4988
:1014A00008600846006840F050000860A8480068DE
:1014B000C0F3811636B1012E08D0022E09D0032EBA
:1014C0000BD000BFA348006884080AE0A148046864
:1014D00007E0A0480068440803E09E480068C4088C
:1014E00000BF00BF21469CA0FFF78EFD83209E49D0
:1014F000C8602009B0FBF8F5280A4860E8B2086027
:101500000320C86007208860052000F0FEF8012055
:101510009549486020210520FFF74AFD0120BDE8DC
:10152000F081012F4DD18948006920F00F008749D3
:1015300008610846006940F00A00086184480068B4
:10154000C0F3012636B1012E08D0022E09D0032E99
:101550000BD000BF7F48006884080AE07D4804681B
:1015600007E07C480068440803E07A480068C40843
:1015700000BF00BF774801687CA0FFF745FD21460A
:101580007FA0FFF741FD214681A0FFF73DFD8320AD
:101590008449C8602009B0FBF8F5280A4860E8B221
:1015A00008600320C86007208860062000F0ADF8BE
:1015B00001207C49486008210620FFF7F9FC012042
:1015C000ADE70020ABE710B5052000F0AAF8062033
:1015D00000F0A7F810BD10B50120634948607149BB
:1015E0004860052000F091F820210520FFF7E0FC7D
:1015F000062000F08AF800210620FFF7D9FC10BD74
:1016000010B5052000F08DF8062000F08AF810BD16
:1016100010B501205449486062494860052000F037
:1016200074F820210520FFF7C3FC062000F06DF8B8
:1016300000210620FFF7BCFC10BD10B540B904E046
:1016400011F8013B484C2360521E002AF8D107E0F4
:1016500004E011F8013B534C2360521E002AF8D1DC
:1016600010BD00BF4F49496911F0200FFAD04D4914
:101670000860704710B5044604E014F8010B00211F
:10168000FFF79DFD20780028F7D110BD00B5024678
:1016900003E012F8010BFFF7E4FF10780028F8D1FF
:1016A00000BD00BF3F49496911F0010FFAD03D4923
:1016B0000868704700BF2C49496911F0010FFAD042
:1016C00029490868704700B503460A4603E0FFF75A
:1016D000E8FF01C3521E002AF9D100BD00B5034640
:1016E0000A4603E0FFF7E6FF01C3521E002AF9D1C4
:1016F00000BD10B5044604E020780221FFF75FFD2D
:10170000641C20780028F7D110BD00F01F020121D1
:10171000914042094FF0E02303EB8202C2F800112E
:10172000704700F01F02012191401F4A430942F80F
:1017300023107047200C0010031400102400001028
:1017400022000010C4C00F4000C00F4000C0024083
:10175000A8C10F400000001075617274303A7063C8
:101760006C6B3A25640A000000C000405379737422
:10177000656D4672657175656E63793A25640A0018
:1017800075617274313A70636C6B3A25640A0000BB
:1017900075617274313A70636C6B3A253031306C1C
:1017A000640A00000000014080E100E06F484068EA
:1017B00020F001006D4948600846406820F00100B3
:1017C00048600846006820F001000860084600688C
:1017D00020F0010008600846406820F001004860E1
:1017E0000846406820F0010048600846406820F044
:1017F000010048600846406820F001004860084643
:10180000C06820F00100C8600846C06820F00100F0
:10181000C8600846C06820F00100C8600846C0687B
:1018200020F00100C8600846C06820F00100C860D0
:101830000846C06820F00100C8600846C06820F073
:101840000100C8600846C06820F00100C860084672
:10185000C06820F00100C8600846C06820F00100A0
:10186000C8600846C06820F00100C8600846C0682B
:1018700020F00100C8600846C06820F00100C86080
:101880000846C06820F00100C8600846006920F0E2
:10189000010008610846006920F00100086108465F
:1018A000006920F0010008610846006920F001008D
:1018B00008610846406848600846006920F0010059
:1018C00008610846006920F00100086108460069C7
:1018D00020F0010008612648006840F4C200244955
:1018E00008600846006820F48060086008460068C8
:1018F00020F4006008600846006820F0007008606E
:101900000846006820F0806008600846006820F003
:10191000005008600846006820F0804008600846D3
:10192000006A14490843124908620846006C40F4F2
:101930005F7008640846806940F4C000886108460A
:10194000C06B0D4908430A49C8630846C06D40F49E
:101950005E70C8650846806D40F401708865084671
:10196000806D40F0C07088657047000000C0024084
:1019700000C009200000FCFF0300E00110B50028B2
:1019800007DACA06140EE74A00F00F031B1FD454EF
:1019900003E0CA06130EE44A135410BD10B5044602
:1019A00034B1012C0CD0022C12D0032C20D117E022
:1019B000012000F0A2F910210120FFF7DFFF18E05D
:1019C000022000F09AF930210220FFF7D7FF10E043
:1019D000032000F092F948210320FFF7CFFF08E031
:1019E000042000F08AF950210420FFF7C7FF00E02F
:1019F00000BF00BF10BD10B5044634B1012C08D0A3
:101A0000022C0AD0032C10D10BE0012000F081F948
:101A10000CE0022000F07DF908E0032000F079F9E5
:101A200004E0042000F075F900E000BF00BF10BD25
:101A300070B505460C460DBBBC48006840F002007E
:101A4000BB49C1F8C4004FF000004FF040210867C7
:101A50004FF0020048604FF0010008604FF00000B6
:101A60008860C860084684614FF0030048614FF009
:101A7000010048604FF00000FFF790FF012D20D1DA
:101A8000AA48006840F00400A949C1F8C4004FF01A
:101A90000000A84908674FF0020048604FF00100BD
:101AA00008604FF000008860C860084684614FF00D
:101AB000030048614FF00100FFF770FF01209D49CE
:101AC0004860022D20D19948006840F48000984970
:101AD000C1F8C4004FF00000974908674FF00200BA
:101AE00048604FF0010008604FF000008860C86057
:101AF000084684614FF0030048614FF00200FFF791
:101B00004DFF01208C494860032D1DD18748006896
:101B100040F400008649C1F8C4004FF00000874936
:101B200008674FF0020048604FF0010008604FF076
:101B300000008860C8600846846128464861FFF755
:101B40002DFF01207D49486070BD7D4908707047B8
:101B50007B480078401C7A490870704778480078C4
:101B6000704778490860704776480068401C75499E
:101B70000860704773480068704773480088401CCD
:101B80007149088070477049088070476E48008826
:101B9000704710B500F069FA06F00AFB01204FF01B
:101BA0004021086000F078FA10BD10B500F05DFA31
:101BB00006F02DFB0F205F49086000F06DFA10BDA4
:101BC00010B501F0CCFA0F205B49086010BD5F48EA
:101BD0000068401C5D490860704700205B49086050
:101BE00070475A480068704759480068401C584977
:101BF00008607047564800687047002054490860E4
:101C0000704700B5534840695349084207D05148CE
:101C1000C06D40F400704F49C865FFF7EEFF00BD8E
:101C20004C48806D40F400704A498865002048495E
:101C30000860704720B901214FF04022516010E048
:101C4000012803D101213B4A51600AE0022803D157
:101C50000121394A516004E0032802D10121374AA9
:101C60005160704720B900214FF04022516010E0D0
:101C7000012803D100212F4A51600AE0022803D134
:101C800000212D4A516004E0032802D100212B4A93
:101C900051607047014631B94FF04022506840F022
:101CA0000200506016E0012905D1224A506840F038
:101CB000020050600EE0022905D11F4A506840F032
:101CC0000200506006E0032904D11C4A506840F02D
:101CD00002005060704710B5FFF783FF322802D131
:101CE00001F0A9FB07E0FFF77CFF642803D101F0B6
:101CF0000FFBFFF772FF10BD704700F01F020121BC
:101D0000914042094FF0E02303EB8202C2F8001138
:101D1000704700F01F0201219140104A430942F828
:101D20002310704718ED00E000E400E0C4C00F404D
:101D300000C00F4000800040000009400040094002
:101D40002C0000103000001034000010380000108B
:101D50003C00001000C00920000C006680E100E09B
:101D600053480068704700F00301524A52F82110AE
:101D70004F4A11607047014601F003004D4A52F886
:101D8000200070474C48006849F64041B0FBF1F034
:101D9000704749480068400049F64041B0FBF1F007
:101DA00070474548006849F64041B0FBF1F000EB50
:101DB0004000400070474048006849F64041B0FB91
:101DC000F1F000EB8000800070473B48006849F666
:101DD0004041B0FBF1F0322148437047364800687B
:101DE00049F64041B0FBF1F000EB80000001704784
:101DF0003148006849F64041B0FBF1F064214843A6
:101E000070472D48006849F64041B0FBF1F0C82109
:101E10004843704729480068401C284908607047BB
:101E2000002026490860704724480068704724480D
:101E30000068401C22490860704700202049086063
:101E400070471F48006870471E480068401C1D49C5
:101E50000860704700201B490860704719480068F7
:101E6000704718480068142801D3012070470020EB
:101E7000FCE70120144908707047002012490870DF
:101E800070471148007870471048006820F0010042
:101E9000401C0E49086070470C480068C0F3000001
:101EA00070470A48006820F0010008490860704740
:101EB00044000010580000100000001048000010FE
:101EC0004C0000105000001054000010680000107A
:101ED0004348406910F0080F08D04148006C40F0BA
:101EE00008003F4908640820C86507E03C48006CCA
:101EF00040F008003A49086408208865704739496D
:101F0000086810F0010F04D037490968491C364AA7
:101F10001160344909680143324A1160704710B5B5
:101F20000020314908603148006840F040003049E5
:101F3000C1F8C4002F48006940F040002D490861F5
:101F40004FF00200274948604FF00000C8604FF092
:101F5000010048614FF00000886108644FF01000F4
:101F600008654FF0090000F02FF810BD10B50920EA
:101F700000F02AF810BD0920012181401E4A4309C2
:101F800042F8231000BF7047164A906101EB5002DF
:101F9000144B1A6410221A6570474FF4805011498F
:101FA000C8640920486070471448007870470120D1
:101FB00012490870704700201049087070470020CF
:101FC0000849C8644860704700F01F020121914031
:101FD00042094FF0E02303EB8202C2F80011704780
:101FE00000C009200080014070000010C4C00F40F4
:101FF00000C00F4000C0024080E100E06C00001013
:1020000010B5002807DACA06140E784A00F00F034C
:102010001B1FD45403E0CA06130E754A135410BD97
:1020200010B5152000F0CCF800211520FFF7E8FFCF
:1020300010BD10B5152000F0CFF810BD10B56D48DB
:10204000406820F440306B4948606B48006820F0DD
:102050008070694908606948006840F0807068498C
:10206000C1F89000FFF7DCFF10BD10B5FFF7C8FA0C
:10207000FFF7DFFF0020FFF7BEFC0120FFF7BBFCEE
:102080000220FFF7B8FCFEF793FD4FF6FF705D49A5
:102090000860FFF770FF10BD10B5FFF7B9FAFFF742
:1020A000BFFF0020FFF77AFC0120FFF777FC02203A
:1020B000FFF774FCFEF773FD4FF080704F49086026
:1020C0004F49C1F89400FFF751FF10BD10B5FFF75D
:1020D000B0FF0020FFF78FFC0120FFF78CFC0220EF
:1020E000FFF789FCFEF764FD4FF6FF704549086075
:1020F000FFF741FF10BD10B5FFF792FF0020FFF77B
:102100004DFC0120FFF74AFC0220FFF747FCFEF7D9
:1021100046FD4FF08070394908603949C1F8940094
:10212000FFF724FF10BD01203749087070470020D9
:1021300035490870704734480078704701203349AA
:102140000870704700203149087070472F480078A8
:1021500070474FF080702E49086070474FF08070D4
:10216000264908607047274800682549D1F888103B
:1021700040EA01002349086070472248006820496E
:10218000D1F8841040EA01001E490860704710B57C
:10219000132000F015F828211320FFF731FF10BDA0
:1021A00010B5132000F018F810BD10B5FFF75DFF53
:1021B000022018490860FFF7B6FFFFF76DFF10BD5A
:1021C00000F01F020121914042094FF0E02303EB90
:1021D0008202C2F80011704700F01F0201219140F5
:1021E0000D4A430942F823107047000018ED00E043
:1021F00000E400E000C0024000C0092090800240DE
:10220000008002408C8002407400001075000010B5
:102210009480024040C10F4080E100E010B52E489C
:10222000406820F440302C4948602C48006820F079
:1022300080702A4908602A48006840F08070294967
:10224000C1F890000846D0F8940040F08070C1F8C2
:1022500094004FF015004FF0010101FA00F14FEA30
:1022600050124FF0E02303EB8202C2F8001100BFCE
:102270004FF00001002807DACA06140E1A4A00F0CF
:102280000F031B1FD45403E0CA06130E174A13543E
:1022900000BF10BD10B51648006810F0807F08D050
:1022A0000CF050FE012005F008FD012005F0F2FCC5
:1022B0000AE01048006810F0807F05D0002005F08B
:1022C000FCFC022005F0E6FC0B48006840F0807042
:1022D0000449C1F88C0010BD00C0024000C00920B4
:1022E000908002400080024018ED00E000E400E031
:1022F00084800240888002408C800240014606E0D3
:1023000040F6B83200E0521E002AFCDC491E0029CB
:10231000F6DC704710B50146002000BF21E0FE4A00
:10232000126A00F1180301249C402243FA4B1A62FE
:10233000012282400A4209D01A46526B00F118036A
:1023400001249C402243F44B5A6308E0F24A526B4A
:1023500000F1180301249C40A243EF4B5A63421C36
:10236000D0B20828DBDB10BD10B5EB48C06B40F4E1
:102370008020E949C8630846806B40F400208863E8
:1023800000BF0020FFF7C6FFE348806B40F48010D9
:10239000E14988630846C06B40F48010C863084672
:1023A000006A20F4004008620846406B00200446A2
:1023B000002CE6D110BD10B50446FFF7D5FFD64876
:1023C000C06B40F48020D449C8630846C06B40F419
:1023D0000020C8632046FFF79DFFCF48806B40F484
:1023E0008010CD4988630846C06B40F48010C863F4
:1023F00010BD10B5044644F0B8042046FFF7DBFFDB
:1024000010BD10B5044644F0C0042046FFF7D3FFCA
:1024100010BD10B5044604F03F0444F040042046CB
:10242000FFF7C9FF10BD10B5044644F03E04204636
:10243000FFF7C1FF10BD10B50446FFF795FFB64882
:10244000806B40F48020B44988630846C06B40F438
:102450000020C8632046FFF75DFFAF48806B40F463
:102460008010AD4988630846C06B40F48010C86393
:1024700010BD10B50446FFF777FFA748806B40F406
:102480008020A54988630846C06B40F40020C863DB
:102490000846806B40F4801088630846C06B40F4A7
:1024A0008010C86310BD10B50446FFF75DFF9A4861
:1024B000806B40F48020984988630846C06B40F4E4
:1024C0000020C863E043C4B22046FFF723FF9248D0
:1024D000806B40F48010904988630846C06B40F4DC
:1024E0008010C86310BD20B101280ED0022824D16D
:1024F00017E08949896B41F40011874A91631146BD
:10250000896B41F48001916318E08349896B41F440
:102510000011814A91631146C96B41F48001D16376
:102520000CE07D49C96B41F400117B4AD16311462F
:10253000896B41F48001916300E000BF00BF7047E8
:1025400070B506463046FFF7CEFF002410E0204667
:10255000FFF74FFF0020FFF75CFF002504E000209D
:10256000FFF769FF681CC5B2402DF8DB601CC4B2E0
:10257000082CECDB70BD70B506463046FFF7B3FFA4
:10258000002410E02046FFF734FF0020FFF741FF52
:10259000002504E00020FFF74EFF681CC5B20A2D9D
:1025A000F8DB601CC4B2072CECDB70BD002107E037
:1025B000002201E0531CDAB26E2AFBDB4B1CD9B2BD
:1025C0008142F5DB70470146002006E0002000E074
:1025D000401C41F288329042FAD30A00A1F1010175
:1025E000F4D1704700B5FFF7BFFE0020FFF77BFF77
:1025F0000020FFF718FF0020FFF775FF0120FFF70D
:1026000012FF0020FFF76FFF0020FFF799FF002067
:10261000FFF7F7FE00BD70472DE9F04788B082460E
:102620000F46904699465046FFF75DFF08F03F0879
:102630003846FFF7DEFE4046FFF7EBFE374E09F067
:10264000FF00A138A121C1EB2921C1EB011202EB4E
:10265000411100EB410006EB4016002408E016F89B
:10266000010B04A9085500200DF80400601CC4B239
:10267000102CF4DB002518E0002412E004A810F868
:102680001400C5F1070201219140084207D01DF84E
:1026900005100120A0400844C0B20DF80500601CE0
:1026A000C4B2082CEADB681CC5B2082DE4DB0025A7
:1026B0001EE0002418E0012000EB440004A9085C9F
:1026C000C5F107020121914008420BD005F1080035
:1026D0001DF800100120A0400844C1B205F1080017
:1026E0000DF80010601CC4B2082CE4DB681CC5B2F5
:1026F000082DDEDB002405E01DF80400FFF7D3FE03
:10270000601CC4B2102CF7DB781CC0B2FFF771FE5E
:102710004046FFF77EFE03E000C00920D2FE000025
:10272000002408E016F8010B04A9085500200DF854
:102730000400601CC4B2102CF4DB002518E0002457
:1027400012E004A810F81400C5F10702012191401D
:10275000084207D01DF805100120A0400844C0B26F
:102760000DF80500601CC4B2082CEADB681CC5B279
:10277000082DE4DB00251EE0002418E0012000EB1A
:10278000440004A9085CC5F10702012191400842F8
:102790000BD005F108001DF800100120A0400844EE
:1027A000C1B205F108000DF80010601CC4B2082C7D
:1027B000E4DB681CC5B2082DDEDB002405E01DF853
:1027C0000400FFF770FE601CC4B2102CF7DB08B0E9
:1027D000BDE8F0872DE9F04788B082460F46904665
:1027E00099465046FFF77FFE08F03F083846FFF74E
:1027F00000FE4046FFF70DFEE64E09F0FF00A1384F
:10280000A121C1EB2921C1EB011202EB411100EB27
:10281000410006EB4016002408E016F8010B04A95D
:10282000085500200DF80400601CC4B2102CF4DB25
:10283000002518E0002412E004A810F81400C5F1E7
:10284000070201219140084207D01DF80510012020
:10285000A0400844C0B20DF80500601CC4B2082CAA
:10286000EADB681CC5B2082DE4DB00251EE000246D
:1028700018E0012000EB440004A9085CC5F1070240
:102880000121914008420BD005F108001DF800100D
:102890000120A0400844C1B205F108000DF8001065
:1028A000601CC4B2082CE4DB681CC5B2082DDEDB5A
:1028B000002405E01DF80400FFF7BDFD601CC4B254
:1028C000102CF7DB781CC0B2FFF793FD4046FFF7F2
:1028D000A0FD002408E016F8010B04A9085500200B
:1028E0000DF80400601CC4B2102CF4DB002518E0C5
:1028F000002412E004A810F81400C5F10702012119
:102900009140084207D01DF805100120A04008445E
:10291000C0B20DF80500601CC4B2082CEADB681CCC
:10292000C5B2082DE4DB00251EE0002418E00120DC
:1029300000EB440004A9085CC5F1070201219140A5
:1029400008420BD005F108001DF800100120A0403E
:102950000844C1B205F108000DF80010601CC4B2B3
:10296000082CE4DB681CC5B2082DDEDB002405E082
:102970001DF80400FFF75FFD601CC4B2102CF7DBEC
:1029800008B0BDE8F0872DE9F04180460D461646B7
:102990001F464046FFF7A7FD06F03F062846FFF713
:1029A00028FD3046FFF735FD002407E0202101FB1C
:1029B0000741794A505CFFF73EFD641C102CF5D3AB
:1029C000681CC0B2FFF715FD3046FFF722FD00245A
:1029D00008E0202101FB074110316F4A505CFFF7EE
:1029E0002AFD641C102CF4D3BDE8F0812DE9F041E0
:1029F00007460D46164698463846FFF774FD06F022
:102A00003F062846FFF7F5FC3046FFF702FD00249D
:102A100000E0641C102CFCD3681CC0B2FFF7E9FC7A
:102A20003046FFF7F6FC002400E0641C102CFCD3B9
:102A3000BDE8F0812DE9F04180460D4616461F465F
:102A40004046FFF750FD06F03F062846FFF7D1FC51
:102A50003046FFF7DEFC002407E0102101FB0741B0
:102A60004E4A505CFFF7E7FC641C082CF5D3681C49
:102A7000C0B2FFF7BEFC3046FFF7CBFC002408E0F5
:102A8000102101FB07410831444A505CFFF7D3FC99
:102A9000641C082CF4D3BDE8F08170472DE9F041A7
:102AA00080460D4616461F464046FFF71CFD06F0C1
:102AB0003F062846FFF79DFC3046FFF7AAFC00249E
:102AC00006E0374901EB0711085DFFF7B4FC641C11
:102AD000082CF6D3681CC0B2FFF78BFC3046FFF71A
:102AE00098FC082406E02E4901EB0711085DFFF76A
:102AF000A2FC641C102CF6D3BDE8F0812DE9F04156
:102B000080460D4616461F464046FFF7ECFC06F091
:102B10003F062846FFF76DFC3046FFF77AFC00249D
:102B200006E01F4901EB0711085DFFF7BCFC641CC0
:102B3000082CF6D3681CC0B2FFF75BFC3046FFF7E9
:102B400068FC082406E0164901EB0711085DFFF751
:102B5000AAFC641C102CF6D3BDE8F0812DE9F041ED
:102B600080460C4615461E464046FFF7E9FC2046C7
:102B7000FFF73FFC2846FFF74CFC002704E0FF204E
:102B8000FFF759FC781CC7B2F000B842F7DCBDE88B
:102B9000F0810000D2FE000072F20000A0010010DF
:102BA000800000103EB5044620780A2190FBF1F227
:102BB00001FB120021780A2291FBF2F140EA011098
:102BC000C0B28DF8040060780A2190FBF1F201FB9D
:102BD000120061780A2291FBF2F140EA0110C0B2C2
:102BE0008DF80500A0780A2190FBF1F201FB12009C
:102BF000A1780A2291FBF2F140EA0110C0B28DF8EF
:102C00000600E0780A2190FBF1F201FB1200E17866
:102C10000A2291FBF2F140EA0110C0B28DF80700E0
:102C200020790A2190FBF1F201FB120021790A229E
:102C300091FBF2F140EA0110C0B28DF80800607912
:102C40000A2190FBF1F201FB120061790A2291FB4B
:102C5000F2F140EA0110C0B28DF80900E088B0F549
:102C6000FA6F17DB9DF8090040F080008DF809002D
:102C7000E088A0F5FA60C5B20A2095FBF0F100FBF0
:102C800011500A2195FBF1F140EA0110C0B28DF814
:102C90000A0010E0E088A0F26C70C5B20A2095FB33
:102CA000F0F100FB11500A2195FBF1F140EA01100F
:102CB000C0B28DF80A00072001AB0222012100906A
:102CC000A220FDF7FBFF3EBD3EB50446072001AB49
:102CD000022201210090A220FDF7B1FF08B90020D7
:102CE0003EBD9DF8040000F00F009DF80410C1F3F4
:102CF000021101EB810100EB410020709DF80500FD
:102D000000F00F009DF80510C1F3021101EB8101E5
:102D100000EB410060709DF8060000F00F009DF888
:102D20000610C1F3011101EB810100EB4100A0701D
:102D30009DF8070000F00F009DF80710C1F3011186
:102D400001EB810100EB4100E0709DF8080000F00C
:102D500007009DF8081001F00701091101EB81013E
:102D600000EB410020719DF8090010F0800F1BD08E
:102D70009DF8090000F00F009DF80910C1F3001143
:102D800001EB810100EB410060719DF80A0000F049
:102D90000F009DF80A10091101EB810100EB4100C1
:102DA00000F5FA60E0801AE09DF8090000F00F00DD
:102DB0009DF80910C1F3001101EB810100EB410006
:102DC00060719DF80A0000F00F009DF80A100911CB
:102DD00001EB810100EB410000F26C70E08001200A
:102DE0007EE710B504462046FFF76EFF10BD1CB508
:102DF0000446012C02D10020019001E02020019026
:102E0000012001AB002201460090A220FDF756FFF1
:102E10001CBDFEB505460C460127082D3CD10220FD
:102E200002AB072201210090A220FDF708FF074016
:102E30009DF8080000F09F008DF80800B4F5FA6FC7
:102E40000BDA9DF8080040F080008DF80800A4F22D
:102E50006C70C0B28DF809000AE09DF8080020F0FF
:102E600080008DF80800A4F5FA60C0B28DF8090062
:102E70009DF809000A2190FBF1F201FB12009DF878
:102E800009100A2291FBF2F140EA0110C0B28DF85C
:102E900009000226072541E0072D2AD1012001ABB8
:102EA000072201460090A220FDF7C9FE07409DF8C9
:102EB000040000F080000190E0B28DF808009DF859
:102EC00008000A2190FBF1F201FB12009DF80810A6
:102ED0000A2291FBF2F140EA0110C0B28DF808001D
:102EE0009DF808009DF8041008438DF8080001269D
:102EF00014E0E0B28DF808009DF808000A2190FB6C
:102F0000F1F201FB12009DF808100A2291FBF2F188
:102F100040EA0110C0B28DF80800012602AB2A4633
:102F20000121A2200096FDF7C9FE07403846FEBDEC
:102F30001CB50446082C27D1022001AB0722012131
:102F40000090A220FDF77BFE08B900201CBD9DF873
:102F5000050000F00F009DF80510091101EB81013B
:102F600000EB4100C0B28DF805009DF8040010F0A0
:102F7000800F04D09DF8050000F26C70E6E79DF824
:102F8000050000F5FA60E1E7012001AB22460146A9
:102F90000090A220FDF753FEA01E062822D2DFE8F3
:102FA00000F004030B0C1A1300BF9DF8040000F09E
:102FB0007F008DF8040016E000BF9DF8040000F0CB
:102FC0003F008DF804000EE09DF8040000F01F00A3
:102FD0008DF8040007E09DF8040000F007008DF86C
:102FE000040000E000BF00BF9DF8040000F00F00E7
:102FF0009DF80410091101EB810100EB4100C0B202
:103000008DF804009DF80400A0E701B582B001200E
:1030100002AB0D2201460090A220FDF74FFE0EBD2F
:103020007CB504460D460020019014F0800F0CD1B1
:103030000A2095FBF0F100FB11500A2195FBF1F1FC
:1030400040EA0110C0B2019001E08020019004F03C
:103050000F04012001ABA21D01460090A220FDF744
:103060002DFE7CBD7CB504460D468DF804408DF8E0
:103070000550022001AB0E2201210090A220FDF795
:103080001DFE7CBD7CB504460020019004F080004C
:10309000802817D104F01F000190012001AB0246E7
:1030A00001460090A220FDF709FE012001AB024677
:1030B00001460090A220FDF7C2FD9DF8040000F03B
:1030C0001F007CBD04F0400040281AD1012001AB54
:1030D000024601460090A220FDF7B1FD9DF80400D4
:1030E00000F01F059DF8040000F01300019001207E
:1030F00001AB024601460090A220FDF7DFFD284605
:10310000DFE70020DDE710B50020FFF770FE40F29A
:10311000DD700E49C880012048711720C870032057
:1031200008710A208870092048701E20087008461F
:10313000FFF738FD40218120FFF794FF9120FFF732
:10314000A1FF0120FFF753FE10BD00001005001085
:10315000654800787047002063490870704710B5D3
:103160006248406910F4806F0CD16048406910F4E7
:10317000806F07D15E480068401C5D490860FEF71B
:103180004FFD10BD5948406910F4006F0AD15748EF
:10319000406910F4006F05D155484068401C5449FF
:1031A0004860EEE75148406910F0007F11D14F4868
:1031B000406910F0007F0CD14D488068401C4C499C
:1031C000886000F06FF908B900F0A9F8FEF728FD53
:1031D000D7E74648406910F0806F0CD143484069FA
:1031E00010F0806F07D14248C068401C4049C86059
:1031F000FEF716FDC5E73D48406910F0804F0CD141
:103200003A48406910F0804F07D139480069401CA6
:1032100037490861FEF704FDB3E73448406910F010
:10322000005F0CD13148406910F0005F07D1304891
:103230004069401C2E494861FEF7F2FCA1E700BF3F
:103240009FE710B52A480068052804D300202849C4
:103250000860042010BD26484068052812D30020CD
:10326000234948602148C06D40F008001F49C865E7
:10327000FEF7A5FEFEF79FFE0021084601F009F9C2
:103280000620E7E71A488068052804D3002018497B
:1032900088600520DEE71648C06805280FD30020A7
:1032A0001349C86001F097FB10B1FFF754FF04E029
:1032B0000D480078401C0C4908700120CAE70C48F2
:1032C0000069052804D30020094908610220C1E7EC
:1032D00007484069052804D30020054948610320B8
:1032E000B8E7FF20B6E700001805001000C009206D
:1032F000041F00106648C06D40F040006449C86576
:1033000070476348C06D40F020006149C865704750
:103310005F48C06D40F010005D49C86570475C486B
:10332000C06940F480305A49C86170475848C06944
:1033300040F400405649C86170475648006920F083
:103340000100544908615248006C40F04000504967
:1033500008640846806D40F04000886570474D481D
:10336000006920F001004B4908614948006C40F0B9
:103370002000474908640846806D40F020008865B9
:1033800070474448006920F0010042490861404804
:10339000006C40F010003E4908640846806D40F023
:1033A0001000886570473B48406820F001003949AB
:1033B00048603748006840F4803035490860084666
:1033C000806940F48030886170473248006820F09E
:1033D0008040304908602E48006840F400402C4985
:1033E00008600846806940F400408861704700B575
:1033F000FFF7EBFFFFF7D7FFFFF7C3FFFFF7AFFFC5
:10340000FFF79BFFFFF792FFFFF789FFFFF780FFB2
:10341000FFF777FFFFF76EFF00BD1D48806D40F09E
:1034200040001B49886570471948806D40F02000B6
:103430001749886570471648806D40F010001449A0
:10344000886570471248806940F48030104988616F
:1034500070470F48806940F400400D49886170470B
:1034600000B5FFF7F6FFFFF7EDFFFFF7E4FFFFF70B
:10347000DBFFFFF7D2FF00BD00B5FFF757FFFFF7F7
:103480004EFFFFF745FFFFF73CFFFFF733FF00BD9F
:1034900000C0092000C00240FD4908707047FD4986
:1034A00008707047FB4800787047FB4A115470471A
:1034B0000146F948405C7047F8490A68026049686B
:1034C00041607047F64A115470470146F448405C29
:1034D0007047F44A1154704710B500BF04F091FCD6
:1034E0000028FBD110BD2DE9F04106460D4600270E
:1034F000ED48EE490860822009680870EB480068D2
:103500004670092D1DD1E9480068E6490A68C0F8EF
:1035100002208988C180002407E0E4480168601C1B
:10352000085C3844C7B2601CC4B2072CF5DBDF4826
:10353000006807720920DE490870DC480068DD4930
:1035400008602A46D94801680120FEF776F8BDE8F0
:10355000F0810022D84800680078822807D0A52092
:10356000D64B18700120D64B187000207047D248F7
:1035700000684078382801D10120F7E7012106E0F2
:10358000CD480068405C1044C2B2481CC1B2082952
:10359000F6DB00BFC8480068007A904207D1A5203A
:1035A000C64B18700920C64B18700120DEE7A52015
:1035B000C24B18700120C24B18700020D6E770B5BE
:1035C00006460D4601240DE020460AF0CCFAA8423A
:1035D00006D120460AF0C7FAFF2801D0012070BDAD
:1035E000601CC4B2322CEFDD0020F8E770B5012476
:1035F0000FE020460AF0B7FA054620460AF0CDFB58
:1036000006462B4632462146AEA0FDF7FDFC601C67
:10361000C4B2322CEDDD70BD10B50BF0C3FA0BF067
:10362000CDFA322802DD01200BF0B9FA10BD2DE9E8
:10363000F04705460E4617469846DDF820904FF0B5
:10364000010AFF2D09D1FF2E07D1FF2F05D1B8F1B7
:10365000FF0F02D10220BDE8F08701241DE02046C3
:103660000AF0B6FBA84216D120460AF0B8FBB042D9
:1036700011D120460AF0BAFBB8420CD120460AF01C
:10368000BCFB404507D1B9F1000F03D0A9F80040B9
:103690004FF0000A03E0601CC4B2322CDFDD00BF33
:1036A0005046D8E72DE9FE434FF0FF3002908E4898
:1036B00000210160416012218C480BF056FDFEF79D
:1036C000AFFA0BF04BFA0746394689A0FDF79CFC90
:1036D0000AF050FA86B20AF083FA85B20BF06EFA5D
:1036E000044688A0FDF790FC31468DA0FDF78CFCC8
:1036F00021468FA0FDF788FC294691A0FDF784FCA8
:103700007A480A30FFF76DFBFCF7E4FDE1B20020D8
:10371000FFF755FF70B10BF02DFA07460BF060FA7A
:1037200080460020434602222146CDE9007006F083
:103730004BFE5EE102A8604F00903F68BB785E4F91
:103740003F68FA785C4F3F6839795B4F3F6878791A
:10375000FFF76DFF70B90BF00DFA07460BF040FA5A
:1037600080460020434603222146CDE9007006F042
:103770002BFE3EE102A8504F00903F68BB784E4FB1
:103780003F68FA784C4F3F6839794B4F3F687879FA
:10379000FFF74DFF02280ED10BF0ECF907460BF0B6
:1037A0001FFA80460020434607222146CDE90070DB
:1037B00006F00AFE1DE1322E0EDD0BF0DBF90746A6
:1037C0000BF00EFA80460020434605222146CDE943
:1037D000007006F0F9FD0CE1C82D0EDD0BF0CAF902
:1037E00007460BF0FDF9804600204346042221469F
:1037F000CDE9007006F0E8FDFBE00BF0BBF90746F1
:103800000BF0EEF980460020434606222146CDE922
:10381000007006F0D9FD0020344948703249087024
:10382000E0B23249887030494870E8B22F49C87018
:103830002D498870204800684079C8701E4800688B
:10384000007908711C480068C07848711A480068FF
:10385000807888711848006880792449C8712249A5
:10386000C871002021494871FF20887109F088FF44
:103870001E490870FF200872087134A0FDF7C4FBD0
:103880001A48018A35A0FDF7BFFB1848C17B6BE0E1
:1038900023050010330500102E0500103E05001012
:1038A000240500101C050010251F001050050010F5
:1038B00037050010380500105405001034050010BD
:1038C000350500102D3E696E666F3A3A25643A69F7
:1038D0006E7A6F6E653A25642C706172746E756DC8
:1038E0006265723A25640A005A050010381F0010FC
:1038F000476574436F6D526567466C61673A25642E
:103900000A0000003D3D3D636F6D70207265676782
:10391000696E6720696E666F2E2E2E2E2E2E0A007F
:10392000746F74616C5F6E756D733A25640A000084
:10393000706172746E756D6265723A25640A00007A
:10394000636972616464723A25640A002D2D3E3EFB
:103950007361766520686973743A0A0079656172EB
:103960003A25640A00000000FAA0FDF74DFBFC4870
:10397000417BFCA0FDF748FBF948017BFBA0FDF76C
:1039800043FBF748C17AFCA0FDF73EFBF448817A7F
:10399000FCA0FDF739FBFE49E0B20AF092F90021E4
:1039A00020460AF068FA09F0EBFE0746EC490AF0F7
:1039B00074FEE8B204F018FD0AF029F90AF055FA8D
:1039C0000AF01AFFF3A0FDF71FFBFFF725FE0BF02F
:1039D000D1F807460BF004F980460BF0EFF881466A
:1039E0000020434601224946CDE9007006F0ECFC78
:1039F00000BFFCF775FCFEF77EFBBDE8FE837CB5DF
:103A00004FF0FF300190EBA0FDF7FEFAFEF708F94A
:103A100001A8EF4D00902D68AB78ED4D2D68EA7848
:103A2000EB4D2D682979EA4D2D686879FFF7FFFD88
:103A300044B204BBBDF9040000281CDBBDF904102E
:103A4000E4A0FDF7E1FABDF80400C0B20AF08BF87B
:103A50000546BDF80400C0B20AF09FF90646DC48EE
:103A60000068C07943B2DA48006882792946304656
:103A700005F0F6FF05E00023FF221946184605F081
:103A8000EFFF7CBD0146FF2901D1012070470020D6
:103A9000FCE700B5CE4909684879FFF7F3FF98B114
:103AA000CB4909680879FFF7EDFF68B1C849096893
:103AB000C878FFF7E7FF38B1C54909688878FFF78C
:103AC000E1FF08B1012000BD0020FCE738B5044645
:103AD0004FF0FF302080BE4D00942D68AB78BC4D78
:103AE0002D68EA78BA4D2D682979B94D2D68687925
:103AF000FFF79DFD08B9012038BD0020FCE710B597
:103B0000FCF7C7FBFFF789FCFFF709FC10BD10B5F8
:103B10000446204604F048FC0221204604F0FFFB46
:103B200010BD10B50446204604F03EFC012120469D
:103B300004F0F5FB10BD10B504462146A9A0FDF721
:103B400063FA204604F01EFC0021204604F0E7FB47
:103B500010BD30B587B00446122181480BF005FB3B
:103B600060787F498870A078C870E07B48712079C0
:103B7000C8710846D4F80610C0F80A10D4F80A1024
:103B8000C0F80E10207C764908719BA0FDF73CFA26
:103B900061789EA0FDF738FAA1789FA0FDF734FA6E
:103BA000E17BA1A0FDF730FA2179A2A0FDF72CFA64
:103BB000217CA4A0FDF728FAFFF7A1FFA078FFF76A
:103BC000A6FF012000F001FF0120FFF768FC208A1A
:103BD000ADF800001222214602A80BF04FFA02A80D
:103BE0000FC803F062F8012000F070FC09F0C8FD76
:103BF00005465B490AF051FD0AF0FEFD07B030BDF5
:103C000030B587B00446122155480BF0AEFA607803
:103C100053498870A078C870E07B48712079C871DA
:103C20000846D4F80610C0F80A10D4F80A10C0F8F4
:103C30000E10207C4A49087186A0FDF7E5F96178ED
:103C400072A0FDF7E1F9A17873A0FDF7DDF9E17B42
:103C500075A0FDF7D9F9217976A0FDF7D5F9217C7A
:103C600078A0FDF7D1F9FFF7DFFBFCF720FB002080
:103C700000F012FC012803D00321002000F009FC11
:103C800000F027FCB8B9A078FFF74BFF042000F044
:103C90001DFC032000F099FE0320FFF700FC208AA2
:103CA000ADF800001222214602A80BF0E7F902A8A5
:103CB0000FC802F0FAFF09F063FD054628490AF033
:103CC000ECFC0AF099FD07B030BD70B505460C4616
:103CD000214667A0FDF798F92046FFF72CFF6948B9
:103CE000007828B1684A51781078224600F061FDCA
:103CF00000206449087065480078A0B1002063493D
:103D00000870FFF7FEFAFCF7D9FA032128460AF0FB
:103D100089FE322804D10022032128460AF079FEC8
:103D2000002000F052FE5A48007880B10020584927
:103D30000870FFF7E6FAFCF7C1FA032128460AF0FB
:103D400071FE312804D1002203212846A2E0A6E01A
:103D5000A2E000006D6F6E74683A25640A000000EE
:103D6000381F00106461793A25640A00686F757223
:103D70003A25640A000000006D696E7574653A2585
:103D8000640A00007365636F6E643A25640A00007C
:103D90005A0500102D3E3E736176652072656720DE
:103DA000696E666F207361766520746F20666C6142
:103DB00073680A003D3D3D3E3E3E7369676E616C2F
:103DC00020737472656E67746820746573740A007A
:103DD00054050010636F6D70206E756D3A25640A8E
:103DE000000000006E6F726D616C20636972616427
:103DF00064723A25640A00003D3D3D3D3D3E3E6112
:103E00006C61726D315F696E666F0A007061727409
:103E10003A2025640A000000636972616464723AA2
:103E20002025640A00000000617474723A20256441
:103E30000A000000646576747970653A2025640A8A
:103E40000000000076416E6E526F773A2025640ABA
:103E5000000000003D3D3D3D3D3E3E6661756C7499
:103E600020616C61726D5F696E666F0A0000000010
:103E70006E6F726D616C2C636972616464723A2555
:103E8000640A000022050010F2FE04002B05001059
:103E90002C0500100AF0BDFD002000F096FD70BD5D
:103EA00038B50025A148007800F00AFAA04908605A
:103EB000FFF74FFB01287DD1FDF79CF89C48006877
:103EC0004478362C1ED008DCA4F13000062872D2CB
:103ED000DFE800F0121314151617412C6CD006DC25
:103EE000382C10D0392C14D0402C64D114E0422C42
:103EF0007ED0512CF9D1F6E000BF00BF00BF00BF5B
:103F000000BF00BFF1E000F0BDFA8AA0FDF77CF829
:103F1000EBE0FDF767F8E8E089A0FDF775F8FFF73B
:103F2000B8FD18B18BA0FDF76FF8DEE06846FFF72B
:103F3000CDFD002878D0BDF90000002800DA38BD9A
:103F4000FDF76EFE012000F039FB09214020FFF74C
:103F5000CAFABDF9000009F099FF012805D1BDF9A1
:103F6000001080A0FDF750F8BFE0BDF9001082A05E
:103F7000FDF74AF8BDF8000081494870BDF800001F
:103F8000C0B209F0E6FE7E498870BDF80000C0B2FC
:103F900009F03AFF7A490871654800688079C8736A
:103FA00002204871BDF80000C0B2FDF7EDF8744979
:103FB000087402E0A0E097E06DE0881DFEF784FE43
:103FC0006F4881786FA0FDF71FF86D48C07B3328DC
:103FD0002BD10AF04CF998B90AF0E5FC80B16EA03B
:103FE000FDF712F86649BDF900000AF07AF800E022
:103FF00068E063480AF0ECF86148FFF7AAFD34E096
:10400000BDF9000009F084FF00B16EE0BDF90010B9
:1040100066A0FCF7F9FF5A49BDF900000AF061F803
:104020005748FFF796FD20E030E05548C07B322826
:1040300003D05348C07B312817D1BDF9000009F0E7
:1040400076FF28B1BDF9001061A0FCF7DDFF4CE060
:10405000BDF900105EA0FCF7D7FF4949BDF900008B
:104060000AF03FF84648FFF7CBFDFFF758F9304814
:104070000068807930280AD15CA0FCF7C5FF29468A
:10408000BDF80000C0B2FFF720FE00E02DE00020E8
:1040900000F094FA29E059A0FCF7B6FF05F0A1FE64
:1040A00010B1FFF7ACFC09E00AF058FD20B10AF0AE
:1040B00051FDFFF7F7FA01E0FDF7B2FD002000F037
:1040C0007DFA12E01A480068807930280AD0184832
:1040D00000688079312805D0154800688079322839
:1040E00000D000BF01E000E000BF00BF1048006842
:1040F00000210160416001720C48007800F0CAF8AC
:104100000A480078401C09490870084600781428BD
:1041100001D1002008703C480078A52804D1002077
:104120003A4908703849087000BF08E72A050010AE
:1041300054050010434D445F313339570A000000E5
:104140002D2D3E3E434D445F414C41524D21212196
:104150000A00000070736E20616C6C203078666617
:104160000A0000006E756D206973206D61736B65C8
:10417000643A25640A0000006E756D3A25640A00F1
:104180004A1F0010616C61726D2063697261646422
:10419000723A25640A0000002D2D2D3E3E3E6669D0
:1041A00072737420616C61726D0A00006E756D3AF5
:1041B0002564206861766564206669726520616C9B
:1041C00061726D65642066697273740A0000000094
:1041D0006E756D3A25642068617665642066617548
:1041E0006C7420616C61726D65640A006E6F726D33
:1041F000616C2073746174650A000000434D445F74
:10420000434F4D5245470A00340500103505001054
:104210000146ED48405C704710B50020EB4908703E
:104220000CE0EA480078FCF7E1FEE749E74A12783B
:104230008854E6480078401CE4490870E348007858
:104240000228EEDB10BD10B50020E049087011E037
:10425000DE480078FCF7CAFEDD49097801EBC101B0
:10426000DC4A1144D94A12788854D8480078401C56
:10427000D6490870D54800780928E9DBD448007889
:10428000401CD349087008460078142801D100204A
:10429000087010BD0021CD4A11700CE0002100EB28
:1042A000C002CC4B1A44C94B1B78D154C74909787A
:1042B000491CC64A1170C54909780929EEDB7047C7
:1042C000014601EBC100C34A10447047C248006870
:1042D000401CC14908607047BF4800687047BF482C
:1042E0000068401CBD4908607047BC4800687047C2
:1042F000BB490978882910D1002008E0B849095C39
:10430000B84A11540021B64A1154411CC8B20A28B7
:10431000F4DB0121B44A117015E0B149497A8929C9
:1043200011D100200AE0AE490A5C00F10A01AD4B50
:104330005A540021AA4A1154411CC8B20A28F2DB7F
:104340000221A94A117070477FB50025A648007860
:1043500002287CD10020A4490870002406E02046F1
:104360000AF081FB2844C5B2601CC4B29D48407865
:10437000401EA042F3DC9B4880782844C5B299488F
:104380000179C07801EB0010ADF80000BDF8000025
:10439000C2B2002128460AF070FB92488179407928
:1043A00001EB0010ADF80200BDF80200C2B201211D
:1043B00028460AF062FB8B48017AC07901EB0010B5
:1043C000ADF80400BDF80400C2B2022128460AF08C
:1043D00054FB8448817A407A01EB0010ADF8060066
:1043E000BDF80600C2B2032128460AF046FB7D480C
:1043F000017BC07A01EB0010ADF80800BDF80800A1
:10440000C2B2042128460AF038FB7648817B407B03
:1044100001EB0010ADF80A00BDF80A00C2B2052198
:1044200028460AF02AFB6F48017CC07B01EB001094
:10443000ADF80C00BDF80C00C2B2062128460AF007
:104440001CFB6848817C407C01EB001000E008E028
:10445000ADF80E00BDF80E00C2B2072128460AF0E2
:104460000CFB7FBD10B5FFF743FFFFF76DFF10BDDD
:104470005E480078401C5D490870704701205B4928
:1044800008707047002059490870704757480078F5
:104490007047574A1154704701465548405C704771
:1044A00001465448405C704753480078401C5249CC
:1044B0000870704750480078401E4F490870704798
:1044C0004D49087070474C48007870474B49087058
:1044D00070474A4800787047494908707047484813
:1044E0000078704747490870704746480078704721
:1044F00070B50025012410E0204609F02AFCA842EE
:1045000009DD204609F025FCFF2804DA204609F0E1
:1045100020FC054603E0601CC4B2322CECDD00BF79
:104520002846FFF7DFFF70BD70B5002536A0FCF709
:104530006BFD01241AE0204609F00BFCA84213DDB4
:10454000204609F006FCC8280EDC204609F001FCD4
:1045500006462246314631A0FCF756FD204609F0BA
:10456000F8FB064603F040FF601CC4B2322CE2DDCB
:1045700070BD10B5012404E000202E490855601CD0
:10458000C4B2322CF8DD002405E000212046FEF7FD
:1045900099FF601CC4B2032CF7DB0020FEF77FFFFD
:1045A0000020FEF779FF10BD012004E00021214A20
:1045B0001154411CC8B23228F8DD70471E490870FA
:1045C00070471D48007870476405001067050010AB
:1045D000660500105C1F0010680500106C050010D7
:1045E000102000101A200010700500107105001036
:1045F0007205001074050010760500107B05001090
:104600007C0500107D050010696E69742063697275
:104610006164647220696E666F0A000073657420BD
:10462000636972616464723A25642C636F6D703AD9
:1046300025640A002E2000107E05001039490870FC
:10464000704739480068401C374908607047364851
:1046500000687047002034490860704701203349E2
:104660000870704731480078704700202F49087063
:1046700070472F480078401C2D4908700846007884
:10468000C82801DDC82008707047294800787047A5
:10469000002027490870704726480078401C2549AB
:1046A000087008460078C82801DDC82008707047E7
:1046B00020480078704700201E490870704710B5E8
:1046C00009F0A3FD00282CDD1B4801780078401C70
:1046D000194A10701E2091FBF0F200FB121080B9F5
:1046E00016A0FCF791FCFFF7D0FF044621461AA064
:1046F000FCF78AFCFFF7DCFF044621461AA0FCF712
:1047000083FCFFF7C2FF32280BDD1BA0FCF77CFC0B
:10471000FFF7CEFF142804DD1BA0FCF775FC00F0AA
:10472000ADFD10BD8C05001084050010890500103A
:104730008D0500108E0500108F050010436C725F10
:10474000416C61726D3A68617665206669722061BC
:104750006C61726D730A0000786961206C6120766B
:10476000616C3A25640A0000776569206C612076E7
:10477000616C3A25640A00007869616C617369674D
:104780006E616C203E340A002D2D2D2D2D2D2D72A5
:104790006573657420616C61726D2073756363214C
:1047A00021210A00214A1154704701461F48405CEC
:1047B00070472DE9F04106460F4690460024FF2041
:1047C0001A490870487088700846C6700020087141
:1047D00048710120C8716E20887104200872084653
:1047E000477201208872C872084680F80C80002544
:1047F00006E00E49E81C085C204484B2681CC5B27F
:104800000A2DF6DB04F47F40C11700EB11610A1298
:10481000002102EB0121054A517311468C730F22CE
:104820000020FCF70AFFBDE8F081000060200010C6
:1048300010B50446082C21D2DFE804F02004080C4F
:104840001014181C012008F081F918E0022008F06B
:104850007DF914E0032008F079F910E0042008F055
:1048600075F90CE0052008F071F908E0062008F061
:104870006DF904E0072008F069F900E000BF00BF0F
:1048800010BD10B50446012C06D0022C08D0032C14
:104890000AD0042C10D10BE0012008F03BFC0CE006
:1048A000022008F037FC08E0032008F033FC04E0A5
:1048B000042008F02FFC00E000BF00BF10BD10B5C1
:1048C0000446012C04D0022C06D0032C0CD107E0A6
:1048D000012006F015FF08E0022006F011FF04E0B9
:1048E000032006F00DFF00E000BF00BF10BD10B5B3
:1048F0000446012C02D0022C08D103E0012008F06C
:10490000D1FD04E0022008F0CDFD00E000BF00BFB3
:1049100010BD000031490870704730480078401CD5
:104920002E49087070472D480078401E2B490870AA
:1049300070472A48007870472849487070472748D0
:104940004078401C25494870704724484078401EF4
:104950002249487070472148407870471F49887045
:1049600070471E488078401C1C49887070471B485F
:104970008078401E194988707047184880787047C1
:1049800017490870704716480078401C1449087091
:10499000704713480078401E114908707047002086
:1049A0000F49087070470E48007870470D4800782E
:1049B000401C0C49087070470A480078401E09499D
:1049C00008707047074800787047064908707047BC
:1049D000054908707047044800787047900500103A
:1049E0009305001094050010950500100020FC4967
:1049F000086070470020FB490860704710B5FFF75A
:104A000098FF012806D0022813D0032820D00528BB
:104A100035D12CE0FFF793FFFFF79DFF052802DD5E
:104A20000120FFF789FFFFF796FF0446FFF729FFF4
:104A300026E0FFF784FFFFF78EFF032802DD012049
:104A4000FFF77AFFFFF787FF0446FFF738FF17E00D
:104A5000FFF775FFFFF77FFF022802DD0120FFF758
:104A60006BFFFFF778FF0446FFF741FF08E0DEA089
:104A7000FCF7CAFA00F09CFF00F017FD00E000BF51
:104A800000BF10BD70B5FFF766FF012804D00228F3
:104A900003D003281FD11DE01EE00AF049FA0128C7
:104AA00006D10AF027FA002808DD0AF0E2F905E04D
:104AB0000AF032FA002801DD0AF025FA0AF02CFA91
:104AC00004460AF017FA054600231A46214604F068
:104AD000C7FF01E000E000BF00BF70BD0146481CF9
:104AE00070477CB5FFF737FF022802D003287CD13E
:104AF0000CE00AF0A9F9012802DD0AF09CF902E0B5
:104B000032200AF09EF900F054FE6FE008F038FE03
:104B1000B3490968491CB24A1160884217D908F0A4
:104B20002FFEAF490968401A441E08F029FE0546C9
:104B30002946B1A0FCF768FA2146B4A0FCF764FA54
:104B4000002C0ADBB849204609F07AFD05E0B7A041
:104B5000FCF75AFA06F003FF7CBDB3488178B8A091
:104B6000FCF752FAB048C178B8A0FCF74DFAAE484D
:104B7000C179BAA0FCF748FAAB484179BAA0FCF772
:104B800043FAA948018ABBA0FCF73EFAA648C17BBC
:104B9000BBA0FCF739FAA448417BBCA0FCF734FA6F
:104BA000A148017BBBA0FCF72FFA9F48C17ABCA0AB
:104BB000FCF72AFA9C48817ABCA0FCF725FA002071
:104BC000FDF7BEFC2046FFF789FFC5B296480A30C4
:104BD00095498978CDE900100A384379C279C178BE
:104BE000284607F04DF801E0FFE700BF00BF00BF17
:104BF000B2E72DE9FF470AF0C1F8062845D2DFE801
:104C000000F044030A1928360AF044F8002801DDB0
:104C10000AF03AF847E00AF05DF8012802DD0AF0F0
:104C200053F806E00AF056F8012802D10C200AF0E9
:104C300042F838E00AF05DF8012802DD0AF053F886
:104C400006E00AF056F8012802D11F200AF054F8B5
:104C500029E00AF063F8002802DD0AF059F805E0BF
:104C60000AF05CF810B918200AF049F81BE00AF0C5
:104C700067F8002802DD0AF05DF805E00AF060F848
:104C800010B93B200AF04DF80DE00AF06BF800284F
:104C900002DD0AF061F805E00AF064F810B93B2083
:104CA0000AF051F800BF00BF0AF068F804460AF0A5
:104CB00059F8C5B20AF044F8C7B20AF02FF800F06C
:104CC000FF080AF016F8C6B20AF004F800F0FF096F
:104CD00009F0E0FF82460120434632464946CDE9CD
:104CE0000075CDE90240504605F0ECFF09F0D2FF17
:104CF0007149C88009F0EEFF6F49487109F0F9FF6A
:104D00006D49C8700AF00AF86B4988700AF018F803
:104D1000694948700AF026F867490870BDE8FF87BE
:104D2000F8B509F0A2FF022802D0032816D10AE044
:104D300009F077FF012802DD09F06DFF02E0322063
:104D400009F072FF0BE009F081FF002802DD09F095
:104D500077FF02E0022009F06AFF00E000BF00BF19
:104D600009F083FF044609F071FF054609F059FF79
:104D7000064609F044FF0746102023462A463146DE
:104D80000090384605F0B0FCF8BD2DE9FC4109F073
:104D9000F1FE02280AD109F011FF012802DD09F015
:104DA00007FF02E0322009F0FAFE00E000BF00BF7A
:104DB00009F0E0FE044609F013FF054609F0FEFE87
:104DC000064609F0E9FE074600202B46024631461A
:104DD000CDE90040384605F0F7FABDE8FC81000057
:104DE000980500109C050010636C6F73652073704C
:104DF00065616B65720A0000686973746F7279206F
:104E00006E756D733A25640A000000002D2D2D3E4D
:104E10003E6C6F6F6B20686973746F727920787560
:104E200068616F3A25640A00381F00102D2D3E3E40
:104E3000686973746F7279206F7665720000000084
:104E4000706172743A25640A00000000636972633D
:104E50006C65616464723A25640A00006465767466
:104E60007970653A25640A00617474723A25640A9F
:104E700000000000796561723A25640A00000000B4
:104E80006D6F6E74683A25640A0000006461793AB7
:104E900025640A00686F75723A25640A00000000F4
:104EA0006D696E7574653A25640A00007365636FF9
:104EB0006E643A25640A0000A80500102DE9FF473A
:104EC00009F01AFE012804D0022810D003282AD1A4
:104ED0001BE0002009F003FE002803DD002009F09C
:104EE000F8FD03E00221002009F0DCFD1CE00120B8
:104EF00009F0F5FD002803DD012009F0EAFD03E0DB
:104F00000921012009F0CEFD0EE0022009F0E7FDA5
:104F1000002803DD022009F0DCFD03E00921022066
:104F200009F0C0FD00E000BF00BF09F007FE00F07F
:104F30001EFB044608F054FE844226D009F0DCFD36
:104F40000446022009F0EAFD0546012009F0E6FDCD
:104F50000646002009F0E2FD0746022009F0BFFDE9
:104F60008046012009F0BBFD8146002009F0B7FD15
:104F7000824603203B4642464946CDE90065CDE9DD
:104F80000240504607F0F0F925E009F0B5FD04466F
:104F9000022009F0C3FD0546012009F0BFFD0646C9
:104FA000002009F0BBFD0746022009F098FD80466D
:104FB000012009F094FD8146002009F090FD824611
:104FC00000203B4642464946CDE90065CDE9024016
:104FD000504607F0C9F9BDE8FF8710B5FFF7BBFCE5
:104FE000012806D0022807D0032808D004280CD1B5
:104FF00008E0FFF763FF09E0FFF7C7FE06E0FFF7F1
:105000008FFE03E0FFF7F5FD00E000BF00BF10BD1D
:1050100010B5FFF78EFC012806D0022807D0032820
:1050200008D004280AD108E0FFF7D7FF07E0FFF710
:1050300058FD04E0FFF726FD01E000E000BF00BFDF
:1050400010BD10B5FFF799FC012804D0022803D049
:10505000032803D101E002E001E000E000BF00BF4F
:1050600010BD000010B5FFF764FC07283CD2DFE854
:1050700000F03B04272B2F33370000F080FB01208A
:1050800007F064FD15200121814042094FF0E02323
:1050900003EB8202C2F8001100BF0021002807DAEA
:1050A000CA06140E5D4A00F00F031B1FD45403E020
:1050B000CA06130E5A4A135400BF00F0C1F814E098
:1050C000022007F043FD10E0032007F03FFD0CE055
:1050D000042007F03BFD08E0052007F037FD04E061
:1050E000062007F033FD00E000BF00BF0120FFF7FE
:1050F00023FC10BD10B5FFF72EFC012806D00228B6
:105100000BD0032812D004281ED116E0012008F08D
:1051100001F8012009F0EDFC17E0022007F0FAFF8A
:10512000022009F024FD09F015FD0EE0032007F030
:10513000F1FF022009F09CFD07E0042007F0EAFFE0
:10514000012009F012FE00E000BF00BF0120FFF7C0
:1051500005FC10BD10B5FFF7FEFB012804D00228A6
:1051600009D0032819D111E00020FDF7E9F9012049
:1051700006F0C6FA12E00020FDF7E2F9022006F080
:10518000BFFAFFF733FCFFF735FC07E00020FDF71F
:10519000D7F9032006F0B4FA00E000BF00BF0120F9
:1051A000FFF7DCFB10BD10B5FFF7D5FB012802D0DF
:1051B000022814D10CE0FEF75FF9002000F032F86D
:1051C000FCF7FDFEFCF7F7FE012008F06BF907E0A5
:1051D000002004F003FE022008F064F900E000BFA4
:1051E00000BF0120FFF7BAFB10BD10B5FFF7C5FBEC
:1051F000012806D0022805D0032804D0042806D1AF
:1052000004E005E004E0FFF7F1FB01E000E000BF8F
:1052100000BF0120FFF7A2FB10BD000018ED00E069
:1052200000E400E0FC4908707047FB4800787047D4
:1052300010B5FAA0FBF7E8FE0120FC49087010BD8C
:105240000020FA4908707047F8480078704710B598
:10525000FFF781FB0446FFF714FBFFF7E9FF10BDE2
:1052600010B5FFF778FB0446FFF729FB10BD10B51A
:10527000FFF771FB0446FFF73AFB10BD10B5FCF7D2
:10528000F4FE02F0C3FD0020FDF75AF90221382098
:10529000FEF729F902213820FEF725F9FEF731F84B
:1052A000FEF728F8FAF7FCFFFBF708F8002108469C
:1052B000FFF7EFF800210120FFF7EBF80020FFF7E0
:1052C00005F90020FFF781FB0120FFF723FB0120F8
:1052D000FFF720FB0020FEF7E2F808F0FAFEFCF7EB
:1052E0006EFEFFF7E8F9FFF7D3F907F07DFAFCF758
:1052F000D3FE40F6B830FDF701F810BD7FB5044687
:10530000CBA30FCB8DE80F000021684606F04EFFBF
:1053100005462B46102221460120FDF75BFA0221AB
:10532000684606F043FF05462B4620222146012011
:10533000FDF750FA0421684606F038FF05462B4673
:10534000302221460120FDF745FA0621684606F085
:105350002DFF05462B46002221460220FDF73AFA92
:105360000821684606F022FF05462B4610222146FA
:105370000220FDF72FFA0A21684606F017FF0546BE
:105380002B46202221460220FDF724FA7FBD10B5CE
:1053900001240020FDF7D4F80220FFF7AFFF4FF4FF
:1053A000FA60FCF7ABFF14E0A548406910F0007FFD
:1053B00009D100240220FFF708FBFFF7EAFA0120D9
:1053C000FFF7A8FA06E09E48406910F4806F00D00D
:1053D00000E0E9E700BF15E09948406910F0007F60
:1053E00009D100240220FFF7F0FAFFF7D2FA0120DA
:1053F000FFF790FA0BE0641C9148406910F4806F4D
:1054000000D104E08E48406910F4806FE4D100BF01
:105410001E2C46D90020FDF793F807F0C7FCFAF7D9
:1054200059FF08F09DFC0020FBF7AAF94FF48030EB
:10543000FBF7A6F94FF40030FBF7A2F94FF4403028
:10544000FBF79EF94FF48020FBF79AF94FF4002008
:10545000FBF796F94FF41020FBF792F94FF4202058
:10546000FBF78EF94FF43020FBF78AF94FF4402018
:10547000FBF786F94FF45020FBF782F94FF46020D8
:10548000FBF77EF94FF47020FBF77AF909F00BFA7D
:10549000FAF726FF0020FDF753F807F008FC07F0A5
:1054A000ACFB10BD67480078704710B5FFF7FAFFF6
:1054B00018B1012007F02CFC04E0002061490870BD
:1054C00007F026FC10BD10B5FFF7EFFF10BD10B5BB
:1054D0000446072C17D2DFE804F01604070A0D1063
:1054E0001300FFF7B4FE0FE0FFF7BAFE0CE0FFF782
:1054F000BEFE09E0FFF74BFF06E0FFF7E4FF03E025
:10550000FFF7BCFE00E000BF00BF10BD10B508F003
:1055100067FBFF2802D1962008F054FB08F060FBDF
:105520006421B0FBF1F0C4B22146002009F0BAFAC0
:1055300008F056FB6421B0FBF1F201FB12000A21D6
:10554000B0FBF1F42146012009F0ACFA08F048FB69
:105550006421B0FBF1F201FB12000A21B0FBF1F271
:1055600001FB12042146022009F09CFA10BD10B57F
:10557000002009F0B4FA642100FB01F4012009F0D5
:10558000AEFA0A2101FB0044022009F0A8FA2044E7
:1055900080B210BD10B5FFF7EAFFC82801DD09F0A1
:1055A00084FA10BD01202849087070472648007809
:1055B000704700202449087070472DE9FF47FFF726
:1055C000F1FFFFF7A3FFFFF7E5FF022009F0A6FABE
:1055D0000446012009F0A2FA0546002009F09EFACF
:1055E0000646022009F07BFA0746012009F077FA07
:1055F0008046002009F073FA8146002001213346DD
:105600003A46CDE90054CDE902104146484606F03D
:10561000ABFEBDE8FF870000A40500107365742091
:105620006E6F746520666C6167210A00A305001027
:10563000C7EBB0B4C8B7B6A8C9BEB3FD0000000040
:1056400000C00920A5050010A00500102DE9FC41AF
:1056500009F0B4FA322802DD002009F08EFA09F0D0
:1056600089FA044609F0BCFA054609F0A7FA06468D
:1056700009F092FA074600202B4602463146CDE952
:105680000040384604F0A0FE09F060FABDE8FC8155
:10569000F8B509F0EAFA044609F0D8FA054609F027
:1056A000C0FA064609F0ABFA0746002023462A4610
:1056B00031460090384605F017F8F8BD2DE9F04363
:1056C00087B005A8FDF700FBBDF81A0009F0D3FA72
:1056D0009DF8190009F0EFFA9DF8170009F00CFB8E
:1056E0009DF8160009F00BFB9DF8150009F019FB59
:1056F0009DF8140009F027FB09F034FBC4B209F04F
:105700001FFBC5B209F00AFBC6B209F0F2FAC7B234
:1057100009F0E0FA00F0FF0809F0BCFA8146002029
:10572000012133463A46CDE90054CDE90210414605
:10573000484605F0C7FA07B0BDE8F08310B5044647
:10574000012C06D0022C07D0032C08D0042C0CD13D
:1057500008E0FFF732FF09E0FFF778FF06E0FFF708
:1057600097FF03E0FFF7AAFF00E000BF00BF10BDF6
:105770000120F74908707047F5480078704700200D
:10578000F3490870704770B5FFF7F2FF0020FCF78F
:10579000D7FE09F035FB064608F0ECF9C4B208F074
:1057A0002BFA85B2002332462146284607F002F83C
:1057B00070BD2DE9FC4709F047FB044609F032FBB8
:1057C0000546214609F081F810B309F03DFB054676
:1057D00009F028FB0646294609F0C8F8044609F0F6
:1057E0003FFB0546E0B208F0B4FA0646E0B208F026
:1057F0000BFB074609F028FB804609F013FB8146A6
:1058000000233A464146CDE9006505F072F80FE005
:1058100009F01AFB044609F005FB05462220002189
:105820000B460A46CDE900102146284605F061F8EE
:10583000BDE8FC8730B587B0C6A0FBF7E5FB0020CC
:10584000FCF77EFEFFF7D2F8FFF7D4F807F098FFD9
:1058500018B906F03FF807B030BD07F091FF441EBD
:10586000002C03DB02A9204608F0EAFE9DF80A108E
:10587000BEA0FBF7C9FB9DF80B10BFA0FBF7C4FB54
:105880009DF80F10C0A0FBF7BFFB9DF80D10C1A045
:10589000FBF7BAFBBDF81810C1A0FBF7B5FB9DF8EC
:1058A0001710C2A0FBF7B0FB9DF81510C2A0FBF7C4
:1058B000ABFB9DF81410C2A0FBF7A6FB9DF81310DC
:1058C000C2A0FBF7A1FB9DF81210C3A0FBF79CFB45
:1058D0002046FFF703F9C5B20DF112009DF80A103A
:1058E000CDE900109DF80D309DF80F209DF80B10AC
:1058F000284606F0C5F900BFADE710B50446012CF7
:1059000004D0022C05D0032C09D105E0FFF73BFFA2
:1059100006E0FFF74EFF03E0FFF78CFF00E000BF5B
:1059200000BF10BD10B50020FCF70AFE0221382090
:10593000FDF7D9FDFDF794FD0120FFF773FCFCF79F
:105940002CFBFCF734FB43F69820FCF7D7FC06F061
:1059500087FF4FF4FA60FCF7D1FC0320FFF710F843
:105960000320FEF7D7FF0120FEF7E6FF01F021FF3D
:1059700010BD10B500231A461946184604F070F8F9
:10598000012004F02BFA10BD10B50446012C02D002
:10599000022C06D102E0FFF7C5FF03E0FFF7E9FFA5
:1059A00000E000BF00BF10BD01208E4908707047A5
:1059B00000208C49087070472DE9FF47FFF7D7FD9D
:1059C000C82801DD09F071F808F00AF90446FFF76C
:1059D000CEFD844227D109F08FF80446022009F059
:1059E0009DF80546012009F099F80646002009F0C7
:1059F00095F80746022009F072F88046012009F068
:105A00006EF88146002009F06AF8824604203B4681
:105A100042464946CDE90065CDE90240504606F0D0
:105A2000A3FCBDE8FF8709F067F80446022009F0EF
:105A300075F80546012009F071F80646002009F0C6
:105A40006DF80746022009F04AF88046012009F067
:105A500046F88146002009F042F8824602203B4683
:105A600042464946CDE90065CDE90240504606F080
:105A70007BFCFFF77CFDC4B2204608F0A3F808F0D9
:105A800053F809F039F80446022009F047F80546B2
:105A9000012009F043F80646002009F03FF80746C8
:105AA000022009F01CF88046012009F018F8814610
:105AB000002009F014F8824601203B464246494640
:105AC000CDE90065CDE90240504606F04DFC00BF2F
:105AD000A7E73EB544A207CA8DE8070006240021C7
