:020000040000FA
:10000000787D0010590200006102000063020000C8
:1000100065020000670200006902000000000000A5
:100020000000000000000000000000006B02000063
:100030006D020000000000006F020000E10A0000F5
:1000400073020000D71B0000EF1B0000051C00001E
:1000500073020000DB120000931100007302000025
:1000600073020000431F0000710D000073020000C6
:1000700073020000730200007302000073020000AC
:10008000730200007302000073020000EF21000001
:1000900073020000D9220000730200007302000006
:1000A000730200007302000073020000730200007C
:1000B000730200007302000073020000730200006C
:1000C00073020000730200007302000000F002F8E7
:1000D00000F0B2F80AA090E8000C82448344AAF130
:1000E0000107DA4501D100F0A7F8AFF2090EBAE82E
:1000F0000F0013F0010F18BFFB1A43F0010318475C
:10010000BC180500DC1805000A444FF0000C10F87C
:10011000013B13F0070408BF10F8014B1D1108BF85
:1001200010F8015B641E05D010F8016B641E01F825
:10013000016BF9D113F0080F1EBF10F8014BAD1C75
:100140000C1B09D16D1E58BF01F801CBFAD505E093
:1001500014F8016B01F8016B6D1EF9D59142D6D3ED
:10016000704700000023002400250026103A28BF15
:1001700078C1FBD8520728BF30C148BF0B60704719
:100180006E290FF0F58270290FF03884662910F07F
:100190004485652910F04185672910F03E85612965
:1001A000AFF3008003681B0A28BF41F08001692972
:1001B0000FF0A28264290FF09F8275290FF09C82B4
:1001C0006F290FF0C38378290FF00484E9290FF019
:1001D0005B83E4290FF05883F5290FF05583EF294D
:1001E0000FF0C083F8290FF003840368DB0928BFF0
:1001F00041F0800163290FF08E8773290FF09387F8
:10020000E3290FF09E87F3290FF0A38700207047A2
:100210001FB510F0FBFC0FF0EDFF040000200021E3
:1002200010F0DEFC401C60600020002110F0C2FCD9
:10023000E0601FBD10B510BD0FF0AFFF1146FFF716
:10024000E7FF00F027F810F08BF803B4FFF7F2FF98
:1002500003BC10F0D3F80000094880470948004764
:10026000FEE7FEE7FEE7FEE7FEE7FEE7FEE7FEE766
:10027000FEE7FEE704480549034A054B70470000C6
:1002800001030000CD000000787A0010787D001096
:10029000787A001000F08BF807F065FC03A000F0FE
:1002A000F5FE01E007F0C6FCFCE700003D3D3D3DEA
:1002B0003D68656C6C6F2031333920776972656CED
:1002C000657373206D6F643D3D3D3D3D3D3D3D3D5E
:1002D0003D0A000010B501F0EAFE07F0DDFE10BD9A
:1002E00010B501F0FBFE10BD7047704770470A68FB
:1002F00002F8010B0A60704770470B01FFFFFFFF18
:10030000002020217A4A116000BF7949096811F064
:10031000400FFAD00321774A11607749774AC2F833
:10032000A8114FF00001764A11604FF00101754AA3
:1003300011604FF00F01744A11604FF00101A2F1FA
:10034000040211604FF0AA01704A11604FF055018C
:100350006A4AC2F88C106B490968022906D000BFAE
:100360006B49096811F0806FFAD004E0002000E0CA
:10037000401C6428FCD90321664A11604FF0AA0191
:100380005E4AC2F88C104FF05501604A11604FF080
:100390000701614A11606149614A11604FF0000133
:1003A000604A116043F23A01544A1160704758485C
:1003B0000068C0F30160032868D15248006810F05B
:1003C000030006D0012823D002283FD003285CD1A7
:1003D00000E000BF4E480068C0F30E0000F10100CD
:1003E0004FEA40014548D0F88800C0F3074000F1CB
:1003F0000100B1FBF0F04C4900FB01F03D490968F8
:10040000C9B201F10101B0FBF1F0484908603CE0DC
:100410003F480068C0F30E0000F101004FEA4001C0
:100420003648D0F88800C0F3074000F10100B1FB66
:10043000F0F03F4900FB01F02E490968C9B201F113
:100440000101B0FBF1F0394908601EE03048006856
:10045000C0F30E0000F101004FEA40012748D0F838
:100460008800C0F3074000F10100B1FBF0F04FF449
:10047000FA4100FB01F01F490968C9B201F101010D
:10048000B0FBF1F02949086000BF2FE01D4800686B
:1004900010F0030006D0012810D0022819D003283C
:1004A00023D100E000BF13480068C0B200F1010092
:1004B0001D49B1FBF0F01D49086016E00D480068C9
:1004C000C0B200F101001A49B1FBF0F01749086011
:1004D0000BE008480068C0B200F101004FF4FA4197
:1004E000B1FBF0F01149086000BF00BF7047000089
:1004F000A0C10F4004C10F404010110000C00F40C8
:10050000ACC10F400CC10F4084C00F408CC00F40E5
:1005100088C00F4080C00F4008C10F40DEF7EFEFEA
:10052000C4C00F40C8C10F4000093D0000000010CA
:10053000001BB70070B931B9FE4AD26942F480326B
:10054000FC4BDA6116E0FB4A926942F48032F94BC7
:100550009A610FE001280DD131B9F64AD26942F013
:100560004002F44BDA6105E0F24A926942F040023F
:10057000F04B9A617047F048006840F48060EF49A2
:10058000C1F8C400EE48006820F48070EC490860AF
:100590000846006820F4007008600846006820F4EF
:1005A000806008600846006820F400600860084623
:1005B000006820F4805008600846006820F400506D
:1005C00008600846006820F480400860084600681B
:1005D00040F4004008600846006820F4803008605D
:1005E0000846006840F4003008600846006820F4BF
:1005F000802008600846006840F400200860CD486C
:10060000006840F01000CB4908600846006840F0E0
:10061000200008600846006840F040000860084676
:10062000C06940F01000C8610846806940F02000B1
:1006300088610846806940F0400088614FF00700FB
:10064000C04908604FF0020048604FF004000861A4
:10065000B848806940F04000B6498861704701465B
:10066000B848816000BFB748C06810F0100FFAD1D9
:10067000B4488068C0B2704700B50246AD48C06952
:1006800040F04000AB49C8611046FFF7E8FFA948B9
:10069000806940F04000A749886100BD00B502466E
:1006A000A448C06940F04000A249C861D0B2FFF739
:1006B000D6FFFF20FFF7D3FF03469E48806940F036
:1006C00040009C498861184600BD00B502460B46B3
:1006D0009848C06940F040009649C861D0B2FFF721
:1006E000BEFFD8B2FFF7BBFF9248806940F04000E0
:1006F0009049886100BD10B50520FFF7CFFF20F0BD
:100700007C0421460120FFF7E0FF0620FFF7B4FF3D
:100710008848806940F010008649886110BD10B596
:100720000520FFF7BBFF40F01C0421460120FFF726
:10073000CCFF0420FFF7A0FF7E48C06940F0100006
:100740007C49C86110BD00B505227A48C06940F0F7
:1007500040007849C8610520FFF781FFFF20FFF7BF
:100760007EFF03467348806940F04000714988610C
:1007700001E0501EC2B2002AFBDC03F0010000BD04
:1007800018B50446200C8DF80000200A8DF80100F1
:10079000E0B28DF80200FFF7AEFF6648C06940F096
:1007A00040006449C861D820FFF759FF9DF8000058
:1007B000FFF755FF9DF80100FFF751FF9DF802007C
:1007C000FFF74DFF5B48806940F040005949886160
:1007D00000BFFFF7B8FF0028FBD1FFF7A0FF18BD4F
:1007E00000B5FFF788FFC720FFF746FF00BFFFF700
:1007F000AAFF0028FBD1FFF792FF00BD38B50446E1
:100800000D46200C8DF80000200A8DF80100E0B2A2
:100810008DF80200FFF76FFF4648C06940F04000C6
:100820004449C8610220FFF71AFF9DF80000FFF756
:1008300016FF9DF80100FFF712FF9DF80200FFF779
:100840000EFF2846FFF70BFF3A48806940F0400052
:1008500038498861FFF763FF00BFFFF774FF002886
:10086000FBD138BDF8B504460D461646FFF743FFE9
:100870003048C06940F040002E49C861200C8DF816
:100880000000200A8DF80100E0B28DF8020002207D
:10089000FFF7E5FE9DF80000FFF7E1FE9DF801007F
:1008A000FFF7DDFE9DF80200FFF7D9FE002704E008
:1008B0002878FFF7D4FE781CC7B2B742F8DB1D4892
:1008C000806940F040001B498861FFF728FF00BFA6
:1008D000FFF739FF0028FBD1F8BD08B502461548DF
:1008E000C06940F040001349C861100C8DF8000049
:1008F000100A8DF80100D0B28DF802000320FFF736
:10090000AEFE9DF80000FFF7AAFE9DF80100FFF77C
:10091000A6FE9DF80200FFF7A2FEFF20FFF79FFE54
:1009200003460448806940F0400002498861184647
:1009300008BD000000C00920C4C00F4000C00F4027
:1009400000C0024000000340F8B504460D461646BC
:100950006048C06940F040005E49C861200C8DF8D5
:100960000000200A8DF80100E0B28DF8020003209B
:10097000FFF775FE9DF80000FFF771FE9DF801007E
:10098000FFF76DFE9DF80200FFF769FE002706E005
:10099000FF20FFF764FE05F8010B781CC7B2B742D1
:1009A000F6DB4C48806940F040004A49886100BF4E
:1009B000FFF7C9FE0028FBD1F8BD70B500BF0023CA
:1009C0002EE0A8B900BF444DED6805F01205022DD8
:1009D000F9D10D78404EB560491C00BF3E4DED6821
:1009E00005F01405042DF9D13B4DAD68ECB216E0CD
:1009F000012814D100BF394DED6805F01205022D14
:100A0000F9D10D78354EB560491C00BF334DED6806
:100A100005F01405042DF9D1304DAD68ECB25B1C26
:100A20009342CED370BD30B5002320E070B9FF24CF
:100A3000294DAC6000BF284CE46804F01404042C79
:100A4000F9D1254CA46801F8014B0FE001280DD124
:100A5000FF24224DAC6000BF204CE46804F0140475
:100A6000042CF9D11D4CA46801F8014B5B1C934286
:100A7000DCD330BD08B502461648C06940F04000DE
:100A80001449C861100C8DF80000100A8DF801009F
:100A9000D0B28DF802000B20FFF7E1FD9DF80000B9
:100AA000FFF7DDFD9DF80100FFF7D9FD9DF802007D
:100AB000FFF7D5FD0020FFF7D2FDFF20FFF7CFFDA8
:100AC00003460448806940F04000024988611846A6
:100AD00008BD000000C0092000800840000003405D
:100AE0000D480068401C0C4908607047704700BF03
:100AF000411EC9B20800FBD1704700B5024605E0AF
:100B0000F520FFF7F4FFF520FFF7F1FF1000A2F149
:100B10000102F5D100BD00000400001010B500284E
:100B200007DACA06140EF74A00F00F031B1FD4544D
:100B300003E0CA06130EF44A135410BD0146F348ED
:100B40000078012800D170470CE0002205E0EF4852
:100B50000078012800D1F6E7521C41F28830824229
:100B6000F5D3491E0029F0D10020ECE710B504466A
:100B7000E748006840F40020E649C1F8C400E648B0
:100B8000406820F07070E44948600846406840F0D2
:100B9000A07048604FF06C00E0498861E0488442F2
:100BA00000D90446DF48B0FBF4F0401C4008DB49A4
:100BB0000861DC48B0FBF4F0400848612C208861F3
:100BC000402008600A2000F0F1F94020D349086075
:100BD00018210620FFF7A2FF10BD10B50A2000F073
:100BE000E5F918210620FFF799FF10BD10B50A207E
:100BF00000F0E8F910BD10B50A2000F0E3F910BDCF
:100C000010B50A2000F0D2F94020C449086018212C
:100C10000620FFF783FF10BD03B50346C2480370EB
:100C200001A8C24908600120C14908600020C149EB
:100C30000870B64908702C20B849886160200860A7
:100C40001420FFF77BFF0CBD10B504460B46601C5B
:100C5000B5490870B54803600120B5490860002017
:100C6000B4490870A94908702C20B34988616020F4
:100C700008601420FFF762FF10BDF0B505460E4670
:100C80001446059F002F35D0012E07D1681CA649B8
:100C90000870AA4804600120A9490870022E07D1F3
:100CA000681CA1490870A54804600220A449087086
:100CB000032E0CD10E2000EAD4102844401C9A497F
:100CC0000870E0B29D49086001209D49087097486E
:100CD00003609748076001209649087000208B49FF
:100CE00008702C208D498861602008601420FFF76F
:100CF00025FFF0BD0020FCE7F0B505460E46144682
:100D0000059F002F32D0012E06D1874805708B48F1
:100D1000046001208A490870022E06D182480570BD
:100D200086480460022086490870032E0BD10E20ED
:100D300000EAD41028447C490870E0B27F4908607A
:100D400001207F49087079480360794807600220D4
:100D50007849087000206D4908702C206F4988611F
:100D6000602008601420FFF7E9FEF0BD0020FCE7DA
:100D70006A48406800F0F80010F0070F79D1C01001
:100D80000C2876D2DFE800F075061920B421B5B63C
:100D9000A5B7DEFC67480078012806D162480078D4
:100DA00000F0FE005D49886003E05F4800785B4921
:100DB0008860282059498861F6E05B4800785749E7
:100DC000886028208861EFE000BF5A480078E8B9C1
:100DD0005748006890B15548006800784F498860CE
:100DE00052480068401C5149086028204B498861DE
:100DF0004F480068401E4E49086007E010204749F0
:100E0000086028208861012040490870494800781E
:100E100001282FD14A48007802280DD147480068A0
:100E2000C0F307203D498860282088614448007845
:100E3000401E43490870B7E04148007801280CD1B2
:100E40003E480068C0B235498860282088613C4827
:100E50000078401E3A490870A6E03948007848B941
:100E600008202E4988612020086000203149087040
:100E70009AE098E02F480078022829D1304800787D
:100E8000002825DD2E48007802280DD12B48006867
:100E9000C0F307202149886028208861284800780D
:100EA000401E274908707FE02548007801280FD1AF
:100EB00022480068C0B2194988602820886120480B
:100EC0000078401E1E49087000201A4908706BE027
:100ED0006AE017480068012803D804200F49886198
:100EE00002E004200D49086028200C4988615BE07D
:100EF00000BF00BF00BF282008498861FF200349C8
:100F0000087051E018ED00E000E400E01C00001063
:100F1000C4C00F4000C00F4000C0024000C00140EC
:100F2000801A060000366E01080000101400001040
:100F3000180000101D00001000C005400C0000103B
:100F4000100000102448806824490968087023486C
:100F50000068401C2149086021480068401E204963
:100F6000086008460068012804D12C201A498861CD
:100F700005E005E00420184908602820886113E096
:100F80001548806815490968087014480068401CB5
:100F9000124908601020104908602820886101204B
:100FA0001049087000E000BF00BF704700F01F024A
:100FB0000121914042094FF0E02303EB8202C2F885
:100FC0000011704700F01F0201219140064A4309B9
:100FD00042F823107047000000C0014014000010C8
:100FE000180000101C00001080E100E010B500287F
:100FF00007DACA06140EF84A00F00F031B1FD45478
:1010000003E0CA06130EF54A135410BD002004E095
:101010000021F34A1154411CC8B20C28F8DB704778
:101020000020F049087070470146EF48405C704767
:10103000002004E00021EC4A1154411CC8B20928E8
:10104000F8DB7047024602290AD10A2A08D100BFFC
:10105000E648406910F0200FFAD00D20E34B1860ED
:1010600000BFE248406910F0200FFAD0DF4802606C
:101070000020704710B5044604E020780221FFF7F5
:10108000E1FF641C20780028F7D110BD0FB408B52B
:1010900003A80090D648009A02990EF0F7F9D448B8
:1010A000FFF7E8FF0020009001B05DF814FB10B5D9
:1010B0004FF40020FFF711FCCE4908700846007875
:1010C000FF2801D100200870CA480178CAA0FFF7A4
:1010D000DDFF10BD70B500242FE02146CBA0FFF747
:1010E000D5FF002522E004EBC401C1EB841101F51A
:1010F00080214819FFF7F1FB04EBC401C1EB841117
:10110000C54A1144485504EBC400C0EB8410114695
:10111000085C802808D104EBC400C0EB84101044A4
:10112000415DBEA0FFF7B2FF681CC5B2372DDADB08
:10113000BBA0FFF7ABFF601CC4B2322CCDDB70BD8F
:10114000024602EBC200C0EB8210B34B1844405C75
:10115000704710B5A4488178002002F014FAA24824
:10116000C178012002F00FFA9F480179022002F0B5
:101170000AFA9D484179032002F005FA9A488179DC
:10118000042002F000FA9848C179052002F0FBF92A
:1011900010BD38B593480078092843DAA1480068A3
:1011A0009149904A1278885408460078822805D1DF
:1011B0008C480078401C8B49087002E00020894967
:1011C000087089484078382807D100208549087080
:1011D00003F0AFF803F0CCF924E082480078092846
:1011E00020D100207F49087003F0A3F80DF0BEFE67
:1011F00028B1FFF7AEFF0921412002F0CEF908F037
:10120000D0FF78B10020784C0090A378E278217963
:10121000607902F066FA28B9FFF79BFF09214120A7
:1012200002F0BBF938BD80480078704710B502461F
:10123000FF2001210CE001EBC103C3EB8113764CCD
:1012400023449B78934201D1084603E04B1CD9B25A
:101250003229F0DD00BF10BD10B564480068734945
:10126000734A12888854084671490988405C2028CE
:101270000DD16F480088142809DD6C486C49098835
:10128000405C6C4908706A4800886B49088067496F
:1012900069480088C01C085C6E2811D16648008827
:1012A000801C085C60B964480088401C085C38B940
:1012B00000205F4908806049088001205A49087071
:1012C0005A495B4A1288885C0021FFF7BBFE5848E8
:1012D0000088401C5649088010BD10B504F05CF829
:1012E00010B1FFF7B9FF1DE0404800683C49534A80
:1012F0001278885408460078FF2805D14F480078B6
:10130000401C4E49087002E000204C4908703448E7
:10131000C07A832806D100204849087003F052F9AA
:10132000FFF774FE10BD70B54FF48020FFF728FA68
:10133000002417E0002511E004EBC402C2EB841284
:10134000354B1A44515D04EBC402C2EB841202F522
:1013500080225019FFF752FA681CC5B2372DEBDB1B
:10136000601CC4B2322CE5DB70BD2DE9F0414FF0BA
:1013700000080026002700252B480078012874D19A
:1013800000241AE02948005D1F2804D18021274A43
:10139000601D1154A0462548005D20B9444502DD7A
:1013A000701CC6B200E00026042E04D18721E01E86
:1013B0001E4A11540026601C84B2B4F5FA6FE1DBBA
:1013C000002471E01948005D80284FD11749A01C06
:1013D0000D5C322D34DD65E018ED00E000E400E046
:1013E000F81E001023000010FA13001000C0004087
:1013F000041F0010260000106E6F746520636F7567
:101400006E7465723A25640A0000000064617461BC
:10141000325B25645D3A000003140010256420004F
:101420000A0000000000014022000010200C001003
:101430001E000010F0130010200000102500001006
:1014400005B92FE0CC48015D05EBC500C0EB851068
:10145000CA4A0244CA4803780078401CDFF820C317
:101460008CF80000D15401271BE033E0012F18D184
:10147000C148015D05EBC500C0EB8510BF4A0244C1
:10148000BF4803780078401CDFF8F4C28CF80000F5
:10149000D154B948005D872803D100206146087007
:1014A000002700BF601C84B2B4F5FA6F8ADB002409
:1014B00004E00020B0490855601C84B2B4F5FA6F0E
:1014C000F7DBFFF730FF0020AE49087003F07EFF26
:1014D00003F05EFFBDE8F0812DE9F0410746884644
:1014E000002F4CD1A848006840F00800A749C1F877
:1014F000C400A748006820F0F000A549086008462D
:10150000006840F050000860A2480068C0F38116EF
:1015100036B1012E08D0022E09D0032E0BD000BF09
:101520009D48006884080AE09B48046807E09A48E0
:101530000068440803E098480068C40800BF00BF82
:10154000214696A0FFF7A2FD83209849C860200994
:10155000B0FBF8F5280A4860E8B208600320C860CC
:1015600007208860052000F0F2F801208F494860CC
:1015700020210520FFF73AFD0120BDE8F081012F71
:101580004DD18348006920F00F0081490861084669
:10159000006940F00A0008617E480068C0F3012637
:1015A00036B1012E08D0022E09D0032E0BD000BF79
:1015B0007948006884080AE07748046807E07648BC
:1015C0000068440803E074480068C40800BF00BF16
:1015D0007148016876A0FFF759FD214679A0FFF711
:1015E00055FD21467BA0FFF751FD83207E49C86051
:1015F0002009B0FBF8F5280A4860E8B2086003202B
:10160000C86007208860062000F0A1F80120764914
:10161000486008210620FFF7E9FC0120ADE7002023
:10162000ABE710B5052000F09EF8062000F09BF80F
:1016300010BD10B501205D4948606B494860052028
:1016400000F085F820210520FFF7D0FC062000F0EF
:101650007EF800210620FFF7C9FC10BD10B505205B
:1016600000F081F8062000F07EF810BD10B50120D2
:101670004E4948605C494860052000F068F8202128
:101680000520FFF7B3FC062000F061F800210620DA
:10169000FFF7ACFC10BD10B540B904E011F8013BF8
:1016A000424C2360521E002AF8D107E004E011F8F2
:1016B000013B4D4C2360521E002AF8D110BD00BFE3
:1016C0004949496911F0200FFAD04749086070472D
:1016D00010B5044604E014F8010B0021FFF7B2FC3A
:1016E00020780028F7D110BD00B5024603E012F8BB
:1016F000010BFFF7E4FF10780028F8D100BD00BF10
:101700003949496911F0010FFAD037490868704723
:1017100000BF2649496911F0010FFAD02349086832
:10172000704700B503460A4603E0FFF7E8FF01C330
:10173000521E002AF9D100BD00B503460A4603E057
:10174000FFF7E6FF01C3521E002AF9D100BD00F0E9
:101750001F020121914042094FF0E02303EB820276
:10176000C2F80011704700F01F02012191401F4A8A
:10177000430942F823107047200C00100314001096
:101780002400001022000010C4C00F4000C00F4011
:1017900000C00240A8C10F400000001075617274C3
:1017A000303A70636C6B3A25640A000000C0004058
:1017B00053797374656D4672657175656E63793AB8
:1017C00025640A0075617274313A70636C6B3A2556
:1017D000640A000075617274313A70636C6B3A256B
:1017E0003031306C640A00000000014080E100E00C
:1017F0006F48406820F001006D4948600846406825
:1018000020F0010048600846006820F001000860F0
:101810000846006820F0010008600846406820F093
:10182000010048600846406820F001004860084612
:10183000406820F0010048600846406820F0010040
:1018400048600846C06820F00100C8600846C068CB
:1018500020F00100C8600846C06820F00100C860A0
:101860000846C06820F00100C8600846C06820F043
:101870000100C8600846C06820F00100C860084642
:10188000C06820F00100C8600846C06820F0010070
:10189000C8600846C06820F00100C8600846C068FB
:1018A00020F00100C8600846C06820F00100C86050
:1018B0000846C06820F00100C8600846C06820F0F3
:1018C0000100C8600846C06820F00100C8600846F2
:1018D000006920F0010008610846006920F001005D
:1018E00008610846006920F00100086108460069A7
:1018F00020F0010008610846406848600846006919
:1019000020F0010008610846006920F0010008612C
:101910000846006920F0010008612648006840F48C
:10192000C200244908600846006820F4806008600E
:101930000846006820F4006008600846006820F04F
:10194000007008600846006820F080600860084663
:10195000006820F0005008600846006820F08040D1
:1019600008600846006A144908431249086208469C
:10197000006C40F45F7008640846806940F4C00061
:1019800088610846C06B0D4908430A49C863084688
:10199000C06D40F45E70C8650846806D40F401700B
:1019A00088650846806D40F0C0708865704700000B
:1019B00000C0024000C009200000FCFF0300E0015D
:1019C00010B5002807DACA06140EE74A00F00F0324
:1019D0001B1FD45403E0CA06130EE44A135410BD6F
:1019E00010B5044634B1012C0CD0022C12D0032CBB
:1019F00020D117E0012000F0A2F910210120FFF70B
:101A0000DFFF18E0022000F09AF930210220FFF7F2
:101A1000D7FF10E0032000F092F948210320FFF7E0
:101A2000CFFF08E0042000F08AF950210420FFF7DE
:101A3000C7FF00E000BF00BF10BD10B5044634B1C1
:101A4000012C08D0022C0AD0032C10D10BE001206D
:101A500000F081F90CE0022000F07DF908E003209D
:101A600000F079F904E0042000F075F900E000BF0F
:101A700000BF10BD70B505460C460DBBBC480068E4
:101A800040F00200BB49C1F8C4004FF000004FF025
:101A9000402108674FF0020048604FF001000860E5
:101AA0004FF000008860C860084684614FF0030072
:101AB00048614FF0010048604FF00000FFF790FFD1
:101AC000012D20D1AA48006840F00400A949C1F8BE
:101AD000C4004FF00000A84908674FF002004860BA
:101AE0004FF0010008604FF000008860C8600846B1
:101AF00084614FF0030048614FF00100FFF770FF71
:101B000001209D494860022D20D19948006840F489
:101B100080009849C1F8C4004FF000009749086759
:101B20004FF0020048604FF0010008604FF00000E5
:101B30008860C860084684614FF0030048614FF038
:101B40000200FFF74DFF01208C494860032D1DD195
:101B50008748006840F400008649C1F8C4004FF08F
:101B60000000874908674FF0020048604FF001000D
:101B700008604FF000008860C8600846846128460D
:101B80004861FFF72DFF01207D49486070BD7D4908
:101B9000087070477B480078401C7A49087070478D
:101BA0007848007870477849086070477648006840
:101BB000401C754908607047734800687047734857
:101BC0000088401C71490880704770490880704740
:101BD0006E480088704710B500F069FA06F02EFCD8
:101BE00001204FF04021086000F078FA10BD10B5D8
:101BF00000F05DFA06F0CDFC0F205F49086000F0B0
:101C00006DFA10BD10B501F0CCFA0F205B490860E9
:101C100010BD5F480068401C5D49086070470020A7
:101C20005B49086070475A48006870475948006827
:101C3000401C5849086070475648006870470020AB
:101C400054490860704700B55348406953490842F9
:101C500007D05148C06D40F400704F49C865FFF788
:101C6000EEFF00BD4C48806D40F400704A49886525
:101C7000002048490860704720B901214FF04022F8
:101C8000516010E0012803D101213B4A51600AE074
:101C9000022803D10121394A516004E0032802D10E
:101CA0000121374A5160704720B900214FF040228E
:101CB000516010E0012803D100212F4A51600AE051
:101CC000022803D100212D4A516004E0032802D1EB
:101CD00000212B4A51607047014631B94FF0402234
:101CE000506840F00200506016E0012905D1224AF8
:101CF000506840F0020050600EE0022905D11F4AF2
:101D0000506840F00200506006E0032904D11C4AEC
:101D1000506840F002005060704710B5FFF783FF35
:101D2000322802D101F0A9FB07E0FFF77CFF64280D
:101D300003D101F00FFBFFF772FF10BD704700F0F9
:101D40001F020121914042094FF0E02303EB820280
:101D5000C2F80011704700F01F0201219140104AA3
:101D6000430942F82310704718ED00E000E400E05A
:101D7000C4C00F4000C00F40008000400000094078
:101D8000004009402C00001030000010340000100A
:101D9000380000103C00001000C00920000C006654
:101DA00080E100E053480068704700F00301524AA8
:101DB00052F821104F4A11607047014601F00300AC
:101DC0004D4A52F8200070474C48006849F640419F
:101DD000B0FBF1F0704749480068400049F64041C7
:101DE000B0FBF1F070474548006849F64041B0FB50
:101DF000F1F000EB4000400070474048006849F6B1
:101E00004041B0FBF1F000EB8000800070473B48A0
:101E1000006849F64041B0FBF1F032214843704779
:101E20003648006849F64041B0FBF1F000EB800015
:101E3000000170473148006849F64041B0FBF1F0BD
:101E40006421484370472D48006849F64041B0FB83
:101E5000F1F0C8214843704729480068401C2849D0
:101E600008607047002026490860704724480068D1
:101E7000704724480068401C2249086070470020D1
:101E80002049086070471F48006870471E48006876
:101E9000401C1D490860704700201B4908607047BE
:101EA00019480068704718480068142801D30120B9
:101EB00070470020FCE7012014490870704700209B
:101EC0001249087070471148007870471048006840
:101ED00020F00100401C0E49086070470C48006863
:101EE000C0F3000070470A48006820F0010008496C
:101EF00008607047440000105800001000000010F7
:101F0000480000104C000010500000105400001059
:101F1000680000104348406910F0080F08D041489D
:101F2000006C40F008003F4908640820C86507E0DD
:101F30003C48006C40F008003A4908640820886575
:101F400070473949086810F0010F04D03749096813
:101F5000491C364A1160344909680143324A11600C
:101F6000704710B50020314908603148006840F0E2
:101F700040003049C1F8C4002F48006940F04000DB
:101F80002D4908614FF00200274948604FF00000DA
:101F9000C8604FF0010048614FF00000886108649C
:101FA0004FF0100008654FF0090000F02FF810BD49
:101FB00010B5092000F02AF810BD09200121814048
:101FC0001E4A430942F8231000BF7047164A906129
:101FD00001EB5002144B1A6410221A6570474FF43B
:101FE00080501149C864092048607047144800783F
:101FF000704701201249087070470020104908708E
:10200000704700200849C8644860704700F01F020C
:102010000121914042094FF0E02303EB8202C2F814
:102020000011704700C009200080014070000010BE
:10203000C4C00F4000C00F4000C0024080E100E07B
:102040006C00001010B5002807DACA06140E784A92
:1020500000F00F031B1FD45403E0CA06130E754A89
:10206000135410BD10B5152000F0CCF80021152038
:10207000FFF7E8FF10BD10B5152000F0CFF810BD38
:1020800010B56D48406820F440306B4948606B489B
:10209000006820F08070694908606948006840F075
:1020A00080706849C1F89000FFF7DCFF10BD10B5E3
:1020B000FFF7D4FAFFF7DFFF0020FFF7BEFC012097
:1020C000FFF7BBFC0220FFF7B8FCFEF78FFD4FF6D1
:1020D000FF705D490860FFF770FF10BD10B5FFF796
:1020E000C5FAFFF7BFFF0020FFF77AFC0120FFF7DA
:1020F00077FC0220FFF774FCFEF76FFD4FF0807055
:102100004F4908604F49C1F89400FFF751FF10BDD7
:1021100010B5FFF7B0FF0020FFF78FFC0120FFF79D
:102120008CFC0220FFF789FCFEF760FD4FF6FF7084
:1021300045490860FFF741FF10BD10B5FFF792FF5A
:102140000020FFF74DFC0120FFF74AFC0220FFF7BB
:1021500047FCFEF742FD4FF080703949086039496D
:10216000C1F89400FFF724FF10BD01203749087023
:102170007047002035490870704734480078704730
:1021800001203349087070470020314908707047BA
:102190002F48007870474FF080702E4908607047D4
:1021A0004FF080702649086070472748006825492D
:1021B000D1F8881040EA010023490860704722489E
:1021C00000682049D1F8841040EA01001E490860E7
:1021D000704710B5132000F015F828211320FFF7E1
:1021E00031FF10BD10B5132000F018F810BD10B568
:1021F000FFF75DFF022018490860FFF7B6FFFFF701
:102200006DFF10BD00F01F020121914042094FF007
:10221000E02303EB8202C2F80011704700F01F02B6
:10222000012191400D4A430942F8231070470000F4
:1022300018ED00E000E400E000C0024000C009200A
:1022400090800240008002408C80024074000010A8
:10225000750000109480024040C10F4080E100E012
:1022600010B52E48406820F440302C4948602C4876
:10227000006820F080702A4908602A48006840F011
:1022800080702949C1F890000846D0F8940040F0C9
:102290008070C1F894004FF015004FF0010101FA71
:1022A00000F14FEA50124FF0E02303EB8202C2F834
:1022B000001100BF4FF00001002807DACA06140E13
:1022C0001A4A00F00F031B1FD45403E0CA06130E72
:1022D000174A135400BF10BD10B51648006810F01F
:1022E000807F08D00DF036F8012005F02CFE01208B
:1022F00005F016FE0AE01048006810F0807F05D057
:10230000002005F020FE022005F00AFE0B480068C0
:1023100040F080700449C1F88C0010BD00C002403C
:1023200000C00920908002400080024018ED00E0CB
:1023300000E400E084800240888002408C800240FB
:10234000014606E040F6B83200E0521E002AFCDCEE
:10235000491E0029F6DC704710B50146002000BF79
:1023600021E0FE4A126A00F1180301249C40224336
:10237000FA4B1A62012282400A4209D01A46526B75
:1023800000F1180301249C402243F44B5A6308E0F7
:10239000F24A526B00F1180301249C40A243EF4B18
:1023A0005A63421CD0B20828DBDB10BD10B5EB48E5
:1023B000C06B40F48020E949C8630846806B40F454
:1023C0000020886300BF0020FFF7C6FFE348806B52
:1023D00040F48010E14988630846C06B40F48010E7
:1023E000C8630846006A20F4004008620846406B53
:1023F00000200446002CE6D110BD10B50446FFF7BE
:10240000D5FFD648C06B40F48020D449C863084645
:10241000C06B40F40020C8632046FFF79DFFCF4803
:10242000806B40F48010CD4988630846C06B40F44F
:102430008010C86310BD10B5044644F0B8042046AF
:10244000FFF7DBFF10BD10B5044644F0C004204682
:10245000FFF7D3FF10BD10B5044604F03F0444F06D
:1024600040042046FFF7C9FF10BD10B5044644F0F4
:102470003E042046FFF7C1FF10BD10B50446FFF72C
:1024800095FFB648806B40F48020B44988630846C5
:10249000C06B40F40020C8632046FFF75DFFAF48E3
:1024A000806B40F48010AD4988630846C06B40F4EF
:1024B0008010C86310BD10B50446FFF777FFA7482A
:1024C000806B40F48020A54988630846C06B40F4C7
:1024D0000020C8630846806B40F48010886308467B
:1024E000C06B40F48010C86310BD10B50446FFF700
:1024F0005DFF9A48806B40F48020984988630846C5
:10250000C06B40F40020C863E043C4B22046FFF72C
:1025100023FF9248806B40F48010904988630846FE
:10252000C06B40F48010C86310BD20B101280ED0EC
:10253000022824D117E08949896B41F40011874AA8
:1025400091631146896B41F48001916318E08349DE
:10255000896B41F40011814A91631146C96B41F4C2
:102560008001D1630CE07D49C96B41F400117B4AC5
:10257000D1631146896B41F48001916300E000BF93
:1025800000BF704770B506463046FFF7CEFF002407
:1025900010E02046FFF74FFF0020FFF75CFF00250B
:1025A00004E00020FFF769FF681CC5B2402DF8DB8E
:1025B000601CC4B2082CECDB70BD70B5064630461A
:1025C000FFF7B3FF002410E02046FFF734FF0020A0
:1025D000FFF741FF002504E00020FFF74EFF681CD5
:1025E000C5B20A2DF8DB601CC4B2072CECDB70BD51
:1025F000002107E0002201E0531CDAB26E2AFBDB67
:102600004B1CD9B28142F5DB70470146002006E041
:10261000002000E0401C41F288329042FAD30A00C8
:10262000A1F10101F4D1704700B5FFF7BFFE002012
:10263000FFF77BFF0020FFF718FF0020FFF775FF73
:102640000120FFF712FF0020FFF76FFF0020FFF7C8
:1026500099FF0020FFF7F7FE00BD70472DE9F04716
:1026600088B082460F46904699465046FFF75DFF78
:1026700008F03F083846FFF7DEFE4046FFF7EBFE66
:10268000374E09F0FF00A138A121C1EB2921C1EB90
:10269000011202EB411100EB410006EB4016002451
:1026A00008E016F8010B04A9085500200DF80400F5
:1026B000601CC4B2102CF4DB002518E0002412E0EA
:1026C00004A810F81400C5F1070201219140084246
:1026D00007D01DF805100120A0400844C0B20DF835
:1026E0000500601CC4B2082CEADB681CC5B2082DCA
:1026F000E4DB00251EE0002418E0012000EB44008C
:1027000004A9085CC5F107020121914008420BD0E1
:1027100005F108001DF800100120A0400844C1B2D6
:1027200005F108000DF80010601CC4B2082CE4DBB1
:10273000681CC5B2082DDEDB002405E01DF804008E
:10274000FFF7D3FE601CC4B2102CF7DB781CC0B2BC
:10275000FFF771FE4046FFF77EFE03E000C0092050
:102760007E180100002408E016F8010B04A90855A2
:1027700000200DF80400601CC4B2102CF4DB00250E
:1027800018E0002412E004A810F81400C5F10702B4
:1027900001219140084207D01DF805100120A040FA
:1027A0000844C0B20DF80500601CC4B2082CEADB76
:1027B000681CC5B2082DE4DB00251EE0002418E0EB
:1027C000012000EB440004A9085CC5F107020121C7
:1027D000914008420BD005F108001DF800100120BF
:1027E000A0400844C1B205F108000DF80010601CBB
:1027F000C4B2082CE4DB681CC5B2082DDEDB002463
:1028000005E01DF80400FFF770FE601CC4B2102C38
:10281000F7DB08B0BDE8F0872DE9F04788B08246C5
:102820000F46904699465046FFF77FFE08F03F0856
:102830003846FFF700FE4046FFF70DFEE64E09F072
:10284000FF00A138A121C1EB2921C1EB011202EB4C
:10285000411100EB410006EB4016002408E016F899
:10286000010B04A9085500200DF80400601CC4B237
:10287000102CF4DB002518E0002412E004A810F866
:102880001400C5F1070201219140084207D01DF84C
:1028900005100120A0400844C0B20DF80500601CDE
:1028A000C4B2082CEADB681CC5B2082DE4DB0025A5
:1028B0001EE0002418E0012000EB440004A9085C9D
:1028C000C5F107020121914008420BD005F1080033
:1028D0001DF800100120A0400844C1B205F1080015
:1028E0000DF80010601CC4B2082CE4DB681CC5B2F3
:1028F000082DDEDB002405E01DF80400FFF7BDFD18
:10290000601CC4B2102CF7DB781CC0B2FFF793FD3B
:102910004046FFF7A0FD002408E016F8010B04A9CB
:10292000085500200DF80400601CC4B2102CF4DB24
:10293000002518E0002412E004A810F81400C5F1E6
:10294000070201219140084207D01DF8051001201F
:10295000A0400844C0B20DF80500601CC4B2082CA9
:10296000EADB681CC5B2082DE4DB00251EE000246C
:1029700018E0012000EB440004A9085CC5F107023F
:102980000121914008420BD005F108001DF800100C
:102990000120A0400844C1B205F108000DF8001064
:1029A000601CC4B2082CE4DB681CC5B2082DDEDB59
:1029B000002405E01DF80400FFF75FFD601CC4B2B1
:1029C000102CF7DB08B0BDE8F0872DE9F041804618
:1029D0000D4616461F464046FFF7A7FD06F03F0688
:1029E0002846FFF728FD3046FFF735FD002407E0B5
:1029F000202101FB0741794A505CFFF73EFD641C32
:102A0000102CF5D3681CC0B2FFF715FD3046FFF758
:102A100022FD002408E0202101FB074110316F4A0C
:102A2000505CFFF72AFD641C102CF4D3BDE8F08144
:102A30002DE9F04107460D46164698463846FFF701
:102A400074FD06F03F062846FFF7F5FC3046FFF719
:102A500002FD002400E0641C102CFCD3681CC0B2F2
:102A6000FFF7E9FC3046FFF7F6FC002400E0641CA9
:102A7000102CFCD3BDE8F0812DE9F04180460D46D5
:102A800016461F464046FFF750FD06F03F06284613
:102A9000FFF7D1FC3046FFF7DEFC002407E01021F1
:102AA00001FB07414E4A505CFFF7E7FC641C082C11
:102AB000F5D3681CC0B2FFF7BEFC3046FFF7CBFC75
:102AC000002408E0102101FB07410831444A505C12
:102AD000FFF7D3FC641C082CF4D3BDE8F0817047E9
:102AE0002DE9F04180460D4616461F464046FFF749
:102AF0001CFD06F03F062846FFF79DFC3046FFF719
:102B0000AAFC002406E0374901EB0711085DFFF736
:102B1000B4FC641C082CF6D3681CC0B2FFF78BFC15
:102B20003046FFF798FC082406E02E4901EB071118
:102B3000085DFFF7A2FC641C102CF6D3BDE8F08101
:102B40002DE9F04180460D4616461F464046FFF7E8
:102B5000ECFC06F03F062846FFF76DFC3046FFF719
:102B60007AFC002406E01F4901EB0711085DFFF71E
:102B7000BCFC641C082CF6D3681CC0B2FFF75BFCDD
:102B80003046FFF768FC082406E0164901EB071100
:102B9000085DFFF7AAFC641C102CF6D3BDE8F08199
:102BA0002DE9F04180460C4615461E464046FFF78B
:102BB000E9FC2046FFF73FFC2846FFF74CFC0027C6
:102BC00004E0FF20FFF759FC781CC7B2F000B842C0
:102BD000F7DCBDE8F08100007E1801001E0C01004A
:102BE000A0010010800000103EB5044620780A21A4
:102BF00090FBF1F201FB120021780A2291FBF2F125
:102C000040EA0110C0B28DF8040060780A2190FB00
:102C1000F1F201FB120061780A2291FBF2F140EA25
:102C20000110C0B28DF80500A0780A2190FBF1F2E6
:102C300001FB1200A1780A2291FBF2F140EA011097
:102C4000C0B28DF80600E0780A2190FBF1F201FB9A
:102C50001200E1780A2291FBF2F140EA0110C0B2C1
:102C60008DF8070020790A2190FBF1F201FB120098
:102C700021790A2291FBF2F140EA0110C0B28DF8ED
:102C8000080060790A2190FBF1F201FB12006179E2
:102C90000A2291FBF2F140EA0110C0B28DF809005E
:102CA000E088B0F5FA6F17DB9DF8090040F080006E
:102CB0008DF80900E088A0F5FA60C5B20A2095FBFE
:102CC000F0F100FB11500A2195FBF1F140EA0110EF
:102CD000C0B28DF80A0010E0E088A0F26C70C5B2B6
:102CE0000A2095FBF0F100FB11500A2195FBF1F150
:102CF00040EA0110C0B28DF80A00072001AB0222A1
:102D000001210090A220FDF7F7FF3EBD3EB504462D
:102D1000072001AB022201210090A220FDF7ADFFA8
:102D200008B900203EBD9DF8040000F00F009DF89A
:102D30000410C1F3021101EB810100EB410020708E
:102D40009DF8050000F00F009DF80510C1F3021179
:102D500001EB810100EB410060709DF8060000F07E
:102D60000F009DF80610C1F3011101EB810100EB8A
:102D70004100A0709DF8070000F00F009DF80710BB
:102D8000C1F3011101EB810100EB4100E0709DF8FE
:102D9000080000F007009DF8081001F00701091174
:102DA00001EB810100EB410020719DF8090010F05A
:102DB000800F1BD09DF8090000F00F009DF809104E
:102DC000C1F3001101EB810100EB410060719DF83E
:102DD0000A0000F00F009DF80A10091101EB8101B3
:102DE00000EB410000F5FA60E0801AE09DF8090070
:102DF00000F00F009DF80910C1F3001101EB8101F3
:102E000000EB410060719DF80A0000F00F009DF892
:102E10000A10091101EB810100EB410000F26C7016
:102E2000E08001207EE710B504462046FFF76EFFE4
:102E300010BD1CB50446012C02D10020019001E018
:102E400020200190012001AB002201460090A22029
:102E5000FDF752FF1CBDFEB505460C460127082DA7
:102E60003CD1022002AB072201210090A220FDF7F5
:102E700004FF07409DF8080000F09F008DF808004F
:102E8000B4F5FA6F0BDA9DF8080040F080008DF879
:102E90000800A4F26C70C0B28DF809000AE09DF839
:102EA000080020F080008DF80800A4F5FA60C0B298
:102EB0008DF809009DF809000A2190FBF1F201FB51
:102EC00012009DF809100A2291FBF2F140EA01106C
:102ED000C0B28DF809000226072541E0072D2AD14E
:102EE000012001AB072201460090A220FDF7C5FE9C
:102EF00007409DF8040000F080000190E0B28DF8DA
:102F000008009DF808000A2190FBF1F201FB120075
:102F10009DF808100A2291FBF2F140EA0110C0B2BC
:102F20008DF808009DF808009DF8041008438DF8FE
:102F30000800012614E0E0B28DF808009DF80800B2
:102F40000A2190FBF1F201FB12009DF808100A2201
:102F500091FBF2F140EA0110C0B28DF808000126A1
:102F600002AB2A460121A2200096FDF7C5FE0740CC
:102F70003846FEBD1CB50446082C27D1022001AB03
:102F8000072201210090A220FDF777FE08B900205A
:102F90001CBD9DF8050000F00F009DF805100911FB
:102FA00001EB810100EB4100C0B28DF805009DF8F6
:102FB000040010F0800F04D09DF8050000F26C7042
:102FC000E6E79DF8050000F5FA60E1E7012001ABB6
:102FD000224601460090A220FDF74FFEA01E0628C3
:102FE00022D2DFE800F004030B0C1A1300BF9DF897
:102FF000040000F07F008DF8040016E000BF9DF88B
:10300000040000F03F008DF804000EE09DF804007D
:1030100000F01F008DF8040007E09DF8040000F0A8
:1030200007008DF8040000E000BF00BF9DF8040019
:1030300000F00F009DF80410091101EB810100EB75
:103040004100C0B28DF804009DF80400A0E701B56E
:1030500082B0012002AB0D2201460090A220FDF7B4
:103060004BFE0EBD7CB504460D460020019014F0C9
:10307000800F0CD10A2095FBF0F100FB11500A21C2
:1030800095FBF1F140EA0110C0B2019001E080200F
:10309000019004F00F04012001ABA21D0146009035
:1030A000A220FDF729FE7CBD7CB504460D468DF8B7
:1030B00004408DF80550022001AB0E220121009042
:1030C000A220FDF719FE7CBD7CB5044600200190CE
:1030D00004F08000802817D104F01F000190012027
:1030E00001AB024601460090A220FDF705FE01203B
:1030F00001AB024601460090A220FDF7BEFD9DF8FF
:10310000040000F01F007CBD04F0400040281AD1EC
:10311000012001AB024601460090A220FDF7ADFD63
:103120009DF8040000F01F059DF8040000F0130056
:103130000190012001AB024601460090A220FDF75C
:10314000DBFD2846DFE70020DDE710B50020FFF7B4
:1031500070FE40F2DD700E49C880012048711720D2
:10316000C870032008710A208870092048701E204A
:1031700008700846FFF738FD40218120FFF794FFD3
:103180009120FFF7A1FF0120FFF753FE10BD0000C3
:1031900010050010654800787047002063490870EA
:1031A000704710B56248406910F4806F0CD16048D8
:1031B000406910F4806F07D15E480068401C5D498B
:1031C0000860FEF74FFD10BD5948406910F4006FCC
:1031D0000AD15748406910F4006F05D1554840683E
:1031E000401C54494860EEE75148406910F0007FA8
:1031F00011D14F48406910F0007F0CD14D488068D4
:10320000401C4C49886000F0A7F908B900F0A9F803
:10321000FEF728FDD7E74648406910F0806F0CD1D3
:103220004348406910F0806F07D14248C068401C95
:103230004049C860FEF716FDC5E73D48406910F0FB
:10324000804F0CD13A48406910F0804F07D139487F
:103250000069401C37490861FEF704FDB3E73448B4
:10326000406910F0005F0CD13148406910F0005FF8
:1032700007D130484069401C2E494861FEF7F2FCF6
:10328000A1E700BF9FE710B52A480068052804D3CE
:10329000002028490860042010BD26484068052801
:1032A00012D30020234948602148C06D40F0080037
:1032B0001F49C865FEF7A5FEFEF79FFE00210846E0
:1032C00001F05DF90620E7E71A488068052804D375
:1032D0000020184988600520DEE71648C0680528E8
:1032E0000FD300201349C86001F01DFC10B1FFF797
:1032F00054FF04E00D480078401C0C490870012080
:10330000CAE70C480069052804D300200949086170
:103310000220C1E707484069052804D30020054979
:1033200048610320B8E7FF20B6E700001805001049
:1033300000C00920841F00106648C06D40F04000A6
:103340006449C86570476348C06D40F0200061491A
:10335000C86570475F48C06D40F010005D49C865A2
:1033600070475C48C06940F480305A49C861704772
:103370005848C06940F400405649C86170475648F3
:10338000006920F00100544908615248006C40F087
:103390004000504908640846806D40F04000886550
:1033A00070474D48006920F001004B4908614948C9
:1033B000006C40F02000474908640846806D40F0EA
:1033C0002000886570474448006920F001004249A8
:1033D00008614048006C40F010003E49086408460F
:1033E000806D40F01000886570473B48406820F0D1
:1033F0000100394948603748006840F48030354959
:1034000008600846806940F480308861704732481F
:10341000006820F08040304908602E48006840F481
:1034200000402C4908600846806940F400408861EB
:10343000704700B5FFF7EBFFFFF7D7FFFFF7C3FFBC
:10344000FFF7AFFFFFF79BFFFFF792FFFFF789FF43
:10345000FFF780FFFFF777FFFFF76EFF00BD1D4806
:10346000806D40F040001B49886570471948806DA9
:1034700040F020001749886570471648806D40F07D
:1034800010001449886570471248806940F4803004
:103490001049886170470F48806940F400400D4929
:1034A0008861704700B5FFF7F6FFFFF7EDFFFFF704
:1034B000E4FFFFF7DBFFFFF7D2FF00BD00B5FFF72A
:1034C00057FFFFF74EFFFFF745FFFFF73CFFFFF702
:1034D00033FF00BD00C0092000C002401948006849
:1034E00020F00100174908600846006820F002003B
:1034F00008601548006840F003001349086008465A
:10350000C06940F00300C86170470F48806940F00F
:1035100001000D49886170470B48C06940F0010007
:103520000949C86170470848806940F002000649AF
:10353000886170470448C06940F002000249C861D0
:103540007047000000C0024000C00920FD4908701B
:103550007047FD4908707047FB4800787047FB4A88
:10356000115470470146F948405C7047F8490A68B1
:103570000260496841607047F64A1154704701463D
:10358000F448405C7047F44A1154704710B500BFCE
:1035900004F07DFD0028FBD110BD2DE9F041064669
:1035A0000D460027ED48EE49086082200968087042
:1035B000EB4800684670092D1DD1E9480068E649CE
:1035C0000A68C0F802208988C180002407E0E44826
:1035D0000168601C085C3844C7B2601CC4B2072C88
:1035E000F5DBDF48006807720920DE490870DC4817
:1035F0000068DD4908602A46D94801680120FEF7C5
:103600004AF8BDE8F0810022D84800680078822896
:1036100007D0A520D64B18700120D64B187000207B
:103620007047D24800684078382801D10120F7E778
:10363000012106E0CD480068405C1044C2B2481C3D
:10364000C1B20829F6DB00BFC8480068007A904282
:1036500007D1A520C64B18700920C64B1870012051
:10366000DEE7A520C24B18700120C24B1870002065
:10367000D6E770B506460D4601240DE020460AF057
:1036800052FCA84206D120460AF04DFCFF2801D08A
:10369000012070BD601CC4B2322CEFDD0020F8E7C1
:1036A00070B501240FE020460AF03DFC0546204697
:1036B0000AF053FD06462B4632462146AEA0FDF7E2
:1036C000E5FC601CC4B2322CEDDD70BD10B50BF012
:1036D00071FC0BF07BFC322802DD01200BF067FC53
:1036E00010BD2DE9F04705460E4617469846DDF811
:1036F00020904FF0010AFF2D09D1FF2E07D1FF2F97
:1037000005D1B8F1FF0F02D10220BDE8F0870124F6
:103710001DE020460AF03CFDA84216D120460AF0E2
:103720003EFDB04211D120460AF040FDB8420CD116
:1037300020460AF042FD404507D1B9F1000F03D001
:10374000A9F800404FF0000A03E0601CC4B2322C1C
:10375000DFDD00BF5046D8E72DE9FE434FF0FF30D4
:1037600002908E4800210160416012218C480BF0CC
:1037700016FFFEF777FA0BF0F9FB0746394689A0EA
:10378000FDF784FC0AF0D6FB86B20AF009FC85B28C
:103790000BF01CFC044688A0FDF778FC31468DA098
:1037A000FDF774FC21468FA0FDF770FC294691A01F
:1037B000FDF76CFC7A480A30FFF735FBFCF78AFD11
:1037C000E1B20020FFF755FF70B10BF0DBFB0746BD
:1037D0000BF00EFC80460020434602222146CDE934
:1037E000007006F0D1FF5EE102A8604F00903F68D4
:1037F000BB785E4F3F68FA785C4F3F6839795B4F22
:103800003F687879FFF76DFF70B90BF0BBFB074697
:103810000BF0EEFB80460020434603222146CDE913
:10382000007006F0B1FF3EE102A8504F00903F68E3
:10383000BB784E4F3F68FA784C4F3F6839794B4F11
:103840003F687879FFF74DFF02280ED10BF09AFB05
:1038500007460BF0CDFB8046002043460722214659
:10386000CDE9007006F090FF1DE1322E0EDD0BF069
:1038700089FB07460BF0BCFB80460020434605222F
:103880002146CDE9007006F07FFF0CE1C82D0EDD6A
:103890000BF078FB07460BF0ABFB8046002043465D
:1038A00004222146CDE9007006F06EFFFBE00BF02C
:1038B00069FB07460BF09CFB80460020434606222E
:1038C0002146CDE9007006F05FFF002034494870C2
:1038D00032490870E0B23249887030494870E8B225
:1038E0002F49C8702D498870204800684079C870F9
:1038F0001E480068007908711C480068C07848714B
:103900001A480068807888711848006880792449CE
:10391000C8712249C871002021494871FF2088716F
:103920000AF00EF91E490870FF200872087134A0D1
:10393000FDF7ACFB1A48018A35A0FDF7A7FB184834
:10394000C17B6BE023050010330500102E0500102D
:103950003E050010240500101C050010A51F0010D6
:1039600050050010370500103805001054050010F0
:1039700034050010350500102D3E696E666F3A3A29
:1039800025643A696E7A6F6E653A25642C706172AF
:10399000746E756D6265723A25640A005A050010EE
:1039A000B81F0010476574436F6D526567466C61C0
:1039B000673A25640A0000003D3D3D636F6D70204D
:1039C00072656767696E6720696E666F2E2E2E2E90
:1039D0002E2E0A00746F74616C5F6E756D733A25DC
:1039E000640A0000706172746E756D6265723A25CA
:1039F000640A0000636972616464723A25640A00B3
:103A00002D2D3E3E7361766520686973743A0A0015
:103A1000796561723A25640A00000000F7A0FDF79D
:103A200035FBF948417BF9A0FDF730FBF648017BF7
:103A3000F8A0FDF72BFBF448C17AF9A0FDF726FBAF
:103A4000F148817AF9A0FDF721FBFB49E0B20AF0C9
:103A500018FB002120460AF0EEFB0AF071F8074639
:103A6000E9490BF023F8E8B204F09EFE0AF0AFFA41
:103A70000AF0DBFB0BF0C9F8F0A0FDF707FBFFF73E
:103A800025FE0BF07FFA07460BF0B2FA80460BF0EA
:103A90009DFA81460020434601224946CDE9007047
:103AA00006F072FE00BFFCF71BFCFEF746FBBDE80C
:103AB000FE837CB54FF0FF300190E8A0FDF7E6FAF9
:103AC000FEF7D0F801A8EC4D00902D68AB78EA4DD8
:103AD0002D68EA78E84D2D682979E74D2D686879D9
:103AE000FFF7FFFD44B204BBBDF9040000281CDB56
:103AF000BDF90410E1A0FDF7C9FABDF80400C0B299
:103B00000AF011FA0546BDF80400C0B20AF025FB20
:103B10000646D9480068C07943B2D7480068827920
:103B20002946304606F07CF905E00023FF221946BD
:103B3000184606F075F97CBD0146FF2901D1012028
:103B400070470020FCE700B5CB4909684879FFF7CA
:103B5000F3FF98B1C84909680879FFF7EDFF68B12C
:103B6000C5490968C878FFF7E7FF38B1C249096855
:103B70008878FFF7E1FF08B1012000BD0020FCE7D5
:103B800038B504464FF0FF302080BB4D00942D68BF
:103B9000AB78B94D2D68EA78B74D2D682979B64DC7
:103BA0002D686879FFF79DFD08B9012038BD002018
:103BB000FCE710B5FFF7A9FCFFF751FCFFF7D1FBBD
:103BC00010BD10B50446204604F0CEFD022120466B
:103BD00004F085FD10BD10B50446204604F0C4FD78
:103BE0000121204604F07BFD10BD10B5044621469E
:103BF000A6A0FDF74BFA204604F0A4FD00212046C4
:103C000004F06DFD10BD30B587B0044612217E482A
:103C10000BF0C5FC60787C498870A078C870E07BA8
:103C200048712079C8710846D4F80610C0F80A1007
:103C3000D4F80A10C0F80E10207C7349087198A0BF
:103C4000FDF724FA61789BA0FDF720FAA1789CA0EB
:103C5000FDF71CFAE17B9EA0FDF718FA21799FA0E1
:103C6000FDF714FA217CA1A0FDF710FA0120A34969
:103C700008700121002000F082FCFFF79AFFA07875
:103C8000FFF79FFF012000F048FF0120FFF761FCD4
:103C9000208AADF800001222214602A80BF008FC91
:103CA00002A80FC803F0A9F8012000F085FC09F074
:103CB00047FF054654490AF0F9FE0AF0A6FF07B08F
:103CC00030BD30B587B0044612214F480BF067FC79
:103CD00060784D498870A078C870E07B4871207981
:103CE000C8710846D4F80610C0F80A10D4F80A10B3
:103CF000C0F80E10207C4449087101207F490870EB
:103D00007F4908707FA0FDF7C1F9617869A0FDF7D0
:103D1000BDF9A1786AA0FDF7B9F9E17B6CA0FDF7C8
:103D2000B5F921796DA0FDF7B1F9217C6FA0FDF700
:103D3000ADF9FFF79BFBFFF7F6FB002000F022FC3C
:103D4000012803D00321002000F019FC00F037FC0B
:103D5000B8B9A078FFF73FFF042000F02DFC032046
:103D600000F0DBFE0320FFF7F4FB208AADF8000033
:103D70001222214602A80BF09BFB02A80FC803F0F9
:103D80003CF809F0DDFE05461F490AF08FFE0AF0F7
:103D90003CFF07B030BD70B505460C46214660A01B
:103DA000FDF774F95548007840B12046FFF71DFF34
:103DB000604A51781078224600F077FD00204F4984
:103DC00008704F480078B8B100204D490870FFF7DF
:103DD000BAFAFFF7AFFB28460AF06CFA322804D093
:103DE00028460AF067FA312803D1302128460AF024
:103DF000D5FA002000F091FE70BD00006D6F6E746A
:103E0000683A25640A000000B81F00106461793A1E
:103E100025640A00686F75723A25640A0000000084
:103E20006D696E7574653A25640A00007365636F89
:103E30006E643A25640A00005A0500102D3E3E7358
:103E40006176652072656720696E666F20736176A2
:103E50006520746F20666C6173680A003D3D3D3ECD
:103E60003E3E7369676E616C20737472656E677431
:103E70006820746573740A0054050010636F6D70D8
:103E8000206E756D3A25640A000000006E6F726D39
:103E9000616C20636972616464723A25640A00008F
:103EA0003D3D3D3D3D3E3E616C61726D315F696EF1
:103EB000666F0A00706172743A2025640A0000007F
:103EC000636972616464723A2025640A000000002C
:103ED000617474723A2025640A0000006465767487
:103EE0007970653A2025640A0000000076416E6E04
:103EF000526F773A2025640A000000002205001066
:103F00002B0500103D3D3D3D3D3E3E6661756C74A8
:103F100020616C61726D5F696E666F0A000000005F
:103F20006E6F726D616C2C636972616464723A25A4
:103F3000640A0000FA0200002DE9F8430025B648A3
:103F4000007800F033FAB5490860FFF75CFB012800
:103F50007ED1FDF76DF8B14800684478362C1ED04C
:103F600008DCA4F13000062873D2DFE800F0121359
:103F700014151617412C6DD006DC382C10D0392CB6
:103F800014D0402C65D114E0422C7DD0512CF9D1B5
:103F90001FE100BF00BF00BF00BF00BF00BF1AE1AC
:103FA00000F0E6FA9EA0FDF771F814E1FDF738F88D
:103FB00011E19EA0FDF76AF8FFF7C5FD18B1A0A0BA
:103FC000FDF764F807E16846FFF7DAFD00287DD0C9
:103FD000BDF90000002801DABDE8F883FDF742FED4
:103FE000012000F066FBBDF80000C0B20AF0D0F876
:103FF0000646BDF80000C0B20AF0D1F80746BDF889
:104000000000C0B20AF0D2F88046BDF80000C0B28D
:104010000AF0D3F8814633463A46414600F081FC27
:10402000BDF900000AF0CCF9BDF80000C0B204F000
:1040300073FABDF80000C0B204F077FABDF90000D1
:104040000AF004F9012809D1BDF9001080A002E0AE
:10405000C8E0BFE095E0FDF719F8BCE0BDF900103D
:1040600080A0FDF713F8BDF8000080494870BDF846
:104070000000C0B20AF04DF87C498870BDF800001D
:10408000C0B20AF0A1F800E092E0784908716348F4
:1040900000688079C87302204871BDF80000C0B282
:1040A000FDF7C4F871490874881DFEF72FFE6F48AC
:1040B00081786FA0FCF7EAFF6C48C07B33282AD1D7
:1040C0000AF0DFFA98B90AF076FE00E054E070B129
:1040D0006CA0FCF7DBFF6549BDF900000AF0FFF9B1
:1040E00062480AF07FFA6148FFF78DFD33E0BDF9C1
:1040F00000000AF0EDF800B16DE0BDF9001066A017
:10410000FCF7C4FF5949BDF900000AF0E8F9574827
:10411000FFF779FD1FE05548C07B322803D0534894
:10412000C07B312817D1BDF900000AF0E0F828B1B2
:10413000BDF9001061A0FCF7A9FF4CE0BDF900102B
:104140005EA0FCF7A3FF4949BDF900000AF0C7F9DA
:104150004648FFF7B6FDFFF704F93048006880795C
:1041600030280AD15CA0FCF791FF2946BDF8000079
:10417000C0B2FFF710FE00E02DE0002000F099FA39
:1041800029E059A0FCF782FF06F00BF810B1FFF709
:1041900090FC09E00AF0EAFE20B10AF0E3FEFFF726
:1041A000DBFA01E0FDF75EFD002000F082FA12E08C
:1041B0001A480068807930280AD018480068807949
:1041C000312805D0154800688079322800D000BF1A
:1041D00001E000E000BF00BF10480068002101605E
:1041E000416001720C48007800F0CAF80A48007873
:1041F000401C0949087008460078142801D10020A5
:1042000008703C480078A52804D100203A4908707D
:104210003849087000BFDFE62A0500105405001079
:10422000434D445F313339570A0000002D2D3E3E87
:10423000434D445F414C41524D2121210A00000071
:1042400070736E20616C6C20307866660A00000026
:104250006E756D206973206D61736B65643A2564BA
:104260000A0000006E756D3A25640A00CA1F00102E
:10427000616C61726D20636972616464723A256475
:104280000A0000002D2D2D3E3E3E6669727374209B
:10429000616C61726D0A00006E756D3A256420686C
:1042A00061766564206669726520616C61726D6516
:1042B000642066697273740A000000006E756D3ABE
:1042C0002564206861766564206661756C74206180
:1042D0006C61726D65640A006E6F726D616C207343
:1042E000746174650A000000434D445F434F4D52B2
:1042F00045470A0034050010350500100146F04816
:10430000405C704710B50020EE4908700CE0ED48A5
:104310000078FCF789FEEA49EA4A12788854E948AD
:104320000078401CE7490870E64800780228EEDB78
:1043300010BD10B50020E349087011E0E148007895
:10434000FCF772FEE049097801EBC101DF4A114434
:10435000DC4A12788854DB480078401CD949087040
:10436000D84800780928E9DBD7480078401CD649AE
:10437000087008460078142801D10020087010BD8C
:104380000021D04A11700CE0002100EBC002CF4B9D
:104390001A44CC4B1B78D154CA490978491CC94AE4
:1043A0001170C84909780929EEDB7047014601EB15
:1043B000C100C64A10447047C5480068401CC44943
:1043C00008607047C24800687047C2480068401CD7
:1043D000C04908607047BF4800687047BE49097807
:1043E000882910D1002008E0BB49095CBB4A115460
:1043F0000021B94A1154411CC8B20A28F4DB01213A
:10440000B74A117015E0B449497A892911D10020C1
:104410000AE0B1490A5C00F10A01B04B5A5400218C
:10442000AD4A1154411CC8B20A28F2DB0221AC4A41
:10443000117070477FB50025A948007802287CD10B
:104440000020A7490870002406E020460AF013FD6A
:104450002844C5B2601CC4B2A0484078401EA042A7
:10446000F3DC9E4880782844C5B29C480179C07826
:1044700001EB0010ADF80000BDF80000C2B2002151
:1044800028460AF002FD95488179407901EB001039
:10449000ADF80200BDF80200C2B2012128460AF0C0
:1044A000F4FC8E48017AC07901EB0010ADF80400ED
:1044B000BDF80400C2B2022128460AF0E6FC874893
:1044C000817A407A01EB0010ADF80600BDF80600D5
:1044D000C2B2032128460AF0D8FC8048017BC07A8A
:1044E00001EB0010ADF80800BDF80800C2B20421CD
:1044F00028460AF0CAFC7948817B407B01EB00101A
:10450000ADF80A00BDF80A00C2B2052128460AF03B
:10451000BCFC7248017CC07B01EB0010ADF80C00C4
:10452000BDF80C00C2B2062128460AF0AEFC6B486A
:10453000817C407C01EB001000E008E0ADF80E004B
:10454000BDF80E00C2B2072128460AF09EFC7FBDCE
:1045500010B5FFF743FFFFF76DFF10BD614800780E
:10456000401C60490870704701205E490870704720
:1045700000205C49087070475A48007870475A4AD2
:104580001154704701465848405C704701465748EF
:10459000405C704756480078401C55490870704789
:1045A00053480078401E52490870704750490870BF
:1045B00070474F48007870474E49087070474D4823
:1045C0000078704701204C490870704700204A4924
:1045D000087070474848007870474849087070472D
:1045E00046480078704770B50025012410E0204649
:1045F00009F08FFDA84209DD204609F08AFDFF2859
:1046000004DA204609F085FD054603E0601CC4B2CB
:10461000322CECDD00BF2846FFF7DFFF70BD70B520
:10462000002537A0FCF732FD01241AE0204609F0EE
:1046300070FDA84213DD204609F06BFDC8280EDC92
:10464000204609F066FD06462246314631A0FCF7B9
:104650001DFD204609F05DFD064604F0A5F8601C2E
:10466000C4B2322CE2DD70BD10B5012404E000209C
:104670002E490855601CC4B2322CF8DD002405E038
:1046800000212046FEF778FF601CC4B2032CF7DB44
:104690000020FEF75EFF0020FEF758FF10BD01204E
:1046A00004E00021214A1154411CC8B23228F8DD2F
:1046B00070471F49087070471D4800787047000018
:1046C000640500106705001066050010DC1F00106F
:1046D000680500106C050010902000109A20001052
:1046E00070050010710500107205001074050010AF
:1046F000760500107B0500107C0500107D0500107C
:10470000696E6974206369726164647220696E669F
:104710006F0A000073657420636972616464723AA1
:1047200025642C636F6D703A25640A00AE2000107A
:104730007E05001039490870704739480068401CF0
:104740003749086070473648006870470020344990
:10475000086070470120334908707047314800787D
:10476000704700202F49087070472F480078401C80
:104770002D49087008460078C82801DDC820087057
:104780007047294800787047002027490870704713
:1047900026480078401C2549087008460078C8283B
:1047A00001DDC8200870704720480078704700205D
:1047B0001E490870704710B509F031FF00282CDD44
:1047C0001B4801780078401C194A10701E2091FB8C
:1047D000F0F200FB121080B916A0FCF757FCFFF7AF
:1047E000D0FF044621461AA0FCF750FCFFF7DCFF7F
:1047F000044621461AA0FCF749FCFFF7C2FF322805
:104800000BDD1BA0FCF742FCFFF7CEFF142804DDF4
:104810001BA0FCF73BFC00F0D9FD10BD8C0500107F
:1048200084050010890500108D0500108E0500100C
:104830008F050010436C725F416C61726D3A686164
:1048400076652066697220616C61726D730A000082
:10485000786961206C612076616C3A25640A0000F9
:10486000776569206C612076616C3A25640A0000E6
:104870007869616C617369676E616C203E340A000F
:104880002D2D2D2D2D2D2D726573657420616C617C
:10489000726D20737563632121210A00364A115419
:1048A000704701463448405C70472DE9F0410646A8
:1048B0000F4690460024FF202F49087048708870EA
:1048C0000846C6700020087148710120C8716E202A
:1048D0008871042008720846477201208872C872E5
:1048E000084680F80C80002506E02349E81C085C97
:1048F000204484B2681CC5B20A2DF6DB04F47F4064
:10490000C11700EB11610A12002102EB01211A4AC2
:10491000517311468C730F220020FCF7BCFEBDE8DA
:10492000F0812DE9F04705460E46174698464FF0B0
:10493000000982201149087040204870084685709F
:10494000C670077180F80580332088710020C87117
:10495000002406E00948005D48441FFA80F9601C05
:10496000C4B2082CF6DB054981F808900922012021
:10497000FCF791FEBDE8F087E0200010EF2000106A
:1049800010B50446082C21D2DFE804F02004080CFE
:104990001014181C012008F0B9FA18E0022008F0E1
:1049A000B5FA14E0032008F0B1FA10E0042008F092
:1049B000ADFA0CE0052008F0A9FA08E0062008F09E
:1049C000A5FA04E0072008F0A1FA00E000BF00BF4C
:1049D00010BD10B50446012C06D0022C08D0032CC3
:1049E0000AD0042C10D10BE0012008F073FD0CE07C
:1049F000022008F06FFD08E0032008F06BFD04E0E2
:104A0000042008F067FD00E000BF00BF10BD10B536
:104A10000446012C04D0022C06D0032C0CD107E054
:104A2000012007F04DF808E0022007F049F804E003
:104A3000032007F045F800E000BF00BF10BD10B52F
:104A40000446012C02D0022C08D103E0012008F01A
:104A500009FF04E0022008F005FF00E000BF00BFEE
:104A600010BD000031490870704730480078401C84
:104A70002E49087070472D480078401E2B49087059
:104A800070472A480078704728494870704727487F
:104A90004078401C25494870704724484078401EA3
:104AA0002249487070472148407870471F498870F4
:104AB00070471E488078401C1C49887070471B480E
:104AC0008078401E19498870704718488078704770
:104AD00017490870704716480078401C1449087040
:104AE000704713480078401E114908707047002035
:104AF0000F49087070470E48007870470D480078DD
:104B0000401C0C49087070470A480078401E09494B
:104B1000087070470748007870470649087070476A
:104B200005490870704704480078704790050010E8
:104B30009305001094050010950500100020FC4915
:104B4000086070470020FB490860704710B5FFF708
:104B500098FF012806D0022813D0032820D005286A
:104B600035D12CE0FFF793FFFFF79DFF052802DD0D
:104B70000120FFF789FFFFF796FF0446FFF729FFA3
:104B800026E0FFF784FFFFF78EFF032802DD0120F8
:104B9000FFF77AFFFFF787FF0446FFF738FF17E0BC
:104BA000FFF775FFFFF77FFF022802DD0120FFF707
:104BB0006BFFFFF778FF0446FFF741FF08E0DEA038
:104BC000FCF764FA00F09CFF00F017FD00E000BF66
:104BD00000BF10BD70B5FFF766FF012804D00228A2
:104BE00003D003281FD11DE01EE00AF0A9FB012815
:104BF00006D10AF087FB002808DD0AF042FB05E039
:104C00000AF092FB002801DD0AF085FB0AF08CFB1C
:104C100004460AF077FB054600231A46214605F0B4
:104C2000FFF801E000E000BF00BF70BD0146481C76
:104C300070477CB5FFF737FF022802D003287CD1EC
:104C40000CE00AF009FB012802DD0AF0FCFA02E0A0
:104C500032200AF0FEFA00F054FE6FE008F070FF18
:104C6000B3490968491CB24A1160884217D908F053
:104C700067FFAF490968401A441E08F061FF054606
:104C80002946B1A0FCF702FA2146B4A0FCF7FEF9D0
:104C9000002C0ADBB849204609F0DBFE05E0B7A08E
:104CA000FCF7F4F907F03BF87CBDB3488178B8A075
:104CB000FCF7ECF9B048C178B8A0FCF7E7F9AE48CA
:104CC000C179BAA0FCF7E2F9AB484179BAA0FCF788
:104CD000DDF9A948018ABBA0FCF7D8F9A648C17B39
:104CE000BBA0FCF7D3F9A448417BBCA0FCF7CEF9EC
:104CF000A148017BBBA0FCF7C9F99F48C17ABCA0C1
:104D0000FCF7C4F99C48817ABCA0FCF7BFF90020ED
:104D1000FDF738FC2046FFF789FFC5B296480A30F8
:104D200095498978CDE900100A384379C279C1786C
:104D3000284607F085F901E0FFE700BF00BF00BF8C
:104D4000B2E72DE9FF470AF021FA062845D2DFE84D
:104D500000F044030A1928360AF0A4F9002801DDFE
:104D60000AF09AF947E00AF0BDF9012802DD0AF0DD
:104D7000B3F906E00AF0B6F9012802D10C200AF0D6
:104D8000A2F938E00AF0BDF9012802DD0AF0B3F912
:104D900006E00AF0B6F9012802D11F200AF0B4F9A2
:104DA00029E00AF0C3F9002802DD0AF0B9F905E0AC
:104DB0000AF0BCF910B918200AF0A9F91BE00AF0B2
:104DC000C7F9002802DD0AF0BDF905E00AF0C0F9D4
:104DD00010B93B200AF0ADF90DE00AF0CBF900283C
:104DE00002DD0AF0C1F905E00AF0C4F910B93B2070
:104DF0000AF0B1F900BF00BF0AF0C8F904460AF092
:104E0000B9F9C5B20AF0A4F9C7B20AF08FF900F0F7
:104E1000FF080AF076F9C6B20AF064F900F0FF095B
:104E20000AF040F982460120434632464946CDE920
:104E30000075CDE90240504606F024F90AF032F937
:104E40007149C8800AF04EF96F4948710AF059F962
:104E50006D49C8700AF06AF96B4988700AF078F9F0
:104E6000694948700AF086F967490870BDE8FF870C
:104E7000F8B50AF002F9022802D0032816D10AE098
:104E80000AF0D7F8012802DD0AF0CDF802E032205E
:104E90000AF0D2F80BE00AF0E1F8002802DD0AF08F
:104EA000D7F802E002200AF0CAF800E000BF00BF15
:104EB0000AF0E3F804460AF0D1F805460AF0B9F81A
:104EC00006460AF0A4F80746102023462A46314633
:104ED0000090384605F0E8FDF8BD2DE9FC410AF0E8
:104EE00051F802280AD10AF071F8012802DD0AF00F
:104EF00067F802E032200AF05AF800E000BF00BF75
:104F00000AF040F804460AF073F805460AF05EF825
:104F100006460AF049F8074600202B46024631466D
:104F2000CDE90040384605F02FFCBDE8FC810000CB
:104F3000980500109C050010636C6F7365207370FA
:104F400065616B65720A0000686973746F7279201D
:104F50006E756D733A25640A000000002D2D2D3EFC
:104F60003E6C6F6F6B20686973746F72792078750F
:104F700068616F3A25640A00B81F00102D2D3E3E6F
:104F8000686973746F7279206F7665720000000033
:104F9000706172743A25640A0000000063697263EC
:104FA0006C65616464723A25640A00006465767415
:104FB0007970653A25640A00617474723A25640A4E
:104FC00000000000796561723A25640A0000000063
:104FD0006D6F6E74683A25640A0000006461793A66
:104FE00025640A00686F75723A25640A00000000A3
:104FF0006D696E7574653A25640A00007365636FA8
:105000006E643A25640A0000A80500102DE9FF47E8
:1050100009F07AFF012804D0022810D003282AD1F1
:105020001BE0002009F063FF002803DD002009F0E9
:1050300058FF03E00221002009F03CFF1CE00120A2
:1050400009F055FF002803DD012009F04AFF03E0C5
:105050000921012009F02EFF0EE0022009F047FF90
:10506000002803DD022009F03CFF03E009210220B3
:1050700009F020FF00E000BF00BF09F067FF00F06B
:105080001EFB044608F08CFF844226D009F03CFF4A
:105090000446022009F04AFF0546012009F046FFB8
:1050A0000646002009F042FF0746022009F01FFFD4
:1050B0008046012009F01BFF8146002009F017FF00
:1050C000824603203B4642464946CDE90065CDE98C
:1050D0000240504607F028FB25E009F015FF044682
:1050E000022009F023FF0546012009F01FFF0646B4
:1050F000002009F01BFF0746022009F0F8FE804659
:10510000012009F0F4FE8146002009F0F0FE8246FD
:1051100000203B4642464946CDE90065CDE90240C4
:10512000504607F001FBBDE8FF8710B5FFF7BBFC59
:10513000012806D0022807D0032808D004280CD163
:1051400008E0FFF763FF09E0FFF7C7FE06E0FFF79F
:105150008FFE03E0FFF7F5FD00E000BF00BF10BDCC
:1051600010B5FFF78EFC012806D0022807D00328CF
:1051700008D004280AD108E0FFF7D7FF07E0FFF7BF
:1051800058FD04E0FFF726FD01E000E000BF00BF8E
:1051900010BD10B5FFF799FC012804D0022803D0F8
:1051A000032803D101E002E001E000E000BF00BFFE
:1051B00010BD000010B5FFF764FC07283CD2DFE803
:1051C00000F03B04272B2F33370000F080FB012039
:1051D00007F09CFE15200121814042094FF0E02399
:1051E00003EB8202C2F8001100BF0021002807DA99
:1051F000CA06140E5D4A00F00F031B1FD45403E0CF
:10520000CA06130E5A4A135400BF00F0C1F814E046
:10521000022007F07BFE10E0032007F077FE0CE091
:10522000042007F073FE08E0052007F06FFE04E09D
:10523000062007F06BFE00E000BF00BF0120FFF773
:1052400023FC10BD10B5FFF72EFC012806D0022864
:105250000BD0032812D004281ED116E0012008F03C
:1052600039F9012009F04DFE17E0022008F032F96B
:10527000022009F084FE09F075FE0EE0032008F01C
:1052800029F9022009F0FCFE07E0042008F022F9C9
:10529000012009F072FF00E000BF00BF0120FFF70E
:1052A00005FC10BD10B5FFF7FEFB012804D0022855
:1052B00009D0032819D111E00020FDF763F901207E
:1052C00006F0FEFB12E00020FDF75CF9022006F07C
:1052D000F7FBFFF733FCFFF735FC07E00020FDF795
:1052E00051F9032006F0ECFB00E000BF00BF0120F5
:1052F000FFF7DCFB10BD10B5FFF7D5FB012802D08E
:10530000022814D10CE0FEF7D9F8002000F032F8A2
:10531000FCF777FEFCF771FE012008F0A3FA07E026
:10532000002004F03BFF022008F09CFA00E000BFE0
:1053300000BF0120FFF7BAFB10BD10B5FFF7C5FB9A
:10534000012806D0022805D0032804D0042806D15D
:1053500004E005E004E0FFF7F1FB01E000E000BF3E
:1053600000BF0120FFF7A2FB10BD000018ED00E018
:1053700000E400E0FC4908707047FB480078704783
:1053800010B5FAA0FBF782FE0120FC49087010BDA1
:105390000020FA4908707047F8480078704710B547
:1053A000FFF781FB0446FFF714FBFFF7E9FF10BD91
:1053B00010B5FFF778FB0446FFF729FB10BD10B5C9
:1053C000FFF771FB0446FFF73AFB10BD10B5FCF781
:1053D0006EFE02F061FE0020FDF7D4F802213820B5
:1053E000FEF7DBF802213820FEF7D7F8FDF7ABFF18
:1053F000FDF7A2FFFEF790F8FEF79CF800210846A3
:10540000FFF7BDF800210120FFF7B9F80020FFF7F2
:10541000D3F80020FFF781FB0120FFF723FB0120D9
:10542000FFF720FB0020FEF794F809F050F8FCF796
:10543000E8FDFFF7BCF9FFF7A7F907F0B5FBFCF7AC
:105440004DFE40F6B830FCF77BFF10BD7FB504463B
:10545000CBA30FCB8DE80F000021684607F086F83C
:1054600005462B46102221460120FDF7D5F90221E1
:10547000684607F07BF805462B462022214601208E
:10548000FDF7CAF90421684607F070F805462B4677
:10549000302221460120FDF7BFF90621684607F0BA
:1054A00065F805462B46002221460220FDF7B4F997
:1054B0000821684607F05AF805462B461022214677
:1054C0000220FDF7A9F90A21684607F04FF80546C2
:1054D0002B46202221460220FDF79EF97FBD10B504
:1054E00001240020FDF74EF80220FFF7AFFF4FF434
:1054F000FA60FCF725FF14E0A548406910F0007F32
:1055000009D100240220FFF708FBFFF7EAFA012087
:10551000FFF7A8FA06E09E48406910F4806F00D0BB
:1055200000E0E9E700BF15E09948406910F0007F0E
:1055300009D100240220FFF7F0FAFFF7D2FA012088
:10554000FFF790FA0BE0641C9148406910F4806FFB
:1055500000D104E08E48406910F4806FE4D100BFB0
:105560001E2C46D90020FDF70DF807F0FFFDFAF7D5
:10557000B1FE08F0D5FD0020FBF702F94FF48030B2
:10558000FBF7FEF84FF40030FBF7FAF84FF4403029
:10559000FBF7F6F84FF48020FBF7F2F84FF4002009
:1055A000FBF7EEF84FF41020FBF7EAF84FF4202059
:1055B000FBF7E6F84FF43020FBF7E2F84FF4402019
:1055C000FBF7DEF84FF45020FBF7DAF84FF46020D9
:1055D000FBF7D6F84FF47020FBF7D2F809F06BFB1D
:1055E000FAF77EFE0020FCF7CDFF07F040FD07F044
:1055F000E4FC10BD67480078704710B5FFF7FAFF6C
:1056000018B1012007F064FD04E000206149087032
:1056100007F05EFD10BD10B5FFF7EFFF10BD10B530
:105620000446072C17D2DFE804F01604070A0D1011
:105630001300FFF7B4FE0FE0FFF7BAFE0CE0FFF730
:10564000BEFE09E0FFF74BFF06E0FFF7E4FF03E0D3
:10565000FFF7BCFE00E000BF00BF10BD10B508F0B2
:105660009FFCFF2802D1962008F08CFC08F098FCE3
:105670006421B0FBF1F0C4B22146002009F01AFC0D
:1056800008F08EFC6421B0FBF1F201FB12000A214C
:10569000B0FBF1F42146012009F00CFC08F080FC7D
:1056A0006421B0FBF1F201FB12000A21B0FBF1F220
:1056B00001FB12042146022009F0FCFB10BD10B5CD
:1056C000002009F014FC642100FB01F4012009F022
:1056D0000EFC0A2101FB0044022009F008FC2044D2
:1056E00080B210BD10B5FFF7EAFFC82801DD09F050
:1056F000E4FB10BD01202849087070472648007857
:10570000704700202449087070472DE9FF47FFF7D4
:10571000F1FFFFF7A3FFFFF7E5FF022009F006FC0A
:105720000446012009F002FC0546002009F0FEFBBA
:105730000646022009F0DBFB0746012009F0D7FBF3
:105740008046002009F0D3FB81460020012133462A
:105750003A46CDE90054CDE902104146484606F0EC
:10576000E3FFBDE8FF870000A40500107365742007
:105770006E6F746520666C6167210A00A3050010D6
:10578000C7EBB0B4C8B7B6A8C9BEB3FD00000000EF
:1057900000C00920A5050010A00500102DE9FC415E
:1057A00009F014FC322802DD002009F0EEFB09F0BC
:1057B000E9FB044609F01CFC054609F007FC064617
:1057C00009F0F2FB074600202B4602463146CDE9A0
:1057D0000040384604F0D8FF09F0C0FBBDE8FC816A
:1057E000F8B509F04AFC044609F038FC054609F012
:1057F00020FC064609F00BFC0746002023462A46FB
:1058000031460090384605F04FF9F8BD2DE9F043D8
:1058100087B005A8FDF77AFABDF81A0009F033FC45
:105820009DF8190009F04FFC9DF8170009F06CFC79
:105830009DF8160009F06BFC9DF8150009F079FC45
:105840009DF8140009F087FC09F094FCC4B209F03B
:105850007FFCC5B209F06AFCC6B209F052FCC7B2BF
:1058600009F040FC00F0FF0809F01CFC8146002014
:10587000012133463A46CDE90054CDE902104146B4
:10588000484605F0FFFB07B0BDE8F08310B50446BD
:10589000012C06D0022C07D0032C08D0042C0CD1EC
:1058A00008E0FFF732FF09E0FFF778FF06E0FFF7B7
:1058B00097FF03E0FFF7AAFF00E000BF00BF10BDA5
:1058C0000120F74908707047F548007870470020BC
:1058D000F3490870704770B5FFF7F2FF0020FCF73E
:1058E00051FE09F095FC064608F024FBC4B208F00E
:1058F00063FB85B2002332462146284607F03AF979
:1059000070BD2DE9FC4709F0A7FC044609F092FCA4
:105910000546214609F0E1F910B309F09DFC054662
:1059200009F088FC0646294609F028FA044609F0E1
:105930009FFC0546E0B208F0ECFB0646E0B208F03A
:1059400043FC074609F088FC804609F073FC814659
:1059500000233A464146CDE9006505F0AAF90FE07B
:1059600009F07AFC044609F065FC05462220002176
:105970000B460A46CDE900102146284605F099F964
:10598000BDE8FC8730B587B0C6A0FBF77FFB0020E1
:10599000FCF7F8FDFFF7D2F8FFF7D4F808F0D0F8DD
:1059A00018B906F077F907B030BD08F0C9F8441E01
:1059B000002C03DB02A9204609F04BF89DF80A10E1
:1059C000BEA0FBF763FB9DF80B10BFA0FBF75EFBCF
:1059D0009DF80F10C0A0FBF759FB9DF80D10C1A05A
:1059E000FBF754FBBDF81810C1A0FBF74FFB9DF867
:1059F0001710C2A0FBF74AFB9DF81510C2A0FBF7D9
:105A000045FB9DF81410C2A0FBF740FB9DF8131056
:105A1000C2A0FBF73BFB9DF81210C3A0FBF736FBBF
:105A20002046FFF703F9C5B20DF112009DF80A10E8
:105A3000CDE900109DF80D309DF80F209DF80B105A
:105A4000284606F0FDFA00BFADE710B50446012C6C
:105A500004D0022C05D0032C09D105E0FFF73BFF51
:105A600006E0FFF74EFF03E0FFF78CFF00E000BF0A
:105A700000BF10BD10B50020FCF784FD02213820C6
:105A8000FDF78BFDFDF70EFD0120FFF773FCFCF722
:105A9000A6FAFCF7AEFA43F69820FCF751FC07F0A3
:105AA000BFF84FF4FA60FCF74BFC0320FFF710F847
:105AB0000320FEF7D7FF0120FEF7E6FF01F0ADFF60
:105AC00010BD10B500231A461946184604F0A8F96F
:105AD000012004F063FB10BD10B50446012C02D078
