:020000040000FA
:10000000C87A0010AD010000B5010000B701000082
:10001000B9010000BB010000BD01000000000000AC
:10002000000000000000000000000000BF01000010
:10003000C101000000000000C3010000290200000F
:10004000C7010000931B0000AB1B0000C11B000098
:10005000C701000071120000EF100000C70100008E
:10006000C7010000D11E0000350D0000C7010000CF
:10007000C7010000C7010000C7010000C701000060
:10008000C7010000C7010000C70100006721000090
:10009000C701000051220000C7010000C701000095
:1000A000C7010000C7010000C7010000C701000030
:1000B000C7010000C7010000C7010000C701000020
:1000C000C7010000C7010000C701000000F002F8EE
:1000D00000F05CF80AA090E8000C82448344AAF186
:1000E0000107DA4501D100F051F8AFF2090EBAE884
:1000F0000F0013F0010F18BFFB1A43F0010318475C
:1001000070FD040090FD04000A444FF0000C10F84C
:10011000013B13F0070408BF10F8014B1D1108BF85
:1001200010F8015B641E05D010F8016B641E01F825
:10013000016BF9D113F0080F1EBF10F8014BAD1C75
:100140000C1B09D16D1E58BF01F801CBFAD505E093
:1001500014F8016B01F8016B6D1EF9D59142D6D3ED
:10016000704700000023002400250026103A28BF15
:1001700078C1FBD8520728BF30C148BF0B60704719
:100180001FB50FF00BF81FBD10B510BD0EF0D2FF5C
:100190001146FFF7F5FF00F027F800F0A8F803B4C8
:1001A000FFF7F2FF03BC0EF0F3FF000009488047A1
:1001B00009480047FEE7FEE7FEE7FEE7FEE7FEE749
:1001C000FEE7FEE7FEE7FEE704480549034A054B64
:1001D0007047000001030000CD000000C878001047
:1001E000C87A0010C878001000F0E1F807F05BFB57
:1001F00003A000F009FF01E007F0A0FBFCE700000E
:100200003D3D3D3D3D68656C6C6F20313339207755
:100210006972656C657373206D6F643D3D3D3D3D56
:100220003D3D3D3D3D0A00000D480068401C0C4925
:1002300008607047704700BF411EC9B20800FBD17B
:10024000704700B5024605E0F520FFF7F4FFF52002
:10025000FFF7F1FF1000A2F10102F5D100BD00008F
:10026000040000101948006820F0010017490860D8
:100270000846006820F0020008601548006840F059
:100280000300134908600846C06940F00300C861D4
:1002900070470F48806940F001000D498861704740
:1002A0000B48C06940F001000949C861704708481F
:1002B000806940F002000649886170470448C069BF
:1002C00040F002000249C8617047000000C00240CF
:1002D00000C0092010B501F0A6FE07F05DFD10BDBD
:1002E00010B501F0B7FE10BD704770477047044667
:1002F000AFF300802046FFF752FF7047FFFFFFFF7C
:10030000002020217A4A116000BF7949096811F064
:10031000400FFAD00321774A11607749774AC2F833
:10032000A8114FF00001764A11604FF00101754AA3
:1003300011604FF00F01744A11604FF00101A2F1FA
:10034000040211604FF0AA01704A11604FF055018C
:100350006A4AC2F88C106B490968022906D000BFAE
:100360006B49096811F0806FFAD004E0002000E0CA
:10037000401C6428FCD90321664A11604FF0AA0191
:100380005E4AC2F88C104FF05501604A11604FF080
:100390000701614A11606149614A11604FF0000133
:1003A000604A116043F23A01544A1160704758485C
:1003B0000068C0F30160032868D15248006810F05B
:1003C000030006D0012823D002283FD003285CD1A7
:1003D00000E000BF4E480068C0F30E0000F10100CD
:1003E0004FEA40014548D0F88800C0F3074000F1CB
:1003F0000100B1FBF0F04C4900FB01F03D490968F8
:10040000C9B201F10101B0FBF1F0484908603CE0DC
:100410003F480068C0F30E0000F101004FEA4001C0
:100420003648D0F88800C0F3074000F10100B1FB66
:10043000F0F03F4900FB01F02E490968C9B201F113
:100440000101B0FBF1F0394908601EE03048006856
:10045000C0F30E0000F101004FEA40012748D0F838
:100460008800C0F3074000F10100B1FBF0F04FF449
:10047000FA4100FB01F01F490968C9B201F101010D
:10048000B0FBF1F02949086000BF2FE01D4800686B
:1004900010F0030006D0012810D0022819D003283C
:1004A00023D100E000BF13480068C0B200F1010092
:1004B0001D49B1FBF0F01D49086016E00D480068C9
:1004C000C0B200F101001A49B1FBF0F01749086011
:1004D0000BE008480068C0B200F101004FF4FA4197
:1004E000B1FBF0F01149086000BF00BF7047000089
:1004F000A0C10F4004C10F404010110000C00F40C8
:10050000ACC10F400CC10F4084C00F408CC00F40E5
:1005100088C00F4080C00F4008C10F40DEF7EFEFEA
:10052000C4C00F40C8C10F4000093D0000000010CA
:10053000001BB70070B931B9FE4AD26942F480326B
:10054000FC4BDA6116E0FB4A926942F48032F94BC7
:100550009A610FE001280DD131B9F64AD26942F013
:100560004002F44BDA6105E0F24A926942F040023F
:10057000F04B9A617047F048006840F48060EF49A2
:10058000C1F8C400EE48006820F48070EC490860AF
:100590000846006820F4007008600846006820F4EF
:1005A000806008600846006820F400600860084623
:1005B000006820F4805008600846006820F400506D
:1005C00008600846006820F480400860084600681B
:1005D00040F4004008600846006820F4803008605D
:1005E0000846006840F4003008600846006820F4BF
:1005F000802008600846006840F400200860CD486C
:10060000006840F01000CB4908600846006840F0E0
:10061000200008600846006840F040000860084676
:10062000C06940F01000C8610846806940F02000B1
:1006300088610846806940F0400088614FF00700FB
:10064000C04908604FF0020048604FF004000861A4
:10065000B848806940F04000B6498861704701465B
:10066000B848816000BFB748C06810F0100FFAD1D9
:10067000B4488068C0B2704700B50246AD48C06952
:1006800040F04000AB49C8611046FFF7E8FFA948B9
:10069000806940F04000A749886100BD00B502466E
:1006A000A448C06940F04000A249C861D0B2FFF739
:1006B000D6FFFF20FFF7D3FF03469E48806940F036
:1006C00040009C498861184600BD00B502460B46B3
:1006D0009848C06940F040009649C861D0B2FFF721
:1006E000BEFFD8B2FFF7BBFF9248806940F04000E0
:1006F0009049886100BD10B50520FFF7CFFF20F0BD
:100700007C0421460120FFF7E0FF0620FFF7B4FF3D
:100710008848806940F010008649886110BD10B596
:100720000520FFF7BBFF40F01C0421460120FFF726
:10073000CCFF0420FFF7A0FF7E48C06940F0100006
:100740007C49C86110BD00B505227A48C06940F0F7
:1007500040007849C8610520FFF781FFFF20FFF7BF
:100760007EFF03467348806940F04000714988610C
:1007700001E0501EC2B2002AFBDC03F0010000BD04
:1007800018B50446200C8DF80000200A8DF80100F1
:10079000E0B28DF80200FFF7AEFF6648C06940F096
:1007A00040006449C861D820FFF759FF9DF8000058
:1007B000FFF755FF9DF80100FFF751FF9DF802007C
:1007C000FFF74DFF5B48806940F040005949886160
:1007D00000BFFFF7B8FF0028FBD1FFF7A0FF18BD4F
:1007E00000B5FFF788FFC720FFF746FF00BFFFF700
:1007F000AAFF0028FBD1FFF792FF00BD38B50446E1
:100800000D46200C8DF80000200A8DF80100E0B2A2
:100810008DF80200FFF76FFF4648C06940F04000C6
:100820004449C8610220FFF71AFF9DF80000FFF756
:1008300016FF9DF80100FFF712FF9DF80200FFF779
:100840000EFF2846FFF70BFF3A48806940F0400052
:1008500038498861FFF763FF00BFFFF774FF002886
:10086000FBD138BDF8B504460D461646FFF743FFE9
:100870003048C06940F040002E49C861200C8DF816
:100880000000200A8DF80100E0B28DF8020002207D
:10089000FFF7E5FE9DF80000FFF7E1FE9DF801007F
:1008A000FFF7DDFE9DF80200FFF7D9FE002704E008
:1008B0002878FFF7D4FE781CC7B2B742F8DB1D4892
:1008C000806940F040001B498861FFF728FF00BFA6
:1008D000FFF739FF0028FBD1F8BD08B502461548DF
:1008E000C06940F040001349C861100C8DF8000049
:1008F000100A8DF80100D0B28DF802000320FFF736
:10090000AEFE9DF80000FFF7AAFE9DF80100FFF77C
:10091000A6FE9DF80200FFF7A2FEFF20FFF79FFE54
:1009200003460448806940F0400002498861184647
:1009300008BD000000C00920C4C00F4000C00F4027
:1009400000C0024000000340F8B504460D461646BC
:100950006048C06940F040005E49C861200C8DF8D5
:100960000000200A8DF80100E0B28DF8020003209B
:10097000FFF775FE9DF80000FFF771FE9DF801007E
:10098000FFF76DFE9DF80200FFF769FE002706E005
:10099000FF20FFF764FE05F8010B781CC7B2B742D1
:1009A000F6DB4C48806940F040004A49886100BF4E
:1009B000FFF7C9FE0028FBD1F8BD70B500BF0023CA
:1009C0002EE0A8B900BF444DED6805F01205022DD8
:1009D000F9D10D78404EB560491C00BF3E4DED6821
:1009E00005F01405042DF9D13B4DAD68ECB216E0CD
:1009F000012814D100BF394DED6805F01205022D14
:100A0000F9D10D78354EB560491C00BF334DED6806
:100A100005F01405042DF9D1304DAD68ECB25B1C26
:100A20009342CED370BD30B5002320E070B9FF24CF
:100A3000294DAC6000BF284CE46804F01404042C79
:100A4000F9D1254CA46801F8014B0FE001280DD124
:100A5000FF24224DAC6000BF204CE46804F0140475
:100A6000042CF9D11D4CA46801F8014B5B1C934286
:100A7000DCD330BD08B502461648C06940F04000DE
:100A80001449C861100C8DF80000100A8DF801009F
:100A9000D0B28DF802000B20FFF7E1FD9DF80000B9
:100AA000FFF7DDFD9DF80100FFF7D9FD9DF802007D
:100AB000FFF7D5FD0020FFF7D2FDFF20FFF7CFFDA8
:100AC00003460448806940F04000024988611846A6
:100AD00008BD000000C0092000800840000003405D
:100AE00010B5002807DACA06140EF74A00F00F0303
:100AF0001B1FD45403E0CA06130EF44A135410BD4E
:100B00000146F3480078012800D170470CE000222C
:100B100005E0EF480078012800D1F6E7521C41F2C9
:100B200088308242F5D3491E0029F0D10020ECE73D
:100B300010B50446E748006840F40020E649C1F8D3
:100B4000C400E648406820F07070E44948600846F8
:100B5000406840F0A07048604FF06C00E049886148
:100B6000E048844200D90446DF48B0FBF4F0401C62
:100B70004008DB490861DC48B0FBF4F040084861FC
:100B80002C208861402008600A2000F0F1F9402004
:100B9000D349086018210620FFF7A2FF10BD10B549
:100BA0000A2000F0E5F918210620FFF799FF10BD93
:100BB00010B50A2000F0E8F910BD10B50A2000F0C9
:100BC000E3F910BD10B50A2000F0D2F94020C44965
:100BD000086018210620FFF783FF10BD03B5034608
:100BE000C248037001A8C24908600120C1490860D9
:100BF0000020C1490870B64908702C20B8498861A6
:100C0000602008601420FFF77BFF0CBD10B5044680
:100C10000B46601CB5490870B54803600120B54912
:100C200008600020B4490870A94908702C20B34915
:100C30008861602008601420FFF762FF10BDF0B5E6
:100C400005460E461446059F002F35D0012E07D1CC
:100C5000681CA6490870AA4804600120A9490870C8
:100C6000022E07D1681CA1490870A5480460022023
:100C7000A4490870032E0CD10E2000EAD410284499
:100C8000401C9A490870E0B29D49086001209D49C6
:100C900008709748036097480760012096490870DC
:100CA00000208B4908702C208D49886160200860E5
:100CB0001420FFF725FFF0BD0020FCE7F0B5054646
:100CC0000E461446059F002F32D0012E06D18748CC
:100CD00005708B48046001208A490870022E06D1F5
:100CE0008248057086480460022086490870032EF9
:100CF0000BD10E2000EAD41028447C490870E0B2E1
:100D00007F49086001207F4908707948036079486D
:100D1000076002207849087000206D4908702C2077
:100D20006F498861602008601420FFF7E9FEF0BD7C
:100D30000020FCE76A48406800F0F80010F0070F58
:100D400079D1C0100C2876D2DFE800F075061920A2
:100D5000B421B5B6A5B7DEFC67480078012806D1F6
:100D60006248007800F0FE005D49886003E05F485B
:100D700000785B498860282059498861F6E05B4823
:100D800000785749886028208861EFE000BF5A4802
:100D90000078E8B95748006890B155480068007875
:100DA0004F49886052480068401C5149086028201B
:100DB0004B4988614F480068401E4E49086007E073
:100DC00010204749086028208861012040490870A8
:100DD0004948007801282FD14A48007802280DD1CF
:100DE00047480068C0F307203D4988602820886193
:100DF00044480078401E43490870B7E041480078F5
:100E000001280CD13E480068C0B2354988602820CE
:100E100088613C480078401E3A490870A6E039488D
:100E2000007848B908202E498861202008600020F9
:100E3000314908709AE098E02F480078022829D1BB
:100E400030480078002825DD2E48007802280DD192
:100E50002B480068C0F3072021498860282088615A
:100E600028480078401E274908707FE02548007810
:100E700001280FD122480068C0B219498860282093
:100E8000886120480078401E1E49087000201A49D9
:100E900008706BE06AE017480068012803D8042056
:100EA0000F49886102E004200D49086028200C49A0
:100EB00088615BE000BF00BF00BF2820084988614F
:100EC000FF200349087051E018ED00E000E400E065
:100ED0001C000010C4C00F4000C00F4000C0024002
:100EE00000C00140801A060000366E0108000010A4
:100EF00014000010180000101D00001000C0054074
:100F00000C00001010000010244880682449096873
:100F1000087023480068401C214908602148006887
:100F2000401E2049086008460068012804D12C2092
:100F30001A49886105E005E0042018490860282066
:100F4000886113E0154880681549096808701448DD
:100F50000068401C124908601020104908602820D1
:100F6000886101201049087000E000BF00BF704791
:100F700000F01F020121914042094FF0E02303EBF2
:100F80008202C2F80011704700F01F020121914057
:100F9000064A430942F823107047000000C0014090
:100FA00014000010180000101C00001080E100E088
:100FB00010B5002807DACA06140EF84A00F00F032D
:100FC0001B1FD45403E0CA06130EF54A135410BD78
:100FD000002004E00021F34A1154411CC8B20C283F
:100FE000F8DB70470020F049087070470146EF4871
:100FF000405C7047002004E00021EC4A1154411C81
:10100000C8B20928F8DB7047704710B54FF40020CC
:10101000FFF763FCE649087008460078FF2801D115
:1010200000200870E2480178E2A0FFF7EDFF10BD54
:1010300070B500242FE02146E3A0FFF7E5FF00256F
:1010400022E004EBC401C1EB841101F580214819B1
:10105000FFF743FC04EBC401C1EB8411DD4A1144EA
:10106000485504EBC400C0EB84101146085C80288E
:1010700008D104EBC400C0EB84101044415DD6A03D
:10108000FFF7C2FF681CC5B2372DDADBD3A0FFF72C
:10109000BBFF601CC4B2322CCDDB70BD024602EB3C
:1010A000C200C0EB8210CB4B1844405C704710B5B7
:1010B000BE488178002002F0E8F9BC48C1780120E0
:1010C00002F0E3F9B9480179022002F0DEF9B748ED
:1010D0004179032002F0D9F9B4488179042002F063
:1010E000D4F9B248C179052002F0CFF910BD38B566
:1010F000AD480078092843DAB9480068AB49AA4AE4
:101100001278885408460078822805D1A6480078CD
:10111000401CA549087002E00020A3490870A348BC
:101120004078382807D100209F49087003F067F8FD
:1011300003F084F924E09C480078092820D100209D
:101140009949087003F05BF80DF0A4FC28B1FFF793
:10115000AEFF0921412002F0A2F908F0DEFD78B1CE
:101160000020924C0090A378E2782179607902F017
:101170003AFA28B9FFF79BFF0921412002F08FF9C5
:1011800038BD98480078704770B50546FF260124A1
:101190000CE004EBC400C0EB84108E490844807856
:1011A000A84201D1264603E0601CC4B2322CF0DD17
:1011B00000BF31468CA0FFF727FF304670BD0246C6
:1011C00002290AD10A2A08D100BF8A48406910F0D2
:1011D000200FFAD00D20874B186000BF854840696A
:1011E00010F0200FFAD0834802600020704710B53D
:1011F000804800688049814A1288885408467F499F
:101200000988405C20280DD17C480088142809DD1D
:1012100079487A490988405C79490870774800889C
:1012200078490880744977480088C01C085C6E289B
:1012300011D174480088801C085C60B9714800882E
:10124000401C085C38B900206C4908806D49088052
:101250000120644908706849684A1288885C002146
:10126000FFF7ADFF65480088401C6449088010BD49
:1012700010B503F0C3FF10B1FFF7B9FF1EE05D48E2
:1012800000684849604A1278885408460078FF2868
:1012900005D15D480078401C5B49087002E00020E1
:1012A000594908703F48C07A832807D10020564921
:1012B0000870012003F0ECF8FFF78AFE10BD70B54E
:1012C0004FF48020FFF75CFA002417E0002511E0BE
:1012D00004EBC402C2EB84123E4B1A44515D04EB92
:1012E000C402C2EB841202F580225019FFF786FA7D
:1012F000681CC5B2372DEBDB601CC4B2322CE5DBB9
:1013000070BD2DE9F0414FF00008002600270025B0
:1013100034480078012840D100241AE03648005DA6
:101320001F2804D18021344A601D1154A046324840
:10133000005D20B9444502DD701CC6B200E0002605
:10134000042E04D18721E01E2B4A11540026601C74
:1013500084B2B4F5FA6FE1DB002477E02648005D43
:10136000802855D12449A01C0D5C322D00DD6BE096
:1013700005B969E02048015D05EBC500C0EB8510AB
:10138000144A0244214803780078401CDFF87CC0EE
:101390008CF80000D154012755E06DE018ED00E015
:1013A00000E400E0F01E001023000010F213001013
:1013B000260000106E6F746520636F756E74657221
:1013C0003A25640A0000000064617461325B2564A0
:1013D0005D3A0000FB130010256420000A000000A5
:1013E0000000014022000010726F772069733A25D7
:1013F000640A000000C00040180C00101E0000101D
:10140000E813001020000010250000102400001038
:10141000012F18D1C748015D05EBC500C0EB851051
:10142000C54A0244C54803780078401CDFF80CC365
:101430008CF80000D154BF48005D872803D10020FC
:1014400061460870002700BF601C84B2B4F5FA6FD3
:1014500084DB002404E00020B6490855601C84B2F7
:10146000B4F5FA6FF7DBFFF72AFF0020B4490870E4
:1014700003F0DEFE03F0BEFEBDE8F0812DE9F04191
:1014800007468846002F4CD1AE48006840F008005F
:10149000AD49C1F8C400AD48006820F0F000AB4988
:1014A00008600846006840F050000860A8480068DE
:1014B000C0F3811636B1012E08D0022E09D0032EBA
:1014C0000BD000BFA348006884080AE0A148046864
:1014D00007E0A0480068440803E09E480068C4088C
:1014E00000BF00BF21469CA0FFF78EFD83209E49D0
:1014F000C8602009B0FBF8F5280A4860E8B2086027
:101500000320C86007208860052000F0FEF8012055
:101510009549486020210520FFF74AFD0120BDE8DC
:10152000F081012F4DD18948006920F00F008749D3
:1015300008610846006940F00A00086184480068B4
:10154000C0F3012636B1012E08D0022E09D0032E99
:101550000BD000BF7F48006884080AE07D4804681B
:1015600007E07C480068440803E07A480068C40843
:1015700000BF00BF774801687CA0FFF745FD21460A
:101580007FA0FFF741FD214681A0FFF73DFD8320AD
:101590008449C8602009B0FBF8F5280A4860E8B221
:1015A00008600320C86007208860062000F0ADF8BE
:1015B00001207C49486008210620FFF7F9FC012042
:1015C000ADE70020ABE710B5052000F0AAF8062033
:1015D00000F0A7F810BD10B50120634948607149BB
:1015E0004860052000F091F820210520FFF7E0FC7D
:1015F000062000F08AF800210620FFF7D9FC10BD74
:1016000010B5052000F08DF8062000F08AF810BD16
:1016100010B501205449486062494860052000F037
:1016200074F820210520FFF7C3FC062000F06DF8B8
:1016300000210620FFF7BCFC10BD10B540B904E046
:1016400011F8013B484C2360521E002AF8D107E0F4
:1016500004E011F8013B534C2360521E002AF8D1DC
:1016600010BD00BF4F49496911F0200FFAD04D4914
:101670000860704710B5044604E014F8010B00211F
:10168000FFF79DFD20780028F7D110BD00B5024678
:1016900003E012F8010BFFF7E4FF10780028F8D1FF
:1016A00000BD00BF3F49496911F0010FFAD03D4923
:1016B0000868704700BF2C49496911F0010FFAD042
:1016C00029490868704700B503460A4603E0FFF75A
:1016D000E8FF01C3521E002AF9D100BD00B5034640
:1016E0000A4603E0FFF7E6FF01C3521E002AF9D1C4
:1016F00000BD10B5044604E020780221FFF75FFD2D
:10170000641C20780028F7D110BD00F01F020121D1
:10171000914042094FF0E02303EB8202C2F800112E
:10172000704700F01F02012191401F4A430942F80F
:1017300023107047180C0010FB1300102400001039
:1017400022000010C4C00F4000C00F4000C0024083
:10175000A8C10F400000001075617274303A7063C8
:101760006C6B3A25640A000000C000405379737422
:10177000656D4672657175656E63793A25640A0018
:1017800075617274313A70636C6B3A25640A0000BB
:1017900075617274313A70636C6B3A253031306C1C
:1017A000640A00000000014080E100E06F484068EA
:1017B00020F001006D4948600846406820F00100B3
:1017C00048600846006820F001000860084600688C
:1017D00020F0010008600846406820F001004860E1
:1017E0000846406820F0010048600846406820F044
:1017F000010048600846406820F001004860084643
:10180000C06820F00100C8600846C06820F00100F0
:10181000C8600846C06820F00100C8600846C0687B
:1018200020F00100C8600846C06820F00100C860D0
:101830000846C06820F00100C8600846C06820F073
:101840000100C8600846C06820F00100C860084672
:10185000C06820F00100C8600846C06820F00100A0
:10186000C8600846C06820F00100C8600846C0682B
:1018700020F00100C8600846C06820F00100C86080
:101880000846C06820F00100C8600846006920F0E2
:10189000010008610846006920F00100086108465F
:1018A000006920F0010008610846006920F001008D
:1018B00008610846406848600846006920F0010059
:1018C00008610846006920F00100086108460069C7
:1018D00020F0010008612648006840F4C200244955
:1018E00008600846006820F48060086008460068C8
:1018F00020F4006008600846006820F0007008606E
:101900000846006820F0806008600846006820F003
:10191000005008600846006820F0804008600846D3
:10192000006A14490843124908620846006C40F4F2
:101930005F7008640846806940F4C000886108460A
:10194000C06B0D4908430A49C8630846C06D40F49E
:101950005E70C8650846806D40F401708865084671
:10196000806D40F0C07088657047000000C0024084
:1019700000C009200000FCFF0300E00110B50028B2
:1019800007DACA06140EE74A00F00F031B1FD454EF
:1019900003E0CA06130EE44A135410BD10B5044602
:1019A00034B1012C0CD0022C12D0032C20D117E022
:1019B000012000F0A2F910210120FFF7DFFF18E05D
:1019C000022000F09AF930210220FFF7D7FF10E043
:1019D000032000F092F948210320FFF7CFFF08E031
:1019E000042000F08AF950210420FFF7C7FF00E02F
:1019F00000BF00BF10BD10B5044634B1012C08D0A3
:101A0000022C0AD0032C10D10BE0012000F081F948
:101A10000CE0022000F07DF908E0032000F079F9E5
:101A200004E0042000F075F900E000BF00BF10BD25
:101A300070B505460C460DBBBC48006840F002007E
:101A4000BB49C1F8C4004FF000004FF040210867C7
:101A50004FF0020048604FF0010008604FF00000B6
:101A60008860C860084684614FF0030048614FF009
:101A7000010048604FF00000FFF790FF012D20D1DA
:101A8000AA48006840F00400A949C1F8C4004FF01A
:101A90000000A84908674FF0020048604FF00100BD
:101AA00008604FF000008860C860084684614FF00D
:101AB000030048614FF00100FFF770FF01209D49CE
:101AC0004860022D20D19948006840F48000984970
:101AD000C1F8C4004FF00000974908674FF00200BA
:101AE00048604FF0010008604FF000008860C86057
:101AF000084684614FF0030048614FF00200FFF791
:101B00004DFF01208C494860032D1DD18748006896
:101B100040F400008649C1F8C4004FF00000874936
:101B200008674FF0020048604FF0010008604FF076
:101B300000008860C8600846846128464861FFF755
:101B40002DFF01207D49486070BD7D4908707047B8
:101B50007B480078401C7A490870704778480078C4
:101B6000704778490860704776480068401C75499E
:101B70000860704773480068704773480088401CCD
:101B80007149088070477049088070476E48008826
:101B9000704710B500F047FA06F0D0FA01204FF078
:101BA0004021086000F056FA10BD10B500F03BFA75
:101BB00006F0F3FA0F205F49086000F04BFA10BD01
:101BC00010B501F0AAFA0F205B49086010BD5F480C
:101BD0000068401C5D490860704700205B49086050
:101BE00070475A480068704759480068401C584977
:101BF00008607047564800687047002054490860E4
:101C0000704700B5534840695349084207D05148CE
:101C1000C06D40F400704F49C865FFF7EEFF00BD8E
:101C20004C48806D40F400704A498865002048495E
:101C30000860704720B901214FF04022516010E048
:101C4000012803D101213B4A51600AE0022803D157
:101C50000121394A516004E0032802D10121374AA9
:101C60005160704720B900214FF04022516010E0D0
:101C7000012803D100212F4A51600AE0022803D134
:101C800000212D4A516004E0032802D100212B4A93
:101C900051607047014631B94FF04022506840F022
:101CA0000200506016E0012905D1224A506840F038
:101CB000020050600EE0022905D11F4A506840F032
:101CC0000200506006E0032904D11C4A506840F02D
:101CD00002005060704710B5FFF783FF322802D131
:101CE00001F085FB07E0FFF77CFF642803D101F0DA
:101CF000EBFAFFF772FF10BD704700F01F020121E1
:101D0000914042094FF0E02303EB8202C2F8001138
:101D1000704700F01F0201219140104A430942F828
:101D20002310704718ED00E000E400E0C4C00F404D
:101D300000C00F4000800040000009400040094002
:101D40002C0000103000001034000010380000108B
:101D50003C00001000C00920000C006680E100E09B
:101D600053480068704700F00301524A52F82110AE
:101D70004F4A11607047014601F003004D4A52F886
:101D8000200070474C48006849F64041B0FBF1F034
:101D9000704749480068400049F64041B0FBF1F007
:101DA00070474548006849F64041B0FBF1F000EB50
:101DB0004000400070474048006849F64041B0FB91
:101DC000F1F000EB8000800070473B48006849F666
:101DD0004041B0FBF1F0322148437047364800687B
:101DE00049F64041B0FBF1F000EB80000001704784
:101DF0003148006849F64041B0FBF1F064214843A6
:101E000070472D48006849F64041B0FBF1F0C82109
:101E10004843704729480068401C284908607047BB
:101E2000002026490860704724480068704724480D
:101E30000068401C22490860704700202049086063
:101E400070471F48006870471E480068401C1D49C5
:101E50000860704700201B490860704719480068F7
:101E6000704718480068142801D3012070470020EB
:101E7000FCE70120144908707047002012490870DF
:101E800070471148007870471048006820F0010042
:101E9000401C0E49086070470C480068C0F3000001
:101EA00070470A48006820F0010008490860704740
:101EB00044000010580000100000001048000010FE
:101EC0004C0000105000001054000010680000107A
:101ED0003449086810F0010F04D033490968491CDF
:101EE000314A11602F49096801432E4A1160704739
:101EF00010B500202C4908602C48006840F04000D4
:101F00002B49C1F8C4002B48006940F04000294922
:101F100008614FF00200234948604FF00000C8609C
:101F20004FF0010048614FF00000886108644FF0F5
:101F3000100008654FF0090000F027F810BD10B53B
:101F4000092000F022F810BD0920012181401A4A21
:101F5000430942F8231000BF7047124A90614200C3
:101F60000323B2FBF3F20A440E4B1A6410221A65E3
:101F700070474FF480500B49C8640920486070478F
:101F800000200849C8644860704700F01F02012122
:101F9000914042094FF0E02303EB8202C2F80011A6
:101FA00070470000008001406C000010C4C00F406A
:101FB00000C00F4000C0024080E100E010B50028E2
:101FC00007DACA06140E784A00F00F031B1FD45418
:101FD00003E0CA06130E754A135410BD10B5152040
:101FE00000F0CCF800211520FFF7E8FF10BD10B578
:101FF000152000F0CFF810BD10B56D48406820F4F2
:1020000040306B4948606B48006820F08070694937
:1020100008606948006840F080706849C1F8900025
:10202000FFF7DCFF10BD10B5FFF7EAFAFFF7DFFF9F
:102030000020FFF7E0FC0120FFF7DDFC0220FFF7A6
:10204000DAFCFEF7B5FD4FF6FF705D490860FFF75B
:102050007BFF10BD10B5FFF7DBFAFFF7BFFF0020D5
:10206000FFF79CFC0120FFF799FC0220FFF796FC8C
:10207000FEF795FD4FF080704F4908604F49C1F859
:102080009400FFF75CFF10BD10B5FFF7B0FF002014
:10209000FFF7B1FC0120FFF7AEFC0220FFF7ABFC1D
:1020A000FEF786FD4FF6FF7045490860FFF74CFFCD
:1020B00010BD10B5FFF792FF0020FFF76FFC012065
:1020C000FFF76CFC0220FFF769FCFEF768FD4FF09C
:1020D0008070394908603949C1F89400FFF72FFF33
:1020E00010BD01203749087070470020354908703D
:1020F00070473448007870470120334908707047B2
:1021000000203149087070472F48007870474FF021
:1021100080702E49086070474FF080702649086033
:102120007047274800682549D1F8881040EA010027
:10213000234908607047224800682049D1F884107C
:1021400040EA01001E490860704710B5132000F0F6
:1021500015F828211320FFF731FF10BD10B513200B
:1021600000F018F810BD10B5FFF75DFF0220184908
:102170000860FFF7B6FFFFF76DFF10BD00F01F020C
:102180000121914042094FF0E02303EB8202C2F8A3
:102190000011704700F01F02012191400D4A4309D0
:1021A00042F823107047000018ED00E000E400E062
:1021B00000C0024000C00920908002400080024020
:1021C0008C8002407000001071000010948002406A
:1021D00040C10F4080E100E010B52E48406820F477
:1021E00040302C4948602C48006820F080702A4913
:1021F00008602A48006840F080702949C1F89000C2
:102200000846D0F8940040F08070C1F894004FF078
:1022100015004FF0010101FA00F14FEA50124FF0A2
:10222000E02303EB8202C2F8001100BF4FF000016F
:10223000002807DACA06140E1A4A00F00F031B1F03
:10224000D45403E0CA06130E174A135400BF10BD3E
:1022500010B51648006810F0807F08D00CF00EFE14
:10226000012005F0F0FC012005F0DAFC0AE010483E
:10227000006810F0807F05D0002005F0E4FC02200B
:1022800005F0CEFC0B48006840F080700449C1F8AE
:102290008C0010BD00C0024000C0092090800240A8
:1022A0000080024018ED00E000E400E0848002407D
:1022B000888002408C800240014606E040F6B83239
:1022C00000E0521E002AFCDC491E0029F6DC7047A3
:1022D00010B50146002000BF21E0FE4A126A00F15D
:1022E000180301249C402243FA4B1A6201228240C7
:1022F0000A4209D01A46526B00F1180301249C408F
:102300002243F44B5A6308E0F24A526B00F118037F
:1023100001249C40A243EF4B5A63421CD0B20828D0
:10232000DBDB10BD10B5EB48C06B40F48020E94901
:10233000C8630846806B40F40020886300BF00201B
:10234000FFF7C6FFE348806B40F48010E1498863E3
:102350000846C06B40F48010C8630846006A20F449
:10236000004008620846406B00200446002CE6D17D
:1023700010BD10B50446FFF7D5FFD648C06B40F43A
:102380008020D449C8630846C06B40F40020C8636D
:102390002046FFF79DFFCF48806B40F48010CD4969
:1023A00088630846C06B40F48010C86310BD10B548
:1023B000044644F0B8042046FFF7DBFF10BD10B51B
:1023C000044644F0C0042046FFF7D3FF10BD10B50B
:1023D000044604F03F0444F040042046FFF7C9FFE0
:1023E00010BD10B5044644F03E042046FFF7C1FF7F
:1023F00010BD10B50446FFF795FFB648806B40F45A
:102400008020B44988630846C06B40F40020C8634C
:102410002046FFF75DFFAF48806B40F48010AD4968
:1024200088630846C06B40F48010C86310BD10B5C7
:102430000446FFF777FFA748806B40F48020A5494A
:1024400088630846C06B40F40020C8630846806B70
:1024500040F4801088630846C06B40F48010C86365
:1024600010BD10B50446FFF75DFF9A48806B40F43D
:102470008020984988630846C06B40F40020C863F8
:10248000E043C4B22046FFF723FF9248806B40F43C
:102490008010904988630846C06B40F48010C86380
:1024A00010BD20B101280ED0022824D117E089499F
:1024B000896B41F40011874A91631146896B41F49D
:1024C0008001916318E08349896B41F40011814ACE
:1024D00091631146C96B41F48001D1630CE07D49E1
:1024E000C96B41F400117B4AD1631146896B41F4F9
:1024F0008001916300E000BF00BF704770B50646E1
:102500003046FFF7CEFF002410E02046FFF74FFFD4
:102510000020FFF75CFF002504E00020FFF769FFC3
:10252000681CC5B2402DF8DB601CC4B2082CECDB83
:1025300070BD70B506463046FFF7B3FF002410E0CB
:102540002046FFF734FF0020FFF741FF002504E09D
:102550000020FFF74EFF681CC5B20A2DF8DB601C97
:10256000C4B2072CECDB70BD002107E0002201E0C3
:10257000531CDAB26E2AFBDB4B1CD9B28142F5DB6D
:1025800070470146002006E0002000E0401C41F2B8
:1025900088329042FAD30A00A1F10101F4D17047C8
:1025A00000B5FFF7BFFE0020FFF77BFF0020FFF71D
:1025B00018FF0020FFF775FF0120FFF712FF002032
:1025C000FFF76FFF0020FFF799FF0020FFF7F7FEEE
:1025D00000BD70472DE9F04788B082460F4690460F
:1025E00099465046FFF75DFF08F03F083846FFF771
:1025F000DEFE4046FFF7EBFE374E09F0FF00A13844
:10260000A121C1EB2921C1EB011202EB411100EB29
:10261000410006EB4016002408E016F8010B04A95F
:10262000085500200DF80400601CC4B2102CF4DB27
:10263000002518E0002412E004A810F81400C5F1E9
:10264000070201219140084207D01DF80510012022
:10265000A0400844C0B20DF80500601CC4B2082CAC
:10266000EADB681CC5B2082DE4DB00251EE000246F
:1026700018E0012000EB440004A9085CC5F1070242
:102680000121914008420BD005F108001DF800100F
:102690000120A0400844C1B205F108000DF8001067
:1026A000601CC4B2082CE4DB681CC5B2082DDEDB5C
:1026B000002405E01DF80400FFF7D3FE601CC4B23F
:1026C000102CF7DB781CC0B2FFF771FE4046FFF715
:1026D0007EFE03E000C009200AFE0000002408E09E
:1026E00016F8010B04A9085500200DF80400601C21
:1026F000C4B2102CF4DB002518E0002412E004A87A
:1027000010F81400C5F1070201219140084207D0DA
:102710001DF805100120A0400844C0B20DF80500C6
:10272000601CC4B2082CEADB681CC5B2082DE4DBCF
:1027300000251EE0002418E0012000EB440004A95D
:10274000085CC5F107020121914008420BD005F158
:1027500008001DF800100120A0400844C1B205F196
:1027600008000DF80010601CC4B2082CE4DB681CE3
:10277000C5B2082DDEDB002405E01DF80400FFF7DC
:1027800070FE601CC4B2102CF7DB08B0BDE8F08707
:102790002DE9F04788B082460F469046994650464C
:1027A000FFF77FFE08F03F083846FFF700FE40467F
:1027B000FFF70DFEE64E09F0FF00A138A121C1EBA5
:1027C0002921C1EB011202EB411100EB410006EBA4
:1027D0004016002408E016F8010B04A90855002053
:1027E0000DF80400601CC4B2102CF4DB002518E0C6
:1027F000002412E004A810F81400C5F1070201211A
:102800009140084207D01DF805100120A04008445F
:10281000C0B20DF80500601CC4B2082CEADB681CCD
:10282000C5B2082DE4DB00251EE0002418E00120DD
:1028300000EB440004A9085CC5F1070201219140A6
:1028400008420BD005F108001DF800100120A0403F
:102850000844C1B205F108000DF80010601CC4B2B4
:10286000082CE4DB681CC5B2082DDEDB002405E083
:102870001DF80400FFF7BDFD601CC4B2102CF7DB8F
:10288000781CC0B2FFF793FD4046FFF7A0FD00247F
:1028900008E016F8010B04A9085500200DF8040003
:1028A000601CC4B2102CF4DB002518E0002412E0F8
:1028B00004A810F81400C5F1070201219140084254
:1028C00007D01DF805100120A0400844C0B20DF843
:1028D0000500601CC4B2082CEADB681CC5B2082DD8
:1028E000E4DB00251EE0002418E0012000EB44009A
:1028F00004A9085CC5F107020121914008420BD0F0
:1029000005F108001DF800100120A0400844C1B2E4
:1029100005F108000DF80010601CC4B2082CE4DBBF
:10292000681CC5B2082DDEDB002405E01DF804009C
:10293000FFF75FFD601CC4B2102CF7DB08B0BDE8E8
:10294000F0872DE9F04180460D4616461F46404669
:10295000FFF7A7FD06F03F062846FFF728FD3046A3
:10296000FFF735FD002407E0202101FB0741794AEC
:10297000505CFFF73EFD641C102CF5D3681CC0B200
:10298000FFF715FD3046FFF722FD002408E0202167
:1029900001FB074110316F4A505CFFF72AFD641CB0
:1029A000102CF4D3BDE8F0812DE9F04107460D4627
:1029B000164698463846FFF774FD06F03F0628464F
:1029C000FFF7F5FC3046FFF702FD002400E0641C31
:1029D000102CFCD3681CC0B2FFF7E9FC3046FFF7AF
:1029E000F6FC002400E0641C102CFCD3BDE8F08150
:1029F0002DE9F04180460D4616461F464046FFF73A
:102A000050FD06F03F062846FFF7D1FC3046FFF7A1
:102A1000DEFC002407E0102101FB07414E4A505C18
:102A2000FFF7E7FC641C082CF5D3681CC0B2FFF765
:102A3000BEFC3046FFF7CBFC002408E0102101FB70
:102A400007410831444A505CFFF7D3FC641C082C52
:102A5000F4D3BDE8F08170472DE9F04180460D4682
:102A600016461F464046FFF71CFD06F03F06284667
:102A7000FFF79DFC3046FFF7AAFC002406E037492B
:102A800001EB0711085DFFF7B4FC641C082CF6D3BA
:102A9000681CC0B2FFF78BFC3046FFF798FC082497
:102AA00006E02E4901EB0711085DFFF7A2FC641C4C
:102AB000102CF6D3BDE8F0812DE9F04180460D469B
:102AC00016461F464046FFF7ECFC06F03F06284638
:102AD000FFF76DFC3046FFF77AFC002406E01F4943
:102AE00001EB0711085DFFF7BCFC641C082CF6D352
:102AF000681CC0B2FFF75BFC3046FFF768FC082497
:102B000006E0164901EB0711085DFFF7AAFC641CFB
:102B1000102CF6D3BDE8F0812DE9F04180460C463B
:102B200015461E464046FFF7E9FC2046FFF73FFCEE
:102B30002846FFF74CFC002704E0FF20FFF759FC74
:102B4000781CC7B2F000B842F7DCBDE8F0810000A5
:102B50000AFE0000AAF100009C0100107C00001099
:102B60003EB5044620780A2190FBF1F201FB1200E9
:102B700021780A2291FBF2F140EA0110C0B28DF8EF
:102B8000040060780A2190FBF1F201FB12006178E9
:102B90000A2291FBF2F140EA0110C0B28DF8050063
:102BA000A0780A2190FBF1F201FB1200A1780A2221
:102BB00091FBF2F140EA0110C0B28DF80600E07816
:102BC0000A2190FBF1F201FB1200E1780A2291FB4D
:102BD000F2F140EA0110C0B28DF8070020790A2115
:102BE00090FBF1F201FB120021790A2291FBF2F134
:102BF00040EA0110C0B28DF8080060790A2190FB0C
:102C0000F1F201FB120061790A2291FBF2F140EA34
:102C10000110C0B28DF80900E088B0F5FA6F17DB3B
:102C20009DF8090040F080008DF80900E088A0F5CB
:102C3000FA60C5B20A2095FBF0F100FB11500A21A1
:102C400095FBF1F140EA0110C0B28DF80A0010E0E6
:102C5000E088A0F26C70C5B20A2095FBF0F100FB91
:102C600011500A2195FBF1F140EA0110C0B28DF834
:102C70000A00072001AB022201210090A220FEF7EA
:102C80001DF83EBD3EB50446072001AB02220121DE
:102C90000090A220FDF7D3FF08B900203EBD9DF8AB
:102CA000040000F00F009DF80410C1F3021101EBC5
:102CB000810100EB410020709DF8050000F00F003D
:102CC0009DF80510C1F3021101EB810100EB4100F9
:102CD00060709DF8060000F00F009DF80610C1F32B
:102CE000011101EB810100EB4100A0709DF807008C
:102CF00000F00F009DF80710C1F3011101EB8101F5
:102D000000EB4100E0709DF8080000F007009DF81E
:102D1000081001F00701091101EB810100EB4100EE
:102D200020719DF8090010F0800F1BD09DF809005C
:102D300000F00F009DF80910C1F3001101EB8101B3
:102D400000EB410060719DF80A0000F00F009DF853
:102D50000A10091101EB810100EB410000F5FA6056
:102D6000E0801AE09DF8090000F00F009DF80910BE
:102D7000C1F3001101EB810100EB410060719DF88E
:102D80000A0000F00F009DF80A10091101EB810103
:102D900000EB410000F26C70E08001207EE710B58E
:102DA00004462046FFF76EFF10BD1CB50446012CFB
:102DB00002D10020019001E020200190012001AB10
:102DC000002201460090A220FDF778FF1CBDFEB551
:102DD00005460C460127082D3CD1022002AB0722F4
:102DE00001210090A220FDF72AFF07409DF808006E
:102DF00000F09F008DF80800B4F5FA6F0BDA9DF82B
:102E0000080040F080008DF80800A4F26C70C0B299
:102E10008DF809000AE09DF8080020F080008DF888
:102E20000800A4F5FA60C0B28DF809009DF8090009
:102E30000A2190FBF1F201FB12009DF809100A2211
:102E400091FBF2F140EA0110C0B28DF809000226B0
:102E5000072541E0072D2AD1012001AB07220146B9
:102E60000090A220FDF7EBFE07409DF8040000F063
:102E700080000190E0B28DF808009DF808000A215A
:102E800090FBF1F201FB12009DF808100A2291FB61
:102E9000F2F140EA0110C0B28DF808009DF8080078
:102EA0009DF8041008438DF80800012614E0E0B2F4
:102EB0008DF808009DF808000A2190FBF1F201FB53
:102EC00012009DF808100A2291FBF2F140EA01106D
:102ED000C0B28DF80800012602AB2A460121A220CB
:102EE0000096FDF7EBFE07403846FEBD1CB50446D4
:102EF000082C27D1022001AB072201210090A2203B
:102F0000FDF79DFE08B900201CBD9DF8050000F0EE
:102F10000F009DF80510091101EB810100EB410044
:102F2000C0B28DF805009DF8040010F0800F04D0A9
:102F30009DF8050000F26C70E6E79DF8050000F5CD
:102F4000FA60E1E7012001AB224601460090A22091
:102F5000FDF775FEA01E062822D2DFE800F004036C
:102F60000B0C1A1300BF9DF8040000F07F008DF8D1
:102F7000040016E000BF9DF8040000F03F008DF84B
:102F800004000EE09DF8040000F01F008DF804001E
:102F900007E09DF8040000F007008DF8040000E051
:102FA00000BF00BF9DF8040000F00F009DF8041062
:102FB000091101EB810100EB4100C0B28DF8040062
:102FC0009DF80400A0E701B582B0012002AB0D22FC
:102FD00001460090A220FDF771FE0EBD7CB50446AF
:102FE0000D460020019014F0800F0CD10A2095FBB3
:102FF000F0F100FB11500A2195FBF1F140EA0110BC
:10300000C0B2019001E08020019004F00F04012083
:1030100001ABA21D01460090A220FDF74FFE7CBD32
:103020007CB504460D468DF804408DF8055002200D
:1030300001AB0E2201210090A220FDF73FFE7CBDD6
:103040007CB504460020019004F08000802817D150
:1030500004F01F000190012001AB024601460090E0
:10306000A220FDF72BFE012001AB02460146009095
:10307000A220FDF7E4FD9DF8040000F01F007CBDD8
:1030800004F0400040281AD1012001AB024601465D
:103090000090A220FDF7D3FD9DF8040000F01F056D
:1030A0009DF8040000F013000190012001AB0246DE
:1030B00001460090A220FDF701FE2846DFE7002030
:1030C000DDE710B50020FFF770FE40F2DD700E491D
:1030D000C880012048711720C870032008710A2099
:1030E0008870092048701E2008700846FFF738FDD8
:1030F00040218120FFF794FF9120FFF7A1FF0120DD
:10310000FFF753FE10BD00000C0500106448007866
:103110007047002062490870704710B561484069E7
:1031200010F4806F0CD15F48406910F4806F07D1B4
:103130005D480068401C5C490860FEF771FD10BDE9
:103140005848406910F4006F0AD15648406910F49D
:10315000006F05D154484068401C53494860EEE771
:103160005048406910F0007F11D14E48406910F07E
:10317000007F0CD14C488068401C4B49886000F0AF
:103180006DF908B900F0A7F8FEF74AFDD7E7454802
:10319000406910F0806F0CD14248406910F0806F98
:1031A00007D14148C068401C3F49C860FEF738FD60
:1031B000C5E73C48406910F0804F0CD13948406960
:1031C00010F0804F07D138480069401C364908612B
:1031D000FEF726FDB3E73348406910F0005F0CD1DD
:1031E0003048406910F0005F07D12F484069401C0B
:1031F0002D494861FEF714FDA1E700BF9FE710B518
:1032000029480068052804D30020274908600420C5
:1032100010BD25484068052810D300202249486089
:103220002048C06D40F008001E49C865FEF7A8FEA2
:103230000021084601F009F90620E9E71A488068EC
:10324000052804D30020184988600520E0E71648C7
:10325000C06805280FD300201349C86001F097FB10
:1032600010B1FFF756FF04E00D480078401C0C49F0
:1032700008700120CCE70C480069052804D3002021
:10328000094908610220C3E707484069052804D3BB
:103290000020054948610320BAE7FF20B8E7000095
:1032A0001405001000C00920FC1E00106648C06D07
:1032B00040F040006449C86570476348C06D40F005
:1032C00020006149C86570475F48C06D40F010003C
:1032D0005D49C86570475C48C06940F480305A4910
:1032E000C86170475848C06940F400405649C861F9
:1032F00070475648006920F001005449086152485F
:10330000006C40F04000504908640846806D40F071
:103310004000886570474D48006920F001004B4926
:1033200008614948006C40F020004749086408469D
:10333000806D40F02000886570474448006920F0A7
:103340000100424908614048006C40F010003E49CD
:1033500008640846806D40F01000886570473B485F
:10336000406820F00100394948603748006840F45F
:103370008030354908600846806940F480308861B3
:1033800070473248006820F08040304908602E487D
:10339000006840F400402C4908600846806940F409
:1033A00000408861704700B5FFF7EBFFFFF7D7FFDC
:1033B000FFF7C3FFFFF7AFFFFFF79BFFFFF792FF9A
:1033C000FFF789FFFFF780FFFFF777FFFFF76EFF3B
:1033D00000BD1D48806D40F040001B498865704766
:1033E0001948806D40F020001749886570471648DD
:1033F000806D40F01000144988657047124880695C
:1034000040F480301049886170470F48806940F46B
:1034100000400D498861704700B5FFF7F6FFFFF7E0
:10342000EDFFFFF7E4FFFFF7DBFFFFF7D2FF00BD83
:1034300000B5FFF757FFFFF74EFFFFF745FFFFF718
:103440003CFFFFF733FF00BD00C0092000C0024071
:10345000FD4908707047FD4908707047FB480078C7
:103460007047FB4A115470470146F948405C704769
:10347000F8490A680260496841607047F64A115489
:1034800070470146F448405C7047F44A1154704755
:1034900010B500BF04F07BFC0028FBD110BD2DE966
:1034A000F04106460D460027ED48EE4908608220AF
:1034B00009680870EB4800684670092D1DD1E9487D
:1034C0000068E6490A68C0F802208988C1800024A3
:1034D00007E0E4480168601C085C3844C7B2601C1F
:1034E000C4B2072CF5DBDF48006807720920DE490B
:1034F0000870DC480068DD4908602A46D948016840
:103500000120FEF79AF8BDE8F0810022D848006853
:103510000078822807D0A520D64B18700120D64B02
:10352000187000207047D24800684078382801D1D0
:103530000120F7E7012106E0CD480068405C104417
:10354000C2B2481CC1B20829F6DB00BFC8480068F7
:10355000007A904207D1A520C64B18700920C64BAF
:1035600018700120DEE7A520C24B18700120C24B65
:1035700018700020D6E770B506460D4601240DE010
:1035800020460AF08CFAA84206D120460AF087FAB3
:10359000FF2801D0012070BD601CC4B2322CEFDDC9
:1035A0000020F8E770B501240FE020460AF077FA12
:1035B000054620460AF08DFB06462B46324621463C
:1035C000AEA0FDF721FD601CC4B2322CEDDD70BD54
:1035D00010B50BF083FA0BF08DFA322802DD0120D2
:1035E0000BF079FA10BD2DE9F04705460E46174657
:1035F0009846DDF820904FF0010AFF2D09D1FF2EEB
:1036000007D1FF2F05D1B8F1FF0F02D10220BDE88D
:10361000F08701241DE020460AF076FBA84216D16F
:1036200020460AF078FBB04211D120460AF07AFB1E
:10363000B8420CD120460AF07CFB404507D1B9F1D5
:10364000000F03D0A9F800404FF0000A03E0601C0F
:10365000C4B2322CDFDD00BF5046D8E72DE9FE436F
:103660004FF0FF3002908E4800210160416012212E
:103670008C480BF016FDFEF7D3FA0BF00BFA074659
:10368000394689A0FDF7C0FC0AF010FA86B20AF0AC
:1036900043FA85B20BF02EFA044688A0FDF7B4FC7D
:1036A00031468DA0FDF7B0FC21468FA0FDF7ACFCA4
:1036B000294691A0FDF7A8FC7A480A30FFF76FFB76
:1036C000FCF708FEE1B20020FFF755FF70B10BF0E8
:1036D000EDF907460BF020FA80460020434602220F
:1036E0002146CDE9007006F00BFE5EE102A8604FB6
:1036F00000903F68BB785E4F3F68FA785C4F3F6848
:1037000039795B4F3F687879FFF76DFF70B90BF03F
:10371000CDF907460BF000FA80460020434603220D
:103720002146CDE9007006F0EBFD3EE102A8504FC6
:1037300000903F68BB784E4F3F68FA784C4F3F6827
:1037400039794B4F3F687879FFF74DFF02280ED14A
:103750000BF0ACF907460BF0DFF98046002043463A
:1037600007222146CDE9007006F0CAFD1DE1322E88
:103770000EDD0BF09BF907460BF0CEF980460020DA
:10378000434605222146CDE9007006F0B9FD0CE163
:10379000C82D0EDD0BF08AF907460BF0BDF9804607
:1037A0000020434604222146CDE9007006F0A8FD22
:1037B000FBE00BF07BF907460BF0AEF980460020EA
:1037C000434606222146CDE9007006F099FD00200F
:1037D0003449487032490870E0B232498870304943
:1037E0004870E8B22F49C8702D4988702048006899
:1037F0004079C8701E480068007908711C4800684C
:10380000C07848711A480068807888711848006844
:1038100080792449C8712249C87100202149487122
:10382000FF20887109F048FF1E490870FF200872C8
:10383000087134A0FDF7E8FB1A48018A35A0FDF7AE
:10384000E3FB1848C17B6BE01F0500102F0500103B
:103850002A0500103A050010200500101805001078
:103860001D1F00104C05001033050010340500101A
:103870005005001030050010310500102D3E696E16
:10388000666F3A3A25643A696E7A6F6E653A2564D6
:103890002C706172746E756D6265723A25640A00EF
:1038A00056050010301F0010476574436F6D526558
:1038B00067466C61673A25640A0000003D3D3D6340
:1038C0006F6D702072656767696E6720696E666FDD
:1038D0002E2E2E2E2E2E0A00746F74616C5F6E7564
:1038E0006D733A25640A0000706172746E756D62C2
:1038F00065723A25640A0000636972616464723A11
:1039000025640A002D2D3E3E73617665206869733B
:10391000743A0A00796561723A25640A0000000071
:10392000FAA0FDF771FBFC48417BFCA0FDF76CFBA6
:10393000F948017BFBA0FDF767FBF748C17AFCA0C3
:10394000FDF762FBF448817AFCA0FDF75DFBFE49C0
:10395000E0B20AF052F9002120460AF028FA09F0F4
:10396000ABFE0746EC490AF034FEE8B204F0D8FC9E
:103970000AF0E9F80AF015FA0AF0DAFEF3A0FDF70A
:1039800043FBFFF725FE0BF091F807460BF0C4F858
:1039900080460BF0AFF8814600204346012249469D
:1039A000CDE9007006F0ACFC00BFFCF799FCFEF717
:1039B00080FBBDE8FE837CB54FF0FF300190EBA0AB
:1039C000FDF722FBFEF72CF901A8EF4D00902D68C2
:1039D000AB78ED4D2D68EA78EB4D2D682979EA4DED
:1039E0002D686879FFF7FFFD44B204BBBDF9040000
:1039F00000281CDBBDF90410E4A0FDF705FBBDF8B1
:103A00000400C0B20AF04BF80546BDF80400C0B28D
:103A10000AF05FF90646DC480068C07943B2DA482C
:103A2000006882792946304605F0B6FF05E000239C
:103A3000FF221946184605F0AFFF7CBD0146FF295D
:103A400001D1012070470020FCE700B5CE4909688C
:103A50004879FFF7F3FF98B1CB4909680879FFF778
:103A6000EDFF68B1C8490968C878FFF7E7FF38B1CA
:103A7000C54909688878FFF7E1FF08B1012000BD5A
:103A80000020FCE738B504464FF0FF302080BE4DE3
:103A900000942D68AB78BC4D2D68EA78BA4D2D683E
:103AA0002979B94D2D686879FFF79DFD08B9012086
:103AB00038BD0020FCE710B5FCF7EBFBFFF789FCF5
:103AC000FFF709FC10BD10B50446204604F008FCC1
:103AD0000221204604F0BFFB10BD10B5044620466D
:103AE00004F0FEFB0121204604F0B5FB10BD10B52B
:103AF00004462146A9A0FDF787FA204604F0DEFB24
:103B00000021204604F0A7FB10BD30B587B0044665
:103B1000122181480BF0C5FA60787F498870A0783F
:103B2000C870E07B48712079C8710846D4F8061047
:103B3000C0F80A10D4F80A10C0F80E10207C76499C
:103B400008719BA0FDF760FA61789EA0FDF75CFA12
:103B5000A1789FA0FDF758FAE17BA1A0FDF754FAE8
:103B60002179A2A0FDF750FA217CA4A0FDF74CFA20
:103B7000FFF7A1FFA078FFF7A6FF012000F001FFEB
:103B80000120FFF768FC208AADF8000012222146D0
:103B900002A80BF00FFA02A80FC803F05CF801208E
:103BA00000F070FC09F088FD05465B490AF011FD44
:103BB0000AF0BEFD07B030BD30B587B00446122113
:103BC00055480BF06EFA607853498870A078C87039
:103BD000E07B48712079C8710846D4F80610C0F817
:103BE0000A10D4F80A10C0F80E10207C4A49087157
:103BF00086A0FDF709FA617872A0FDF705FAA178B1
:103C000073A0FDF701FAE17B75A0FDF7FDF92179BD
:103C100076A0FDF7F9F9217C78A0FDF7F5F9FFF71B
:103C2000DFFBFCF744FB002000F012FC012803D06E
:103C30000321002000F009FC00F027FCB8B9A078AF
:103C4000FFF74BFF042000F01DFC032000F099FE5D
:103C50000320FFF700FC208AADF800001222214665
:103C600002A80BF0A7F902A80FC802F0F4FF09F0B0
:103C700023FD054628490AF0ACFC0AF059FD07B0BF
:103C800030BD70B505460C46214667A0FDF7BCF96E
:103C90002046FFF72CFF6948007828B1684A517820
:103CA0001078224600F061FD0020644908706548E4
:103CB0000078A0B1002063490870FFF7FEFAFCF716
:103CC000FDFA032128460AF049FE322804D10022D9
:103CD000032128460AF039FE002000F052FE5A481F
:103CE000007880B1002058490870FFF7E6FAFCF729
:103CF000E5FA032128460AF031FE312804D10022DA
:103D000003212846A2E0A6E0A2E000006D6F6E74D9
:103D1000683A25640A000000301F00106461793A97
:103D200025640A00686F75723A25640A0000000075
:103D30006D696E7574653A25640A00007365636F7A
:103D40006E643A25640A0000560500102D3E3E734D
:103D50006176652072656720696E666F2073617693
:103D60006520746F20666C6173680A003D3D3D3EBE
:103D70003E3E7369676E616C20737472656E677422
:103D80006820746573740A0050050010636F6D70CD
:103D9000206E756D3A25640A000000006E6F726D2A
:103DA000616C20636972616464723A25640A000080
:103DB0003D3D3D3D3D3E3E616C61726D315F696EE2
:103DC000666F0A00706172743A2025640A00000070
:103DD000636972616464723A2025640A000000001D
:103DE000617474723A2025640A0000006465767478
:103DF0007970653A2025640A0000000076416E6EF5
:103E0000526F773A2025640A000000003D3D3D3D99
:103E10003D3E3E6661756C7420616C61726D5F69D8
:103E20006E666F0A000000006E6F726D616C2C632D
:103E30006972616464723A25640A00001E0500100C
:103E40002AFE040027050010280500100AF07DFD59
:103E5000002000F096FD70BD38B50025A14800781F
:103E600000F00AFAA0490860FFF74FFB01287DD156
:103E7000FDF7C0F89C4800684478362C1ED008DC5A
:103E8000A4F13000062872D2DFE800F012131415F6
:103E90001617412C6CD006DC382C10D0392C14D0DD
:103EA000402C64D114E0422C7ED0512CF9D1F6E0A4
:103EB00000BF00BF00BF00BF00BF00BFF1E000F0C7
:103EC000BDFA8AA0FDF7A0F8EBE0FDF78BF8E8E07B
:103ED00089A0FDF799F8FFF7B8FD18B18BA0FDF7A1
:103EE00093F8DEE06846FFF7CDFD002878D0BDF9F5
:103EF0000000002800DA38BDFDF792FE012000F036
:103F000039FB09214020FFF7CAFABDF9000009F08A
:103F100059FF012805D1BDF9001080A0FDF774F804
:103F2000BFE0BDF9001082A0FDF76EF8BDF80000FB
:103F300081494870BDF80000C0B209F0A6FE7E4974
:103F40008870BDF80000C0B209F0FAFE7A49087125
:103F5000654800688079C87302204871BDF8000088
:103F6000C0B2FDF711F97449087402E0A0E097E0CF
:103F70006DE0881DFEF786FE6F4881786FA0FDF723
:103F800043F86D48C07B33282BD10AF00CF998B95F
:103F90000AF0A5FC80B16EA0FDF736F86649BDF9C0
:103FA00000000AF03AF800E068E063480AF0ACF874
:103FB0006148FFF7AAFD34E0BDF9000009F044FFB5
:103FC00000B16EE0BDF9001066A0FDF71DF85A497A
:103FD000BDF900000AF021F85748FFF796FD20E0F0
:103FE00030E05548C07B322803D05348C07B31288D
:103FF00017D1BDF9000009F036FF28B1BDF9001056
:1040000061A0FDF701F84CE0BDF900105EA0FCF7DF
:10401000FBFF4949BDF9000009F0FFFF4648FFF7E3
:10402000CBFDFFF758F930480068807930280AD175
:104030005CA0FCF7E9FF2946BDF80000C0B2FFF71D
:1040400020FE00E02DE0002000F094FA29E059A0C5
:10405000FCF7DAFF05F061FE10B1FFF7ACFC09E0F8
:104060000AF018FD20B10AF011FDFFF7F7FA01E0A0
:10407000FDF7D6FD002000F07DFA12E01A48006836
:10408000807930280AD0184800688079312805D016
:10409000154800688079322800D000BF01E000E0B8
:1040A00000BF00BF1048006800210160416001723C
:1040B0000C48007800F0CAF80A480078401C09490A
:1040C000087008460078142801D1002008703C4888
:1040D0000078A52804D100203A49087038490870B2
:1040E00000BF08E72605001050050010434D445F4F
:1040F000313339570A0000002D2D3E3E434D445FB9
:10410000414C41524D2121210A00000070736E2064
:10411000616C6C20307866660A0000006E756D2058
:104120006973206D61736B65643A25640A00000051
:104130006E756D3A25640A00421F0010616C617251
:104140006D20636972616464723A25640A0000003C
:104150002D2D2D3E3E3E666972737420616C617236
:104160006D0A00006E756D3A25642068617665649D
:10417000206669726520616C61726D656420666994
:104180007273740A000000006E756D3A2564206831
:1041900061766564206661756C7420616C61726D16
:1041A00065640A006E6F726D616C20737461746572
:1041B0000A000000434D445F434F4D5245470A00FB
:1041C00030050010310500100146ED48405C704795
:1041D00010B50020EB4908700CE0EA480078FCF7C5
:1041E00005FFE749E74A12788854E6480078401C02
:1041F000E4490870E34800780228EEDB10BD10B5F2
:104200000020E049087011E0DE480078FCF7EEFE7F
:10421000DD49097801EBC101DC4A1144D94A127821
:104220008854D8480078401CD6490870D548007892
:104230000928E9DBD4480078401CD34908700846B7
:104240000078142801D10020087010BD0021CD4A4B
:1042500011700CE0002100EBC002CC4B1A44C94B9A
:104260001B78D154C7490978491CC64A1170C54901
:1042700009780929EEDB7047014601EBC100C34A0A
:1042800010447047C2480068401CC149086070472C
:10429000BF4800687047BF480068401CBD490860BF
:1042A0007047BC4800687047BB490978882910D11D
:1042B000002008E0B849095CB84A11540021B64A08
:1042C0001154411CC8B20A28F4DB0121B44A117010
:1042D00015E0B149497A892911D100200AE0AE4997
:1042E0000A5C00F10A01AD4B5A540021AA4A11544C
:1042F000411CC8B20A28F2DB0221A94A117070479A
:104300007FB50025A648007802287CD10020A4496A
:104310000870002406E020460AF041FB2844C5B29C
:10432000601CC4B29D484078401EA042F3DC9B480C
:1043300080782844C5B299480179C07801EB001013
:10434000ADF80000BDF80000C2B2002128460AF016
:1043500030FB92488179407901EB0010ADF8020002
:10436000BDF80200C2B2012128460AF022FB8B48A8
:10437000017AC07901EB0010ADF80400BDF804002B
:10438000C2B2022128460AF014FB8448817A407A9E
:1043900001EB0010ADF80600BDF80600C2B2032123
:1043A00028460AF006FB7D48017BC07A01EB00102D
:1043B000ADF80800BDF80800C2B2042128460AF092
:1043C000F8FA7648817B407B01EB0010ADF80A00DB
:1043D000BDF80A00C2B2052128460AF0EAFA6F4881
:1043E000017CC07B01EB0010ADF80C00BDF80C00A7
:1043F000C2B2062128460AF0DCFA6848817C407C7B
:1044000001EB001000E008E0ADF80E00BDF80E0072
:10441000C2B2072128460AF0CCFA7FBD10B5FFF7DB
:1044200043FFFFF76DFF10BD5E480078401C5D49FB
:104430000870704701205B49087070470020594997
:1044400008707047574800787047574A11547047B2
:1044500001465548405C704701465448405C7047EF
:1044600053480078401C5249087070475048007803
:10447000401E4F49087070474D49087070474C48BE
:10448000007870474B49087070474A480078704779
:104490004949087070474848007870474749087094
:1044A000704746480078704770B50025012410E039
:1044B000204609F0EAFBA84209DD204609F0E5FBA9
:1044C000FF2804DA204609F0E0FB054603E0601C03
:1044D000C4B2322CECDD00BF2846FFF7DFFF70BD11
:1044E00070B5002536A0FCF78FFD01241AE02046A8
:1044F00009F0CBFBA84213DD204609F0C6FBC82813
:104500000EDC204609F0C1FB06462246314631A0AA
:10451000FCF77AFD204609F0B8FB064603F000FFE1
:10452000601CC4B2322CE2DD70BD10B5012404E081
:1045300000202E490855601CC4B2322CF8DD00243E
:1045400005E000212046FEF799FF601CC4B2032C51
:10455000F7DB0020FEF77FFF0020FEF779FF10BD9C
:10456000012004E00021214A1154411CC8B2322824
:10457000F8DD70471E49087070471D480078704785
:10458000600500106305001062050010541F001044
:1045900064050010680500100820001012200010AB
:1045A0006C0500106D0500106E0500107005001000
:1045B00072050010770500107805001079050010CD
:1045C000696E6974206369726164647220696E66E1
:1045D0006F0A000073657420636972616464723AE3
:1045E00025642C636F6D703A25640A002620001044
:1045F0007A05001039490870704739480068401C36
:1046000037490860704736480068704700203449D1
:1046100008607047012033490870704731480078BE
:10462000704700202F49087070472F480078401CC1
:104630002D49087008460078C82801DDC820087098
:104640007047294800787047002027490870704754
:1046500026480078401C2549087008460078C8287C
:1046600001DDC8200870704720480078704700209E
:104670001E490870704710B509F063FD00282CDD55
:104680001B4801780078401C194A10701E2091FBCD
:10469000F0F200FB121080B916A0FCF7B5FCFFF792
:1046A000D0FF044621461AA0FCF7AEFCFFF7DCFF62
:1046B000044621461AA0FCF7A7FCFFF7C2FF3228E8
:1046C0000BDD1BA0FCF7A0FCFFF7CEFF142804DDD8
:1046D0001BA0FCF799FC00F0ABFD10BD8805001095
:1046E0008005001085050010890500108A0500105E
:1046F0008B050010436C725F416C61726D3A6861AA
:1047000076652066697220616C61726D730A0000C3
:10471000786961206C612076616C3A25640A00003A
:10472000776569206C612076616C3A25640A000027
:104730007869616C617369676E616C203E340A0050
:104740002D2D2D2D2D2D2D726573657420616C61BD
:10475000726D20737563632121210A00214A11546F
:10476000704701461F48405C70472DE9F0410646FE
:104770000F4690460024FF201A4908704870887040
:104780000846C6700020087148710120C8716E206B
:104790008871042008720846477201208872C87226
:1047A000084680F80C80002506E00E49E81C085CED
:1047B000204484B2681CC5B20A2DF6DB04F47F40A5
:1047C000C11700EB11610A12002102EB0121054A19
:1047D000517311468C730F220020FCF72EFFBDE8A9
:1047E000F08100005820001010B50446082C21D29A
:1047F000DFE804F02004080C1014181C012008F055
:1048000041F918E0022008F03DF914E0032008F017
:1048100039F910E0042008F035F90CE0052008F023
:1048200031F908E0062008F02DF904E0072008F02F
:1048300029F900E000BF00BF10BD10B50446012CEF
:1048400006D0022C08D0032C0AD0042C10D10BE087
:10485000012008F0FBFB0CE0022008F0F7FB08E069
:10486000032008F0F3FB04E0042008F0EFFB00E075
:1048700000BF00BF10BD10B50446012C04D0022CAF
:1048800006D0032C0CD107E0012006F0D5FE08E08D
:10489000022006F0D1FE04E0032006F0CDFE00E089
:1048A00000BF00BF10BD10B50446012C02D0022C81
:1048B00008D103E0012008F091FD04E0022008F097
:1048C0008DFD00E000BF00BF10BD00003149087041
:1048D000704730480078401C2E49087070472D48BA
:1048E0000078401E2B49087070472A4800787047AE
:1048F00028494870704727484078401C254948702F
:10490000704724484078401E22494870704721482B
:10491000407870471F49887070471E488078401C57
:104920001C49887070471B488078401E1949887060
:1049300070471848807870471749087070471648C4
:104940000078401C14490870704713480078401ED6
:1049500011490870704700200F49087070470E48D1
:10496000007870470D480078401C0C49087070476B
:104970000A480078401E09490870704707480078C7
:104980007047064908707047054908707047044829
:10499000007870478C0500108F05001090050010FE
:1049A000910500100020FC49086070470020FB4979
:1049B0000860704710B5FFF798FF012806D002285D
:1049C00013D0032820D0052835D12CE0FFF793FF22
:1049D000FFF79DFF052802DD0120FFF789FFFFF7A4
:1049E00096FF0446FFF729FF26E0FFF784FFFFF755
:1049F0008EFF032802DD0120FFF77AFFFFF787FF14
:104A00000446FFF738FF17E0FFF775FFFFF77FFF5A
:104A1000022802DD0120FFF76BFFFFF778FF044655
:104A2000FFF741FF08E0DEA0FCF7EEFA00F098FF88
:104A300000F015FD00E000BF00BF10BD70B5FFF72E
:104A400066FF012804D0022803D003281FD11DE0EF
:104A50001EE00AF009FA012806D10AF0E7F9002859
:104A600008DD0AF0A2F905E00AF0F2F9002801DDFC
:104A70000AF0E5F90AF0ECF904460AF0D7F9054620
:104A800000231A46214604F087FF01E000E000BF42
:104A900000BF70BD0146481C70477CB5FFF737FF6B
:104AA000022802D003287CD10CE00AF069F9012821
:104AB00002DD0AF05CF902E032200AF05EF900F053
:104AC00052FE6FE008F0F8FDB3490968491CB24A8C
:104AD0001160884217D908F0EFFDAF490968401A04
:104AE000441E08F0E9FD05462946B1A0FCF78CFA02
:104AF0002146B4A0FCF788FA002C0ADBB84920460E
:104B000009F03AFD05E0B7A0FCF77EFA06F0C3FE17
:104B10007CBDB3488178B8A0FCF776FAB048C1787C
:104B2000B8A0FCF771FAAE48C179BAA0FCF76CFAEC
:104B3000AB484179BAA0FCF767FAA948018ABBA043
:104B4000FCF762FAA648C17BBBA0FCF75DFAA4485B
:104B5000417BBCA0FCF758FAA148017BBBA0FCF745
:104B600053FA9F48C17ABCA0FCF74EFA9C48817A60
:104B7000BCA0FCF749FA0020FDF7C0FC2046FFF777
:104B800089FFC5B296480A3095498978CDE9001069
:104B90000A384379C279C178284607F00DF801E058
:104BA000FFE700BF00BF00BFB2E72DE9FF470AF0F3
:104BB00081F8062845D2DFE800F044030A192836B8
:104BC0000AF004F8002801DD09F0FAFF47E00AF0D6
:104BD0001DF8012802DD0AF013F806E00AF016F8C5
:104BE000012802D10C200AF002F838E00AF01DF882
:104BF000012802DD0AF013F806E00AF016F8012891
:104C000002D11F200AF014F829E00AF023F8002846
:104C100002DD0AF019F805E00AF01CF810B91820B6
:104C20000AF009F81BE00AF027F8002802DD0AF074
:104C30001DF805E00AF020F810B93B200AF00DF845
:104C40000DE00AF02BF8002802DD0AF021F805E05B
:104C50000AF024F810B93B200AF011F800BF00BF99
:104C60000AF028F804460AF019F8C5B20AF004F868
:104C7000C7B209F0EFFF00F0FF0809F0D6FFC6B297
:104C800009F0C4FF00F0FF0909F0A0FF82460120EF
:104C9000434632464946CDE90075CDE902405046CB
:104CA00005F0ACFF09F092FF7149C88009F0AEFF32
:104CB0006F49487109F0B9FF6D49C87009F0CAFF22
:104CC0006B49887009F0D8FF6949487009F0E6FF20
:104CD00067490870BDE8FF87F8B509F062FF022850
:104CE00002D0032816D10AE009F037FF012802DDBF
:104CF00009F02DFF02E0322009F032FF0BE009F04D
:104D000041FF002802DD09F037FF02E0022009F030
:104D10002AFF00E000BF00BF09F043FF044609F08E
:104D200031FF054609F019FF064609F004FF074662
:104D3000102023462A4631460090384605F070FC84
:104D4000F8BD2DE9FC4109F0B1FE02280AD109F0B5
:104D5000D1FE012802DD09F0C7FE02E0322009F091
:104D6000BAFE00E000BF00BF09F0A0FE044609F053
:104D7000D3FE054609F0BEFE064609F0A9FE074629
:104D800000202B4602463146CDE90040384605F06A
:104D9000B7FABDE8FC8100009405001098050010EA
:104DA000636C6F736520737065616B65720A0000D8
:104DB000686973746F7279206E756D733A25640A31
:104DC000000000002D2D2D3E3E6C6F6F6B2068693A
:104DD00073746F727920787568616F3A25640A0080
:104DE000301F00102D2D3E3E686973746F7279205C
:104DF0006F76657200000000706172743A25640A73
:104E000000000000636972636C65616464723A2536
:104E1000640A0000646576747970653A25640A0056
:104E2000617474723A25640A000000007965617249
:104E30003A25640A000000006D6F6E74683A2564BC
:104E40000A0000006461793A25640A00686F75728F
:104E50003A25640A000000006D696E7574653A2594
:104E6000640A00007365636F6E643A25640A00008B
:104E7000A40500102DE9FF4709F0DAFD012804D050
:104E8000022810D003282AD11BE0002009F0C3FD1E
:104E9000002803DD002009F0B8FD03E00221002016
:104EA00009F09CFD1CE0012009F0B5FD002803DDA0
:104EB000012009F0AAFD03E00921012009F08EFD7F
:104EC0000EE0022009F0A7FD002803DD022009F012
:104ED0009CFD03E00921022009F080FD00E000BFF5
:104EE00000BF09F0C7FD00F01CFB044608F014FEEB
:104EF000844226D009F09CFD0446022009F0AAFD58
:104F00000546012009F0A6FD0646002009F0A2FD95
:104F10000746022009F07FFD8046012009F07BFD55
:104F20008146002009F077FD824603203B46424639
:104F30004946CDE90065CDE90240504607F0B0F999
:104F400025E009F075FD0446022009F083FD0546C1
:104F5000012009F07FFD0646002009F07BFD074691
:104F6000022009F058FD8046012009F054FD8146D9
:104F7000002009F050FD824600203B46424649464B
:104F8000CDE90065CDE90240504607F089F9BDE85A
:104F9000FF8710B5FFF7BBFC012806D0022807D019
:104FA000032808D004280CD108E0FFF763FF09E0CC
:104FB000FFF7C7FE06E0FFF78FFE03E0FFF7F5FD02
:104FC00000E000BF00BF10BD10B5FFF78EFC012848
:104FD00006D0022807D0032808D004280AD108E008
:104FE000FFF7D7FF07E0FFF758FD04E0FFF726FDC6
:104FF00001E000E000BF00BF10BD10B5FFF799FC55
:10500000012804D0022803D0032803D101E002E0E4
:1050100001E000E000BF00BF10BD000010B5FFF7C9
:1050200064FC07283CD2DFE800F03B04272B2F3339
:10503000370000F07EFB012007F024FD1520012140
:10504000814042094FF0E02303EB8202C2F80011D5
:1050500000BF0021002807DACA06140E5C4A00F0DF
:105060000F031B1FD45403E0CA06130E594A1354EE
:1050700000BF00F0BFF814E0022007F003FD10E0CD
:10508000032007F0FFFC0CE0042007F0FBFC08E025
:10509000052007F0F7FC04E0062007F0F3FC00E031
:1050A00000BF00BF0120FFF723FC10BD10B5FFF7C4
:1050B0002EFC012806D002280BD0032812D0042889
:1050C0001ED116E0012007F0C1FF012009F0ADFC60
:1050D00017E0022007F0BAFF022009F0E4FC09F013
:1050E000D5FC0EE0032007F0B1FF022009F05CFDC3
:1050F00007E0042007F0AAFF012009F0D2FD00E03C
:1051000000BF00BF0120FFF705FC10BD10B5FFF781
:10511000FEFB012804D0022809D0032819D111E090
:105120000020FDF7EBF9012006F086FA12E00020DE
:10513000FDF7E4F9022006F07FFAFFF733FCFFF7F2
:1051400035FC07E00020FDF7D9F9032006F074FADA
:1051500000E000BF00BF0120FFF7DCFB10BD10B571
:10516000FFF7D5FB012802D0022812D10AE0FEF792
:105170005FF9002000F030F8FCF702FF012008F092
:105180002DF907E0002004F0C5FD022008F026F903
:1051900000E000BF00BF0120FFF7BCFB10BD10B551
:1051A000FFF7C7FB012806D0022805D0032804D04A
:1051B000042806D104E005E004E0FFF7F3FB01E07A
:1051C00000E000BF00BF0120FFF7A4FB10BD0000FE
:1051D00018ED00E000E400E0FC4908707047FB486F
:1051E0000078704710B5FAA0FBF70EFF0120FC49CC
:1051F000087010BD0020FA4908707047F848007820
:10520000704710B5FFF783FB0446FFF716FBFFF767
:10521000E9FF10BD10B5FFF77AFB0446FFF72BFB43
:1052200010BD10B5FFF773FB0446FFF73CFB10BD44
:1052300010B5FCF7F8FE02F0AFFD0020FDF75EF9B7
:1052400002213820FEF72BF902213820FEF727F93A
:10525000FEF733F8FEF72AF8FBF722F8FBF72EF8F3
:1052600000210846FFF7F1F800210120FFF7EDF8D3
:105270000020FFF707F90020FFF783FB0120FFF76D
:1052800025FB0120FFF722FB0020FEF7E4F808F0E1
:10529000BCFEFCF775FEFFF7EAF9FFF7D5F907F05A
:1052A0003FFAFCF7D7FE40F6B830FDF705F810BD21
:1052B0007FB50446CBA30FCB8DE80F0000216846D5
:1052C00006F010FF05462B46102221460120FDF76F
:1052D0005FFA0221684606F005FF05462B462022AC
:1052E00021460120FDF754FA0421684606F0FAFE33
:1052F00005462B46302221460120FDF749FA0621BA
:10530000684606F0EFFE05462B46002221460220A5
:10531000FDF73EFA0821684606F0E4FE05462B46F6
:10532000102221460220FDF733FA0A21684606F0D2
:10533000D9FE05462B46202221460220FDF728FAF9
:105340007FBD10B501240020FDF7D8F80220FFF73B
:10535000AFFF4FF4FA60FCF7AFFF14E0A5484069D7
:1053600010F0007F09D100240220FFF70AFBFFF7AD
:10537000ECFA0120FFF7AAFA06E09E48406910F413
:10538000806F00D000E0E9E700BF15E09948406970
:1053900010F0007F09D100240220FFF7F2FAFFF796
:1053A000D4FA0120FFF792FA0BE0641C914840699F
:1053B00010F4806F00D104E08E48406910F4806FD3
:1053C000E4D100BF1E2C46D90020FDF797F807F066
:1053D00089FCFAF77FFF08F05FFC0020FBF7D0F9AB
:1053E0004FF48030FBF7CCF94FF40030FBF7C8F9ED
:1053F0004FF44030FBF7C4F94FF48020FBF7C0F9BD
:105400004FF40020FBF7BCF94FF41020FBF7B8F97C
:105410004FF42020FBF7B4F94FF43020FBF7B0F93C
:105420004FF44020FBF7ACF94FF45020FBF7A8F9FC
:105430004FF46020FBF7A4F94FF47020FBF7A0F9BC
:1054400009F0CDF9FAF74CFF0020FDF757F807F007
:10545000CAFB07F06EFB10BD67480078704710B5B7
:10546000FFF7FAFF18B1012007F0EEFB04E000207F
:105470006149087007F0E8FB10BD10B5FFF7EFFFBA
:1054800010BD10B50446072C17D2DFE804F016044F
:10549000070A0D101300FFF7B4FE0FE0FFF7BAFE86
:1054A0000CE0FFF7BEFE09E0FFF74BFF06E0FFF759
:1054B000E4FF03E0FFF7BCFE00E000BF00BF10BD4B
:1054C00010B508F029FBFF2802D1962008F016FB42
:1054D00008F022FB6421B0FBF1F0C4B221460020A9
:1054E00009F07CFA08F018FB6421B0FBF1F201FB33
:1054F00012000A21B0FBF1F42146012009F06EFAF6
:1055000008F00AFB6421B0FBF1F201FB12000A2152
:10551000B0FBF1F201FB12042146022009F05EFA11
:1055200010BD10B5002009F076FA642100FB01F4EB
:10553000012009F070FA0A2101FB0044022009F061
:105540006AFA204480B210BD10B5FFF7EAFFC82800
:1055500001DD09F046FA10BD0120284908707047A6
:1055600026480078704700202449087070472DE9CC
:10557000FF47FFF7F1FFFFF7A3FFFFF7E5FF02206B
:1055800009F068FA0446012009F064FA0546002093
:1055900009F060FA0646022009F03DFA07460120AC
:1055A00009F039FA8046002009F035FA81460020DA
:1055B000012133463A46CDE90054CDE90210414677
:1055C000484606F06DFEBDE8FF870000A00500100C
:1055D000736574206E6F746520666C6167210A00C4
:1055E0009F050010C7EBB0B4C8B7B6A8C9BEB3FDDD
:1055F0000000000000C00920A10500109C0500105B
:105600002DE9FC4109F076FA322802DD002009F08C
:1056100050FA09F04BFA044609F07EFA054609F003
:1056200069FA064609F054FA074600202B4602465E
:105630003146CDE90040384604F062FE09F022FA16
:10564000BDE8FC81F8B509F0ACFA044609F09AFA15
:10565000054609F082FA064609F06DFA0746002071
:1056600023462A4631460090384604F0D9FFF8BD5B
:105670002DE9F04387B005A8FDF704FBBDF81A003B
:1056800009F095FA9DF8190009F0B1FA9DF8170094
:1056900009F0CEFA9DF8160009F0CDFA9DF8150034
:1056A00009F0DBFA9DF8140009F0E9FA09F0F6FABE
:1056B000C4B209F0E1FAC5B209F0CCFAC6B209F0F9
:1056C000B4FAC7B209F0A2FA00F0FF0809F07EFAB6
:1056D00081460020012133463A46CDE90054CDE908
:1056E00002104146484605F089FA07B0BDE8F0834C
:1056F00010B50446012C06D0022C07D0032C08D08C
:10570000042C0CD108E0FFF732FF09E0FFF778FF27
:1057100006E0FFF797FF03E0FFF7AAFF00E000BFF6
:1057200000BF10BD0120FE4908707047FC4800789A
:1057300070470020FA490870704770B5FFF7F2FF14
:105740000020FCF7DBFE09F0F7FA064608F0AEF998
:10575000C4B208F0EDF985B200233246214628464E
:1057600006F0C4FF70BD2DE9FC4709F009FB0446B3
:1057700009F0F4FA0546214609F043F810B309F0A0
:10578000FFFA054609F0EAFA0646294609F08AF8C2
:10579000044609F001FB0546E0B208F076FA064639
:1057A000E0B208F0CDFA074609F0EAFA804609F0BF
:1057B000D5FA814600233A464146CDE9006505F019
:1057C00034F80FE009F0DCFA044609F0C7FA0546A0
:1057D000222000210B460A46CDE90010214628462A
:1057E00005F023F8BDE8FC8730B587B0CDA0FBF706
:1057F0000BFC0020FCF782FEFFF7D4F8FFF7D6F889
:1058000007F05AFF18B906F001F807B030BD07F0ED
:1058100053FF441E002C03DB02A9204608F0ACFE17
:105820009DF80A10C5A0FBF7EFFB9DF80B10C6A072
:10583000FBF7EAFB9DF80F10C7A0FBF7E5FB9DF80F
:105840000D10C8A0FBF7E0FBBDF81810C8A0FBF7CF
:10585000DBFB9DF81710C9A0FBF7D6FB9DF81510D0
:10586000C9A0FBF7D1FB9DF81410C9A0FBF7CCFB36
:105870009DF81310C9A0FBF7C7FB9DF81210CAA032
:10588000FBF7C2FB2046FFF705F9C5B20DF1120088
:105890009DF80A10CDE900109DF80D309DF80F20FD
:1058A0009DF80B10284606F087F900BFADE710B54C
:1058B0000446012C04D0022C05D0032C09D105E0AC
:1058C000FFF73BFF06E0FFF74EFF03E0FFF78CFF1B
:1058D00000E000BF00BF10BD10B50020FCF70EFEB9
:1058E00002213820FDF7DBFDFDF796FD0120FFF7D3
:1058F00073FCFCF73EFB43F69820FCF7DDFC06F05A
:105900004BFF4FF4FA60FCF7D7FC0320FFF714F8C5
:105910000320FEF7DBFF0120FEF7EAFF01F01DFF89
:1059200010BD10B500231A461946184604F034F885
:10593000012004F0EFF910BD10B50446012C02D08F
:10594000022C06D102E0FFF7C7FF03E0FFF7E9FFF3
:1059500000E000BF00BF10BD0120964908707047ED
:1059600000209449087070472DE9FF47FFF7D9FDE3
:10597000C82801DD09F035F808F0CEF80446FFF735
:10598000D0FD844227D109F053F80446022009F0E3
:1059900061F80546012009F05DF80646002009F08F
:1059A00059F80746022009F036F88046012009F030
:1059B00032F88146002009F02EF8824604203B464A
:1059C00042464946CDE90065CDE90240504606F021
:1059D00067FCBDE8FF8709F02BF80446022009F0B8
:1059E00039F80546012009F035F80646002009F08F
:1059F00031F80746022009F00EF88046012009F030
:105A00000AF88146002009F006F8824602203B464B
:105A100042464946CDE90065CDE90240504606F0D0
:105A20003FFCFFF77EFDC4B2204608F067F808F09F
:105A300017F808F0FDFF0446022009F00BF80546B0
:105A4000012009F007F80646002009F003F8074690
:105A5000022008F0E0FF8046012008F0DCFF8146CC
:105A6000002008F0D8FF824601203B4642464946C6
:105A7000CDE90065CDE90240504606F011FC00BFBB
:105A8000A7E73EB54CA207CA8DE80700062400210F
:105A9000684606F027FB05462B46002221460120DA
:105AA000FCF776FE0221684606F01CFB05462B46F5
:105AB000102221460120FCF76BFE0421684606F007
:105AC00011FB05462B46202221460120FCF760FEF3
:105AD0000621684606F006FB05462B463022214685
