:020000040000FA
:10000000D0790010AD010000B5010000B70100007B
:10001000B9010000BB010000BD01000000000000AC
:10002000000000000000000000000000BF01000010
:10003000C101000000000000C3010000290200000F
:10004000C70100001F1B0000371B00004D1B0000F4
:10005000C70100003F120000C7100000C7010000E8
:10006000C70100005D1E00000D0D0000C70100006B
:10007000C7010000C7010000C7010000C701000060
:10008000C7010000C7010000C701000007210000F0
:10009000C7010000F1210000C7010000C7010000F6
:1000A000C7010000C7010000C7010000C701000030
:1000B000C7010000C7010000C7010000C701000020
:1000C000C7010000C7010000C701000000F002F8EE
:1000D00000F05CF80AA090E8000C82448344AAF186
:1000E0000107DA4501D100F051F8AFF2090EBAE884
:1000F0000F0013F0010F18BFFB1A43F0010318475C
:10010000E4000500040105000A444FF0000C10F85B
:10011000013B13F0070408BF10F8014B1D1108BF85
:1001200010F8015B641E05D010F8016B641E01F825
:10013000016BF9D113F0080F1EBF10F8014BAD1C75
:100140000C1B09D16D1E58BF01F801CBFAD505E093
:1001500014F8016B01F8016B6D1EF9D59142D6D3ED
:10016000704700000023002400250026103A28BF15
:1001700078C1FBD8520728BF30C148BF0B60704719
:100180001FB50FF0EDF81FBD10B510BD0FF0B4F89E
:100190001146FFF7F5FF00F027F800F0A8F803B4C8
:1001A000FFF7F2FF03BC0FF0D5F8000009488047C5
:1001B00009480047FEE7FEE7FEE7FEE7FEE7FEE749
:1001C000FEE7FEE7FEE7FEE704480549034A054B64
:1001D0007047000001030000CD000000D077001040
:1001E000D0790010D077001000F0E1F807F089FB1B
:1001F00003A001F058FA01E007F0FCFBFCE7000067
:100200003D3D3D3D3D68656C6C6F20313339207755
:100210006972656C657373206D6F643D3D3D3D3D56
:100220003D3D3D3D3D0A00000D480068401C0C4925
:1002300008607047704700BF411EC9B20800FBD17B
:10024000704710B5044605E0F520FFF7F4FFF520F0
:10025000FFF7F1FF2000A4F10104F5D110BD00006B
:10026000040000101948006820F0010017490860D8
:100270000846006820F0020008601548006840F059
:100280000300134908600846C06940F00300C861D4
:1002900070470F48806940F001000D498861704740
:1002A0000B48C06940F001000949C861704708481F
:1002B000806940F002000649886170470448C069BF
:1002C00040F002000249C8617047000000C00240CF
:1002D00000C0092010B501F076FE07F0CBFD10BD7F
:1002E00010B501F087FE10BD704770477047044697
:1002F000AFF300802046FFF752FF7047FFFFFFFF7C
:10030000002020217A4A116000BF7949096811F064
:10031000400FFAD00321774A11607749774AC2F833
:10032000A8114FF00001764A11604FF00101754AA3
:1003300011604FF00F01744A11604FF00101A2F1FA
:10034000040211604FF0AA01704A11604FF055018C
:100350006A4AC2F88C106B490968022906D000BFAE
:100360006B49096811F0806FFAD004E0002000E0CA
:10037000401C6428FCD90321664A11604FF0AA0191
:100380005E4AC2F88C104FF05501604A11604FF080
:100390000701614A11606149614A11604FF0000133
:1003A000604A116043F23A01544A1160704758485C
:1003B0000068C0F30160032868D15248006810F05B
:1003C000030006D0012823D002283FD003285CD1A7
:1003D00000E000BF4E480068C0F30E0000F10100CD
:1003E0004FEA40014548D0F88800C0F3074000F1CB
:1003F0000100B1FBF0F04C4900FB01F03D490968F8
:10040000C9B201F10101B0FBF1F0484908603CE0DC
:100410003F480068C0F30E0000F101004FEA4001C0
:100420003648D0F88800C0F3074000F10100B1FB66
:10043000F0F03F4900FB01F02E490968C9B201F113
:100440000101B0FBF1F0394908601EE03048006856
:10045000C0F30E0000F101004FEA40012748D0F838
:100460008800C0F3074000F10100B1FBF0F04FF449
:10047000FA4100FB01F01F490968C9B201F101010D
:10048000B0FBF1F02949086000BF2FE01D4800686B
:1004900010F0030006D0012810D0022819D003283C
:1004A00023D100E000BF13480068C0B200F1010092
:1004B0001D49B1FBF0F01D49086016E00D480068C9
:1004C000C0B200F101001A49B1FBF0F01749086011
:1004D0000BE008480068C0B200F101004FF4FA4197
:1004E000B1FBF0F01149086000BF00BF7047000089
:1004F000A0C10F4004C10F404010110000C00F40C8
:10050000ACC10F400CC10F4084C00F408CC00F40E5
:1005100088C00F4080C00F4008C10F40DEF7EFEFEA
:10052000C4C00F40C8C10F4000093D0000000010CA
:10053000001BB700FE48006840F48060FD49C1F828
:10054000C400FD48006820F48070FB49086008463C
:10055000006820F4007008600846006820F480609D
:1005600008600846006820F40060086008460068DB
:1005700020F4805008600846006820F400500860AD
:100580000846006820F4804008600846006840F48F
:10059000004008600846006820F480300860084683
:1005A000006840F4003008600846006820F48020AD
:1005B00008600846006840F400200860DF480068D2
:1005C00040F01000DD4908600846006840F0200057
:1005D00008600846006840F0400008600846C069AE
:1005E00040F01000C8610846806940F02000886132
:1005F0000846806940F0400088614FF00700D0490C
:1006000008604FF0020048604FF004000861CB48DA
:10061000806940F04000C949886170470146C84878
:10062000816000BFC648C06810F0100FFAD1C448FE
:100630008068C0B2704700B50246C048C06940F04B
:100640004000BE49C8611046FFF7E8FFBB4880691B
:1006500040F04000B949886100BD00B50246B74886
:10066000C06940F04000B549C861D0B2FFF7D6FF7D
:10067000FF20FFF7D3FF0346B048806940F04000F9
:10068000AE498861184600BD00B502460B46AB482E
:10069000C06940F04000A949C861D0B2FFF7BEFF71
:1006A000D8B2FFF7BBFFA548806940F04000A349DE
:1006B000886100BD10B50520FFF7CFFF20F07C0456
:1006C00021460120FFF7E0FF0620FFF7B4FF9B481B
:1006D000806940F010009949886110BD10B505206F
:1006E000FFF7BBFF40F01C0421460120FFF7CCFFC1
:1006F0000420FFF7A0FF9148C06940F010008F4927
:10070000C86110BD00B505228C48C06940F04000AA
:100710008A49C8610520FFF781FFFF20FFF77EFFB0
:1007200003468648806940F040008449886101E0C2
:10073000501EC2B2002AFBDC03F0010000BD38B538
:100740000446200C8DF80000200A8DF80100E0B26C
:100750008DF80200FFF7AEFF7848C06940F0400016
:100760007649C861D820FFF759FF9DF80000FFF7D0
:1007700055FF9DF80100FFF751FF9DF80200FFF7BC
:100780004DFF6E48806940F040006C49886100BFB1
:10079000FFF7B8FF0028FBD1FFF7A0FF38BD10B569
:1007A000FFF788FFC720FFF746FF00BFFFF7AAFF4C
:1007B0000028FBD1FFF792FF10BD38B504460D4667
:1007C000200C8DF80000200A8DF80100E0B28DF8B1
:1007D0000200FFF76FFF5948C06940F040005749D9
:1007E000C8610220FFF71AFF9DF80000FFF716FF0F
:1007F0009DF80100FFF712FF9DF80200FFF70EFFC2
:100800002846FFF70BFF4D48806940F040004B49F8
:100810008861FFF763FF00BFFFF774FF0028FBD17B
:1008200038BDF8B504460D461646FFF743FF43486A
:10083000C06940F040004149C861200C8DF80000BB
:10084000200A8DF80100E0B28DF802000220FFF7C7
:10085000E5FE9DF80000FFF7E1FE9DF80100FFF7BF
:10086000DDFE9DF80200FFF7D9FE002704E028789E
:10087000FFF7D4FE781CC7B2B742F8DB2F48806977
:1008800040F040002D498861FFF728FF00BFFFF7C7
:1008900039FF0028FBD1F8BD08B502462748C069DA
:1008A00040F040002549C861100C8DF80000100A86
:1008B0008DF80100D0B28DF802000320FFF7AEFEE4
:1008C0009DF80000FFF7AAFE9DF80100FFF7A6FEC5
:1008D0009DF80200FFF7A2FEFF20FFF79FFE0346F0
:1008E0001648806940F0400014498861184608BDE8
:1008F000F8B504460D4616461048C06940F0400061
:100900000E49C861200C8DF80000200A8DF8010006
:10091000E0B28DF802000320FFF780FE9DF8000092
:10092000FFF77CFE9DF80100FFF778FE0AE000006B
:10093000C4C00F4000C00F4000C0024000C00920EA
:10094000000003409DF80200FFF768FE002706E064
:10095000FF20FFF763FE05F8010B781CC7B2B74212
:10096000F6DB4C48806940F040004A49886100BF8E
:10097000FFF7C8FE0028FBD1F8BD70B500BF00230B
:100980002EE0A8B900BF444DED6805F01205022D18
:10099000F9D10D78404EB560491C00BF3E4DED6861
:1009A00005F01405042DF9D13B4DAD68ECB216E00D
:1009B000012814D100BF394DED6805F01205022D54
:1009C000F9D10D78354EB560491C00BF334DED6847
:1009D00005F01405042DF9D1304DAD68ECB25B1C67
:1009E0009342CED370BD30B5002320E070B9FF2410
:1009F000294DAC6000BF284CE46804F01404042CBA
:100A0000F9D1254CA46801F8014B0FE001280DD164
:100A1000FF24224DAC6000BF204CE46804F01404B5
:100A2000042CF9D11D4CA46801F8014B5B1C9342C6
:100A3000DCD330BD08B502461648C06940F040001E
:100A40001449C861100C8DF80000100A8DF80100DF
:100A5000D0B28DF802000B20FFF7E0FD9DF80000FA
:100A6000FFF7DCFD9DF80100FFF7D8FD9DF80200BF
:100A7000FFF7D4FD0020FFF7D1FDFF20FFF7CEFDEB
:100A800003460448806940F04000024988611846E6
:100A900008BD000000C0092000800840000003409D
:100AA00010B5002807DACA06140EF84A00F00F0342
:100AB0001B1FD45403E0CA06130EF54A135410BD8D
:100AC0000146F4480078012800D170470CE000226C
:100AD00005E0F0480078012800D1F6E7521C41F209
:100AE00088308242F5D3491E0029F0D10020ECE77E
:100AF00010B50446E848006840F40020E749C1F812
:100B0000C400E748406820F07070E5494860084636
:100B1000406840F0A07048604FF06C00E149886187
:100B2000E148844200D90446E048B0FBF4F0401CA0
:100B30004008DC490861DD48B0FBF4F0400848613A
:100B40002C208861402008600A2000F0FDF9402038
:100B5000D449086018210620FFF7A2FF10BD10B588
:100B60000A2000F0F1F918210620FFF799FF10BDC7
:100B700010B50A2000F0F4F910BD10B50A2000F0FD
:100B8000EFF910BD10B50A2000F0DEF94020C5498C
:100B9000086018210620FFF783FF10BD13B5044637
:100BA000C348047001A8C34908600120C249086015
:100BB0000020C2490870B74908702C20B9498861E3
:100BC000602008601420FFF77BFF1CBD70B5054650
:100BD0000C46681CB6490870B64804600120B64946
:100BE00008600020B5490870AA4908702C20B44953
:100BF0008861602008601420FFF762FF70BD2DE956
:100C0000F04105460E4614461F46DDF81880B8F13F
:100C1000000F37D0012E07D1681CA5490870A948DC
:100C200004600120A8490870022E07D1681CA04961
:100C30000870A44804600220A3490870032E0CD158
:100C40000E2000EAD4102844401C99490870E0B2F4
:100C50009C49086001209C490870964807609648A6
:100C6000C0F800800120954908700020894908706B
:100C70002C208C498861602008601420FFF720FF39
:100C8000BDE8F0810020FBE72DE9F04105460E4666
:100C900014461F46DDF81880B8F1000F34D0012E3D
:100CA00006D1834805708748046001208649087092
:100CB000022E06D17E4805708248046002208249D7
:100CC0000870032E0BD10E2000EAD4102844784976
:100CD0000870E0B27B49086001207B4908707548C4
:100CE00007607548C0F80080022074490870002031
:100CF000684908702C206B498861602008601420C6
:100D0000FFF7DEFEBDE8F0810020FBE765484068A4
:100D100000F0F80010F0070F79D1C0100C2876D23F
:100D2000DFE800F075061920D421D5D6A5D7DEFC62
:100D300062480078012806D15D48007800F0FE0086
:100D40005849886003E05A4800785649886028204E
:100D500054498861F6E05648007852498860282056
:100D60008861EFE000BF55480078E8B95248006854
:100D700090B15048006800784A4988604D48006842
:100D8000401C4C4908602820464988614A48006850
:100D9000401E4949086007E01020424908602820A9
:100DA000886101203B4908704448007801282FD110
:100DB0004548007802280DD142480068C0F307205A
:100DC00038498860282088613F480078401E3E49A5
:100DD0000870B7E03C48007801280CD13948006819
:100DE000C0B2304988602820886137480078401EAA
:100DF00035490870A6E03448007848B908202949E8
:100E000088612020086000202C4908709AE098E052
:100E10002A480078022829D12B480078002825DDAF
:100E20002948007802280DD126480068C0F3072021
:100E30001C4988602820886123480078401E224988
:100E400008707FE02048007801280FD11D48006815
:100E5000C0B214498860282088611B480078401E71
:100E6000194908700020154908706BE06AE01248C3
:100E70000068012803D804200A49886102E00420A0
:100E8000084908602820074988615BE018ED00E008
:100E900000E400E01C000010C4C00F4000C00F4080
:100EA00000C0024000C00140801A060000366E01FA
:100EB0000800001014000010180000101D000010A1
:100EC00000C005400C0000101000001000BF00BF63
:100ED00000BF282027498861FF202749087031E09A
:100EE0002448806825490968087024480068401C27
:100EF0002249086022480068401E214908600846CF
:100F00000068012804D12C201A49886105E005E019
:100F10000420184908602820886113E0154880687B
:100F200016490968087015480068401C1349086094
:100F30001020104908602820886101200E4908709F
:100F400000E000BF00BF704700F01F020121914088
:100F500042094FF0E02303EB8202C2F80011704710
:100F600000F01F0201219140064A430942F8231074
:100F70007047000000C001401C0000101400001069
:100F80001800001080E100E010B5002807DACA065A
:100F9000140EFE4A00F00F031B1FD45403E0CA06D0
:100FA000130EFB4A135410BD002004E00021F94A3F
:100FB0001154411CC8B20C28F8DB70470020F649D8
:100FC000087070470146F548405C7047002004E017
:100FD0000021F24A1154411CC8B20928F8DB7047BD
:100FE000704710B54FF40020FFF756FCEC4908702D
:100FF00008460078FF2801D100200870E8480178F1
:10100000E8A0FFF7EDFF10BD70B500242FE02146EA
:10101000E9A0FFF7E5FF002522E004EBC401C1EBE6
:10102000841101F580214819FFF736FC04EBC40157
:10103000C1EB8411E34A1144485504EBC400C0EBF2
:1010400084101146085C802808D104EBC400C0EB72
:1010500084101044415DDCA0FFF7C2FF681CC5B2DC
:10106000372DDADBD9A0FFF7BBFF601CC4B2322CEE
:10107000CDDB70BD024602EBC200C0EB8210D14B4B
:101080001844405C704710B5C4488178002002F0D5
:10109000B2F9C248C178012002F0ADF9BF48017928
:1010A000022002F0A8F9BD484179032002F0A3F91B
:1010B000BA488179042002F09EF9B848C179052028
:1010C00002F099F910BD38B5B3480078092843DA21
:1010D000BF480068B149B04A127888540846007881
:1010E000822805D1AC480078401CAB49087002E06A
:1010F0000020A9490870A9484078382807D1002065
:10110000A549087003F03FF803F05CF924E0A24819
:101110000078092820D100209F49087003F033F897
:101120000DF09AFD28B1FFF7AEFF0921412002F032
:101130006CF908F03EFF78B10020984C0090A3783D
:10114000E2782179607902F0EEF928B9FFF79BFF88
:101150000921412002F059F938BD9E4800787047B6
:1011600010B50246FF2001210CE001EBC103C3EBE7
:101170008113944C23449B78934201D1084603E0A9
:101180004B1CD9B23229F0DD00BF10BD0246022946
:101190000AD10A2A08D100BF8F48406910F0200FF9
:1011A000FAD00D208C4B186000BF8B48406910F0BE
:1011B000200FFAD0884802600020704710B586489A
:1011C00000688649864A12888854084684490988F6
:1011D000405C20280DD182480088142809DD7F4812
:1011E0007F490988405C7F4908707D4800887E49B6
:1011F00008807A497C480088C01C085C6E2811D1A0
:1012000079480088801C085C60B977480088401CD9
:10121000085C38B9002072490880734908800120B1
:101220006C4908706D496E4A1288885C0021FFF78E
:10123000ADFF6B480088401C6949088010BD10B59F
:1012400003F0FEFF10B1FFF7B9FF1DE06248006830
:101250005049664A1278885408460078FF2805D11C
:1012600062480078401C6149087002E000205F4934
:1012700008704848C07A832806D100205B4908706E
:1012800003F0CAF8FFF790FE10BD70B54FF4802050
:10129000FFF755FA002417E0002511E004EBC40223
:1012A000C2EB8412474B1A44515D04EBC402C2EBFB
:1012B000841202F580225019FFF77FFA681CC5B22C
:1012C000372DEBDB601CC4B2322CE5DB70BD2DE9A1
:1012D000F0414FF000080026002700253D48007827
:1012E000012851D100241AE03C48005D1F2804D198
:1012F00080213A4A601D1154A0463848005D20B94B
:10130000444502DD701CC6B200E00026042E04D164
:101310008721E01E314A11540026601C84B2B4F5C6
:10132000FA6FE1DB002473E02C48005D80281AD1BD
:101330002A49A01C0D5C322D00DD67E005B965E08F
:101340002648015D05EBC500C0EB85101D4A02442F
:10135000274803780078401CDFF894C08CF8000020
:10136000D154012751E0012F4FD11C48015D05EBFD
:10137000C500C0EB8510134A02441D48037800786D
:10138000401CDFF86CC035E058E0000018ED00E0CC
:1013900000E400E0341D001023000010361200109D
:1013A000260000106E6F746520636F756E74657231
:1013B0003A25640A0000000064617461325B2564B0
:1013C0005D3A00003F120010256420000A00000072
:1013D000000001402200001000C000405C0A001024
:1013E0001E0000102C12001020000010250000101C
:1013F000240000108CF80000D154B648005D872806
:1014000003D1002061460870002700BF601C84B231
:10141000B4F5FA6F88DB002404E00020AD490855DC
:10142000601C84B2B4F5FA6FF7DBFFF72EFF0020E3
:10143000A949087003F01EFF03F0FEFEBDE8F0812D
:101440002DE9F04107468846002F4CD1A34800689B
:1014500040F00800A249C1F8C400A248006820F08A
:10146000F000A04908600846006840F0500008609D
:101470009D480068C0F3811636B1012E08D0022EB7
:1014800009D0032E0BD000BF9848006884080AE0FA
:101490009648046807E095480068440803E09348CC
:1014A0000068C40800BF00BF214691A0FFF798FD67
:1014B00083209349C8602009B0FBF8F5280A4860EA
:1014C000E8B208600320C86007208860052000F0AB
:1014D000EBF801208A49486020210520FFF754FDE0
:1014E0000120BDE8F081012F4DD17E48006920F038
:1014F0000F007C4908610846006940F00A00086155
:1015000079480068C0F3012636B1012E08D0022EBA
:1015100009D0032E0BD000BF7448006884080AE08D
:101520007248046807E071480068440803E06F48A7
:101530000068C40800BF00BF6C48016871A0FFF7D5
:101540004FFD214674A0FFF74BFD214676A0FFF723
:1015500047FD83207949C8602009B0FBF8F5280AC7
:101560004860E8B208600320C86007208860062051
:1015700000F09AF801207149486008210620FFF721
:1015800003FD0120ADE70020ABE710B5052000F01A
:1015900097F8062000F094F810BD10B501205849C6
:1015A000486066494860052000F07EF8202105204B
:1015B000FFF7EAFC062000F077F800210620FFF78D
:1015C000E3FC10BD10B5052000F07AF8062000F00D
:1015D00077F810BD10B50120494948605749486067
:1015E000052000F061F820210520FFF7CDFC062042
:1015F00000F05AF800210620FFF7C6FC10BD10B518
:1016000040B904E011F8013B3D4C2360521E002A12
:10161000F8D107E004E011F8013B484C2360521E6A
:10162000002AF8D110BD00BF4449496911F0200FCC
:10163000FAD042490860704710B5044604E014F837
:10164000010B0021FFF7A2FD20780028F7D110BD83
:1016500000B5024603E012F8010BFFF7E4FF107833
:101660000028F8D100BD00BF3449496911F0010FCD
:10167000FAD032490868704700B503460A4603E0CD
:10168000FFF7F1FF01C3521E002AF9D100BD10B5CA
:10169000044604E020780221FFF778FD641C2078DE
:1016A0000028F7D110BD704700F01F0201219140C2
:1016B00042094FF0E02303EB8202C2F800117047A9
:1016C00000F01F02012191401D4A430942F82310F6
:1016D000704700005C0A001022000010C4C00F40D8
:1016E00000C00F4000C00240A8C10F400000001021
:1016F00075617274303A70636C6B3A25640A00004D
:1017000000C0004053797374656D467265717565EC
:101710006E63793A25640A0075617274313A7063B8
:101720006C6B3A25640A000075617274313A70631B
:101730006C6B3A253031306C640A000000000140C7
:1017400080E100E06F48406820F001006D4948608A
:101750000846406820F0010048600846006820F014
:10176000010008600846006820F001000860084693
:10177000406820F0010048600846406820F0010001
:1017800048600846406820F001004860084640680C
:1017900020F0010048600846C06820F00100C860E1
:1017A0000846C06820F00100C8600846C06820F004
:1017B0000100C8600846C06820F00100C860084603
:1017C000C06820F00100C8600846C06820F0010031
:1017D000C8600846C06820F00100C8600846C068BC
:1017E00020F00100C8600846C06820F00100C86011
:1017F0000846C06820F00100C8600846C06820F0B4
:101800000100C8600846C06820F00100C8600846B2
:10181000C06820F00100C8600846C06820F00100E0
:10182000C8600846006920F00100086108460069A8
:1018300020F0010008610846006920F001000861FD
:101840000846006920F001000861084640684860C9
:101850000846006920F0010008610846006920F090
:10186000010008610846006920F00100086126486F
:10187000006840F4C200244908600846006820F46B
:10188000806008600846006820F400600860084630
:10189000006820F0007008600846006820F0806052
:1018A00008600846006820F000500860084600689C
:1018B00020F0804008600846006A14490843124935
:1018C00008620846006C40F45F700864084680694E
:1018D00040F4C00088610846C06B0D4908430A49BE
:1018E000C8630846C06D40F45E70C8650846806DE8
:1018F00040F4017088650846806D40F0C0708865CE
:101900007047000000C0024000C009200000FCFF3A
:101910000300E00110B5002807DACA06140EE44AF5
:1019200000F00F031B1FD45403E0CA06130EE14A54
:10193000135410BD10B5044634B1012C0CD0022C48
:1019400012D0032C20D117E0012000F09CF91021C7
:101950000120FFF7DFFF18E0022000F094F93021AA
:101960000220FFF7D7FF10E0032000F08CF9482198
:101970000320FFF7CFFF08E0042000F084F9502196
:101980000420FFF7C7FF00E000BF00BF10BD10B587
:10199000044634B1012C08D0022C0AD0032C10D1FB
:1019A0000BE0012000F07BF90CE0022000F077F959
:1019B00008E0032000F073F904E0042000F06FF960
:1019C00000E000BF00BF10BD70B505460C460DBB62
:1019D000B948006840F00200B849C1F8C4004FF0AF
:1019E00000004FF0402108674FF0020048604FF0C0
:1019F000010008604FF000008860C86008468461FC
:101A00004FF0030048614FF0010048604FF00000C4
:101A1000FFF790FF012D20D1A748006840F0040097
:101A2000A649C1F8C4004FF00000A54908674FF06F
:101A3000020048604FF0010008604FF0000088602D
:101A4000C860084684614FF0030048614FF0010010
:101A5000FFF770FF01209A494860022D20D1964877
:101A6000006840F480009549C1F8C4004FF00000C0
:101A7000944908674FF0020048604FF00100086089
:101A80004FF000008860C860084684614FF0030092
:101A900048614FF00200FFF74DFF0120894948607F
:101AA000032D1DD18448006840F400008349C1F82B
:101AB000C4004FF00000844908674FF002004860FE
:101AC0004FF0010008604FF000008860C8600846D1
:101AD000846128464861FFF72DFF01207A4948605C
:101AE00070BD7A4908707047784800787047784927
:101AF0000860704776480068401C75490860704768
:101B000073480068704773480088401C714908801A
:101B100070477049088070476E480088704710B55C
:101B200000F051FA06F078FB01204FF040210860E8
:101B300000F060FA10BD10B500F045FA06F030FC78
:101B40000F205F49086000F055FA10BD10B501F094
:101B500098FA0F205B49086010BD5F480068401C80
:101B60005D490860704700205B49086070475A482B
:101B70000068704759480068401C58490860704721
:101B8000564800687047002054490860704710B5F7
:101B9000534840695349084207D05148C06D40F44A
:101BA00000704F49C865FFF7EEFF10BD4C48806DCF
:101BB00040F400704A498865002048490860704731
:101BC00020B901214FF04022516010E0012803D1DB
:101BD00001213B4A51600AE0022803D10121394A20
:101BE000516004E0032802D10121374A5160704757
:101BF00020B900214FF04022516010E0012803D1AC
:101C000000212F4A51600AE0022803D100212D4A09
:101C1000516004E0032802D100212B4A5160704733
:101C2000014631B94FF04022506840F00200506048
:101C300016E0012905D1224A506840F002005060A8
:101C40000EE0022905D11F4A506840F002005060A2
:101C500006E0032904D11C4A506840F0020050609D
:101C6000704710B5FFF783FF322802D101F075FBF2
:101C700007E0FFF77CFF642803D101F0DBFAFFF7F0
:101C800072FF10BD704700F01F0201219140420910
:101C90004FF0E02303EB8202C2F80011704700F01E
:101CA0001F0201219140104A430942F82310704756
:101CB00018ED00E000E400E0C4C00F4000C00F4099
:101CC000008000400000094000400940280000104A
:101CD0002C000010300000103400001038000010FC
:101CE00000C00920000C006680E100E05348006855
:101CF000704700F00301524A52F821104F4A116018
:101D00007047014601F003004D4A52F82000704729
:101D10004C48006849F64041B0FBF1F07047494833
:101D20000068400049F64041B0FBF1F0704745487B
:101D3000006849F64041B0FBF1F000EB4000400084
:101D400070474048006849F64041B0FBF1F000EBB5
:101D50008000800070473B48006849F64041B0FB76
:101D6000F1F03221484370473648006849F6404157
:101D7000B0FBF1F000EB80000001704731480068D3
:101D800049F64041B0FBF1F06421484370472D48CB
:101D9000006849F64041B0FBF1F0C8214843704764
:101DA00029480068401C28490860704700202649DF
:101DB0000860704724480068704724480068401C49
:101DC00022490860704700202049086070471F487A
:101DD000006870471E480068401C1D490860704735
:101DE00000201B4908607047194800687047184870
:101DF0000068142801D3012070470020FCE701206F
:101E00001449087070470020124908707047114843
:101E1000007870471048006820F00100401C0E490F
:101E2000086070470C480068C0F3000070470A481B
:101E3000006820F001000849086070474000001069
:101E40005400001000000010440000104800001072
:101E50004C00001050000010640000103849086861
:101E600010F0010F04D037490968491C354A116048
:101E7000334909680143324A1160704710B50020A8
:101E8000304908603048006840F040002F49C1F8F0
:101E9000C4002F48006940F040002D4908614FF010
:101EA0000200274948604FF00000C8604FF0010071
:101EB00048614FF00000886108644FF01000086529
:101EC0004FF0090000F02FF810BD10B5092000F008
:101ED0002AF810BD0920012181401E4A430942F819
:101EE000231000BF7047164A906101EB5002144B5B
:101EF0001A6410221A6570474FF480501049C86464
:101F00000920486070471448007870470120124942
:101F10000870704700201049087070470020084979
:101F2000C8644860704700F01F02012191404209D7
:101F30004FF0E02303EB8202C2F80011704700006B
:101F4000008001406C000010C4C00F4000C00F4072
:101F500000C0024080E100E06800001010B50028D9
:101F600007DACA06140E784A00F00F031B1FD45478
:101F700003E0CA06130E754A135410BD10B51520A0
:101F800000F0CCF800211520FFF7E8FF10BD10B5D8
:101F9000152000F0CFF810BD10B56D48406820F452
:101FA00040306B4948606B48006820F08070694998
:101FB00008606948006840F080706849C1F8900086
:101FC000FFF7DCFF10BD10B5FFF7FCFAFFF7DFFFEE
:101FD0000020FFF7DCFC0120FFF7D9FC0220FFF70F
:101FE000D6FCFEF7C5FD4FF6FF705D490860FFF7B0
:101FF00071FF10BD10B5FFF7EDFAFFF7BFFF00202E
:10200000FFF798FC0120FFF795FC0220FFF792FCF8
:10201000FEF7A5FD4FF080704F4908604F49C1F8A9
:102020009400FFF752FF10BD10B5FFF7B0FF00207E
:10203000FFF7ADFC0120FFF7AAFC0220FFF7A7FC89
:10204000FEF796FD4FF6FF7045490860FFF742FF27
:1020500010BD10B5FFF792FF0020FFF76BFC0120C9
:10206000FFF768FC0220FFF765FCFEF778FD4FF0F4
:102070008070394908603949C1F89400FFF725FF9D
:1020800010BD01203749087070470020354908709D
:102090007047344800787047012033490870704712
:1020A00000203149087070472F48007870474FF082
:1020B00080702E49086070474FF080702649086094
:1020C0007047274800682549D1F8881040EA010088
:1020D000234908607047224800682049D1F88410DD
:1020E00040EA01001E490860704710B5132000F057
:1020F00015F828211320FFF731FF10BD10B513206C
:1021000000F018F810BD10B5FFF75DFF0220184968
:102110000860FFF7B6FFFFF76DFF10BD00F01F026C
:102120000121914042094FF0E02303EB8202C2F803
:102130000011704700F01F02012191400D4A430930
:1021400042F823107047000018ED00E000E400E0C2
:1021500000C0024000C00920908002400080024080
:102160008C800240700000107100001094800240CA
:1021700040C10F4080E100E010B52E48406820F4D7
:1021800040302C4948602C48006820F080702A4973
:1021900008602A48006840F080702949C1F8900022
:1021A0000846D0F8940040F08070C1F894004FF0D9
:1021B00015004FF0010101FA00F14FEA50124FF003
:1021C000E02303EB8202C2F8001100BF4FF00001D0
:1021D000002807DACA06140E1A4A00F00F031B1F64
:1021E000D45403E0CA06130E174A135400BF10BD9F
:1021F00010B51648006810F0807F08D00CF020FF62
:10220000012005F08EFD012005F078FD0AE0104860
:10221000006810F0807F05D0002005F082FD0220CC
:1022200005F06CFD0B48006840F080700449C1F86F
:102230008C0010BD00C0024000C009209080024008
:102240000080024018ED00E000E400E084800240DD
:10225000888002408C800240014606E040F6B83299
:1022600000E0521E002AFCDC491E0029F6DC704703
:1022700010B50146002000BF21E0F84A126A00F1C3
:10228000180301249C402243F44B1A62012282402D
:102290000A4209D01A46526B00F1180301249C40EF
:1022A0002243EE4B5A6308E0EC4A526B00F11803EC
:1022B00001249C40A243E94B5A63421CD0B2082837
:1022C000DBDB10BD10B5E548C06B40F48020E3496E
:1022D000C8630846806B40F40020886300BF00207C
:1022E000FFF7C6FFDD48806B40F48010DB49886350
:1022F0000846C06B40F48010C8630846006A20F4AA
:10230000004008620846406B00200446002CE6D1DD
:1023100010BD10B50446FFF7D5FFD048C06B40F4A0
:102320008020CE49C8630846C06B40F40020C863D3
:102330002046FFF79DFFC948806B40F48010C749D5
:1023400088630846C06B40F48010C86310BD10B5A8
:10235000044644F0B8042046FFF7DBFF10BD10B57B
:10236000044644F0C0042046FFF7D3FF10BD10B56B
:10237000044604F03F0444F040042046FFF7C9FF40
:1023800010BD10B5044644F03E042046FFF7C1FFDF
:1023900010BD10B50446FFF795FFB048806B40F4C0
:1023A0008020AE4988630846C06B40F40020C863B3
:1023B0002046FFF75DFFA948806B40F48010A749D5
:1023C00088630846C06B40F48010C86310BD10B528
:1023D0000446FFF777FFA148806B40F480209F49B7
:1023E00088630846C06B40F40020C863E043C4B271
:1023F0002046FFF73DFF9948806B40F480109749D5
:1024000088630846C06B40F48010C86310BD20B1DB
:1024100001280ED0022824D117E09049896B41F49D
:1024200000118E4A91631146896B41F480019163DA
:1024300018E08A49896B41F40011884A916311467A
:10244000C96B41F48001D1630CE08449C96B41F44C
:102450000011824AD1631146896B41F48001916376
:1024600000E000BF00BF704770B506463046FFF77A
:10247000CEFF002410E02046FFF769FF0020FFF7A1
:1024800076FF002504E00020FFF783FF681CC5B23B
:10249000402DF8DB601CC4B2082CECDB70BD70B5BD
:1024A00006463046FFF7B3FF002410E02046FFF752
:1024B0004EFF0020FFF75BFF002504E00020FFF740
:1024C00068FF681CC5B20A2DF8DB601CC4B2072C7B
:1024D000ECDB70BD002107E0002201E0531CDAB202
:1024E0006E2AFBDB4B1CD9B28142F5DB70470146FB
:1024F000002006E0002000E0401C41F288329042BB
:10250000FAD30A00A1F10101F4D1704700B5FFF739
:10251000D9FE0020FFF77BFF0020FFF732FF0020ED
:10252000FFF775FF0120FFF72CFF0020FFF76FFF7B
:102530000020FFF799FF0020FFF711FF00BD2DE9F4
:10254000F04788B082460F46904699465046FFF7BE
:102550005EFF08F03F083846FFF7F9FE4046FFF7F8
:1025600006FF3F4E09F0FF00A138A121C1EB292150
:10257000C1EB011202EB411100EB410006EB4016EA
:10258000002408E016F8010B04A9085500200DF8F6
:102590000400601CC4B2102CF4DB002518E00024F9
:1025A00012E004A810F81400C5F1070201219140BF
:1025B000084207D01DF805100120A0400844C0B211
:1025C0000DF80500601CC4B2082CEADB681CC5B21B
:1025D000082DE4DB00251EE0002418E0012000EBBC
:1025E000440004A9085CC5F107020121914008429A
:1025F0000BD005F108001DF800100120A040084490
:10260000C1B205F108000DF80010601CC4B2082C1E
:10261000E4DB681CC5B2082DDEDB002405E01DF8F4
:102620000400FFF7D4FE601CC4B2102CF7DB781C4A
:10263000C0B2FFF78CFE4046FFF799FE002408E089
:1026400016F8010B04A9085500200DF80400601CC1
:10265000C4B2102CF4DB00251DE0000000C00920EE
:10266000CEFF0000002412E004A810F81400C5F109
:10267000070201219140084207D01DF805100120F2
:10268000A0400844C0B20DF80500601CC4B2082C7C
:10269000EADB681CC5B2082DE4DB00251EE000243F
:1026A00018E0012000EB440004A9085CC5F1070212
:1026B0000121914008420BD005F108001DF80010DF
:1026C0000120A0400844C1B205F108000DF8001037
:1026D000601CC4B2082CE4DB681CC5B2082DDEDB2C
:1026E000002405E01DF80400FFF771FE601CC4B271
:1026F000102CF7DB08B0BDE8F0872DE9F04788B073
:1027000082460F46904699465046FFF780FE08F0F5
:102710003F083846FFF71BFE4046FFF728FEE64E0F
:1027200009F0FF00A138A121C1EB2921C1EB011261
:1027300002EB411100EB410006EB4016002408E0DB
:1027400016F8010B04A9085500200DF80400601CC0
:10275000C4B2102CF4DB002518E0002412E004A819
:1027600010F81400C5F1070201219140084207D07A
:102770001DF805100120A0400844C0B20DF8050066
:10278000601CC4B2082CEADB681CC5B2082DE4DB6F
:1027900000251EE0002418E0012000EB440004A9FD
:1027A000085CC5F107020121914008420BD005F1F8
:1027B00008001DF800100120A0400844C1B205F136
:1027C00008000DF80010601CC4B2082CE4DB681C83
:1027D000C5B2082DDEDB002405E01DF80400FFF77C
:1027E000D8FD601CC4B2102CF7DB781CC0B2FFF718
:1027F000AEFD4046FFF7BBFD002408E016F8010BD4
:1028000004A9085500200DF80400601CC4B2102C67
:10281000F4DB002518E0002412E004A810F81400EE
:10282000C5F1070201219140084207D01DF80510AB
:102830000120A0400844C0B20DF80500601CC4B2DD
:10284000082CEADB681CC5B2082DE4DB00251EE07D
:10285000002418E0012000EB440004A9085CC5F145
:1028600007020121914008420BD005F108001DF834
:1028700000100120A0400844C1B205F108000DF885
:102880000010601CC4B2082CE4DB681CC5B2082D23
:10289000DEDB002405E01DF80400FFF77AFD601C74
:1028A000C4B2102CF7DB08B0BDE8F0872DE9F04189
:1028B00080460D4616461F464046FFF7A8FD06F027
:1028C0003F062846FFF743FD3046FFF750FD002442
:1028D00007E0202101FB0741784A505CFFF759FDD2
:1028E000641C102CF5D3681CC0B2FFF730FD3046D5
:1028F000FFF73DFD002408E0202101FB07411031D6
:102900006E4A505CFFF745FD641C102CF4D3BDE803
:10291000F0812DE9F04107460D46164698463846A7
:10292000FFF775FD06F03F062846FFF710FD30461D
:10293000FFF71DFD002400E0641C102CFCD3681C74
:10294000C0B2FFF704FD3046FFF711FD002400E0A0
:10295000641C102CFCD3BDE8F0812DE9F0418046C9
:102960000D4616461F464046FFF751FD06F03F064E
:102970002846FFF7ECFC3046FFF7F9FC002407E09F
:10298000102101FB07414E4A505CFFF702FD641C19
:10299000082CF5D3681CC0B2FFF7D9FC3046FFF70E
:1029A000E6FC002408E0102101FB07410831444AFD
:1029B000505CFFF7EEFC641C082CF4D3BDE8F081FA
:1029C0002DE9F04180460D4616461F464046FFF76A
:1029D0001EFD06F03F062846FFF7B9FC3046FFF71C
:1029E000C6FC002406E0374901EB0711085DFFF73C
:1029F000D0FC641C082CF6D3681CC0B2FFF7A7FCFF
:102A00003046FFF7B4FC082406E02E4901EB07111D
:102A1000085DFFF7BEFC641C102CF6D3BDE8F08106
:102A20002DE9F04180460D4616461F464046FFF709
:102A3000EEFC06F03F062846FFF789FC3046FFF71C
:102A400096FC002406E01F4901EB0711085DFFF723
:102A5000BEFC641C082CF6D3681CC0B2FFF777FCE0
:102A60003046FFF784FC082406E0164901EB071105
:102A7000085DFFF7ACFC641C102CF6D3BDE8F081B8
:102A80002DE9F04180460C4615461E464046FFF7AC
:102A9000EBFC2046FFF75BFC2846FFF768FC0027AD
:102AA00004E0FF20FFF775FC781CC7B2F000B842C5
:102AB000F7DCBDE8F0810000CEFF00006EF30000FF
:102AC00098010010780000103EB5044620780A21D5
:102AD00090FBF1F201FB120021780A2291FBF2F146
:102AE00040EA0110C0B28DF8040060780A2190FB22
:102AF000F1F201FB120061780A2291FBF2F140EA47
:102B00000110C0B28DF80500A0780A2190FBF1F207
:102B100001FB1200A1780A2291FBF2F140EA0110B8
:102B2000C0B28DF80600E0780A2190FBF1F201FBBB
:102B30001200E1780A2291FBF2F140EA0110C0B2E2
:102B40008DF8070020790A2190FBF1F201FB1200B9
:102B500021790A2291FBF2F140EA0110C0B28DF80E
:102B6000080060790A2190FBF1F201FB1200617903
:102B70000A2291FBF2F140EA0110C0B28DF809007F
:102B8000E088B0F5FA6F17DB9DF8090040F080008F
:102B90008DF80900E088A0F5FA60C5B20A2095FB1F
:102BA000F0F100FB11500A2195FBF1F140EA011010
:102BB000C0B28DF80A0010E0E088A0F26C70C5B2D7
:102BC0000A2095FBF0F100FB11500A2195FBF1F171
:102BD00040EA0110C0B28DF80A00072001AB0222C2
:102BE00001210090A220FEF74FF83EBD3EB50446FD
:102BF000072001AB022201210090A220FDF7FFFF78
:102C000008B900203EBD9DF8040000F00F009DF8BB
:102C10000410C1F3021101EB810100EB41002070AF
:102C20009DF8050000F00F009DF80510C1F302119A
:102C300001EB810100EB410060709DF8060000F09F
:102C40000F009DF80610C1F3011101EB810100EBAB
:102C50004100A0709DF8070000F00F009DF80710DC
:102C6000C1F3011101EB810100EB4100E0709DF81F
:102C7000080000F007009DF8081001F00701091195
:102C800001EB810100EB410020719DF8090010F07B
:102C9000800F1BD09DF8090000F00F009DF809106F
:102CA000C1F3001101EB810100EB410060719DF85F
:102CB0000A0000F00F009DF80A10091101EB8101D4
:102CC00000EB410000F5FA60E0801AE09DF8090091
:102CD00000F00F009DF80910C1F3001101EB810114
:102CE00000EB410060719DF80A0000F00F009DF8B4
:102CF0000A10091101EB810100EB410000F26C7038
:102D0000E08001207EE710B504462046FFF76EFF05
:102D100010BD1CB50446012C02D10020019001E039
:102D200020200190012001AB002201460090A2204A
:102D3000FDF7AAFF1CBDFEB505460C460127082D70
:102D40003CD1022002AB072201210090A220FDF716
:102D500056FF07409DF8080000F09F008DF808001E
:102D6000B4F5FA6F0BDA9DF8080040F080008DF89A
:102D70000800A4F26C70C0B28DF809000AE09DF85A
:102D8000080020F080008DF80800A4F5FA60C0B2B9
:102D90008DF809009DF809000A2190FBF1F201FB72
:102DA00012009DF809100A2291FBF2F140EA01108D
:102DB000C0B28DF809000226072541E0072D2AD16F
:102DC000012001AB072201460090A220FDF717FF6A
:102DD00007409DF8040000F080000190E0B28DF8FB
:102DE00008009DF808000A2190FBF1F201FB120097
:102DF0009DF808100A2291FBF2F140EA0110C0B2DE
:102E00008DF808009DF808009DF8041008438DF81F
:102E10000800012614E0E0B28DF808009DF80800D3
:102E20000A2190FBF1F201FB12009DF808100A2222
:102E300091FBF2F140EA0110C0B28DF808000126C2
:102E400002AB2A460121A2200096FDF71DFF074094
:102E50003846FEBD1CB50446082C27D1022001AB24
:102E6000072201210090A220FDF7C9FE08B9002029
:102E70001CBD9DF8050000F00F009DF8051009111C
:102E800001EB810100EB4100C0B28DF805009DF817
:102E9000040010F0800F04D09DF8050000F26C7063
:102EA000E6E79DF8050000F5FA60E1E7012001ABD7
:102EB000224601460090A220FDF7A1FEA01E062892
:102EC00022D2DFE800F004030B0C1A1300BF9DF8B8
:102ED000040000F07F008DF8040016E000BF9DF8AC
:102EE000040000F03F008DF804000EE09DF804009F
:102EF00000F01F008DF8040007E09DF8040000F0CA
:102F000007008DF8040000E000BF00BF9DF804003A
:102F100000F00F009DF80410091101EB810100EB96
:102F20004100C0B28DF804009DF80400A0E701B58F
:102F300082B0012002AB0D2201460090A220FDF7D5
:102F4000A3FE0EBD7CB504460D460020019014F092
:102F5000800F0CD10A2095FBF0F100FB11500A21E3
:102F600095FBF1F140EA0110C0B2019001E0802030
:102F7000019004F00F04012001ABA21D0146009056
:102F8000A220FDF781FE7CBD7CB504460D468DF880
:102F900004408DF80550022001AB0E220121009063
:102FA000A220FDF771FE7CBD7CB504460020019097
:102FB00004F08000802817D104F01F000190012048
:102FC00001AB024601460090A220FDF75DFE012004
:102FD00001AB024601460090A220FDF710FE9DF8CD
:102FE000040000F01F007CBD04F0400040281AD10E
:102FF000012001AB024601460090A220FDF7FFFD33
:103000009DF8040000F01F059DF8040000F0130077
:103010000190012001AB024601460090A220FDF77D
:1030200033FE2846DFE70020DDE710B50020FFF77C
:1030300070FE40F2DD700E49C880012048711720F3
:10304000C870032008710A208870092048701E206B
:1030500008700846FFF738FD40218120FFF794FFF4
:103060009120FFF7A1FF0120FFF753FE10BD0000E4
:103070000805001065480078704700206349087013
:10308000704710B56248406910F4806F0CD16048F9
:10309000406910F4806F07D15E480068401C5D49AC
:1030A0000860FEF783FD10BD5948406910F4006FB9
:1030B0000AD15748406910F4006F05D1554840685F
:1030C000401C54494860EEE75148406910F0007FC9
:1030D00011D14F48406910F0007F0CD14D488068F5
:1030E000401C4C49886000F06FF908B900F0A9F85D
:1030F000FEF75CFDD7E74648406910F0806F0CD1C1
:103100004348406910F0806F07D14248C068401CB6
:103110004049C860FEF74AFDC5E73D48406910F0E8
:10312000804F0CD13A48406910F0804F07D13948A0
:103130000069401C37490861FEF738FDB3E73448A1
:10314000406910F0005F0CD13148406910F0005F19
:1031500007D130484069401C2E494861FEF726FDE2
:10316000A1E700BF9FE710B52A480068052804D3EF
:10317000002028490860042010BD26484068052822
:1031800012D30020234948602148C06D40F0080058
:103190001F49C865FEF7C2FEFEF7BCFE00210846C7
:1031A00001F017F90620E7E71A488068052804D3DC
:1031B0000020184988600520DEE71648C068052809
:1031C0000FD300201349C86001F003FC10B1FFF7D2
:1031D00054FF04E00D480078401C0C4908700120A1
:1031E000CAE70C480069052804D300200949086192
:1031F0000220C1E707484069052804D3002005499B
:1032000048610320B8E7FF20B6E700001005001072
:1032100000C00920401D00106648C06D40F040000D
:103220006449C86570476348C06D40F0200061493B
:10323000C86570475F48C06D40F010005D49C865C3
:1032400070475C48C06940F480305A49C861704793
:103250005848C06940F400405649C8617047564814
:10326000006920F00100544908615248006C40F0A8
:103270004000504908640846806D40F04000886571
:1032800070474D48006920F001004B4908614948EA
:10329000006C40F02000474908640846806D40F00B
:1032A0002000886570474448006920F001004249C9
:1032B00008614048006C40F010003E490864084630
:1032C000806D40F01000886570473B48406820F0F2
:1032D0000100394948603748006840F4803035497A
:1032E00008600846806940F4803088617047324841
:1032F000006820F08040304908602E48006840F4A3
:1033000000402C4908600846806940F4004088610C
:10331000704700B5FFF7EBFFFFF7D7FFFFF7C3FFDD
:10332000FFF7AFFFFFF79BFFFFF792FFFFF789FF64
:10333000FFF780FFFFF777FFFFF76EFF00BD1D4827
:10334000806D40F040001B49886570471948806DCA
:1033500040F020001749886570471648806D40F09E
:1033600010001449886570471248806940F4803025
:103370001049886170470F48806940F400400D494A
:103380008861704700B5FFF7F6FFFFF7EDFFFFF725
:10339000E4FFFFF7DBFFFFF7D2FF00BD00B5FFF74B
:1033A00057FFFFF74EFFFFF745FFFFF73CFFFFF723
:1033B00033FF00BD00C0092000C00240FC49087076
:1033C0007047FC4908707047FA4800787047FA4A1D
:1033D000115470470146F848405C7047F7490A6845
:1033E0000260496841607047F54A115470470146D0
:1033F000F348405C7047F34A1154704710B500BF62
:1034000004F033FD0028FBD110BD2DE9F041064644
:103410000D460027EC48ED490860822009680870D5
:10342000EA4800684670092D1DD1E8480068E54962
:103430000A68C0F802208988C180002407E0E348B8
:103440000168601C085C3844C7B2601CC4B2072C19
:10345000F5DBDE48006807720920DD490870DB48AB
:103460000068DC4908602A46D84801680120FEF758
:10347000C6F8BDE8F0810022D748006800788228AD
:1034800007D0A520D54B18700120D54B187000200F
:103490007047D14800684078382801D10120F7E70B
:1034A000012106E0CC480068405C1044C2B2481CD0
:1034B000C1B20829F6DB00BFC7480068007A904215
:1034C00007D1A520C54B18700920C54B18700120E5
:1034D000DEE7A520C14B18700120C14B18700020F9
:1034E000D6E770B506460D4601240DE020460AF0E9
:1034F00090FBA84206D120460AF08BFBFF2801D0A2
:10350000012070BD601CC4B2322CEFDD0020F8E752
:1035100010B50BF0C5FB0BF0CFFB322802DD01200C
:103520000BF0BBFB10BD2DE9F04705460E461746D4
:103530009846DDF820904FF0010AFF2D09D1FF2EAB
:1035400007D1FF2F05D1B8F1FF0F02D10220BDE84E
:10355000F08701241DE020460AF090FCA84216D115
:1035600020460AF092FCB04211D120460AF094FCA9
:10357000B8420CD120460AF096FC404507D1B9F17B
:10358000000F03D0A9F800404FF0000A03E0601CD0
:10359000C4B2322CDFDD00BF5046D8E72DE9FE4330
:1035A0004FF0FF3002908F480021016041601221EE
:1035B0008D480BF058FEFEF7F9FA0BF04DFB07466D
:1035C00039468AA0FDF70CFD0AF02AFB86B20AF004
:1035D0005DFB85B20BF070FB044689A0FDF700FD92
:1035E00031468EA0FDF7FCFC214690A0FDF7F8FCCB
:1035F000294692A0FDF7F4FC7B480A30FFF783FBD5
:10360000FCF768FEE1B20020FFF76BFF70B10BF032
:103610002FFB07460BF062FB804600204346022248
:103620002146CDE9007006F07AFF62E102A86A4FF8
:1036300000903F68BB78684F3F68FA78664F3F68F4
:103640003979654F3F687879FFF76DFF70B90BF0F6
:103650000FFB07460BF042FB804600204346032247
:103660002146CDE9007006F05AFF42E102A85A4F08
:1036700000903F68BB78584F3F68FA78564F3F68D4
:103680003979554F3F687879FFF74DFF02280ED101
:103690000BF0EEFA07460BF021FB80460020434674
:1036A00007222146CDE9007006F039FF21E1322ED4
:1036B0000EDD0BF0DDFA07460BF010FB8046002014
:1036C000434605222146CDE9007006F028FF10E1AF
:1036D000C82D0EDD0BF0CCFA07460BF0FFFA804642
:1036E0000020434604222146CDE9007006F017FF72
:1036F000FFE00BF0BDFA07460BF0F0FA8046002021
:10370000434606222146CDE9007006F008FF00205E
:103710003549487033490870E0B2334988703149FF
:103720004870E8B23049C8702E4988702A4800684D
:103730004079C870284800680079087126480068F8
:10374000C0784871244800688078887122480068F1
:1037500080792549C8712349C871002022494871E0
:10376000FF2088710AF062F81F490870FF20087274
:10377000087135A0FDF734FC1B48018A36A0FDF71F
:103780002FFC1948C17B37A0FDF72AFC1648417B66
:1037900037A0FDF725FC1448017B37A0FDF720FC7E
:1037A0001148C17A37A0FDF71BFC0F48817A6FE002
:1037B0001B0500102B050010260500103E0500100B
:1037C0001C05001014050010611D001050050010AC
:1037D00035050010380500105405001032050010A2
:1037E000330500105A050010741D0010476574431E
:1037F0006F6D526567466C61673A25640A00000088
:103800003D3D3D636F6D702072656767696E67202F
:10381000696E666F2E2E2E2E2E2E0A00746F746126
:103820006C5F6E756D733A25640A00007061727486
:103830006E756D6265723A25640A00006369726193
:103840006464723A25640A002D2D3E3E73617665EC
:1038500020686973743A0A00796561723A25640ACE
:10386000000000006D6F6E74683A25640A00000065
:103870006461793A25640A00686F75723A25640AB2
:10388000000000006D696E7574653A25640A0000D9
:10389000FBA0FDF7A5FBFD49E0B20AF068FA0021A4
:1038A00020460AF03EFB09F0C1FF0746F8490AF03E
:1038B00073FFE8B204F080FE0AF0FFF90AF02BFB78
:1038C0000BF019F8F3A0FDF78BFBFFF721FE0BF0CF
:1038D000CFF907460BF002FA80460BF0EDF981466E
:1038E0000020434601224946CDE9007006F017FE4C
:1038F00000BFFCF7F5FCFEF7ACFBBDE8FE837CB532
:103900004FF0FF300190EBA0FDF76AFBFEF74EF998
:1039100001A8EF4D00902D68AB78ED4D2D68EA7849
:10392000EB4D2D682979EA4D2D686879FFF7FBFD8D
:1039300044B204BBBDF9040000281CDBBDF904102F
:10394000E4A0FDF74DFBBDF80400C0B20AF061F938
:103950000546BDF80400C0B20AF075FA0646DC4818
:103960000068C07943B2DA48006882792946304657
:1039700006F05EF905E00023FF221946184606F01E
:1039800057F97CBD0146FF2901D101207047002075
:10399000FCE710B5CE4909684879FFF7F3FF98B105
:1039A000CB4909680879FFF7EDFF68B1C849096894
:1039B000C878FFF7E7FF38B1C54909688878FFF78D
:1039C000E1FF08B1012010BD0020FCE738B5044636
:1039D0004FF0FF302080BE4D00942D68AB78BC4D79
:1039E0002D68EA78BA4D2D682979B94D2D68687926
:1039F000FFF799FD08B9012038BD0020FCE710B59C
:103A0000FCF747FCFFF79BFCFFF71BFC10BD10B554
:103A10000446204604F0B0FD0221204604F067FD74
:103A200010BD10B50446204604F0A6FD0121204635
:103A300004F05DFD10BD10B504462146A9A0FDF7B8
:103A4000CFFA204604F086FD0021204604F04FFD09
:103A500010BD30B587B0044612218D480BF003FC31
:103A600060788B498870A078C870E07B48712079B5
:103A7000C8710846D4F80610C0F80A10D4F80A1025
:103A8000C0F80E10207C824908719BA0FDF7A8FAAF
:103A900061789EA0FDF7A4FAA1789FA0FDF7A0FA97
:103AA000E17BA1A0FDF79CFA2179A2A0FDF798FA8D
:103AB000217CA4A0FDF794FA0120A64908700121F9
:103AC000002000F086FCFFF79AFFA078FFF79FFF29
:103AD000012000F078FF0120FFF773FC208AADF889
:103AE00000001222214602A80BF046FB02A80FC8D4
:103AF00003F0A3F8012000F089FC09F097FE0546C9
:103B000063490AF049FE0AF0F6FE07B030BD30B551
:103B100087B0044612215E480BF0A5FB60785C4933
:103B20008870A078C870E07B48712079C871084619
:103B3000D4F80610C0F80A10D4F80A10C0F80E1015
:103B4000207C53490871012082490870824908701D
:103B500082A0FDF745FA61786CA0FDF741FAA178E3
:103B60006DA0FDF73DFAE17B6FA0FDF739FA2179F1
:103B700070A0FDF735FA217C72A0FDF731FAFFF74E
:103B8000E5FBFCF794FB002000F026FC012803D0A5
:103B90000321002000F01DFC00F03BFCB8B9A07828
:103BA000FFF73FFF042000F031FC032000F00BFF83
:103BB0000320FFF706FC208AADF800001222214600
:103BC00002A80BF0D9FA02A80FC803F036F809F0E2
:103BD0002DFE05462E490AF0DFFD0AF08CFE07B0E7
:103BE00030BD70B505460C46214663A0FDF7F8F9D7
:103BF0005848007840B12046FFF71DFF634A5178CE
:103C00001078224600F07BFD00205249087052488F
:103C10000078B8B1002050490870FFF704FBFCF7AA
:103C20004DFB28460AF0BCF9322804D028460AF099
:103C3000B7F9312803D1302128460AF025FA0020AF
:103C400000F0C1FE70BD38B500255148007800F085
:103C5000D7FA1F490860FFF70EFC01280CD1FDF7C9
:103C6000B5F91B4800684478362C06D006DCA4F170
:103C70003000062803D28DE0DBE1A5E08FE00FE104
:103C80007365636F6E643A25640A00005A0500107C
:103C9000741D00102D3E3E736176652072656720AD
:103CA000696E666F207361766520746F20666C6143
:103CB00073680A003D3D3D3E3E3E7369676E616C30
:103CC00020737472656E67746820746573740A007B
:103CD00054050010636F6D70206E756D3A25640A8F
:103CE000000000006E6F726D616C20636972616428
:103CF00064723A25640A00003D3D3D3D3D3E3E6113
:103D00006C61726D315F696E666F0A00706172740A
:103D10003A2025640A000000636972616464723AA3
:103D20002025640A00000000617474723A20256442
:103D30000A000000646576747970653A2025640A8B
:103D40000000000076416E6E526F773A2025640ABB
:103D5000000000001A050010230500103D3D3D3D08
:103D60003D3E3E6661756C7420616C61726D5F6989
:103D70006E666F0A000000006E6F726D616C2C63DE
:103D80006972616464723A25640A0000EEFF0400FF
:103D900022050010DFE800F0121314151617412C4D
:103DA0007DD006DC382C10D0392C14D0402C77D1A3
:103DB00014E0422C75D0512CF9D131E100BF00BF85
:103DC00000BF00BF00BF00BF2CE100F0FBFAA6A0BF
:103DD000FDF706F926E1FDF7F1F823E1A5A0FDF7CF
:103DE000FFF8A4A0FDF75FFCFFF7D3FD18B1A6A074
:103DF000FDF7F6F816E16846FFF7E8FD00287CD0ED
:103E0000BDF90000002800DA38BDFDF7CFFE012023
:103E100000F079FBBDF900000AF048F9BDF8000098
:103E2000C0B204F077FABDF80000C0B204F07BFA2B
:103E3000BDF8000098490870BDF80000C0B20AF053
:103E400032F895494870BDF80000C0B20AF024F875
:103E500091498870BDF80000C0B20AF016F88E498A
:103E6000C870BDF80000C0B20AF008F88A490871AD
:103E70008A48C07B332801D103F09EFDBDF90000C4
:103E80000AF05AF801280DD1BDF9001084A0FDF701
:103E9000A7F8BDF9001082A0FDF705FCC2E097E08D
:103EA000BFE0ACE0BDF9001082A0FDF799F8BDF9C4
:103EB000001080A0FDF7F7FBBDF8000077494870BF
:103EC000BDF80000C0B209F09AFF74498870BDF8CF
:103ED0000000C0B209F0EEFF704908717748006831
:103EE0008079C87302204871BDF80000C0B2FDF7A8
:103EF00037F96A490874881D00E064E0FEF776FE31
:103F0000664881786EA0FDF76BF86448C07B332863
:103F100028D10AF02CFA88B90AF0C3FD70B16DA05F
:103F2000FDF75EF85D49BDF900000AF04EF95B4807
:103F30000AF0CEF95948FFF78CFD33E0BDF90000D7
:103F40000AF03CF800B16DE0BDF9001066A0FDF785
:103F500047F85249BDF900000AF037F94F48FFF71A
:103F600078FD1FE04D48C07B322803D04B48C07B12
:103F7000312817D1BDF900000AF02FF828B1BDF99A
:103F8000001062A0FDF72CF84CE0BDF900105FA016
:103F9000FDF726F84149BDF900000AF016F93F483F
:103FA000FFF7B5FDFFF74DF94448006880793028E8
:103FB0000AD15DA0FDF714F82946BDF80000C0B293
:103FC000FFF70FFE00E02DE0002000F09CFA29E052
:103FD00059A0FDF705F805F0ECFF10B1FFF78FFCD5
:103FE00009E00AF039FE20B10AF032FEFFF7D6FAF6
:103FF00001E0FDF7DBFD002000F085FA12E02F481C
:104000000068807930280AD02C48006880793128EF
:1040100005D02A4800688079322800D000BF01E02E
:1040200000E000BF00BF254800680021016041603A
:1040300001724448007800F0CDF842480078401CF6
:1040400040490870084600780A2801D1002008700D
:104050003D480078A52804D100203C4908703A4921
:10406000087000BFD0E60000434D445F313339573C
:104070000A0000002D2D3E3E434D445F414C41520D
:104080004D2121210A00000070736E20616C6C20AC
:10409000307866660A0000002C050010861D0010AE
:1040A0006E756D206973206D61736B65643A25646C
:1040B0000A0000006E756D3A25640A005405001070
:1040C000616C61726D20636972616464723A256427
:1040D0000A0000002D2D2D3E3E3E6669727374204D
:1040E000616C61726D0A00006E756D3A256420681E
:1040F00061766564206669726520616C61726D65C8
:10410000642066697273740A000000006E756D3A6F
:104110002564206861766564206661756C74206131
:104120006C61726D65640A006E6F726D616C2073F4
:10413000746174650A000000434D445F434F4D5263
:1041400045470A0022050010320500103305001013
:104150000146F048405C704710B50020EE490870F9
:104160000CE0ED480078FCF72DFFEA49EA4A1278A6
:104170008854E9480078401CE7490870E648007810
:104180000228EEDB10BD10B50020E349087011E0F5
:10419000E1480078FCF716FFE049097801EBC1011E
:1041A000DF4A1144DC4A12788854DB480078401C0E
:1041B000D9490870D84800780928E9DBD748007841
:1041C000401CD6490870084600780A2801D1002012
:1041D000087010BD0021D04A11700CE0002100EBE6
:1041E000C002CF4B1A44CC4B1B78D154CA49097832
:1041F000491CC94A1170C84909780929EEDB704782
:10420000014601EBC100C64A10447047C54800682A
:10421000401CC44908607047C24800687047C248E3
:104220000068401CC04908607047BF48006870477C
:10423000BE490978882910D1002008E0BB49095CF3
:10424000BB4A11540021B94A1154411CC8B20A2872
:10425000F4DB0121B74A117015E0B449497A892984
:1042600011D100200AE0B1490A5C00F10A01B04B0B
:104270005A540021AD4A1154411CC8B20A28F2DB3D
:104280000221AC4A117070477FB50025A94800781B
:1042900002287CD10020A7490870002406E02046AF
:1042A0000AF05FFC2844C5B2601CC4B2A048407844
:1042B000401EA042F3DC9E4880782844C5B29C484A
:1042C0000179C07801EB0010ADF80000BDF80000E6
:1042D000C2B2002128460AF04EFC95488179407907
:1042E00001EB0010ADF80200BDF80200C2B20121DE
:1042F00028460AF040FC8E48017AC07901EB001094
:10430000ADF80400BDF80400C2B2022128460AF04C
:1043100032FC8748817A407A01EB0010ADF8060044
:10432000BDF80600C2B2032128460AF024FC8048EA
:10433000017BC07A01EB0010ADF80800BDF8080061
:10434000C2B2042128460AF016FC7948817B407BE2
:1043500001EB0010ADF80A00BDF80A00C2B2052159
:1043600028460AF008FC7248017CC07B01EB001073
:10437000ADF80C00BDF80C00C2B2062128460AF0C8
:10438000FAFB6B48817C407C01EB001000E008E008
:10439000ADF80E00BDF80E00C2B2072128460AF0A3
:1043A000EAFB7FBD10B5FFF743FFFFF76DFF10BDC0
:1043B00061480078401C60490870704701205E49E0
:1043C0000870704700205C49087070475A480078B0
:1043D00070475A4A1154704701465848405C70472C
:1043E00001465748405C704756480078401C554984
:1043F0000870704753480078401E52490870704753
:104400005049087070474F48007870474E4908700F
:1044100070474D480078704701204C49087070473C
:1044200000204A490870704748480078704748495A
:104430000870704746480078704770B50025012421
:1044400010E0204609F0DBFCA84209DD204609F017
:10445000D6FCFF2804DA204609F0D1FC054603E02B
:10446000601CC4B2322CECDD00BF2846FFF7DFFF32
:1044700070BD70B5002537A0FCF7B2FD01241AE02D
:10448000204609F0BCFCA84213DD204609F0B7FC29
:10449000C8280EDC204609F0B2FC0646224631460A
:1044A00031A0FCF79DFD204609F0A9FC064604F06A
:1044B00083F8601CC4B2322CE2DD70BD10B501245B
:1044C00004E000202E490855601CC4B2322CF8DDEF
:1044D000002405E000212046FEF786FF601CC4B2E0
:1044E000032CF7DB0020FEF76CFF0020FEF766FFD1
:1044F00010BD012004E00021214A1154411CC8B222
:104500003228F8DD70471F49087070471D48007851
:104510007047000064050010670500106605001074
:10452000981D0010680500106C050010F21D0010A9
:10453000FC1D0010700500107105001072050010C0
:1045400074050010760500107B0500107C05001036
:104550007D050010696E697420636972616464721C
:1045600020696E666F0A000073657420636972616A
:104570006464723A25642C636F6D703A25640A0096
:10458000101E00107E050010394908707047394828
:104590000068401C3749086070473648006870471B
:1045A0000020344908607047012033490870704783
:1045B00031480078704700202F49087070472F4815
:1045C0000078401C2D49087008460078C82801DD95
:1045D000C820087070472948007870470020274994
:1045E0000870704726480078401C25490870084626
:1045F0000078C82801DDC82008707047204800787E
:10460000704700201E490870704710B509F07DFE04
:1046100000282CDD1B4801780078401C194A1070D6
:104620001E2091FBF0F200FB121080B916A0FCF7DF
:10463000D7FCFFF7D0FF044621461AA0FCF7D0FCB8
:10464000FFF7DCFF044621461AA0FCF7C9FCFFF780
:10465000C2FF32280BDD1BA0FCF7C2FCFFF7CEFF28
:10466000142804DD1BA0FCF7BBFC00F003FE10BD0A
:1046700085050010800500108405001086050010D7
:104680008705001088050010436C725F416C6172F1
:104690006D3A686176652066697220616C61726D41
:1046A000730A0000786961206C612076616C3A259C
:1046B000640A0000776569206C612076616C3A2598
:1046C000640A00007869616C617369676E616C20CF
:1046D0003E340A002D2D2D2D2D2D2D726573657400
:1046E00020616C61726D20737563632121210A0062
:1046F0004C4A1154704701464A48405C70472DE9C6
:10470000F04106460F4690460024FF2045490870B8
:10471000487088700846C6700020087148710120F2
:10472000C8716E2088710420087208464772012003
:104730008872C872084680F80C80002506E0394966
:10474000E81C085C204484B2681CC5B20A2DF6DB64
:1047500004F47F40C11700EB11610A12002102EB43
:104760000121304A517311468C730F220020FCF74F
:1047700046FFBDE8F0812DE9F04705460E46174695
:1047800098464FF000098220274908704020487061
:1047900008468570C670077180F8058033208871DF
:1047A0000020C871012406E01F48005D48441FFA3C
:1047B00080F9601CC4B2082CF6DB1B4981F8089014
:1047C00009220120FCF71BFFBDE8F0872DE9F04727
:1047D00005460E46174698464FF0000982201249BA
:1047E00008704220487008468570C670077180F8CE
:1047F0000580302088710020C871012406E00A4835
:10480000005D48441FFA80F9601CC4B2082CF6DB36
:10481000054981F8089009220120FCF7F0FEBDE867
:10482000F0870000421E0010511E001010B5044613
:10483000082C21D2DFE804F02004080C1014181C06
:10484000012008F0AFFA18E0022008F0ABFA14E0FB
:10485000032008F0A7FA10E0042008F0A3FA0CE007
:10486000052008F09FFA08E0062008F09BFA04E013
:10487000072008F097FA00E000BF00BF10BD10B598
:104880000446012C06D0022C08D0032C0AD0042C9C
:1048900010D10BE0012008F005FD0CE0022008F02B
:1048A00001FD08E0032008F0FDFC04E0042008F00E
:1048B000F9FC00E000BF00BF10BD10B50446012C9C
:1048C00004D0022C06D0032C0CD107E0012006F006
:1048D000BDFF08E0022006F0B9FF04E0032006F067
:1048E000B5FF00E000BF00BF10BD10B50446012CAD
:1048F00002D0022C08D103E0012008F079FE04E088
:10490000022008F075FE00E000BF00BF10BD0000EF
:1049100031490870704730480078401C2E490870B3
:1049200070472D480078401E2B49087070472A4870
:104930000078704728494870704727484078401CE5
:1049400025494870704724484078401E22494870E5
:1049500070472148407870471F49887070471E484B
:104960008078401C1C49887070471B488078401E26
:10497000194988707047184880787047174908703F
:10498000704716480078401C144908707047134857
:104990000078401E11490870704700200F490870C8
:1049A00070470E48007870470D480078401C0C494D
:1049B000087070470A480078401E0949087070471F
:1049C0000748007870470649087070470549087025
:1049D0007047044800787047890500108C05001066
:1049E0008D0500108E0500100020FC4908607047FE
:1049F0000020FB490860704710B5FFF798FF0128B9
:104A000006D0022813D0032820D0052835D12CE069
:104A1000FFF793FFFFF79DFF052802DD0120FFF759
:104A200089FFFFF796FF0446FFF729FF26E0FFF70F
:104A300084FFFFF78EFF032802DD0120FFF77AFFD6
:104A4000FFF787FF0446FFF738FF17E0FFF775FF12
:104A5000FFF77FFF022802DD0120FFF76BFFFFF762
:104A600078FF0446FFF741FF08E0DEA0FCF7B8FA44
:104A700000F09CFF00F017FD00E000BF00BF10BD7C
:104A800070B5FFF766FF012804D0022803D0032881
:104A90001FD11DE01EE00AF0C9FA012806D10AF074
:104AA000A7FA002808DD0AF062FA05E00AF0B2FA77
:104AB000002801DD0AF0A5FA0AF0ACFA04460AF073
:104AC00097FA054600231A46214605F0B1F801E0A1
:104AD00000E000BF00BF70BD0146481C70477CB5B8
:104AE000FFF737FF022802D003287CD10CE00AF040
:104AF00029FA012802DD0AF01CFA02E032200AF04D
:104B00001EFA00F054FE6FE008F090FEB349096809
:104B1000491CB24A1160884217D908F087FEAF4994
:104B20000968401A441E08F081FE05462946B1A0D6
:104B3000FCF756FA2146B4A0FCF752FA002C0ADB27
:104B4000B849204609F0FBFD05E0B7A0FCF748FA9C
:104B500006F0ABFF7CBDB3488178B8A0FCF740FA03
:104B6000B048C178B8A0FCF73BFAAE48C179BAA00A
:104B7000FCF736FAAB484179BAA0FCF731FAA948FC
:104B8000018ABBA0FCF72CFAA648C17BBBA0FCF7AE
:104B900027FAA448417BBCA0FCF722FAA148017B7C
:104BA000BBA0FCF71DFA9F48C17ABCA0FCF718FA1D
:104BB0009C48817ABCA0FCF713FA0020FDF754FC56
:104BC0002046FFF789FFC5B296480A309549897893
:104BD000CDE900100A384379C279C178284607F038
:104BE000F5F801E0FFE700BF00BF00BFB2E72DE925
:104BF000FF470AF041F9062845D2DFE800F04403F8
:104C00000A1928360AF0C4F8002801DD0AF0BAF8BB
:104C100047E00AF0DDF8012802DD0AF0D3F806E0EB
:104C20000AF0D6F8012802D10C200AF0C2F838E0C8
:104C30000AF0DDF8012802DD0AF0D3F806E00AF0F8
:104C4000D6F8012802D11F200AF0D4F829E00AF092
:104C5000E3F8002802DD0AF0D9F805E00AF0DCF8F4
:104C600010B918200AF0C9F81BE00AF0E7F800288C
:104C700002DD0AF0DDF805E00AF0E0F810B93B20AB
:104C80000AF0CDF80DE00AF0EBF8002802DD0AF09A
:104C9000E1F805E00AF0E4F810B93B200AF0D1F899
:104CA00000BF00BF0AF0E8F804460AF0D9F8C5B220
:104CB0000AF0C4F8C7B20AF0AFF800F0FF080AF033
:104CC00096F8C6B20AF084F800F0FF090AF060F81E
:104CD00082460120434632464946CDE90075CDE97A
:104CE0000240504606F094F80AF052F87149C88024
:104CF0000AF06EF86F4948710AF079F86D49C8708A
:104D00000AF08AF86B4988700AF098F86949487087
:104D10000AF0A6F867490870BDE8FF87F8B50AF001
:104D200022F8022802D0032816D10AE009F0F7FF82
:104D3000012802DD09F0EDFF02E0322009F0F2FF68
:104D40000BE00AF001F8002802DD09F0F7FF02E0AD
:104D5000022009F0EAFF00E000BF00BF0AF003F8FC
:104D6000044609F0F1FF054609F0D9FF064609F0AF
:104D7000C4FF0746102023462A4631460090384695
:104D800005F058FDF8BD2DE9FC4109F071FF02283E
:104D90000AD109F091FF012802DD09F087FF02E046
:104DA000322009F07AFF00E000BF00BF09F060FF89
:104DB000044609F093FF054609F07EFF064609F018
:104DC00069FF074600202B4602463146CDE90040E8
:104DD000384605F0A4FBBDE8FC81000090050010FA
:104DE00094050010636C6F736520737065616B656B
:104DF000720A0000686973746F7279206E756D7342
:104E00003A25640A000000002D2D2D3E3E6C6F6F88
:104E10006B20686973746F727920787568616F3A76
:104E200025640A00741D00102D2D3E3E68697374C0
:104E30006F7279206F766572000000007061727485
:104E40003A25640A00000000636972636C6561645E
:104E500064723A25640A0000646576747970653A74
:104E600025640A00617474723A25640A0000000027
:104E7000796561723A25640A000000006D6F6E74F6
:104E8000683A25640A0000006461793A25640A00E2
:104E9000686F75723A25640A000000006D696E75CE
:104EA00074653A25640A00007365636F6E643A2581
:104EB000640A0000A00500102DE9FF4709F09AFEE2
:104EC000012804D0022810D003282AD11BE000209A
:104ED00009F083FE002803DD002009F078FE03E0DE
:104EE0000221002009F05CFE1CE0012009F075FEA3
:104EF000002803DD012009F06AFE03E009210120FA
:104F000009F04EFE0EE0022009F067FE002803DDE6
:104F1000022009F05CFE03E00921022009F040FEB6
:104F200000E000BF00BF09F087FE00F01EFB044652
:104F300008F0ACFE844226D009F05CFE0446022054
:104F400009F06AFE0546012009F066FE06460020CB
:104F500009F062FE0746022009F03FFE804601206C
:104F600009F03BFE8146002009F037FE824603200F
:104F70003B4642464946CDE90065CDE902405046F0
:104F800007F098FA25E009F035FE0446022009F002
:104F900043FE0546012009F03FFE0646002009F0C9
:104FA0003BFE0746022009F018FE8046012009F06A
:104FB00014FE8146002009F010FE824600203B4688
:104FC00042464946CDE90065CDE90240504607F02A
:104FD00071FABDE8FF8710B5FFF7BBFC012806D0CA
:104FE000022807D0032808D004280CD108E0FFF7D6
:104FF00063FF09E0FFF7C7FE06E0FFF78FFE03E05F
:10500000FFF7F5FD00E000BF00BF10BD10B5FFF7D2
:105010008EFC012806D0022807D0032808D00428D7
:105020000AD108E0FFF7D7FF07E0FFF758FD04E0DB
:10503000FFF726FD01E000E000BF00BF10BD10B586
:10504000FFF799FC012804D0022803D0032803D1DC
:1050500001E002E001E000E000BF00BF10BD000081
:1050600010B5FFF764FC07283CD2DFE800F03B04F2
:10507000272B2F33370000F080FB012007F092FE32
:1050800015200121814042094FF0E02303EB820209
:10509000C2F8001100BF0021002807DACA06140E6A
:1050A0005C4A00F00F031B1FD45403E0CA06130E22
:1050B000594A135400BF00F0BFF814E0022007F073
:1050C00071FE10E0032007F06DFE0CE0042007F0F5
:1050D00069FE08E0052007F065FE04E0062007F001
:1050E00061FE00E000BF00BF0120FFF723FC10BD00
:1050F00010B5FFF72EFC012806D002280BD003289C
:1051000012D004281ED116E0012008F0CBF80120AF
:1051100009F06DFD17E0022008F0C4F8022009F044
:10512000A4FD09F095FD0EE0032008F0BBF8022075
:1051300009F01CFE07E0042008F0B4F8012009F093
:1051400092FE00E000BF00BF0120FFF705FC10BD8C
:1051500010B5FFF7FEFB012804D0022809D0032870
:1051600017D10FE00020FDF77FF9012006F06EFB5C
:1051700010E00020FDF778F9022006F067FBFFF74A
:1051800033FC07E00020FDF76FF9032006F05EFB1B
:1051900000E000BF00BF0120FFF7DEFB10BD10B52F
:1051A000FFF7D7FB012802D0022814D10CE0FEF74C
:1051B000F5F8002000F032F8FCF7B0FEFCF7AAFE8C
:1051C000012008F015FA07E0002004F0EFFE0220AD
:1051D00008F00EFA00E000BF00BF0120FFF7BCFBA3
:1051E00010BD10B5FFF7C7FB012806D0022805D077
:1051F000032804D0042806D104E005E004E0FFF70A
:10520000F3FB01E000E000BF00BF0120FFF7A4FBBB
:1052100010BD000018ED00E000E400E0FD4908705A
:105220007047FC480078704710B5FBA0FBF7D8FE2C
:105230000120FD49087010BD0020FB49087070472F
:10524000F9480078704710B5FFF783FB0446FFF775
:1052500016FBFFF7E9FF10BD10B5FFF77AFB044618
:10526000FFF72BFB10BD10B5FFF773FB0446FFF7EC
:105270003CFB10BD10B5FCF7A6FE02F0FBFD0020C4
:10528000FDF7F2F802213820FEF7BFF8022138209E
:10529000FEF7BBF8FDF7C7FFFDF7BEFFFBF700F811
:1052A000FBF70CF800210846FFF793F800210120D6
:1052B000FFF78FF80020FFF7A9F80020FFF783FB26
:1052C0000120FFF725FB0120FFF722FB0020FEF75E
:1052D00078F808F072FFFCF721FEFFF792F9FFF76C
:1052E0007DF902F0FEFF07F0ABFBFCF783FE40F612
:1052F000B830FCF7B1FF10BD7FB50446CBA30FCB90
:105300008DE80F000021684606F0F6FF05462B46A3
:10531000102221460120FDF7F0F90221684606F02F
:10532000EBFF05462B46202221460120FDF7E5F93B
:105330000421684606F0E0FF05462B463022214650
:105340000120FDF7DAF90621684606F0D5FF05468B
:105350002B46002221460220FDF7CFF9082168469E
:1053600006F0CAFF05462B46102221460220FDF713
:10537000C4F90A21684606F0BFFF05462B462022E5
:1053800021460220FDF7B9F97FBD10B501240020A8
:10539000FDF76AF80220FFF7AFFF4FF4FA60FCF761
:1053A0005BFF14E0A548406910F0007F09D100249C
:1053B0000220FFF708FBFFF7EAFA0120FFF7A8FA3F
:1053C00006E09E48406910F4806F00D000E0E9E7F5
:1053D00000BF15E09948406910F0007F09D1002412
:1053E0000220FFF7F0FAFFF7D2FA0120FFF790FA58
:1053F0000BE0641C9148406910F4806F00D104E018
:105400008E48406910F4806FE4D100BF1E2C46D94D
:105410000020FDF729F807F0F5FDFAF75BFF08F02B
:10542000F5FC0020FBF78BF94FF48030FBF787F990
:105430004FF40030FBF783F94FF44030FBF77FF96E
:105440004FF48020FBF77BF94FF40020FBF777F94E
:105450004FF41020FBF773F94FF42020FBF76FF99E
:105460004FF43020FBF76BF94FF44020FBF767F95E
:105470004FF45020FBF763F94FF46020FBF75FF91E
:105480004FF47020FBF75BF909F08BFAFAF728FF6D
:105490000020FCF7E9FF07F036FD07F0DAFC10BD4D
:1054A00067480078704710B5FFF7FAFF18B1012080
:1054B00007F05AFD04E000206149087007F054FD30
:1054C00010BD10B5FFF7EFFF10BD10B50446072C57
:1054D00017D2DFE804F01604070A0D101300FFF7D7
:1054E000B2FE0FE0FFF7B8FE0CE0FFF7BCFE09E0EC
:1054F000FFF74BFF06E0FFF7E4FF03E0FFF7BAFE1C
:1055000000E000BF00BF10BD10B508F0BFFBFF28D2
:1055100002D1962008F0ACFB08F0B8FB6421B0FB88
:10552000F1F0C4B22146002009F03AFB08F0AEFBCE
:105530006421B0FBF1F201FB12000A21B0FBF1F48F
:105540002146012009F02CFB08F0A0FB6421B0FBF0
:10555000F1F201FB12000A21B0FBF1F201FB12048F
:105560002146022009F01CFB10BD10B5002009F0F7
:1055700034FB642100FB01F4012009F02EFB0A2119
:1055800001FB0044022009F028FB204480B210BD3A
:1055900010B5FFF7EAFFC82801DD09F004FB10BDD4
:1055A000012028490870704726480078704700207D
:1055B0002449087070472DE9FF47FFF7F1FFFFF717
:1055C000A3FFFFF7E5FF022009F026FB04460120B8
:1055D00009F022FB0546002009F01EFB06460220CA
:1055E00009F0FBFA0746012009F0F7FA804600208F
:1055F00009F0F3FA81460020012133463A46CDE90D
:105600000054CDE902104146484606F053FFBDE87C
:10561000FF8700009C050010736574206E6F746531
:1056200020666C6167210A009B050010C7EBB0B4CF
:10563000C8B7B6A8C9BEB3FD0000000000C009206D
:105640009D050010980500102DE9FC4109F034FB80
:10565000322802DD002009F00EFB09F009FB0446A8
:1056600009F03CFB054609F027FB064609F012FB52
:10567000074600202B4602463146CDE90040384619
:1056800004F04DFF09F0E0FABDE8FC81F8B509F03F
:105690006AFB044609F058FB054609F040FB064644
:1056A00009F02BFB0746002023462A46314600908E
:1056B000384605F0BFF8F8BD2DE9F04387B005A8DE
:1056C000FDF794FABDF81A0009F053FB9DF8190094
:1056D00009F06FFB9DF8170009F08CFB9DF8160090
:1056E00009F08BFB9DF8150009F099FB9DF814005B
:1056F00009F0A7FB09F0B4FBC4B209F09FFBC5B2E7
:1057000009F08AFBC6B209F072FBC7B209F060FB70
:1057100000F0FF0809F03CFB8146002001213346E0
:105720003A46CDE90054CDE902104146484605F01D
:105730006FFB07B0BDE8F08310B50446012C06D01E
:10574000022C07D0032C08D0042C0CD108E0FFF762
:1057500032FF09E0FFF778FF06E0FFF797FF03E06D
:10576000FFF7AAFF00E000BF00BF10BD0120F7490E
:1057700008707047F548007870470020F3490870BA
:10578000704770B5FFF7F2FF0020FCF76DFE09F0DF
:10579000B5FB064608F044FAC4B208F083FA85B2B5
:1057A000002332462146284607F030F970BD2DE926
:1057B000FC4709F0C7FB044609F0B2FB0546214649
:1057C00009F001F910B309F0BDFB054609F0A8FB8B
:1057D0000646294609F048F9044609F0BFFB05468C
:1057E000E0B208F00CFB0646E0B208F063FB0746A7
:1057F00009F0A8FB804609F093FB814600233A4656
:105800004146CDE9006505F01AF90FE009F09AFB71
:10581000044609F085FB0546222000210B460A4676
:10582000CDE900102146284605F009F9BDE8FC87BE
:1058300030B587B0C6A0FBF7D3FB0020FCF714FE01
:10584000FFF7D2F8FFF7D4F807F0F0FF18B906F029
:10585000E7F807B030BD07F0E9FF441E002C03DB7A
:1058600002A9204608F06BFF9DF80A10BEA0FBF7C6
:10587000B7FB9DF80B10BFA0FBF7B2FB9DF80F1014
:10588000C0A0FBF7ADFB9DF80D10C1A0FBF7A8FB76
:10589000BDF81810C1A0FBF7A3FB9DF81710C2A01C
:1058A000FBF79EFB9DF81510C2A0FBF799FB9DF836
:1058B0001410C2A0FBF794FB9DF81310C2A0FBF7D5
:1058C0008FFB9DF81210C3A0FBF78AFB2046FFF761
:1058D00003F9C5B20DF112009DF80A10CDE90010D0
:1058E0009DF80D309DF80F209DF80B10284606F00E
:1058F0006DFA00BFADE710B50446012C04D0022CB0
:1059000005D0032C09D105E0FFF73BFF06E0FFF7C8
:105910004EFF03E0FFF78CFF00E000BF00BF10BDAB
:1059200010B50020FCF7A0FD02213820FDF76DFD29
:10593000FDF728FD0120FFF771FCFCF7DDFAFCF70D
:10594000E5FA43F69820FCF787FC07F0B5F84FF42A
:10595000FA60FCF781FC0320FFF710F80320FEF744
:10596000D7FF0120FEF7E6FF01F025FF10BD10B5BF
:1059700000231A461946184604F05AF9012004F08B
:1059800015FB10BD10B50446012C02D0022C06D127
:1059900002E0FFF7C5FF03E0FFF7E9FF00E000BF0B
:1059A00000BF10BD01208E490870704700208C494F
:1059B000087070472DE9FF47FFF7D7FDC82801DDC4
:1059C00009F0F1F808F062F90446FFF7CEFD8442D1
:1059D00027D109F00FF90446022009F01DF9054608
:1059E000012009F019F90646002009F015F90746CB
:1059F000022009F0F2F88046012009F0EEF8814615
:105A0000002009F0EAF8824604203B464246494617
:105A1000CDE90065CDE90240504606F04BFDBDE8FA
:105A2000FF8709F0E7F80446022009F0F5F805467B
:105A3000012009F0F1F80646002009F0EDF80746CC
:105A4000022009F0CAF88046012009F0C6F8814614
:105A5000002009F0C2F8824602203B4642464946F1
:105A6000CDE90065CDE90240504606F023FDFFF781
:105A70007CFDC4B2204608F0FBF808F0ABF809F052
:105A8000B9F80446022009F0C7F80546012009F0DC
:105A9000C3F80646002009F0BFF80746022009F0C7
:105AA0009CF88046012009F098F88146002009F012
:105AB00094F8824601203B4642464946CDE90065BE
:105AC000CDE90240504606F0F5FC00BFA7E73EB521
:105AD00044A207CA8DE8070006240021684606F0A4
