:020000040000FA
:10000000A87B00105902000061020000630200009A
:1000100065020000670200006902000000000000A5
:100020000000000000000000000000006B02000063
:100030006D020000000000006F020000E10A0000F5
:1000400073020000D71B0000EF1B0000051C00001E
:1000500073020000A31200002B11000073020000C5
:1000600073020000431F0000710D000073020000C6
:1000700073020000730200007302000073020000AC
:10008000730200007302000073020000EF21000001
:1000900073020000D9220000730200007302000006
:1000A000730200007302000073020000730200007C
:1000B000730200007302000073020000730200006C
:1000C00073020000730200007302000000F002F8E7
:1000D00000F0B2F80AA090E8000C82448344AAF130
:1000E0000107DA4501D100F0A7F8AFF2090EBAE82E
:1000F0000F0013F0010F18BFFB1A43F0010318475C
:10010000D81A0500F81A05000A444FF0000C10F840
:10011000013B13F0070408BF10F8014B1D1108BF85
:1001200010F8015B641E05D010F8016B641E01F825
:10013000016BF9D113F0080F1EBF10F8014BAD1C75
:100140000C1B09D16D1E58BF01F801CBFAD505E093
:1001500014F8016B01F8016B6D1EF9D59142D6D3ED
:10016000704700000023002400250026103A28BF15
:1001700078C1FBD8520728BF30C148BF0B60704719
:100180006E290FF0038470290FF04685662910F060
:100190005286652910F04F86672910F04C86612938
:1001A000AFF3008003681B0A28BF41F08001692972
:1001B0000FF0B08364290FF0AD8375290FF0AA8387
:1001C0006F290FF0D18478290FF01285E9290FF0FB
:1001D0006984E4290FF06684F5290FF06384EF2920
:1001E0000FF0CE84F8290FF011850368DB0928BFD2
:1001F00041F08001632910F09C80732910F0A180E8
:10020000E32910F0AC80F32910F0B1800020704792
:100210001FB510F009FE10F0FBF8040000200021CB
:1002200010F0ECFD401C60600020002110F0D0FDBB
:10023000E0601FBD10B510BD10F0BDF81146FFF70E
:10024000E7FF00F027F810F099F903B4FFF7F2FF89
:1002500003BC10F0E1F90000094880470948004755
:10026000FEE7FEE7FEE7FEE7FEE7FEE7FEE7FEE766
:10027000FEE7FEE704480549034A054B70470000C6
:1002800001030000CD000000A8790010A87B001039
:10029000A879001000F08BF807F0A7FC03A001F08C
:1002A00048FA01E007F026FDFCE700003D3D3D3D3A
:1002B0003D68656C6C6F2031333920776972656CED
:1002C000657373206D6F643D3D3D3D3D3D3D3D3D5E
:1002D0003D0A000010B501F0EAFE07F04DFF10BD29
:1002E00010B501F0FBFE10BD7047704770470A68FB
:1002F00002F8010B0A60704770470B01FFFFFFFF18
:10030000002020217A4A116000BF7949096811F064
:10031000400FFAD00321774A11607749774AC2F833
:10032000A8114FF00001764A11604FF00101754AA3
:1003300011604FF00F01744A11604FF00101A2F1FA
:10034000040211604FF0AA01704A11604FF055018C
:100350006A4AC2F88C106B490968022906D000BFAE
:100360006B49096811F0806FFAD004E0002000E0CA
:10037000401C6428FCD90321664A11604FF0AA0191
:100380005E4AC2F88C104FF05501604A11604FF080
:100390000701614A11606149614A11604FF0000133
:1003A000604A116043F23A01544A1160704758485C
:1003B0000068C0F30160032868D15248006810F05B
:1003C000030006D0012823D002283FD003285CD1A7
:1003D00000E000BF4E480068C0F30E0000F10100CD
:1003E0004FEA40014548D0F88800C0F3074000F1CB
:1003F0000100B1FBF0F04C4900FB01F03D490968F8
:10040000C9B201F10101B0FBF1F0484908603CE0DC
:100410003F480068C0F30E0000F101004FEA4001C0
:100420003648D0F88800C0F3074000F10100B1FB66
:10043000F0F03F4900FB01F02E490968C9B201F113
:100440000101B0FBF1F0394908601EE03048006856
:10045000C0F30E0000F101004FEA40012748D0F838
:100460008800C0F3074000F10100B1FBF0F04FF449
:10047000FA4100FB01F01F490968C9B201F101010D
:10048000B0FBF1F02949086000BF2FE01D4800686B
:1004900010F0030006D0012810D0022819D003283C
:1004A00023D100E000BF13480068C0B200F1010092
:1004B0001D49B1FBF0F01D49086016E00D480068C9
:1004C000C0B200F101001A49B1FBF0F01749086011
:1004D0000BE008480068C0B200F101004FF4FA4197
:1004E000B1FBF0F01149086000BF00BF7047000089
:1004F000A0C10F4004C10F404010110000C00F40C8
:10050000ACC10F400CC10F4084C00F408CC00F40E5
:1005100088C00F4080C00F4008C10F40DEF7EFEFEA
:10052000C4C00F40C8C10F4000093D0000000010CA
:10053000001BB70070B931B9FE4AD26942F480326B
:10054000FC4BDA6116E0FB4A926942F48032F94BC7
:100550009A610FE001280DD131B9F64AD26942F013
:100560004002F44BDA6105E0F24A926942F040023F
:10057000F04B9A617047F048006840F48060EF49A2
:10058000C1F8C400EE48006820F48070EC490860AF
:100590000846006820F4007008600846006820F4EF
:1005A000806008600846006820F400600860084623
:1005B000006820F4805008600846006820F400506D
:1005C00008600846006820F480400860084600681B
:1005D00040F4004008600846006820F4803008605D
:1005E0000846006840F4003008600846006820F4BF
:1005F000802008600846006840F400200860CD486C
:10060000006840F01000CB4908600846006840F0E0
:10061000200008600846006840F040000860084676
:10062000C06940F01000C8610846806940F02000B1
:1006300088610846806940F0400088614FF00700FB
:10064000C04908604FF0020048604FF004000861A4
:10065000B848806940F04000B6498861704701465B
:10066000B848816000BFB748C06810F0100FFAD1D9
:10067000B4488068C0B2704700B50246AD48C06952
:1006800040F04000AB49C8611046FFF7E8FFA948B9
:10069000806940F04000A749886100BD00B502466E
:1006A000A448C06940F04000A249C861D0B2FFF739
:1006B000D6FFFF20FFF7D3FF03469E48806940F036
:1006C00040009C498861184600BD00B502460B46B3
:1006D0009848C06940F040009649C861D0B2FFF721
:1006E000BEFFD8B2FFF7BBFF9248806940F04000E0
:1006F0009049886100BD10B50520FFF7CFFF20F0BD
:100700007C0421460120FFF7E0FF0620FFF7B4FF3D
:100710008848806940F010008649886110BD10B596
:100720000520FFF7BBFF40F01C0421460120FFF726
:10073000CCFF0420FFF7A0FF7E48C06940F0100006
:100740007C49C86110BD00B505227A48C06940F0F7
:1007500040007849C8610520FFF781FFFF20FFF7BF
:100760007EFF03467348806940F04000714988610C
:1007700001E0501EC2B2002AFBDC03F0010000BD04
:1007800018B50446200C8DF80000200A8DF80100F1
:10079000E0B28DF80200FFF7AEFF6648C06940F096
:1007A00040006449C861D820FFF759FF9DF8000058
:1007B000FFF755FF9DF80100FFF751FF9DF802007C
:1007C000FFF74DFF5B48806940F040005949886160
:1007D00000BFFFF7B8FF0028FBD1FFF7A0FF18BD4F
:1007E00000B5FFF788FFC720FFF746FF00BFFFF700
:1007F000AAFF0028FBD1FFF792FF00BD38B50446E1
:100800000D46200C8DF80000200A8DF80100E0B2A2
:100810008DF80200FFF76FFF4648C06940F04000C6
:100820004449C8610220FFF71AFF9DF80000FFF756
:1008300016FF9DF80100FFF712FF9DF80200FFF779
:100840000EFF2846FFF70BFF3A48806940F0400052
:1008500038498861FFF763FF00BFFFF774FF002886
:10086000FBD138BDF8B504460D461646FFF743FFE9
:100870003048C06940F040002E49C861200C8DF816
:100880000000200A8DF80100E0B28DF8020002207D
:10089000FFF7E5FE9DF80000FFF7E1FE9DF801007F
:1008A000FFF7DDFE9DF80200FFF7D9FE002704E008
:1008B0002878FFF7D4FE781CC7B2B742F8DB1D4892
:1008C000806940F040001B498861FFF728FF00BFA6
:1008D000FFF739FF0028FBD1F8BD08B502461548DF
:1008E000C06940F040001349C861100C8DF8000049
:1008F000100A8DF80100D0B28DF802000320FFF736
:10090000AEFE9DF80000FFF7AAFE9DF80100FFF77C
:10091000A6FE9DF80200FFF7A2FEFF20FFF79FFE54
:1009200003460448806940F0400002498861184647
:1009300008BD000000C00920C4C00F4000C00F4027
:1009400000C0024000000340F8B504460D461646BC
:100950006048C06940F040005E49C861200C8DF8D5
:100960000000200A8DF80100E0B28DF8020003209B
:10097000FFF775FE9DF80000FFF771FE9DF801007E
:10098000FFF76DFE9DF80200FFF769FE002706E005
:10099000FF20FFF764FE05F8010B781CC7B2B742D1
:1009A000F6DB4C48806940F040004A49886100BF4E
:1009B000FFF7C9FE0028FBD1F8BD70B500BF0023CA
:1009C0002EE0A8B900BF444DED6805F01205022DD8
:1009D000F9D10D78404EB560491C00BF3E4DED6821
:1009E00005F01405042DF9D13B4DAD68ECB216E0CD
:1009F000012814D100BF394DED6805F01205022D14
:100A0000F9D10D78354EB560491C00BF334DED6806
:100A100005F01405042DF9D1304DAD68ECB25B1C26
:100A20009342CED370BD30B5002320E070B9FF24CF
:100A3000294DAC6000BF284CE46804F01404042C79
:100A4000F9D1254CA46801F8014B0FE001280DD124
:100A5000FF24224DAC6000BF204CE46804F0140475
:100A6000042CF9D11D4CA46801F8014B5B1C934286
:100A7000DCD330BD08B502461648C06940F04000DE
:100A80001449C861100C8DF80000100A8DF801009F
:100A9000D0B28DF802000B20FFF7E1FD9DF80000B9
:100AA000FFF7DDFD9DF80100FFF7D9FD9DF802007D
:100AB000FFF7D5FD0020FFF7D2FDFF20FFF7CFFDA8
:100AC00003460448806940F04000024988611846A6
:100AD00008BD000000C0092000800840000003405D
:100AE0000D480068401C0C4908607047704700BF03
:100AF000411EC9B20800FBD1704700B5024605E0AF
:100B0000F520FFF7F4FFF520FFF7F1FF1000A2F149
:100B10000102F5D100BD00000400001010B500284E
:100B200007DACA06140EF74A00F00F031B1FD4544D
:100B300003E0CA06130EF44A135410BD0146F348ED
:100B40000078012800D170470CE0002205E0EF4852
:100B50000078012800D1F6E7521C41F28830824229
:100B6000F5D3491E0029F0D10020ECE710B504466A
:100B7000E748006840F40020E649C1F8C400E648B0
:100B8000406820F07070E44948600846406840F0D2
:100B9000A07048604FF06C00E0498861E0488442F2
:100BA00000D90446DF48B0FBF4F0401C4008DB49A4
:100BB0000861DC48B0FBF4F0400848612C208861F3
:100BC000402008600A2000F0F1F94020D349086075
:100BD00018210620FFF7A2FF10BD10B50A2000F073
:100BE000E5F918210620FFF799FF10BD10B50A207E
:100BF00000F0E8F910BD10B50A2000F0E3F910BDCF
:100C000010B50A2000F0D2F94020C449086018212C
:100C10000620FFF783FF10BD03B50346C2480370EB
:100C200001A8C24908600120C14908600020C149EB
:100C30000870B64908702C20B849886160200860A7
:100C40001420FFF77BFF0CBD10B504460B46601C5B
:100C5000B5490870B54803600120B5490860002017
:100C6000B4490870A94908702C20B34988616020F4
:100C700008601420FFF762FF10BDF0B505460E4670
:100C80001446059F002F35D0012E07D1681CA649B8
:100C90000870AA4804600120A9490870022E07D1F3
:100CA000681CA1490870A54804600220A449087086
:100CB000032E0CD10E2000EAD4102844401C9A497F
:100CC0000870E0B29D49086001209D49087097486E
:100CD00003609748076001209649087000208B49FF
:100CE00008702C208D498861602008601420FFF76F
:100CF00025FFF0BD0020FCE7F0B505460E46144682
:100D0000059F002F32D0012E06D1874805708B48F1
:100D1000046001208A490870022E06D182480570BD
:100D200086480460022086490870032E0BD10E20ED
:100D300000EAD41028447C490870E0B27F4908607A
:100D400001207F49087079480360794807600220D4
:100D50007849087000206D4908702C206F4988611F
:100D6000602008601420FFF7E9FEF0BD0020FCE7DA
:100D70006A48406800F0F80010F0070F79D1C01001
:100D80000C2876D2DFE800F075061920B421B5B63C
:100D9000A5B7DEFC67480078012806D162480078D4
:100DA00000F0FE005D49886003E05F4800785B4921
:100DB0008860282059498861F6E05B4800785749E7
:100DC000886028208861EFE000BF5A480078E8B9C1
:100DD0005748006890B15548006800784F498860CE
:100DE00052480068401C5149086028204B498861DE
:100DF0004F480068401E4E49086007E010204749F0
:100E0000086028208861012040490870494800781E
:100E100001282FD14A48007802280DD147480068A0
:100E2000C0F307203D498860282088614448007845
:100E3000401E43490870B7E04148007801280CD1B2
:100E40003E480068C0B235498860282088613C4827
:100E50000078401E3A490870A6E03948007848B941
:100E600008202E4988612020086000203149087040
:100E70009AE098E02F480078022829D1304800787D
:100E8000002825DD2E48007802280DD12B48006867
:100E9000C0F307202149886028208861284800780D
:100EA000401E274908707FE02548007801280FD1AF
:100EB00022480068C0B2194988602820886120480B
:100EC0000078401E1E49087000201A4908706BE027
:100ED0006AE017480068012803D804200F49886198
:100EE00002E004200D49086028200C4988615BE07D
:100EF00000BF00BF00BF282008498861FF200349C8
:100F0000087051E018ED00E000E400E01C00001063
:100F1000C4C00F4000C00F4000C0024000C00140EC
:100F2000801A060000366E01080000101400001040
:100F3000180000101D00001000C005400C0000103B
:100F4000100000102448806824490968087023486C
:100F50000068401C2149086021480068401E204963
:100F6000086008460068012804D12C201A498861CD
:100F700005E005E00420184908602820886113E096
:100F80001548806815490968087014480068401CB5
:100F9000124908601020104908602820886101204B
:100FA0001049087000E000BF00BF704700F01F024A
:100FB0000121914042094FF0E02303EB8202C2F885
:100FC0000011704700F01F0201219140064A4309B9
:100FD00042F823107047000000C0014014000010C8
:100FE000180000101C00001080E100E010B500287F
:100FF00007DACA06140EFE4A00F00F031B1FD45472
:1010000003E0CA06130EFB4A135410BD002004E08F
:101010000021F94A1154411CC8B20C28F8DB704772
:101020000020F649087070470146F548405C70475B
:10103000002004E00021F24A1154411CC8B20928E2
:10104000F8DB7047704710B54FF40020FFF745FC00
:10105000EC49087008460078FF2801D1002008708C
:10106000E8480178E8A0FFF7EDFF10BD70B5002457
:101070002FE02146E9A0FFF7E5FF002522E004EB81
:10108000C401C1EB841101F580214819FFF725FC4B
:1010900004EBC401C1EB8411E34A1144485504EB4D
:1010A000C400C0EB84101146085C802808D104EB12
:1010B000C400C0EB84101044415DDCA0FFF7C2FF08
:1010C000681CC5B2372DDADBD9A0FFF7BBFF601C67
:1010D000C4B2322CCDDB70BD024602EBC200C0EBC5
:1010E0008210D14B1844405C704710B5C4488178D9
:1010F000002002F048FAC248C178012002F043FA09
:10110000BF480179022002F03EFABD484179032030
:1011100002F039FABA488179042002F034FAB8486A
:10112000C179052002F02FFA10BD38B5B348007818
:10113000092843DABF480068B149B04A1278885498
:1011400008460078822805D1AC480078401CAB499D
:10115000087002E00020A9490870A94840783828A2
:1011600007D10020A549087003F0F9F803F016FA3A
:1011700024E0A2480078092820D100209F49087067
:1011800003F0EDF80EF000F828B1FFF7AEFF0921EB
:10119000412002F002FA09F08CF878B10020984C56
:1011A0000090A378E2782179607902F09AFA28B960
:1011B000FFF79BFF0921412002F0EFF938BD9E485F
:1011C0000078704710B50246FF2001210CE001EBCA
:1011D000C103C3EB8113944C23449B78934201D108
:1011E000084603E04B1CD9B23229F0DD00BF10BD28
:1011F000024602290AD10A2A08D100BF8F48406955
:1012000010F0200FFAD00D208C4B186000BF8B48D7
:10121000406910F0200FFAD0884802600020704723
:1012200010B5864800688649864A12888854084660
:1012300084490988405C20280DD182480088142800
:1012400009DD7F487F490988405C7F4908707D48F7
:1012500000887E4908807A497C480088C01C085C68
:101260006E2811D179480088801C085C60B97748E5
:101270000088401C085C38B9002072490880734916
:10128000088001206C4908706D496E4A1288885C9C
:101290000021FFF7ADFF6B480088401C69490880BA
:1012A00010BD10B504F0BAF810B1FFF7B9FF1DE09A
:1012B000624800685049664A1278885408460078A7
:1012C000FF2805D162480078401C6149087002E09F
:1012D00000205F4908704848C07A832806D1002062
:1012E0005B49087003F084F9FFF790FE10BD70B5FC
:1012F0004FF48020FFF744FA002417E0002511E0A6
:1013000004EBC402C2EB8412474B1A44515D04EB58
:10131000C402C2EB841202F580225019FFF76EFA64
:10132000681CC5B2372DEBDB601CC4B2322CE5DB88
:1013300070BD2DE9F0414FF0000800260027002580
:101340003D480078012851D100241AE03C48005D56
:101350001F2804D180213A4A601D1154A046384804
:10136000005D20B9444502DD701CC6B200E00026D5
:10137000042E04D18721E01E314A11540026601C3E
:1013800084B2B4F5FA6FE1DB002473E02C48005D11
:1013900080281AD12A49A01C0D5C322D00DD67E09F
:1013A00005B965E02648015D05EBC500C0EB851079
:1013B0001D4A0244274803780078401CDFF894C097
:1013C0008CF80000D154012751E0012F4FD11C4867
:1013D000015D05EBC500C0EB8510134A02441D48B2
:1013E00003780078401CDFF86CC035E058E000005E
:1013F00018ED00E000E400E0001F001023000010E2
:1014000002140010260000106E6F746520636F7563
:101410006E7465723A25640A0000000064617461AC
:10142000325B25645D3A00000B1400102564200037
:101430000A000000000001402200001000C000402F
:10144000280C00101E000010F813001020000010DF
:1014500025000010240000108CF80000D154C8486A
:10146000005D872803D1002061460870002700BF77
:10147000601C84B2B4F5FA6F88DB002404E000201D
:10148000BF490855601C84B2B4F5FA6FF7DBFFF76B
:101490002EFF0020BB49087003F0DAFF03F0BAFF0B
:1014A000BDE8F0812DE9F04107468846002F4CD178
:1014B000B548006840F00800B449C1F8C400B44819
:1014C000006820F0F000B24908600846006840F06B
:1014D00050000860AF480068C0F3811636B1012E95
:1014E00008D0022E09D0032E0BD000BFAA480068F6
:1014F00084080AE0A848046807E0A7480068440890
:1015000003E0A5480068C40800BF00BF2146A3A0AF
:10151000FFF798FD8320A549C8602009B0FBF8F5C6
:10152000280A4860E8B208600320C8600720886085
:10153000052000F010F901209C4948602021052079
:10154000FFF754FD0120BDE8F081012F4DD19048F7
:10155000006920F00F008E4908610846006940F0DC
:101560000A0008618B480068C0F3012636B1012EDD
:1015700008D0022E09D0032E0BD000BF8648006889
:1015800084080AE08448046807E083480068440847
:1015900003E081480068C40800BF00BF7E480168BE
:1015A00083A0FFF74FFD214686A0FFF74BFD2146A4
:1015B00088A0FFF747FD83208B49C8602009B0FB56
:1015C000F8F5280A4860E8B208600320C8600720E0
:1015D0008860062000F0BFF8012083494860082198
:1015E0000620FFF703FD0120ADE70020ABE710B5B3
:1015F000052000F0BCF8062000F0B9F810BD10B5C9
:1016000001206A49486078494860052000F0A3F845
:1016100020210520FFF7EAFC062000F09CF80021BD
:101620000620FFF7E3FC10BD10B5052000F09FF881
:10163000062000F09CF810BD10B501205B49486001
:1016400069494860052000F086F820210520FFF751
:10165000CDFC062000F07FF800210620FFF7C6FC35
:1016600010BD10B540B904E011F8013B4F4C2360A8
:10167000521E002AF8D107E004E011F8013B5A4C51
:101680002360521E002AF8D110BD00BF5649496997
:1016900011F0200FFAD054490860704710B5044685
:1016A00004E014F8010B0021FFF7A2FD20780028C8
:1016B000F7D110BD00B5024603E012F8010BFFF7A9
:1016C000E4FF10780028F8D100BD00BF4649496901
:1016D00011F0010FFAD044490868704700BF334940
:1016E000496911F0010FFAD030490868704700B518
:1016F00003460A4603E0FFF7E8FF01C3521E002A33
:10170000F9D100BD00B503460A4603E0FFF7E6FF46
:1017100001C3521E002AF9D100BD10B5044604E0F1
:1017200020780221FFF764FD641C20780028F7D19F
:1017300010BD0FB400B5A1B023A8009001A8009A75
:1017400022990DF0B1FF01A8FFF7E7FF00200090FC
:1017500021B05DF814FB00F01F0201219140420905
:101760004FF0E02303EB8202C2F80011704700F053
:101770001F02012191401D4A430942F8231070477E
:10178000280C001022000010C4C00F4000C00F4001
:1017900000C00240A8C10F400000001075617274C3
:1017A000303A70636C6B3A25640A000000C0004058
:1017B00053797374656D4672657175656E63793AB8
:1017C00025640A0075617274313A70636C6B3A2556
:1017D000640A000075617274313A70636C6B3A256B
:1017E0003031306C640A00000000014080E100E00C
:1017F0006F48406820F001006D4948600846406825
:1018000020F0010048600846006820F001000860F0
:101810000846006820F0010008600846406820F093
:10182000010048600846406820F001004860084612
:10183000406820F0010048600846406820F0010040
:1018400048600846C06820F00100C8600846C068CB
:1018500020F00100C8600846C06820F00100C860A0
:101860000846C06820F00100C8600846C06820F043
:101870000100C8600846C06820F00100C860084642
:10188000C06820F00100C8600846C06820F0010070
:10189000C8600846C06820F00100C8600846C068FB
:1018A00020F00100C8600846C06820F00100C86050
:1018B0000846C06820F00100C8600846C06820F0F3
:1018C0000100C8600846C06820F00100C8600846F2
:1018D000006920F0010008610846006920F001005D
:1018E00008610846006920F00100086108460069A7
:1018F00020F0010008610846406848600846006919
:1019000020F0010008610846006920F0010008612C
:101910000846006920F0010008612648006840F48C
:10192000C200244908600846006820F4806008600E
:101930000846006820F4006008600846006820F04F
:10194000007008600846006820F080600860084663
:10195000006820F0005008600846006820F08040D1
:1019600008600846006A144908431249086208469C
:10197000006C40F45F7008640846806940F4C00061
:1019800088610846C06B0D4908430A49C863084688
:10199000C06D40F45E70C8650846806D40F401700B
:1019A00088650846806D40F0C0708865704700000B
:1019B00000C0024000C009200000FCFF0300E0015D
:1019C00010B5002807DACA06140EE74A00F00F0324
:1019D0001B1FD45403E0CA06130EE44A135410BD6F
:1019E00010B5044634B1012C0CD0022C12D0032CBB
:1019F00020D117E0012000F0A2F910210120FFF70B
:101A0000DFFF18E0022000F09AF930210220FFF7F2
:101A1000D7FF10E0032000F092F948210320FFF7E0
:101A2000CFFF08E0042000F08AF950210420FFF7DE
:101A3000C7FF00E000BF00BF10BD10B5044634B1C1
:101A4000012C08D0022C0AD0032C10D10BE001206D
:101A500000F081F90CE0022000F07DF908E003209D
:101A600000F079F904E0042000F075F900E000BF0F
:101A700000BF10BD70B505460C460DBBBC480068E4
:101A800040F00200BB49C1F8C4004FF000004FF025
:101A9000402108674FF0020048604FF001000860E5
:101AA0004FF000008860C860084684614FF0030072
:101AB00048614FF0010048604FF00000FFF790FFD1
:101AC000012D20D1AA48006840F00400A949C1F8BE
:101AD000C4004FF00000A84908674FF002004860BA
:101AE0004FF0010008604FF000008860C8600846B1
:101AF00084614FF0030048614FF00100FFF770FF71
:101B000001209D494860022D20D19948006840F489
:101B100080009849C1F8C4004FF000009749086759
:101B20004FF0020048604FF0010008604FF00000E5
:101B30008860C860084684614FF0030048614FF038
:101B40000200FFF74DFF01208C494860032D1DD195
:101B50008748006840F400008649C1F8C4004FF08F
:101B60000000874908674FF0020048604FF001000D
:101B700008604FF000008860C8600846846128460D
:101B80004861FFF72DFF01207D49486070BD7D4908
:101B9000087070477B480078401C7A49087070478D
:101BA0007848007870477849086070477648006840
:101BB000401C754908607047734800687047734857
:101BC0000088401C71490880704770490880704740
:101BD0006E480088704710B500F069FA06F09EFC68
:101BE00001204FF04021086000F078FA10BD10B5D8
:101BF00000F05DFA06F054FD0F205F49086000F028
:101C00006DFA10BD10B501F0CCFA0F205B490860E9
:101C100010BD5F480068401C5D49086070470020A7
:101C20005B49086070475A48006870475948006827
:101C3000401C5849086070475648006870470020AB
:101C400054490860704700B55348406953490842F9
:101C500007D05148C06D40F400704F49C865FFF788
:101C6000EEFF00BD4C48806D40F400704A49886525
:101C7000002048490860704720B901214FF04022F8
:101C8000516010E0012803D101213B4A51600AE074
:101C9000022803D10121394A516004E0032802D10E
:101CA0000121374A5160704720B900214FF040228E
:101CB000516010E0012803D100212F4A51600AE051
:101CC000022803D100212D4A516004E0032802D1EB
:101CD00000212B4A51607047014631B94FF0402234
:101CE000506840F00200506016E0012905D1224AF8
:101CF000506840F0020050600EE0022905D11F4AF2
:101D0000506840F00200506006E0032904D11C4AEC
:101D1000506840F002005060704710B5FFF783FF35
:101D2000322802D101F0A9FB07E0FFF77CFF64280D
:101D300003D101F00FFBFFF772FF10BD704700F0F9
:101D40001F020121914042094FF0E02303EB820280
:101D5000C2F80011704700F01F0201219140104AA3
:101D6000430942F82310704718ED00E000E400E05A
:101D7000C4C00F4000C00F40008000400000094078
:101D8000004009402C00001030000010340000100A
:101D9000380000103C00001000C00920000C006654
:101DA00080E100E053480068704700F00301524AA8
:101DB00052F821104F4A11607047014601F00300AC
:101DC0004D4A52F8200070474C48006849F640419F
:101DD000B0FBF1F0704749480068400049F64041C7
:101DE000B0FBF1F070474548006849F64041B0FB50
:101DF000F1F000EB4000400070474048006849F6B1
:101E00004041B0FBF1F000EB8000800070473B48A0
:101E1000006849F64041B0FBF1F032214843704779
:101E20003648006849F64041B0FBF1F000EB800015
:101E3000000170473148006849F64041B0FBF1F0BD
:101E40006421484370472D48006849F64041B0FB83
:101E5000F1F0C8214843704729480068401C2849D0
:101E600008607047002026490860704724480068D1
:101E7000704724480068401C2249086070470020D1
:101E80002049086070471F48006870471E48006876
:101E9000401C1D490860704700201B4908607047BE
:101EA00019480068704718480068142801D30120B9
:101EB00070470020FCE7012014490870704700209B
:101EC0001249087070471148007870471048006840
:101ED00020F00100401C0E49086070470C48006863
:101EE000C0F3000070470A48006820F0010008496C
:101EF00008607047440000105800001000000010F7
:101F0000480000104C000010500000105400001059
:101F1000680000104348406910F0080F08D041489D
:101F2000006C40F008003F4908640820C86507E0DD
:101F30003C48006C40F008003A4908640820886575
:101F400070473949086810F0010F04D03749096813
:101F5000491C364A1160344909680143324A11600C
:101F6000704710B50020314908603148006840F0E2
:101F700040003049C1F8C4002F48006940F04000DB
:101F80002D4908614FF00200274948604FF00000DA
:101F9000C8604FF0010048614FF00000886108649C
:101FA0004FF0100008654FF0090000F02FF810BD49
:101FB00010B5092000F02AF810BD09200121814048
:101FC0001E4A430942F8231000BF7047164A906129
:101FD00001EB5002144B1A6410221A6570474FF43B
:101FE00080501149C864092048607047144800783F
:101FF000704701201249087070470020104908708E
:10200000704700200849C8644860704700F01F020C
:102010000121914042094FF0E02303EB8202C2F814
:102020000011704700C009200080014070000010BE
:10203000C4C00F4000C00F4000C0024080E100E07B
:102040006C00001010B5002807DACA06140E784A92
:1020500000F00F031B1FD45403E0CA06130E754A89
:10206000135410BD10B5152000F0CCF80021152038
:10207000FFF7E8FF10BD10B5152000F0CFF810BD38
:1020800010B56D48406820F440306B4948606B489B
:10209000006820F08070694908606948006840F075
:1020A00080706849C1F89000FFF7DCFF10BD10B5E3
:1020B000FFF7BAFAFFF7DFFF0020FFF7BEFC0120B1
:1020C000FFF7BBFC0220FFF7B8FCFEF78FFD4FF6D1
:1020D000FF705D490860FFF770FF10BD10B5FFF796
:1020E000ABFAFFF7BFFF0020FFF77AFC0120FFF7F4
:1020F00077FC0220FFF774FCFEF76FFD4FF0807055
:102100004F4908604F49C1F89400FFF751FF10BDD7
:1021100010B5FFF7B0FF0020FFF78FFC0120FFF79D
:102120008CFC0220FFF789FCFEF760FD4FF6FF7084
:1021300045490860FFF741FF10BD10B5FFF792FF5A
:102140000020FFF74DFC0120FFF74AFC0220FFF7BB
:1021500047FCFEF742FD4FF080703949086039496D
:10216000C1F89400FFF724FF10BD01203749087023
:102170007047002035490870704734480078704730
:1021800001203349087070470020314908707047BA
:102190002F48007870474FF080702E4908607047D4
:1021A0004FF080702649086070472748006825492D
:1021B000D1F8881040EA010023490860704722489E
:1021C00000682049D1F8841040EA01001E490860E7
:1021D000704710B5132000F015F828211320FFF7E1
:1021E00031FF10BD10B5132000F018F810BD10B568
:1021F000FFF75DFF022018490860FFF7B6FFFFF701
:102200006DFF10BD00F01F020121914042094FF007
:10221000E02303EB8202C2F80011704700F01F02B6
:10222000012191400D4A430942F8231070470000F4
:1022300018ED00E000E400E000C0024000C009200A
:1022400090800240008002408C80024074000010A8
:10225000750000109480024040C10F4080E100E012
:1022600010B52E48406820F440302C4948602C4876
:10227000006820F080702A4908602A48006840F011
:1022800080702949C1F890000846D0F8940040F0C9
:102290008070C1F894004FF015004FF0010101FA71
:1022A00000F14FEA50124FF0E02303EB8202C2F834
:1022B000001100BF4FF00001002807DACA06140E13
:1022C0001A4A00F00F031B1FD45403E0CA06130E72
:1022D000174A135400BF10BD10B51648006810F01F
:1022E000807F08D00DF044F9012005F09CFE01200C
:1022F00005F086FE0AE01048006810F0807F05D0E7
:10230000002005F090FE022005F07AFE0B480068E0
:1023100040F080700449C1F88C0010BD00C002403C
:1023200000C00920908002400080024018ED00E0CB
:1023300000E400E084800240888002408C800240FB
:10234000014606E040F6B83200E0521E002AFCDCEE
:10235000491E0029F6DC704710B50146002000BF79
:1023600021E0FE4A126A00F1180301249C40224336
:10237000FA4B1A62012282400A4209D01A46526B75
:1023800000F1180301249C402243F44B5A6308E0F7
:10239000F24A526B00F1180301249C40A243EF4B18
:1023A0005A63421CD0B20828DBDB10BD10B5EB48E5
:1023B000C06B40F48020E949C8630846806B40F454
:1023C0000020886300BF0020FFF7C6FFE348806B52
:1023D00040F48010E14988630846C06B40F48010E7
:1023E000C8630846006A20F4004008620846406B53
:1023F00000200446002CE6D110BD10B50446FFF7BE
:10240000D5FFD648C06B40F48020D449C863084645
:10241000C06B40F40020C8632046FFF79DFFCF4803
:10242000806B40F48010CD4988630846C06B40F44F
:102430008010C86310BD10B5044644F0B8042046AF
:10244000FFF7DBFF10BD10B5044644F0C004204682
:10245000FFF7D3FF10BD10B5044604F03F0444F06D
:1024600040042046FFF7C9FF10BD10B5044644F0F4
:102470003E042046FFF7C1FF10BD10B50446FFF72C
:1024800095FFB648806B40F48020B44988630846C5
:10249000C06B40F40020C8632046FFF75DFFAF48E3
:1024A000806B40F48010AD4988630846C06B40F4EF
:1024B0008010C86310BD10B50446FFF777FFA7482A
:1024C000806B40F48020A54988630846C06B40F4C7
:1024D0000020C8630846806B40F48010886308467B
:1024E000C06B40F48010C86310BD10B50446FFF700
:1024F0005DFF9A48806B40F48020984988630846C5
:10250000C06B40F40020C863E043C4B22046FFF72C
:1025100023FF9248806B40F48010904988630846FE
:10252000C06B40F48010C86310BD20B101280ED0EC
:10253000022824D117E08949896B41F40011874AA8
:1025400091631146896B41F48001916318E08349DE
:10255000896B41F40011814A91631146C96B41F4C2
:102560008001D1630CE07D49C96B41F400117B4AC5
:10257000D1631146896B41F48001916300E000BF93
:1025800000BF704770B506463046FFF7CEFF002407
:1025900010E02046FFF74FFF0020FFF75CFF00250B
:1025A00004E00020FFF769FF681CC5B2402DF8DB8E
:1025B000601CC4B2082CECDB70BD70B5064630461A
:1025C000FFF7B3FF002410E02046FFF734FF0020A0
:1025D000FFF741FF002504E00020FFF74EFF681CD5
:1025E000C5B20A2DF8DB601CC4B2072CECDB70BD51
:1025F000002107E0002201E0531CDAB26E2AFBDB67
:102600004B1CD9B28142F5DB70470146002006E041
:10261000002000E0401C41F288329042FAD30A00C8
:10262000A1F10101F4D1704700B5FFF7BFFE002012
:10263000FFF77BFF0020FFF718FF0020FFF775FF73
:102640000120FFF712FF0020FFF76FFF0020FFF7C8
:1026500099FF0020FFF7F7FE00BD70472DE9F04716
:1026600088B082460F46904699465046FFF75DFF78
:1026700008F03F083846FFF7DEFE4046FFF7EBFE66
:10268000374E09F0FF00A138A121C1EB2921C1EB90
:10269000011202EB411100EB410006EB4016002451
:1026A00008E016F8010B04A9085500200DF80400F5
:1026B000601CC4B2102CF4DB002518E0002412E0EA
:1026C00004A810F81400C5F1070201219140084246
:1026D00007D01DF805100120A0400844C0B20DF835
:1026E0000500601CC4B2082CEADB681CC5B2082DCA
:1026F000E4DB00251EE0002418E0012000EB44008C
:1027000004A9085CC5F107020121914008420BD0E1
:1027100005F108001DF800100120A0400844C1B2D6
:1027200005F108000DF80010601CC4B2082CE4DBB1
:10273000681CC5B2082DDEDB002405E01DF804008E
:10274000FFF7D3FE601CC4B2102CF7DB781CC0B2BC
:10275000FFF771FE4046FFF77EFE03E000C0092050
:102760009A1A0100002408E016F8010B04A9085584
:1027700000200DF80400601CC4B2102CF4DB00250E
:1027800018E0002412E004A810F81400C5F10702B4
:1027900001219140084207D01DF805100120A040FA
:1027A0000844C0B20DF80500601CC4B2082CEADB76
:1027B000681CC5B2082DE4DB00251EE0002418E0EB
:1027C000012000EB440004A9085CC5F107020121C7
:1027D000914008420BD005F108001DF800100120BF
:1027E000A0400844C1B205F108000DF80010601CBB
:1027F000C4B2082CE4DB681CC5B2082DDEDB002463
:1028000005E01DF80400FFF770FE601CC4B2102C38
:10281000F7DB08B0BDE8F0872DE9F04788B08246C5
:102820000F46904699465046FFF77FFE08F03F0856
:102830003846FFF700FE4046FFF70DFEE64E09F072
:10284000FF00A138A121C1EB2921C1EB011202EB4C
:10285000411100EB410006EB4016002408E016F899
:10286000010B04A9085500200DF80400601CC4B237
:10287000102CF4DB002518E0002412E004A810F866
:102880001400C5F1070201219140084207D01DF84C
:1028900005100120A0400844C0B20DF80500601CDE
:1028A000C4B2082CEADB681CC5B2082DE4DB0025A5
:1028B0001EE0002418E0012000EB440004A9085C9D
:1028C000C5F107020121914008420BD005F1080033
:1028D0001DF800100120A0400844C1B205F1080015
:1028E0000DF80010601CC4B2082CE4DB681CC5B2F3
:1028F000082DDEDB002405E01DF80400FFF7BDFD18
:10290000601CC4B2102CF7DB781CC0B2FFF793FD3B
:102910004046FFF7A0FD002408E016F8010B04A9CB
:10292000085500200DF80400601CC4B2102CF4DB24
:10293000002518E0002412E004A810F81400C5F1E6
:10294000070201219140084207D01DF8051001201F
:10295000A0400844C0B20DF80500601CC4B2082CA9
:10296000EADB681CC5B2082DE4DB00251EE000246C
:1029700018E0012000EB440004A9085CC5F107023F
:102980000121914008420BD005F108001DF800100C
:102990000120A0400844C1B205F108000DF8001064
:1029A000601CC4B2082CE4DB681CC5B2082DDEDB59
:1029B000002405E01DF80400FFF75FFD601CC4B2B1
:1029C000102CF7DB08B0BDE8F0872DE9F041804618
:1029D0000D4616461F464046FFF7A7FD06F03F0688
:1029E0002846FFF728FD3046FFF735FD002407E0B5
:1029F000202101FB0741794A505CFFF73EFD641C32
:102A0000102CF5D3681CC0B2FFF715FD3046FFF758
:102A100022FD002408E0202101FB074110316F4A0C
:102A2000505CFFF72AFD641C102CF4D3BDE8F08144
:102A30002DE9F04107460D46164698463846FFF701
:102A400074FD06F03F062846FFF7F5FC3046FFF719
:102A500002FD002400E0641C102CFCD3681CC0B2F2
:102A6000FFF7E9FC3046FFF7F6FC002400E0641CA9
:102A7000102CFCD3BDE8F0812DE9F04180460D46D5
:102A800016461F464046FFF750FD06F03F06284613
:102A9000FFF7D1FC3046FFF7DEFC002407E01021F1
:102AA00001FB07414E4A505CFFF7E7FC641C082C11
:102AB000F5D3681CC0B2FFF7BEFC3046FFF7CBFC75
:102AC000002408E0102101FB07410831444A505C12
:102AD000FFF7D3FC641C082CF4D3BDE8F0817047E9
:102AE0002DE9F04180460D4616461F464046FFF749
:102AF0001CFD06F03F062846FFF79DFC3046FFF719
:102B0000AAFC002406E0374901EB0711085DFFF736
:102B1000B4FC641C082CF6D3681CC0B2FFF78BFC15
:102B20003046FFF798FC082406E02E4901EB071118
:102B3000085DFFF7A2FC641C102CF6D3BDE8F08101
:102B40002DE9F04180460D4616461F464046FFF7E8
:102B5000ECFC06F03F062846FFF76DFC3046FFF719
:102B60007AFC002406E01F4901EB0711085DFFF71E
:102B7000BCFC641C082CF6D3681CC0B2FFF75BFCDD
:102B80003046FFF768FC082406E0164901EB071100
:102B9000085DFFF7AAFC641C102CF6D3BDE8F08199
:102BA0002DE9F04180460C4615461E464046FFF78B
:102BB000E9FC2046FFF73FFC2846FFF74CFC0027C6
:102BC00004E0FF20FFF759FC781CC7B2F000B842C0
:102BD000F7DCBDE8F08100009A1A01003A0E01000E
:102BE000A0010010800000103EB5044620780A21A4
:102BF00090FBF1F201FB120021780A2291FBF2F125
:102C000040EA0110C0B28DF8040060780A2190FB00
:102C1000F1F201FB120061780A2291FBF2F140EA25
:102C20000110C0B28DF80500A0780A2190FBF1F2E6
:102C300001FB1200A1780A2291FBF2F140EA011097
:102C4000C0B28DF80600E0780A2190FBF1F201FB9A
:102C50001200E1780A2291FBF2F140EA0110C0B2C1
:102C60008DF8070020790A2190FBF1F201FB120098
:102C700021790A2291FBF2F140EA0110C0B28DF8ED
:102C8000080060790A2190FBF1F201FB12006179E2
:102C90000A2291FBF2F140EA0110C0B28DF809005E
:102CA000E088B0F5FA6F17DB9DF8090040F080006E
:102CB0008DF80900E088A0F5FA60C5B20A2095FBFE
:102CC000F0F100FB11500A2195FBF1F140EA0110EF
:102CD000C0B28DF80A0010E0E088A0F26C70C5B2B6
:102CE0000A2095FBF0F100FB11500A2195FBF1F150
:102CF00040EA0110C0B28DF80A00072001AB0222A1
:102D000001210090A220FDF7F7FF3EBD3EB504462D
:102D1000072001AB022201210090A220FDF7ADFFA8
:102D200008B900203EBD9DF8040000F00F009DF89A
:102D30000410C1F3021101EB810100EB410020708E
:102D40009DF8050000F00F009DF80510C1F3021179
:102D500001EB810100EB410060709DF8060000F07E
:102D60000F009DF80610C1F3011101EB810100EB8A
:102D70004100A0709DF8070000F00F009DF80710BB
:102D8000C1F3011101EB810100EB4100E0709DF8FE
:102D9000080000F007009DF8081001F00701091174
:102DA00001EB810100EB410020719DF8090010F05A
:102DB000800F1BD09DF8090000F00F009DF809104E
:102DC000C1F3001101EB810100EB410060719DF83E
:102DD0000A0000F00F009DF80A10091101EB8101B3
:102DE00000EB410000F5FA60E0801AE09DF8090070
:102DF00000F00F009DF80910C1F3001101EB8101F3
:102E000000EB410060719DF80A0000F00F009DF892
:102E10000A10091101EB810100EB410000F26C7016
:102E2000E08001207EE710B504462046FFF76EFFE4
:102E300010BD1CB50446012C02D10020019001E018
:102E400020200190012001AB002201460090A22029
:102E5000FDF752FF1CBDFEB505460C460127082DA7
:102E60003CD1022002AB072201210090A220FDF7F5
:102E700004FF07409DF8080000F09F008DF808004F
:102E8000B4F5FA6F0BDA9DF8080040F080008DF879
:102E90000800A4F26C70C0B28DF809000AE09DF839
:102EA000080020F080008DF80800A4F5FA60C0B298
:102EB0008DF809009DF809000A2190FBF1F201FB51
:102EC00012009DF809100A2291FBF2F140EA01106C
:102ED000C0B28DF809000226072541E0072D2AD14E
:102EE000012001AB072201460090A220FDF7C5FE9C
:102EF00007409DF8040000F080000190E0B28DF8DA
:102F000008009DF808000A2190FBF1F201FB120075
:102F10009DF808100A2291FBF2F140EA0110C0B2BC
:102F20008DF808009DF808009DF8041008438DF8FE
:102F30000800012614E0E0B28DF808009DF80800B2
:102F40000A2190FBF1F201FB12009DF808100A2201
:102F500091FBF2F140EA0110C0B28DF808000126A1
:102F600002AB2A460121A2200096FDF7C5FE0740CC
:102F70003846FEBD1CB50446082C27D1022001AB03
:102F8000072201210090A220FDF777FE08B900205A
:102F90001CBD9DF8050000F00F009DF805100911FB
:102FA00001EB810100EB4100C0B28DF805009DF8F6
:102FB000040010F0800F04D09DF8050000F26C7042
:102FC000E6E79DF8050000F5FA60E1E7012001ABB6
:102FD000224601460090A220FDF74FFEA01E0628C3
:102FE00022D2DFE800F004030B0C1A1300BF9DF897
:102FF000040000F07F008DF8040016E000BF9DF88B
:10300000040000F03F008DF804000EE09DF804007D
:1030100000F01F008DF8040007E09DF8040000F0A8
:1030200007008DF8040000E000BF00BF9DF8040019
:1030300000F00F009DF80410091101EB810100EB75
:103040004100C0B28DF804009DF80400A0E701B56E
:1030500082B0012002AB0D2201460090A220FDF7B4
:103060004BFE0EBD7CB504460D460020019014F0C9
:10307000800F0CD10A2095FBF0F100FB11500A21C2
:1030800095FBF1F140EA0110C0B2019001E080200F
:10309000019004F00F04012001ABA21D0146009035
:1030A000A220FDF729FE7CBD7CB504460D468DF8B7
:1030B00004408DF80550022001AB0E220121009042
:1030C000A220FDF719FE7CBD7CB5044600200190CE
:1030D00004F08000802817D104F01F000190012027
:1030E00001AB024601460090A220FDF705FE01203B
:1030F00001AB024601460090A220FDF7BEFD9DF8FF
:10310000040000F01F007CBD04F0400040281AD1EC
:10311000012001AB024601460090A220FDF7ADFD63
:103120009DF8040000F01F059DF8040000F0130056
:103130000190012001AB024601460090A220FDF75C
:10314000DBFD2846DFE70020DDE710B50020FFF7B4
:1031500070FE40F2DD700E49C880012048711720D2
:10316000C870032008710A208870092048701E204A
:1031700008700846FFF738FD40218120FFF794FFD3
:103180009120FFF7A1FF0120FFF753FE10BD0000C3
:1031900010050010654800787047002063490870EA
:1031A000704710B56248406910F4806F0CD16048D8
:1031B000406910F4806F07D15E480068401C5D498B
:1031C0000860FEF74FFD10BD5948406910F4006FCC
:1031D0000AD15748406910F4006F05D1554840683E
:1031E000401C54494860EEE75148406910F0007FA8
:1031F00011D14F48406910F0007F0CD14D488068D4
:10320000401C4C49886000F0A7F908B900F0A9F803
:10321000FEF728FDD7E74648406910F0806F0CD1D3
:103220004348406910F0806F07D14248C068401C95
:103230004049C860FEF716FDC5E73D48406910F0FB
:10324000804F0CD13A48406910F0804F07D139487F
:103250000069401C37490861FEF704FDB3E73448B4
:10326000406910F0005F0CD13148406910F0005FF8
:1032700007D130484069401C2E494861FEF7F2FCF6
:10328000A1E700BF9FE710B52A480068052804D3CE
:10329000002028490860042010BD26484068052801
:1032A00012D30020234948602148C06D40F0080037
:1032B0001F49C865FEF7A5FEFEF79FFE00210846E0
:1032C00001F073F90620E7E71A488068052804D35F
:1032D0000020184988600520DEE71648C0680528E8
:1032E0000FD300201349C86001F05FFC10B1FFF755
:1032F00054FF04E00D480078401C0C490870012080
:10330000CAE70C480069052804D300200949086170
:103310000220C1E707484069052804D30020054979
:1033200048610320B8E7FF20B6E700001805001049
:1033300000C009200C1F00106648C06D40F040001E
:103340006449C86570476348C06D40F0200061491A
:10335000C86570475F48C06D40F010005D49C865A2
:1033600070475C48C06940F480305A49C861704772
:103370005848C06940F400405649C86170475648F3
:10338000006920F00100544908615248006C40F087
:103390004000504908640846806D40F04000886550
:1033A00070474D48006920F001004B4908614948C9
:1033B000006C40F02000474908640846806D40F0EA
:1033C0002000886570474448006920F001004249A8
:1033D00008614048006C40F010003E49086408460F
:1033E000806D40F01000886570473B48406820F0D1
:1033F0000100394948603748006840F48030354959
:1034000008600846806940F480308861704732481F
:10341000006820F08040304908602E48006840F481
:1034200000402C4908600846806940F400408861EB
:10343000704700B5FFF7EBFFFFF7D7FFFFF7C3FFBC
:10344000FFF7AFFFFFF79BFFFFF792FFFFF789FF43
:10345000FFF780FFFFF777FFFFF76EFF00BD1D4806
:10346000806D40F040001B49886570471948806DA9
:1034700040F020001749886570471648806D40F07D
:1034800010001449886570471248806940F4803004
:103490001049886170470F48806940F400400D4929
:1034A0008861704700B5FFF7F6FFFFF7EDFFFFF704
:1034B000E4FFFFF7DBFFFFF7D2FF00BD00B5FFF72A
:1034C00057FFFFF74EFFFFF745FFFFF73CFFFFF702
:1034D00033FF00BD00C0092000C002401948006849
:1034E00020F00100174908600846006820F002003B
:1034F00008601548006840F003001349086008465A
:10350000C06940F00300C86170470F48806940F00F
:1035100001000D49886170470B48C06940F0010007
:103520000949C86170470848806940F002000649AF
:10353000886170470448C06940F002000249C861D0
:103540007047000000C0024000C00920FD4908701B
:103550007047FD4908707047FB4800787047FB4A88
:10356000115470470146F948405C7047F8490A68B1
:103570000260496841607047F64A1154704701463D
:10358000F448405C7047F44A1154704710B500BFCE
:1035900004F0EDFD0028FBD110BD2DE9F0410646F9
:1035A0000D460027ED48EE49086082200968087042
:1035B000EB4800684670092D1DD1E9480068E649CE
:1035C0000A68C0F802208988C180002407E0E44826
:1035D0000168601C085C3844C7B2601CC4B2072C88
:1035E000F5DBDF48006807720920DE490870DC4817
:1035F0000068DD4908602A46D94801680120FEF7C5
:1036000030F8BDE8F0810022D848006800788228B0
:1036100007D0A520D64B18700120D64B187000207B
:103620007047D24800684078382801D10120F7E778
:10363000012106E0CD480068405C1044C2B2481C3D
:10364000C1B20829F6DB00BFC8480068007A904282
:1036500007D1A520C64B18700920C64B1870012051
:10366000DEE7A520C24B18700120C24B1870002065
:10367000D6E770B506460D4601240DE020460AF057
:1036800060FDA84206D120460AF05BFDFF2801D06C
:10369000012070BD601CC4B2322CEFDD0020F8E7C1
:1036A00070B501240FE020460AF04BFD0546204688
:1036B0000AF061FE06462B4632462146AEA0FDF7D3
:1036C000C1FC601CC4B2322CEDDD70BD10B50BF036
:1036D0007FFD0BF089FD322802DD01200BF075FD26
:1036E00010BD2DE9F04705460E4617469846DDF811
:1036F00020904FF0010AFF2D09D1FF2E07D1FF2F97
:1037000005D1B8F1FF0F02D10220BDE8F0870124F6
:103710001DE020460AF04AFEA84216D120460AF0D3
:103720004CFEB04211D120460AF04EFEB8420CD1F8
:1037300020460AF050FE404507D1B9F1000F03D0F2
:10374000A9F800404FF0000A03E0601CC4B2322C1C
:10375000DFDD00BF5046D8E72DE9FE434FF0FF30D4
:1037600002908E4800210160416012218C480CF0CB
:1037700024F8FEF777FA0BF007FD0746394689A0D3
:10378000FDF760FC0AF0E4FC86B20AF017FD85B292
:103790000BF02AFD044688A0FDF754FC31468DA0AD
:1037A000FDF750FC21468FA0FDF74CFC294691A067
:1037B000FDF748FC7A480A30FFF735FBFCF78AFD35
:1037C000E1B20020FFF755FF70B10BF0E9FC0746AE
:1037D0000BF01CFD80460020434602222146CDE925
:1037E000007007F059F85EE102A8604F00903F6852
:1037F000BB785E4F3F68FA785C4F3F6839795B4F22
:103800003F687879FFF76DFF70B90BF0C9FC074688
:103810000BF0FCFC80460020434603222146CDE904
:10382000007007F039F83EE102A8504F00903F6861
:10383000BB784E4F3F68FA784C4F3F6839794B4F11
:103840003F687879FFF74DFF02280ED10BF0A8FCF6
:1038500007460BF0DBFC804600204346072221464A
:10386000CDE9007007F018F81DE1322E0EDD0BF0E7
:1038700097FC07460BF0CAFC804600204346052211
:103880002146CDE9007007F007F80CE1C82D0EDDE8
:103890000BF086FC07460BF0B9FC8046002043463F
:1038A00004222146CDE9007006F0F6FFFBE00BF0A4
:1038B00077FC07460BF0AAFC804600204346062210
:1038C0002146CDE9007006F0E7FF0020344948703A
:1038D00032490870E0B23249887030494870E8B225
:1038E0002F49C8702D498870204800684079C870F9
:1038F0001E480068007908711C480068C07848714B
:103900001A480068807888711848006880792449CE
:10391000C8712249C871002021494871FF2088716F
:103920000AF01CFA1E490870FF200872087134A0C2
:10393000FDF788FB1A48018A35A0FDF783FB18487C
:10394000C17B6BE023050010330500102E0500102D
:1039500046050010240500101C0500102D1F001046
:10396000580500103D050010400500105C050010D2
:103970003A0500103B0500102D3E696E666F3A3A1D
:1039800025643A696E7A6F6E653A25642C706172AF
:10399000746E756D6265723A25640A0062050010E6
:1039A000401F0010476574436F6D526567466C6138
:1039B000673A25640A0000003D3D3D636F6D70204D
:1039C00072656767696E6720696E666F2E2E2E2E90
:1039D0002E2E0A00746F74616C5F6E756D733A25DC
:1039E000640A0000706172746E756D6265723A25CA
:1039F000640A0000636972616464723A25640A00B3
:103A00002D2D3E3E7361766520686973743A0A0015
:103A1000796561723A25640A00000000F7A0FDF79D
:103A200011FBF948417BF9A0FDF70CFBF648017B3F
:103A3000F8A0FDF707FBF448C17AF9A0FDF702FBF7
:103A4000F148817AF9A0FDF7FDFAFB49E0B20AF0EE
:103A500026FC002120460AF0FCFC0AF07FF907460C
:103A6000E9490BF031F9E8B204F026FF0AF0BDFB9A
:103A70000AF0E9FC0BF0D7F9F0A0FDF7E3FAFFF745
:103A800025FE0BF08DFB07460BF0C0FB80460BF0CC
:103A9000ABFB81460020434601224946CDE9007038
:103AA00006F0FAFE00BFFCF71BFCFEF746FBBDE884
:103AB000FE837CB54FF0FF300190E8A0FDF7C2FA1D
:103AC000FEF7D0F801A8EC4D00902D68AB78EA4DD8
:103AD0002D68EA78E84D2D682979E74D2D686879D9
:103AE000FFF7FFFD44B204BBBDF9040000281CDB56
:103AF000BDF90410E1A0FDF7A5FABDF80400C0B2BD
:103B00000AF01FFB0546BDF80400C0B20AF033FC02
:103B10000646D9480068C07943B2D7480068827920
:103B20002946304606F004FA05E00023FF22194634
:103B3000184606F0FDF97CBD0146FF2901D10120A0
:103B400070470020FCE700B5CB4909684879FFF7CA
:103B5000F3FF98B1C84909680879FFF7EDFF68B12C
:103B6000C5490968C878FFF7E7FF38B1C249096855
:103B70008878FFF7E1FF08B1012000BD0020FCE7D5
:103B800038B504464FF0FF302080BB4D00942D68BF
:103B9000AB78B94D2D68EA78B74D2D682979B64DC7
:103BA0002D686879FFF79DFD08B9012038BD002018
:103BB000FCE710B5FFF7A9FCFFF751FCFFF7D1FBBD
:103BC00010BD10B50446204604F056FE02212046E2
:103BD00004F00DFE10BD10B50446204604F04CFE66
:103BE0000121204604F003FE10BD10B50446214615
:103BF000A6A0FDF727FA204604F02CFE002120465F
:103C000004F0F5FD10BD30B587B0044612217E48A2
:103C10000BF0D3FD60787C498870A078C870E07B99
:103C200048712079C8710846D4F80610C0F80A1007
:103C3000D4F80A10C0F80E10207C7349087198A0BF
:103C4000FDF700FA61789BA0FDF7FCF9A1789CA034
:103C5000FDF7F8F9E17B9EA0FDF7F4F921799FA02B
:103C6000FDF7F0F9217CA1A0FDF7ECF90120A349B3
:103C700008700121002000F098FCFFF79AFFA0785F
:103C8000FFF79FFF012000F08AFF0120FFF761FC92
:103C9000208AADF800001222214602A80BF016FD82
:103CA00002A80FC803F0EDF8012000F09BFC0AF019
:103CB00055F8054654490BF007F80BF0B4F807B077
:103CC00030BD30B587B0044612214F480BF075FD6A
:103CD00060784D498870A078C870E07B4871207981
:103CE000C8710846D4F80610C0F80A10D4F80A10B3
:103CF000C0F80E10207C4449087101207F490870EB
:103D00007F4908707FA0FDF79DF9617869A0FDF7F4
:103D100099F9A1786AA0FDF795F9E17B6CA0FDF710
:103D200091F921796DA0FDF78DF9217C6FA0FDF748
:103D300089F9FFF79BFBFFF7F6FB002000F038FC4A
:103D4000012803D00321002000F02FFC00F04DFCDF
:103D5000B8B9A078FFF73FFF042000F043FC032030
:103D600000F01DFF0320FFF7F4FB208AADF80000F0
:103D70001222214602A80BF0A9FC02A80FC803F0EA
:103D800080F809F0EBFF05461F490AF09DFF0BF094
:103D90004AF807B030BD70B505460C46214660A014
:103DA000FDF750F95548007840B12046FFF71DFF58
:103DB000604A51781078224600F08DFD00204F496E
:103DC00008704F480078B8B100204D490870FFF7DF
:103DD000BAFAFFF7AFFB28460AF07AFB322804D084
:103DE00028460AF075FB312803D1302128460AF015
:103DF000E3FB002000F0D3FE70BD00006D6F6E7419
:103E0000683A25640A000000401F00106461793A96
:103E100025640A00686F75723A25640A0000000084
:103E20006D696E7574653A25640A00007365636F89
:103E30006E643A25640A0000620500102D3E3E7350
:103E40006176652072656720696E666F20736176A2
:103E50006520746F20666C6173680A003D3D3D3ECD
:103E60003E3E7369676E616C20737472656E677431
:103E70006820746573740A005C050010636F6D70D0
:103E8000206E756D3A25640A000000006E6F726D39
:103E9000616C20636972616464723A25640A00008F
:103EA0003D3D3D3D3D3E3E616C61726D315F696EF1
:103EB000666F0A00706172743A2025640A0000007F
:103EC000636972616464723A2025640A000000002C
:103ED000617474723A2025640A0000006465767487
:103EE0007970653A2025640A0000000076416E6E04
:103EF000526F773A2025640A000000002205001066
:103F00002B0500103D3D3D3D3D3E3E6661756C74A8
:103F100020616C61726D5F696E666F0A000000005F
:103F20006E6F726D616C2C636972616464723A25A4
:103F3000640A0000FA02000038B50025C048007885
:103F400000F04AFABF490860FFF75DFB01287DD108
:103F5000FDF76EF8BB4800684478362C1ED008DCAC
:103F6000A4F13000062872D2DFE800F01213141515
:103F70001617412C6CD006DC382C10D0392C14D0FC
:103F8000402C64D114E0422C77D0512CF9D133E18C
:103F900000BF00BF00BF00BF00BF00BF2EE100F0A8
:103FA000FDFAA9A0FDF74EF828E1FDF739F825E163
:103FB000A8A0FDF747F8A7A0FDF7BBFBFFF7C3FDDF
:103FC00018B1A9A0FDF73EF818E16846FFF7D8FD43
:103FD00000287DD0BDF90000002800DA38BDFDF7CB
:103FE00041FE012000F07BFBBDF900000AF0F6FA6B
:103FF000BDF80000C0B204F00FFBBDF80000C0B275
:1040000004F013FBBDF800009B490870BDF80000E8
:10401000C0B20AF0E0F998494870BDF80000C0B29B
:104020000AF0D2F994498870BDF80000C0B20AF0D5
:10403000C4F99149C870BDF80000C0B20AF0B6F9E1
:104040008D4908718D48C07B332802E0DDE0D4E063
:10405000AAE001D103F030FEBDF900000AF004FA35
:1040600001280BD1BDF9001085A0FCF7EBFFBDF9CD
:10407000001083A0FDF75DFBC0E0ACE0BDF90010CF
:1040800084A0FCF7DFFFBDF9001082A0FDF751FB13
:10409000BDF8000079494870BDF80000C0B20AF0D0
:1040A00046F976498870BDF80000C0B20AF09AF966
:1040B00072490871634800688079C87302204871AA
:1040C000BDF80000C0B2FDF77DF86C49087400E04F
:1040D00065E0881DFEF71AFE684881786FA0FCF73E
:1040E000B1FF6648C07B332828D10AF0D8FB88B9D5
:1040F0000AF06FFF70B16EA0FCF7A4FF5F49BDF935
:1041000000000AF0FAFA5D480AF07AFB5B48FFF714
:104110007AFD33E0BDF900000AF0E8F900B16DE086
:10412000BDF9001067A0FCF78DFF5449BDF90000F0
:104130000AF0E3FA5148FFF766FD1FE04F48C07BE5
:10414000322803D04D48C07B312817D1BDF900007B
:104150000AF0DBF928B1BDF9001063A0FCF772FF8B
:104160004CE0BDF9001060A0FCF76CFF4349BDF9BD
:1041700000000AF0C2FA4148FFF7A3FDFFF7F1F88B
:1041800030480068807930280AD15EA0FCF75AFFD9
:104190002946BDF80000C0B2FFF7FDFD00E02DE0AC
:1041A000002000F09CFA29E05AA0FCF74BFF06F033
:1041B00080F810B1FFF77DFC09E00AF0E5FF20B1BF
:1041C0000AF0DEFFFFF7C8FA01E0FDF74BFD002023
:1041D00000F085FA12E01B480068807930280AD088
:1041E000184800688079312805D016480068807921
:1041F000322800D000BF01E000E000BF00BF11483E
:10420000006800210160416001720D48007800F0F3
:10421000CDF80B480078401C094908700846007822
:104220000A2801D1002008703D480078A52804D153
:1042300000203C4908703A49087000BFCEE60000F3
:104240002A0500105C050010434D445F3133395797
:104250000A0000002D2D3E3E434D445F414C41522B
:104260004D2121210A00000070736E20616C6C20CA
:10427000307866660A00000034050010521F0010F6
:104280006E756D206973206D61736B65643A25648A
:104290000A0000006E756D3A25640A00616C617257
:1042A0006D20636972616464723A25640A000000DB
:1042B0002D2D2D3E3E3E666972737420616C6172D5
:1042C0006D0A00006E756D3A25642068617665643C
:1042D000206669726520616C61726D656420666933
:1042E0007273740A000000006E756D3A25642068D0
:1042F00061766564206661756C7420616C61726DB5
:1043000065640A006E6F726D616C20737461746510
:104310000A000000434D445F434F4D5245470A0099
:104320003A0500103B0500100146F048405C70471C
:1043300010B50020EE4908700CE0ED480078FCF75D
:1043400073FEEA49EA4A12788854E9480078401C2A
:10435000E7490870E64800780228EEDB10BD10B58A
:104360000020E349087011E0E1480078FCF75CFEAA
:10437000E049097801EBC101DF4A1144DC4A1278B7
:104380008854DB480078401CD9490870D848007828
:104390000928E9DBD7480078401CD6490870084650
:1043A00000780A2801D10020087010BD0021D04AF1
:1043B00011700CE0002100EBC002CF4B1A44CC4B33
:1043C0001B78D154CA490978491CC94A1170C84997
:1043D00009780929EEDB7047014601EBC100C64AA6
:1043E00010447047C5480068401CC44908607047C5
:1043F000C24800687047C2480068401CC049086055
:104400007047BF4800687047BE490978882910D1B5
:10441000002008E0BB49095CBB4A11540021B94A9D
:104420001154411CC8B20A28F4DB0121B74A1170AB
:1044300015E0B449497A892911D100200AE0B1492F
:104440000A5C00F10A01B04B5A540021AD4A1154E4
:10445000411CC8B20A28F2DB0221AC4A1170704735
:104460007FB50025A948007802287CD10020A74903
:104470000870002406E020460AF00BFE2844C5B26E
:10448000601CC4B2A0484078401EA042F3DC9E48A5
:1044900080782844C5B29C480179C07801EB0010AF
:1044A000ADF80000BDF80000C2B2002128460AF0B5
:1044B000FAFD95488179407901EB0010ADF80200D2
:1044C000BDF80200C2B2012128460AF0ECFD8E4878
:1044D000017AC07901EB0010ADF80400BDF80400CA
:1044E000C2B2022128460AF0DEFD8748817A407A6E
:1044F00001EB0010ADF80600BDF80600C2B20321C2
:1045000028460AF0D0FD8048017BC07A01EB0010FC
:10451000ADF80800BDF80800C2B2042128460AF030
:10452000C2FD7948817B407B01EB0010ADF80A00A9
:10453000BDF80A00C2B2052128460AF0B4FD72484F
:10454000017CC07B01EB0010ADF80C00BDF80C0045
:10455000C2B2062128460AF0A6FD6B48817C407C49
:1045600001EB001000E008E0ADF80E00BDF80E0011
:10457000C2B2072128460AF096FD7FBD10B5FFF7AD
:1045800043FFFFF76DFF10BD61480078401C604994
:104590000870704701205E490870704700205C4930
:1045A000087070475A48007870475A4A115470474B
:1045B00001465848405C704701465748405C704788
:1045C00056480078401C5549087070475348007899
:1045D000401E5249087070475049087070474F4854
:1045E000007870474E49087070474D480078704712
:1045F00001204C490870704700204A4908707047F4
:104600004848007870474849087070474648007825
:10461000704770B50025012410E0204609F087FEA0
:10462000A84209DD204609F082FEFF2804DA204670
:1046300009F07DFE054603E0601CC4B2322CECDDBF
:1046400000BF2846FFF7DFFF70BD70B5002537A01B
:10465000FCF7F8FC01241AE0204609F068FEA842A5
:1046600013DD204609F063FEC8280EDC204609F061
:104670005EFE06462246314631A0FCF7E3FC2046AA
:1046800009F055FE064604F017F9601CC4B2322C3E
:10469000E2DD70BD10B5012404E000202E4908556C
:1046A000601CC4B2322CF8DD002405E00021204655
:1046B000FEF762FF601CC4B2032CF7DB0020FEF79C
:1046C00048FF0020FEF742FF10BD012004E000215A
:1046D000214A1154411CC8B23228F8DD70471F49E5
:1046E000087070471D480078704700006C05001086
:1046F0006F0500106E050010641F0010700500109B
:1047000074050010BE1F0010C81F001078050010AF
:10471000790500107A0500107C0500107E05001058
:10472000830500108405001085050010696E69740A
:10473000206369726164647220696E666F0A0000AA
:1047400073657420636972616464723A25642C63D2
:104750006F6D703A25640A00DC1F0010860500109A
:1047600039490870704739480068401C374908606B
:104770007047364800687047002034490860704729
:104780000120334908707047314800787047002095
:104790002F49087070472F480078401C2D49087039
:1047A00008460078C82801DDC820087070472948ED
:1047B0000078704700202749087070472648007825
:1047C000401C2549087008460078C82801DDC8202B
:1047D0000870704720480078704700201E49087014
:1047E000704710B50AF029F800282CDD1B48017825
:1047F0000078401C194A10701E2091FBF0F200FB5B
:10480000121080B916A0FCF71DFCFFF7D0FF04467C
:1048100021461AA0FCF716FCFFF7DCFF04462146F0
:104820001AA0FCF70FFCFFF7C2FF32280BDD1BA01C
:10483000FCF708FCFFF7CEFF142804DD1BA0FCF7F3
:1048400001FC00F005FE10BD940500108C05001061
:1048500091050010950500109605001097050010B1
:10486000436C725F416C61726D3A68617665206677
:10487000697220616C61726D730A00007869612051
:104880006C612076616C3A25640A000077656920C6
:104890006C612076616C3A25640A00007869616C6D
:1048A000617369676E616C203E340A002D2D2D2DD9
:1048B0002D2D2D726573657420616C61726D20738E
:1048C0007563632121210A004C4A11547047014647
:1048D0004A48405C70472DE9F04106460F46904635
:1048E0000024FF2045490870487088700846C6704B
:1048F0000020087148710120C8716E208871042061
:1049000008720846477201208872C872084680F80B
:104910000C80002506E03949E81C085C204484B27C
:10492000681CC5B20A2DF6DB04F47F40C11700EB0A
:1049300011610A12002102EB0121304A5173114624
:104940008C730F220020FCF78CFEBDE8F0812DE96E
:10495000F04705460E46174698464FF0000982205C
:10496000274908704020487008468570C670077156
:1049700080F80580332088710020C871012406E08A
:104980001F48005D48441FFA80F9601CC4B2082C1F
:10499000F6DB1B4981F8089009220120FCF761FE33
:1049A000BDE8F0872DE9F04705460E4617469846C4
:1049B0004FF00009822012490870422048700846D2
:1049C0008570C670077180F80580302088710020DE
:1049D000C871012406E00A48005D48441FFA80F9C6
:1049E000601CC4B2082CF6DB054981F80890092246
:1049F0000120FCF736FEBDE8F08700000E20001015
:104A00001D20001010B50446082C21D2DFE804F068
:104A10002004080C1014181C012008F085FB18E075
:104A2000022008F081FB14E0032008F07DFB10E079
:104A3000042008F079FB0CE0052008F075FB08E085
:104A4000062008F071FB04E0072008F06DFB00E091
:104A500000BF00BF10BD10B50446012C06D0022CCB
:104A600008D0032C0AD0042C10D10BE0012008F050
:104A70003FFE0CE0022008F03BFE08E0032008F0B7
:104A800037FE04E0042008F033FE00E000BF00BF62
:104A900010BD10B50446012C04D0022C06D0032C06
:104AA0000CD107E0012007F093F808E0022007F09E
:104AB0008FF804E0032007F08BF800E000BF00BF90
:104AC00010BD10B50446012C02D0022C08D103E021
:104AD000012008F0D5FF04E0022008F0D1FF00E03B
:104AE00000BF00BF10BD000031490870704730485A
:104AF0000078401C2E49087070472D480078401EF1
:104B00002B49087070472A48007870472849487038
:104B1000704727484078401C254948707047244812
:104B20004078401E224948707047214840787047BD
:104B30001F49887070471E488078401C1C49887047
:104B400070471B488078401E194988707047184884
:104B50008078704717490870704716480078401CE5
:104B600014490870704713480078401E11490870B6
:104B7000704700200F49087070470E480078704752
:104B80000D480078401C0C49087070470A480078AE
:104B9000401E094908707047074800787047064969
:104BA00008707047054908707047044800787047DE
:104BB000980500109B0500109C0500109D05001035
:104BC0000020FC49086070470020FB4908607047DE
:104BD00010B5FFF798FF012806D0022813D003284C
:104BE00020D0052835D12CE0FFF793FFFFF79DFF7C
:104BF000052802DD0120FFF789FFFFF796FF044635
:104C0000FFF729FF26E0FFF784FFFFF78EFF032859
:104C100002DD0120FFF77AFFFFF787FF0446FFF769
:104C200038FF17E0FFF775FFFFF77FFF022802DD6F
:104C30000120FFF76BFFFFF778FF0446FFF741FF06
:104C400008E0DEA0FCF7FEF900F09EFF00F019FD81
:104C500000E000BF00BF10BD70B5FFF766FF012880
:104C600004D0022803D003281FD11DE01EE00AF063
:104C700075FC012806D10AF053FC002808DD0AF073
:104C80000EFC05E00AF05EFC002801DD0AF051FC94
:104C90000AF058FC04460AF043FC054600231A4675
:104CA000214605F045F901E000E000BF00BF70BDFE
:104CB0000146481C70477CB5FFF737FF022802D039
:104CC00003287CD10CE00AF0D5FB012802DD0AF0B4
:104CD000C8FB02E032200AF0CAFB00F056FE6FE08B
:104CE00009F03CF8B3490968491CB24A116088428E
:104CF00017D909F033F8AF490968401A441E09F082
:104D00002DF805462946B1A0FCF79CF92146B4A030
:104D1000FCF798F9002C0ADBB849204609F0A7FFF8
:104D200005E0B7A0FCF78EF907F081F87CBDB34829
:104D30008178B8A0FCF786F9B048C178B8A0FCF734
:104D400081F9AE48C179BAA0FCF77CF9AB4841794A
:104D5000BAA0FCF777F9A948018ABBA0FCF772F961
:104D6000A648C17BBBA0FCF76DF9A448417BBCA061
:104D7000FCF768F9A148017BBBA0FCF763F99F48E9
:104D8000C17ABCA0FCF75EF99C48817ABCA0FCF714
:104D900059F90020FDF7F6FB2046FFF789FFC5B261
:104DA00096480A3095498978CDE900100A38437948
:104DB000C279C178284607F0CBF901E0FFE700BFD0
:104DC00000BF00BFB2E72DE9FF470AF0EDFA062861
:104DD00045D2DFE800F044030A1928360AF070FAD9
:104DE000002801DD0AF066FA47E00AF089FA012896
:104DF00002DD0AF07FFA06E00AF082FA012802D109
:104E00000C200AF06EFA38E00AF089FA012802DD77
:104E10000AF07FFA06E00AF082FA012802D11F2088
:104E20000AF080FA29E00AF08FFA002802DD0AF081
:104E300085FA05E00AF088FA10B918200AF075FA28
:104E40001BE00AF093FA002802DD0AF089FA05E077
:104E50000AF08CFA10B93B200AF079FA0DE00AF05A
:104E600097FA002802DD0AF08DFA05E00AF090FAC0
:104E700010B93B200AF07DFA00BF00BF0AF094FA97
:104E800004460AF085FAC5B20AF070FAC7B20AF011
:104E90005BFA00F0FF080AF042FAC6B20AF030FAF4
:104EA00000F0FF090AF00CFA824601204346324620
:104EB0004946CDE90075CDE90240504606F06AF951
:104EC0000AF0FEF97149C8800AF01AFA6F49487170
:104ED0000AF025FA6D49C8700AF036FA6B498870F5
:104EE0000AF044FA694948700AF052FA67490870B2
:104EF000BDE8FF87F8B50AF0CEF9022802D00328F2
:104F000016D10AE00AF0A3F9012802DD0AF099F9A6
:104F100002E032200AF09EF90BE00AF0ADF9002819
:104F200002DD0AF0A3F902E002200AF096F900E09F
:104F300000BF00BF0AF0AFF904460AF09DF905462C
:104F40000AF085F906460AF070F907461020234654
:104F50002A4631460090384605F02EFEF8BD2DE970
:104F6000FC410AF01DF902280AD10AF03DF9012896
:104F700002DD0AF033F902E032200AF026F900E0FF
:104F800000BF00BF0AF00CF904460AF03FF90546DD
:104F90000AF02AF906460AF015F9074600202B46C2
:104FA00002463146CDE90040384605F075FCBDE8C3
:104FB000FC810000A0050010A4050010636C6F7355
:104FC0006520737065616B65720A000068697374AF
:104FD0006F7279206E756D733A25640A00000000C7
:104FE0002D2D2D3E3E6C6F6F6B20686973746F7250
:104FF0007920787568616F3A25640A00401F0010B7
:105000002D2D3E3E686973746F7279206F766572DC
:1050100000000000706172743A25640A000000000C
:10502000636972636C65616464723A25640A0000A6
:10503000646576747970653A25640A0061747472E7
:105040003A25640A00000000796561723A25640A15
:10505000000000006D6F6E74683A25640A0000005D
:105060006461793A25640A00686F75723A25640AAA
:10507000000000006D696E7574653A25640A0000D1
:105080007365636F6E643A25640A0000B005001012
:105090002DE9FF470AF046F8012804D0022810D075
:1050A00003282AD11BE000200AF02FF8002803DD96
:1050B00000200AF024F803E0022100200AF008F89A
:1050C0001CE001200AF021F8002803DD01200AF08D
:1050D00016F803E00921012009F0FAFF0EE0022092
:1050E0000AF013F8002803DD02200AF008F803E0B4
:1050F0000921022009F0ECFF00E000BF00BF0AF028
:1051000033F800F020FB044609F058F8844226D01A
:105110000AF008F8044602200AF016F805460120B5
:105120000AF012F8064600200AF00EF807460220A0
:1051300009F0EBFF8046012009F0E7FF81460020DF
:1051400009F0E3FF824603203B4642464946CDE94B
:105150000065CDE90240504607F06EFB25E009F0FE
:10516000E1FF0446022009F0EFFF0546012009F0A7
:10517000EBFF0646002009F0E7FF0746022009F092
:10518000C4FF8046012009F0C0FF8146002009F0DD
:10519000BCFF824600203B4642464946CDE90065B9
:1051A000CDE90240504607F047FBBDE8FF8710B548
:1051B000FFF7BBFC012806D0022807D0032808D03F
:1051C00004280CD108E0FFF763FF09E0FFF7C7FEF2
:1051D00006E0FFF78FFE03E0FFF7F5FD00E000BFFC
:1051E00000BF10BD10B5FFF78EFC012806D00228C5
:1051F00007D0032808D004280AD108E0FFF7D7FF1A
:1052000007E0FFF758FD04E0FFF726FD01E000E0AE
:1052100000BF00BF10BD10B5FFF799FC012804D0F6
:10522000022803D0032803D101E002E001E000E0FE
:1052300000BF00BF10BD000010B5FFF764FC0728D9
:105240003CD2DFE800F03B04272B2F33370000F07F
:1052500082FB012007F068FF1520012181404209EF
:105260004FF0E02303EB8202C2F8001100BF0021DF
:10527000002807DACA06140E5D4A00F00F031B1F50
:10528000D45403E0CA06130E5A4A135400BF00F068
:10529000C1F814E0022007F047FF10E0032007F0F8
:1052A00043FF0CE0042007F03FFF08E0052007F073
:1052B0003BFF04E0062007F037FF00E000BF00BF1F
:1052C0000120FFF723FC10BD10B5FFF72EFC0128CD
:1052D00006D002280BD0032812D004281ED116E0D5
:1052E000012008F005FA012009F019FF17E002205B
:1052F00008F0FEF9022009F050FF09F041FF0EE02E
:10530000032008F0F5F9022009F0C8FF07E00420A7
:1053100008F0EEF901200AF03EF800E000BF00BFFF
:105320000120FFF705FC10BD10B5FFF7FEFB0128BB
:1053300004D0022809D0032819D111E00020FDF77C
:1053400021F9012006F044FC12E00020FDF71AF9D3
:10535000022006F03DFCFFF733FCFFF735FC07E0C9
:105360000020FDF70FF9032006F032FC00E000BF3B
:1053700000BF0120FFF7DCFB10BD10B5FFF7D5FB28
:10538000012802D0022814D10CE0FEF797F8002083
:1053900000F032F8FCF735FEFCF72FFE012008F094
:1053A0006FFB07E0002004F081FF022008F068FB9B
:1053B00000E000BF00BF0120FFF7BAFB10BD10B531
:1053C000FFF7C5FB012806D0022805D0032804D02A
:1053D000042806D104E005E004E0FFF7F1FB01E05A
:1053E00000E000BF00BF0120FFF7A2FB10BD0000DE
:1053F00018ED00E000E400E0FD4908707047FC484B
:105400000078704710B5FBA0FBF71CFE0120FD499A
:10541000087010BD0020FB4908707047F9480078FB
:10542000704710B5FFF781FB0446FFF714FBFFF749
:10543000E9FF10BD10B5FFF778FB0446FFF729FB25
:1054400010BD10B5FFF771FB0446FFF73AFB10BD26
:1054500010B5FCF72CFE02F08FFE0020FDF792F84D
:1054600002213820FEF799F802213820FEF795F83E
:10547000FDF769FFFDF760FFFEF74EF8FEF75AF8FB
:1054800000210846FFF791F800210120FFF78DF871
:105490000020FFF7A7F80020FFF781FB0120FFF7AE
:1054A00023FB0120FFF720FB0020FEF752F809F054
:1054B0001CF9FCF7A6FDFFF790F9FFF77BF903F065
:1054C00092F807F07FFCFCF709FE40F6B830FCF7D5
:1054D00037FF10BD7FB50446CBA30FCB8DE80F007F
:1054E0000021684607F0CAF805462B4610222146DF
:1054F0000120FDF791F90221684607F0BFF8054643
:105500002B46202221460120FDF786F9042168461A
:1055100007F0B4F805462B46302221460120FDF75E
:105520007BF90621684607F0A9F805462B460022BC
:1055300021460220FDF770F90821684607F09EF821
:1055400005462B46102221460220FDF765F90A2167
:10555000684607F093F805462B4620222146022094
:10556000FDF75AF97FBD10B501240020FDF70AF8B8
:105570000220FFF7AFFF4FF4FA60FCF7E1FE14E002
:10558000A548406910F0007F09D100240220FFF7F0
:1055900006FBFFF7E8FA0120FFF7A6FA06E09E48AF
:1055A000406910F4806F00D000E0E9E700BF15E02B
:1055B0009948406910F0007F09D100240220FFF7CC
:1055C000EEFAFFF7D0FA0120FFF78EFA0BE0641C29
:1055D0009148406910F4806F00D104E08E48406922
:1055E00010F4806FE4D100BF1E2C46D90020FCF7D8
:1055F000C9FF07F0C9FEFAF76DFE08F09FFE002014
:10560000FBF7BEF84FF48030FBF7BAF84FF40030E8
:10561000FBF7B6F84FF44030FBF7B2F84FF48020B8
:10562000FBF7AEF84FF40020FBF7AAF84FF4102078
:10563000FBF7A6F84FF42020FBF7A2F84FF4302038
:10564000FBF79EF84FF44020FBF79AF84FF45020F8
:10565000FBF796F84FF46020FBF792F84FF47020B8
:10566000FBF78EF809F035FCFAF73AFE0020FCF75C
:1056700089FF07F00AFE07F0AEFD10BD674800780D
:10568000704710B5FFF7FAFF18B1012007F02EFEA2
:1056900004E000206149087007F028FE10BD10B535
:1056A000FFF7EFFF10BD10B50446072C17D2DFE857
:1056B00004F01604070A0D101300FFF7B2FE0FE006
:1056C000FFF7B8FE0CE0FFF7BCFE09E0FFF74BFF69
:1056D00006E0FFF7E4FF03E0FFF7BAFE00E000BFDB
:1056E00000BF10BD10B508F069FDFF2802D196205B
:1056F00008F056FD08F062FD6421B0FBF1F0C4B281
:105700002146002009F0E4FC08F058FD6421B0FBBC
:10571000F1F201FB12000A21B0FBF1F42146012055
:1057200009F0D6FC08F04AFD6421B0FBF1F201FB60
:1057300012000A21B0FBF1F201FB12042146022003
:1057400009F0C6FC10BD10B5002009F0DEFC642194
:1057500000FB01F4012009F0D8FC0A2101FB004400
:10576000022009F0D2FC204480B210BD10B5FFF732
:10577000EAFFC82801DD09F0AEFC10BD0120284970
:105780000870704726480078704700202449087048
:1057900070472DE9FF47FFF7F1FFFFF7A3FFFFF782
:1057A000E5FF022009F0D0FC0446012009F0CCFC02
:1057B0000546002009F0C8FC0646022009F0A5FCB9
:1057C0000746012009F0A1FC8046002009F09DFC5D
:1057D00081460020012133463A46CDE90054CDE907
:1057E00002104146484607F027F8BDE8FF87000051
:1057F000AC050010736574206E6F746520666C6173
:1058000067210A00AB050010C7EBB0B4C8B7B6A853
:10581000C9BEB3FD0000000000C00920AD050010A6
:10582000A80500102DE9FC4109F0DEFC322802DD5C
:10583000002009F0B8FC09F0B3FC044609F0E6FCCE
:10584000054609F0D1FC064609F0BCFC07460020DD
:105850002B4602463146CDE90040384605F01CF89B
:1058600009F08AFCBDE8FC81F8B509F014FD044696
:1058700009F002FD054609F0EAFC064609F0D5FCF0
:105880000746002023462A4631460090384605F058
:1058900093F9F8BD2DE9F04387B005A8FDF736FA76
:1058A000BDF81A0009F0FDFC9DF8190009F019FD7A
:1058B0009DF8170009F036FD9DF8160009F035FD3A
:1058C0009DF8150009F043FD9DF8140009F051FD05
:1058D00009F05EFDC4B209F049FDC5B209F034FD1E
:1058E000C6B209F01CFDC7B209F00AFD00F0FF08BE
:1058F00009F0E6FC81460020012133463A46CDE915
:105900000054CDE902104146484605F043FC07B07B
:10591000BDE8F08310B50446012C06D0022C07D058
:10592000032C08D0042C0CD108E0FFF732FF09E06B
:10593000FFF778FF06E0FFF797FF03E0FFF7AAFF06
:1059400000E000BF00BF10BD0120F749087070479C
:10595000F548007870470020F3490870704770B52B
:10596000FFF7F2FF0020FCF70DFE09F05FFD064691
:1059700008F0EEFBC4B208F02DFC85B200233246DD
:105980002146284607F004FA70BD2DE9FC4709F0CE
:1059900071FD044609F05CFD0546214609F0ABFAAD
:1059A00010B309F067FD054609F052FD0646294689
:1059B00009F0F2FA044609F069FD0546E0B208F084
:1059C000B6FC0646E0B208F00DFD074609F052FDB0
:1059D000804609F03DFD814600233A464146CDE927
:1059E000006505F0EEF90FE009F044FD044609F00A
:1059F0002FFD0546222000210B460A46CDE9001066
:105A00002146284605F0DDF9BDE8FC8730B587B0B2
:105A1000C6A0FBF717FB0020FCF7B4FDFFF7D0F89A
:105A2000FFF7D2F808F09AF918B906F0BBF907B0F9
:105A300030BD08F093F9441E002C03DB02A9204678
:105A400009F015F99DF80A10BEA0FBF7FBFA9DF8C6
:105A50000B10BFA0FBF7F6FA9DF80F10C0A0FBF7E4
:105A6000F1FA9DF80D10C1A0FBF7ECFABDF8181083
:105A7000C1A0FBF7E7FA9DF81710C2A0FBF7E2FA06
:105A80009DF81510C2A0FBF7DDFA9DF81410C2A016
:105A9000FBF7D8FA9DF81310C2A0FBF7D3FA9DF8D4
:105AA0001210C3A0FBF7CEFA2046FFF701F9C5B2EA
:105AB0000DF112009DF80A10CDE900109DF80D308F
:105AC0009DF80F209DF80B10284606F041FB00BF03
:105AD000ADE710B50446012C04D0022C05D0032CF0
