:020000040000FA
:10000000786E0010AD010000B5010000B7010000DE
:10001000B9010000BB010000BD01000000000000AC
:10002000000000000000000000000000BF01000010
:10003000C101000000000000C3010000F901000040
:10004000C7010000651C00003B1D0000C701000047
:10005000C70100009D1200007B100000C7010000D6
:10006000C7010000B11E0000C10C0000C701000064
:10007000C7010000C7010000C7010000C701000060
:10008000C7010000C7010000C7010000A51800005B
:10009000C7010000C3180000C7010000C70100002D
:1000A000C7010000C7010000C7010000C701000030
:1000B000C7010000C7010000C7010000C701000020
:1000C000C7010000C7010000C701000000F002F8EE
:1000D00000F05CF80AA090E8000C82448344AAF186
:1000E0000107DA4501D100F051F8AFF2090EBAE884
:1000F0000F0013F0010F18BFFB1A43F0010318475C
:1001000020E9040040E904000A444FF0000C10F814
:10011000013B13F0070408BF10F8014B1D1108BF85
:1001200010F8015B641E05D010F8016B641E01F825
:10013000016BF9D113F0080F1EBF10F8014BAD1C75
:100140000C1B09D16D1E58BF01F801CBFAD505E093
:1001500014F8016B01F8016B6D1EF9D59142D6D3ED
:10016000704700000023002400250026103A28BF15
:1001700078C1FBD8520728BF30C148BF0B60704719
:100180001FB50DF0E3FD1FBD10B510BD0DF0A4FDB2
:100190001146FFF7F5FF00F027F80DF0C2FD03B49C
:1001A000FFF7F2FF03BC0DF0CBFD000009488047CC
:1001B00009480047FEE7FEE7FEE7FEE7FEE7FEE749
:1001C000FEE7FEE7FEE7FEE704480549034A054B64
:1001D0007047000001030000CD000000786C0010A3
:1001E000786E0010786C001003F04EFF03F07FFF74
:1001F00001E00BF0B9F9FCE709480068401C084928
:10020000086070477047014606E040F6B83200E0EB
:10021000521E002AFCDC491E0029F6DC7047000053
:10022000040000102F480068704700F003012E4AB8
:1002300052F821102B4A11607047014601F003006B
:10024000294A52F8200070472848006849F6404182
:10025000B0FBF1F070472548006849F64041B0FB1B
:10026000F1F000EB4000400070472048006849F67C
:100270004041B0FBF1F000EB8000800070471B486C
:10028000006849F64041B0FBF1F032214843704725
:100290001648006849F64041B0FBF1F000EB8000E1
:1002A000000170471148006849F64041B0FBF1F089
:1002B0006421484370470D48006849F64041B0FB4F
:1002C000F1F0C8214843704709480068401C0849BC
:1002D00008607047002006490860704704480068BD
:1002E000704700004C000010540000100000001087
:1002F000500000107047704770477047FFFFFFFFC6
:10030000002020217C4A116000BF7B49096811F060
:10031000400FFAD00721794A11604FF00001784A66
:10032000C2F8A811774A11604FF00101764A1160B6
:100330004FF00F01754A11604FF00101A2F1040264
:1003400011604FF0AA01724A11604FF055016C4ADA
:10035000C2F88C106C490968022906D000BF6D49AB
:10036000096811F0806FFAD004E0002000E0401C22
:100370006428FCD90321684A11604FF0AA01604A41
:10038000C2F88C104FF05501614A11604FF007011F
:10039000624A11606249634A11604FF00001584A95
:1003A000C2F8C8115449096843F23A0241EA02010D
:1003B000534AC2F8A011704756480068C0F3016064
:1003C000032868D15048006810F0030006D00128C7
:1003D00023D002283FD003285CD100E000BF4D4865
:1003E0000068C0F30E0000F101004FEA40014448EC
:1003F000D0F88800C0F3074000F10100B1FBF0F035
:10040000494900FB01F03D490968C9B201F1010108
:10041000B0FBF1F0454908603CE03E480068C0F39D
:100420000E0000F101004FEA40013548D0F8880085
:10043000C0F3074000F10100B1FBF0F03C4900FBC4
:1004400001F02E490968C9B201F10101B0FBF1F0D8
:10045000364908601EE02F480068C0F30E0000F126
:1004600001004FEA40012648D0F88800C0F3074059
:1004700000F10100B1FBF0F04FF4FA4100FB01F094
:100480001E490968C9B201F10101B0FBF1F0274929
:10049000086000BF2FE01C48006810F0030006D081
:1004A000012810D0022819D0032823D100E000BF72
:1004B00012480068C0B200F101001B49B1FBF0F026
:1004C0001A49086016E00D480068C0B200F101004A
:1004D0001749B1FBF0F0154908600BE007480068C8
:1004E000C0B200F101004FF4FA41B1FBF0F00F4946
:1004F000086000BF00BF7047A0C10F4004C10F409B
:1005000000C00F40ACC10F400CC10F4084C00F4071
:100510008CC00F4088C00F4080C00F4008C10F4002
:10052000DEF7EFEFC4C00F4000093D0000000010EF
:10053000001BB70070B931B9FE4AD26942F480326B
:10054000FC4BDA6116E0FB4A926942F48032F94BC7
:100550009A610FE001280DD131B9F64AD26942F013
:100560004002F44BDA6105E0F24A926942F040023F
:10057000F04B9A617047F048006840F48060EF49A2
:10058000C1F8C400EE48006820F48070EC490860AF
:100590000846006820F4007008600846006820F4EF
:1005A000806008600846006820F400600860084623
:1005B000006820F4805008600846006820F400506D
:1005C00008600846006820F480400860084600681B
:1005D00040F4004008600846006820F4803008605D
:1005E0000846006840F4003008600846006820F4BF
:1005F000802008600846006840F400200860CD486C
:10060000006840F01000CB4908600846006840F0E0
:10061000200008600846006840F040000860084676
:10062000C06940F01000C8610846806940F02000B1
:1006300088610846806940F0400088614FF00700FB
:10064000C04908604FF0020048604FF05200086156
:10065000B848806940F04000B6498861704701465B
:10066000B848816000BFB748C06810F0100FFAD1D9
:10067000B4488068C0B2704700B50246AD48C06952
:1006800040F04000AB49C8611046FFF7E8FFA948B9
:10069000806940F04000A749886100BD00B502466E
:1006A000A448C06940F04000A249C861D0B2FFF739
:1006B000D6FFFF20FFF7D3FF03469E48806940F036
:1006C00040009C498861184600BD00B502460B46B3
:1006D0009848C06940F040009649C861D0B2FFF721
:1006E000BEFFD8B2FFF7BBFF9248806940F04000E0
:1006F0009049886100BD10B50520FFF7CFFF20F0BD
:100700001C0421460120FFF7E0FF0620FFF7B4FF9D
:100710008848806940F010008649886110BD10B596
:100720000520FFF7BBFF40F01C0421460120FFF726
:10073000CCFF0420FFF7A0FF7E48C06940F0100006
:100740007C49C86110BD00B505227A48C06940F0F7
:1007500040007849C8610520FFF781FFFF20FFF7BF
:100760007EFF03467348806940F04000714988610C
:1007700001E0501EC2B2002AFBDC03F0010000BD04
:1007800018B50446200C8DF80000200A8DF80100F1
:10079000E0B28DF80200FFF7AEFF6648C06940F096
:1007A00040006449C861D820FFF759FF9DF8000058
:1007B000FFF755FF9DF80100FFF751FF9DF802007C
:1007C000FFF74DFF5B48806940F040005949886160
:1007D00000BFFFF7B8FF0028FBD1FFF7A0FF18BD4F
:1007E00000B5FFF788FFC720FFF746FF00BFFFF700
:1007F000AAFF0028FBD1FFF792FF00BD38B50446E1
:100800000D46200C8DF80000200A8DF80100E0B2A2
:100810008DF80200FFF76FFF4648C06940F04000C6
:100820004449C8610220FFF71AFF9DF80000FFF756
:1008300016FF9DF80100FFF712FF9DF80200FFF779
:100840000EFF2846FFF70BFF3A48806940F0400052
:1008500038498861FFF763FF00BFFFF774FF002886
:10086000FBD138BDF8B504460D461646FFF743FFE9
:100870003048C06940F040002E49C861200C8DF816
:100880000000200A8DF80100E0B28DF8020002207D
:10089000FFF7E5FE9DF80000FFF7E1FE9DF801007F
:1008A000FFF7DDFE9DF80200FFF7D9FE002704E008
:1008B0002878FFF7D4FE781CC7B2B742F8DB1D4892
:1008C000806940F040001B498861FFF728FF00BFA6
:1008D000FFF739FF0028FBD1F8BD08B502461548DF
:1008E000C06940F040001349C861100C8DF8000049
:1008F000100A8DF80100D0B28DF802000320FFF736
:10090000AEFE9DF80000FFF7AAFE9DF80100FFF77C
:10091000A6FE9DF80200FFF7A2FEFF20FFF79FFE54
:1009200003460448806940F0400002498861184647
:1009300008BD000000C00920C4C00F4000C00F4027
:1009400000C0024000000340F8B504460D461646BC
:100950004848C06940F040004649C861200C8DF805
:100960000000200A8DF80100E0B28DF8020003209B
:10097000FFF775FE9DF80000FFF771FE9DF801007E
:10098000FFF76DFE9DF80200FFF769FE002706E005
:10099000FF20FFF764FE05F8010B781CC7B2B742D1
:1009A000F6DB3448806940F040003249886100BF7E
:1009B000FFF7C9FE0028FBD1F8BD70B500BF0023CA
:1009C0002EE0A8B900BF2C4DED6805F01205022DF0
:1009D000F9D10D78284EB560491C00BF264DED6851
:1009E00005F01405042DF9D1234DAD68ECB216E0E5
:1009F000012814D100BF214DED6805F01205022D2C
:100A0000F9D10D781D4EB560491C00BF1B4DED6836
:100A100005F01405042DF9D1184DAD68ECB25B1C3E
:100A20009342CED370BD30B5002320E070B9FF24CF
:100A3000114DAC6000BF104CE46804F01404042CA9
:100A4000F9D10D4CA46801F8014B0FE001280DD13C
:100A5000FF240A4DAC6000BF084CE46804F01404A5
:100A6000042CF9D1054CA46801F8014B5B1C93429E
:100A7000DCD330BD00C009200080084000000340E6
:100A800010B5002807DACA06140EFE4A00F00F035C
:100A90001B1FD45403E0CA06130EFB4A135410BDA7
:100AA0000146FA480078012800D170470CE0002286
:100AB00005E0F6480078012800D1F6E7521C41F223
:100AC00088308242F5D3491E0029F0D10020ECE79E
:100AD00010B50446EE48006840F40020ED49C1F826
:100AE000C400ED48406820F07070EB49486008464B
:100AF000406840F0A07048604FF06C00E7498861A2
:100B0000E748844200D90446E648B0FBF4F0401CB4
:100B10004008E2490861E348B0FBF4F0400848614E
:100B20002C208861402008600A2000F0E9F940206C
:100B3000DA49086018210620FFF7A2FF10BD0A203D
:100B400001218140D84A430942F8231000BF704771
:100B500010B50A2000F0D4F94020D04908601821CF
:100B60000620FFF78DFF10BD03B50346CF48037085
:100B700001A8CF4908600120CE4908600020CE4975
:100B80000870C24908702C20C44988616020086040
:100B90001420FFF785FF0CBD10B504460B46601C02
:100BA000C2490870C24803600120C24908600020A1
:100BB000C1490870B54908702C20C049886160207F
:100BC00008601420FFF76CFF10BDF0B505460E4617
:100BD0001446059F002F35D0012E07D1681CB3495C
:100BE0000870B74804600120B6490870022E07D18A
:100BF000681CAE490870B24804600220B149087010
:100C0000032E0CD10E2000EAD4102844401CA74922
:100C10000870E0B2AA4908600120AA490870A448F7
:100C20000360A44807600120A34908700020974989
:100C300008702C2099498861602008601420FFF713
:100C40002FFFF0BD0020FCE7F0B505460E46144628
:100C5000059F002F32D0012E06D194480570984888
:100C60000460012097490870022E06D18F48057054
:100C700093480460022093490870032E0BD10E2084
:100C800000EAD410284489490870E0B28C49086011
:100C900001208C490870864803608648076002205E
:100CA000854908700020794908702C207B498861AB
:100CB000602008601420FFF7F3FEF0BD0020FCE781
:100CC0007648406800F0F80010F0070F79D1C010A6
:100CD0000C2876D2DFE800F075061920B421B5B6ED
:100CE000A5B7BEFE74480078012806D16F48007889
:100CF00000F0FE006949886003E06C4800786749AD
:100D00008860282065498861F8E068480078634970
:100D1000886028208861F1E000BF67480078E8B962
:100D20006448006890B16248006800785B49886058
:100D30005F480068401C5E49086028205749886168
:100D40005C480068401E5B49086007E0102053497A
:100D500008602820886101204C49087056480078B6
:100D600001282FD15748007802280DD15448006837
:100D7000C0F30720494988602820886151480078DD
:100D8000401E50490870B9E04E48007801280CD147
:100D90004B480068C0B241498860282088614948B2
:100DA0000078401E47490870A8E04648007848B9D6
:100DB00008203A4988612020086000203E490870D8
:100DC0009CE09AE03C480078022829D13D48007810
:100DD000002825DD3B48007802280DD138480068FE
:100DE000C0F307202D4988602820886135480078A5
:100DF000401E3449087081E03248007801280FD144
:100E00002F480068C0B225498860282088612D4895
:100E10000078401E2B4908700020274908706DE0BB
:100E20006CE024480068012803D804201B4988612D
:100E300002E00420194908602820184988615DE013
:100E400000BF00BF00BF282014498861FF200F4960
:100E5000087053E011488068154909680870144803
:100E60000068401C1249086012480068401E114981
:100E7000086008460068012826D12C2007498861AF
:100E800027E027E018ED00E000E400E01C0000107F
:100E9000C4C00F4000C00F4000C0024000C001406D
:100EA000801A060000366E0180E100E008000010A4
:100EB00014000010180000101D00001000C00540B4
:100EC0000C000010100000100420134908602820B6
:100ED000886113E0104880681049096808700F485D
:100EE0000068401C0D49086010200B49086028204C
:100EF000886101200A49087000E000BF00BF704708
:100F000000F01F020121914042094FF0E02303EB62
:100F10008202C2F80011704700C0014014000010A6
:100F20001C00001010B5002807DACA06140EFD4A8E
:100F300000F00F031B1FD45403E0CA06130EFA4A35
:100F4000135410BD002004E00021F84A1154411C44
:100F5000C8B20C28F8DB704770B5002417E00025F4
:100F600011E004EBC401C1EB841101F5A021481983
:100F7000FFF7B3FC04EBC401C1EB8411EC4A11444C
:100F80004855681CC5B2372DEBDB601CC4B2642C1D
:100F9000E5DB70BD024602EBC200C0EB8210E44B01
:100FA0001844405C70470020E2490870704730B533
:100FB00002460B46002114E001EBC104C4EB81148E
:100FC000DB4D2C446478944209D101EBC104C4EB9D
:100FD00081142C44A4789C4201D1084603E04C1CA7
:100FE000E1B26429E8DB00BF30BD0146D248405C75
:100FF0007047002004E00021CF4A1154411CC8B2C0
:101000000928F8DB704770B54FF4E020FFF7B8FB14
:10101000CA4801784FF4E020FFF7F0FB4FF4A0201E
:10102000FFF7AEFB002417E0002511E004EBC4023B
:10103000C2EB8412BE4B1A44515D04EBC402C2EBF6
:10104000841202F5A0225019FFF7D8FB681CC5B224
:10105000372DEBDB601CC4B2642CE5DB70BD10B532
:101060004FF4E020FFF739FCB449087008460078D7
:10107000FF2801D10020087010BD10B5AD480078E0
:1010800009287ADAAE480068AB49AA4A127888542F
:1010900008460078822805D1A6480078401CA5495A
:1010A000087002E00020A3490870A348407838285F
:1010B00008D100209F49087009F0DAFB002009F0F0
:1010C000FBFC5AE09B480078092856D1002099493A
:1010D000087009F0CDFB02F0D1F808B3964881788A
:1010E000002008F02FFC9448C178012008F02AFC69
:1010F00091480179022008F025FC8F4841790320AE
:1011000008F020FC8C488179042008F01BFC8A48F8
:10111000C179052008F016FC0921412008F019FCCE
:1011200007F038FF48B3844CA378E27821796079DE
:1011300008F07AFC08BB20468178002008F002FC09
:101140002046C178012008F0FDFB204601790220ED
:1011500008F0F8FB20464179032008F0F3FB204615
:101160008179042008F0EEFB2046C179052008F0C3
:10117000E9FB0921412008F0ECFB10BD7148007823
:1011800070472DE9F0410027002500266D480078C2
:10119000012877D100241AE06B48005D1F2804D194
:1011A0008021694A601D115427466748005D20B9B7
:1011B000BC4202DD681CC5B200E00025042D04D14C
:1011C0008721E01E604A11540025601C84B2B4F5EA
:1011D000FA6FE1DB002443E05B48005D802814D116
:1011E0005948015D5548007800EBC002C2EB801001
:1011F0004F4A0244554803780078401CDFF84CC140
:101200008CF80000D154012621E0012E1FD14E4858
:10121000015D4A48007800EBC002C2EB8010444AEE
:1012200002444A4803780078401CDFF820C18CF85B
:101230000000D1544448005D872808D13F48007819
:10124000401C3E49087000206146087000263B485B
:101250000078642802D1002038490870601C84B2EC
:10126000B4F5FA6FB8DB002404E0002036490855D5
:10127000601C84B2B4F5FA6FF7DBFFF7C4FE002000
:1012800030490870BDE8F081704700BF30494969B6
:1012900011F0200FFAD02E490860704710B50AF0FF
:1012A00040FD00285CD02A4800682749294A128856
:1012B0008854084627490988405C20280DD12548D4
:1012C0000088142809DD204822490988405C224909
:1012D000087020480088214908801B491F48008861
:1012E000C01C085C6E2811D11C480088801C085C5A
:1012F00060B91A480088401C085C38B900201549BC
:1013000008801649088001200E4908700E49114ACC
:101310001288885CFFF7B9FF0E480088401C0D4911
:1013200008803CE018ED00E000E400E01D1C001027
:10133000A10600101E0000109806001021000010E9
:101340000000014026000010291C00101F000010A2
:1013500000C0004022000010F923001024000010FB
:101360009C4800689C499D4A127888540846007839
:10137000FF2805D199480078401C9849087002E080
:101380000020964908709448C07A832807D100202D
:1013900092490870012009F0EAFBFFF7D3FD10BD68
:1013A0002DE9F04107468846002F41D18C4800685E
:1013B00020F0F0008A4908600846006840F05000BC
:1013C000086088480068C0F3811636B1012E08D045
:1013D000022E09D0032E0BD000BF8348006884087A
:1013E0000AE08148046807E07F480068440803E099
:1013F0007D480068C40800BF00BF83207549C860ED
:101400002009B0FBF8F5280A4860E8B2086003201C
:10141000C86007208860052000F0C7F801206D49EA
:10142000486020210520FFF77DFD0120BDE8F08107
:10143000012F40D16A48006920F00F006849086117
:101440000846006940F00A00086166480068C0F379
:10145000012636B1012E08D0022E09D0032E0BD062
:1014600000BF6148006884080AE05F48046807E03C
:101470005D480068440803E05B480068C40800BF9A
:1014800000BF83205949C8602009B0FBF8F5280A3D
:101490004860E8B208600320C86007208860062022
:1014A00000F083F801205149486008210620FFF729
:1014B00039FD0120BAE70020B8E710B5052000F09B
:1014C00080F8062000F07DF810BD10B501204149DC
:1014D000486046494860052000F067F82021052053
:1014E000FFF720FD062000F060F808210620FFF736
:1014F00019FD10BD10B540B904E011F8013B354CA1
:101500002360521E002AF8D107E004E011F8013BE5
:10151000364C2360521E002AF8D110BD00BF33495B
:10152000496911F0200FFAD030490860704700B5C2
:10153000024603E012F8010BFFF7A7FE107800281F
:10154000F8D100BD00B5024603E012F8010BFFF729
:10155000E5FF10780028F8D100BD00BF2349496994
:1015600011F0010FFAD021490868704700BF1949EE
:10157000496911F0010FFAD016490868704700B5A3
:1015800003460A4603E0FFF7E8FF01C3521E002AA4
:10159000F9D100BD00B503460A4603E0FFF7E6FFB8
:1015A00001C3521E002AF9D100BD00F01F02012123
:1015B000914042094FF0E02303EB8202C2F8001190
:1015C000704700F01F0201219140094A430942F887
:1015D0002310704700C000401D1C001020000010A8
:1015E00000C00240A8C10F400000001000000140F0
:1015F00080E100E06F48406820F001006D494860DC
:101600000846406820F0010048600846006820F065
:10161000010008600846006820F0010008600846E4
:10162000406820F0010048600846406820F0010052
:1016300048600846406820F001004860084640685D
:1016400020F0010048600846C06820F00100C86032
:101650000846C06820F00100C8600846C06820F055
:101660000100C8600846C06820F00100C860084654
:10167000C06820F00100C8600846C06820F0010082
:10168000C8600846C06820F00100C8600846C0680D
:1016900020F00100C8600846C06820F00100C86062
:1016A0000846C06820F00100C8600846C06820F005
:1016B0000100C8600846C06820F00100C860084604
:1016C000C06820F00100C8600846C06820F0010032
:1016D000C8600846006920F00100086108460069FA
:1016E00020F0010008610846006920F0010008614F
:1016F0000846006920F0010008610846406848601B
:101700000846006920F0010008610846006920F0E1
:10171000010008610846006920F0010008612648C0
:10172000006840F4C200244908600846006820F4BC
:10173000806008600846006820F400600860084681
:10174000006820F0007008600846006820F08060A3
:1017500008600846006820F00050086008460068ED
:1017600020F0804008600846006A14490843124986
:1017700008620846006C40F45F700864084680699F
:1017800040F4C00088610846C06B0D4908430A490F
:10179000C8630846C06D40F45E70C8650846806D39
:1017A00040F4017088650846806D40F0C07088651F
:1017B0007047000000C0024000C009200000FCFF8C
:1017C0000300E00110B5002807DACA06140E7C4AAF
:1017D00000F00F031B1FD45403E0CA06130E794A0E
:1017E000135410BD10B57848006940F48000764964
:1017F00008617648006840F002007549C1F8480168
:101800000846D0F84C0120F00200C1F84C014FF01E
:10181000130000F0BFF828211320FFF7D3FF10BDFD
:1018200010B56948406820F0010067494860694880
:10183000006820F40000674908606348406820F0B1
:101840000100614948606348006820F08070614988
:1018500008604FF08070604908604FF0150000F09C
:1018600099F800211520FFF7ADFF10BD10B513202A
:1018700000F09CF8152000F099F810BD10B5132069
:1018800000F088F828211320FFF79CFF152000F0B6
:1018900081F800211520FFF795FF10BD01204F4969
:1018A0000870704700B502204D490860FFF7F6FF49
:1018B00000BD00204B49087070470120494908705D
:1018C000704710B548480068401C47490860084602
:1018D000006800F07F0008600846006810F0010F03
:1018E00018D0424800684249D1F8841040EA01000B
:1018F0003E4908604FF080703D49C1F894004FF0B8
:10190000010001F0E0FE01F09DFEFEF7E3FCFFF7B1
:10191000D4FF16E009F040FA344800683449D1F8A1
:10192000881040EA0100314908604FF0807030496A
:10193000C1F89000FEF7CEFC002001F0C4FEFFF7D6
:10194000B8FF10BD00202549087070472348007873
:1019500070472448007870474FF080702549086030
:1019600070474FF080701C49086070471F4800683E
:101970001F49D1F8881040EA01001C4908607047EF
:101980001A4800681A49D1F8841040EA0100174942
:101990000860704700F01F020121914042094FF09A
:1019A000E02303EB8202C2F80011704700F01F022F
:1019B00001219140104A430942F82310704700006A
:1019C00018ED00E000E400E000C0024048C10F4014
:1019D00000C00F4000C00920908002402C00001081
:1019E00040C10F402D000010300000108C800240DC
:1019F000008002409480024080E100E010B50028A1
:101A000007DACA06140EF94A00F00F031B1FD4545C
:101A100003E0CA06130EF64A135410BD70B505460E
:101A20000C461DBBF348006840F00200F249C1F8C3
:101A3000C4004FF000004FF0402108674FF0020053
:101A400048604FF0010008604FF000008860C860F7
:101A5000084684614FF0030048614FF00100486080
:101A600000F013FA10210120FFF7C8FF012D24D147
:101A7000E048006840F00400DF49C1F8C4004FF0BE
:101A80000000DE4908674FF0020048604FF0010097
:101A900008604FF000008860C860084684614FF01D
:101AA000030048614FF0020000F0EFF930210220FE
:101AB000FFF7A4FF0120D1494860022D16D1002074
:101AC000CF49086702204860012008600020886034
:101AD000C860084684610320486100F0D6F94821B7
:101AE0000320FFF78BFF0120C5494860032D17D164
:101AF0000020C449086702204860012008600020D7
:101B00008860C8600846846103204861042000F0B2
:101B1000BCF950210420FFF771FF0120B94948604A
:101B200070BD10B5B348006840F00200B249C1F87A
:101B3000C4004FF000004FF0402108674FF0020052
:101B400048604FF00F0008604FF000008860C860E8
:101B5000AD48006849F64041B0FBF1F04FF040213C
:101B600088614FF0030048614FF0010000F08DF9EB
:101B700010210120FFF742FF01204FF04021486073
:101B800010BD10B59B48006840F004009A49C1F8A8
:101B9000C4004FF00000994908674FF00200486008
:101BA0004FF00F0008604FF000008860C860964852
:101BB000006849F64041B0FBF1F04FF0C80100FB6E
:101BC00001F08E4988614FF0030048614FF0020038
:101BD00000F05BF930210220FFF710FF0120874958
:101BE000486010BD89490870704788480078704780
:101BF00087490860704786480068704785480088B4
:101C0000401C844908807047824908807047814899
:101C10000088704710B580480068A0F59851883951
:101C200002D101F0A0FA1CE07B480068A0F51C512D
:101C3000103902D101F089FA13E077480068A0F565
:101C40006851983902D101F0FDF90AE07248006844
:101C5000A0F59C41203904D101F0E6F900206E493D
:101C6000086010BD10B5FEF72FFB68480078401CD7
:101C70006649087066480068401C65490860654808
:101C80000088401C6349088009F088F909F094F93C
:101C900009F0B1FC0AF03FF830B95F480068401C19
:101CA0005D490860FFF7B6FF09F0E5F801204FF045
:101CB0004021086010BD10B5002008F006FF012883
:101CC00017D156480068142802D100F045F908E001
:101CD00052480068322804D100F045F900204F49ED
:101CE00008604E480068322826D300204B4908601F
:101CF00022E0002008F0E9FE02281BD147480068D6
:101D0000282806D100F028F90021454800F018F9EC
:101D100008E042480068322804D100F024F900208D
:101D20003E4908603D480068322805D300203B4901
:101D3000086001E000F017F910BD10B539480068DF
:101D4000401C3849086008460068A0F53061B83981
:101D50000DD1354840693549084208D03248C06D38
:101D600040F400703049C86500202E49086001F039
:101D700032F809F0D0FF30B928480068401C2749E4
:101D80000860FFF798FF0F201C49086010BD264827
:101D9000806D40F400702449886500202149086066
:101DA000704720B901214FF04022516010E0012816
:101DB00003D10121114A51600AE0022803D1012117
:101DC0000F4A516004E0032802D101210D4A5160FD
:101DD000704720B900214FF04022516033E00128C4
:101DE00026D10021054A51602DE0000018ED00E0E9
:101DF00000E400E0C4C00F4000C00F40008000407D
:101E000000000940004009400000001034000010AC
:101E1000380000103C00001040000010440000108A
:101E2000400D03004800001000C00920000C0066AF
:101E3000022803D100211B4A516004E0032802D18B
:101E40000021194A51607047014631B94FF04022D4
:101E5000506840F00200506016E0012905D1134A95
:101E6000506840F0020050600EE0022905D10D4A92
:101E7000506840F00200506006E0032904D10A4A8D
:101E8000506840F002005060704700F01F020121CE
:101E9000914042094FF0E02303EB8202C2F80011A7
:101EA00070470000000009400040094000800040E9
:101EB0002F49086810F0010F04D02E490968491C09
:101EC0002C4A11602A4909680143294A1160704768
:101ED0000020284908602848006840F04000274951
:101EE000C1F8C4000846D0F8A80120F44050C1F859
:101EF000A8012348006940F04000214908614FF0E3
:101F000002001B4948604FF00000C8604FF001001C
:101F100048614FF00000886108644FF010000865C8
:101F20004FF009004FF0010101FA00F14FEA5012A1
:101F30004FF0E02303EB8202C2F8001100BF7047AC
:101F40000B4A906142000323B2FBF3F20A44084BB0
:101F50001A6410221A6570474FF480500449C8640F
:101F600009204860704700200149C86448607047F4
:101F70000080014068000010C4C00F4000C00F4046
:101F800000C00240014606E040F6B83200E0521EB2
:101F9000002AFCDC491E0029F6DC704710B501461A
:101FA000002000BF21E0FE4A126A00F1180301245C
:101FB0009C402243FA4B1A62012282400A4209D015
:101FC0001A46526B00F1180301249C402243F44B43
:101FD0005A6308E0F24A526B00F1180301249C4056
:101FE000A243EF4B5A63421CD0B20828DBDB10BD82
:101FF00010B5EB48C06B40F48020E949C86308463F
:10200000806B40F40020886300BF0020FFF7C6FF0C
:10201000E348806B40F48010E14988630846C06B58
:1020200040F48010C8630846006A20F4004008624B
:102030000846406B00200446002CE6D110BD10B5C8
:102040000446FFF7D5FFD648C06B40F48020D44942
:10205000C8630846C06B40F40020C8632046FFF701
:102060009DFFCF48806B40F48010CD4988630846BF
:10207000C06B40F48010C86310BD10B5044644F036
:10208000B8042046FFF7DBFF10BD10B5044644F04E
:10209000C0042046FFF7D3FF10BD10B5044604F07E
:1020A0003F0444F040042046FFF7C9FF10BD10B5BF
:1020B000044644F03E042046FFF7C1FF10BD10B5B2
:1020C0000446FFF795FFB648806B40F48020B44982
:1020D00088630846C06B40F40020C8632046FFF7C1
:1020E0005DFFAF48806B40F48010AD4988630846BF
:1020F000C06B40F48010C86310BD10B50446FFF7F4
:1021000077FFA748806B40F48020A5498863084684
:10211000C06B40F40020C8630846806B40F4801018
:1021200088630846C06B40F48010C86310BD10B5CA
:102130000446FFF75DFF9A48806B40F48020984981
:1021400088630846C06B40F40020C863E043C4B213
:102150002046FFF723FF9248806B40F4801090499F
:1021600088630846C06B40F48010C86310BD20B17E
:1021700001280ED0022824D117E08949896B41F447
:102180000011874A91631146896B41F48001916384
:1021900017E08349896B41F40011814A916311462C
:1021A000C96B41F48001D1630BE07D49C96B41F4F7
:1021B00000117B4AD1631146896B41F48001916320
:1021C00000BF00BF704770B506463046FFF7CFFF2F
:1021D000002410E02046FFF750FF0020FFF75DFFCE
:1021E000002504E00020FFF76AFF681CC5B2402DFF
:1021F000F8DB601CC4B2082CECDB70BD70B5064681
:102200003046FFF7B4FF002410E02046FFF735FF0B
:102210000020FFF742FF002504E00020FFF74FFFFA
:10222000681CC5B20A2DF8DB601CC4B2072CECDBBD
:1022300070BD002107E0002201E0531CDAB26E2AD3
:10224000FBDB4B1CD9B28142F5DB70470146002015
:1022500006E0002000E0401C41F288329042FAD3B0
:102260000A00A1F10101F4D1704700B5FFF7C0FEEB
:102270000020FFF77CFF0020FFF719FF0020FFF789
:1022800076FF0120FFF713FF0020FFF770FF00200B
:10229000FFF799FF0020FFF7F8FE00BD70472DE91A
:1022A000F04788B082460F46904699465046FFF761
:1022B0005EFF08F03F083846FFF7DFFE4046FFF7B5
:1022C000ECFE384E09F0FF00A138A121C1EB292115
:1022D000C1EB011202EB411100EB410006EB40168D
:1022E000002408E016F8010B04A9085500200DF899
:1022F0000400601CC4B2102CF4DB002518E000249C
:1023000012E004A810F81400C5F107020121914061
:10231000084207D01DF805100120A0400844C0B2B3
:102320000DF80500601CC4B2082CEADB681CC5B2BD
:10233000082DE4DB00251EE0002418E0012000EB5E
:10234000440004A9085CC5F107020121914008423C
:102350000BD005F108001DF800100120A040084432
:10236000C1B205F108000DF80010601CC4B2082CC1
:10237000E4DB681CC5B2082DDEDB002405E01DF897
:102380000400FFF7D4FE601CC4B2102CF7DB781CED
:10239000C0B2FFF772FE4046FFF77FFE00240CE05C
:1023A00000C00920BAE9000016F8010B04A908557D
:1023B00000200DF80400601CC4B2102CF4DB0025D2
:1023C00018E0002412E004A810F81400C5F1070278
:1023D00001219140084207D01DF805100120A040BE
:1023E0000844C0B20DF80500601CC4B2082CEADB3A
:1023F000681CC5B2082DE4DB00251EE0002418E0AF
:10240000012000EB440004A9085CC5F1070201218A
:10241000914008420BD005F108001DF80010012082
:10242000A0400844C1B205F108000DF80010601C7E
:10243000C4B2082CE4DB681CC5B2082DDEDB002426
:1024400005E01DF80400FFF772FE601CC4B2102CFA
:10245000F7DB08B0BDE8F0872DE9F04788B0824689
:102460000F46904699465046FFF781FE08F03F0818
:102470003846FFF702FE4046FFF70FFEE64E09F032
:10248000FF00A138A121C1EB2921C1EB011202EB10
:10249000411100EB410006EB4016002408E016F85D
:1024A000010B04A9085500200DF80400601CC4B2FB
:1024B000102CF4DB002518E0002412E004A810F82A
:1024C0001400C5F1070201219140084207D01DF810
:1024D00005100120A0400844C0B20DF80500601CA2
:1024E000C4B2082CEADB681CC5B2082DE4DB002569
:1024F0001EE0002418E0012000EB440004A9085C61
:10250000C5F107020121914008420BD005F10800F6
:102510001DF800100120A0400844C1B205F10800D8
:102520000DF80010601CC4B2082CE4DB681CC5B2B6
:10253000082DDEDB002405E01DF80400FFF7BFFDD9
:10254000601CC4B2102CF7DB781CC0B2FFF795FDFD
:102550004046FFF7A2FD002408E016F8010B04A98D
:10256000085500200DF80400601CC4B2102CF4DBE8
:10257000002518E0002412E004A810F81400C5F1AA
:10258000070201219140084207D01DF805100120E3
:10259000A0400844C0B20DF80500601CC4B2082C6D
:1025A000EADB681CC5B2082DE4DB00251EE0002430
:1025B00018E0012000EB440004A9085CC5F1070203
:1025C0000121914008420BD005F108001DF80010D0
:1025D0000120A0400844C1B205F108000DF8001028
:1025E000601CC4B2082CE4DB681CC5B2082DDEDB1D
:1025F000002405E01DF80400FFF761FD601CC4B273
:10260000102CF7DB08B0BDE8F0872DE9F0418046DB
:102610000D4616461F464046FFF7A9FD06F03F0649
:102620002846FFF72AFD3046FFF737FD002407E074
:10263000202101FB0741794A505CFFF740FD641CF3
:10264000102CF5D3681CC0B2FFF717FD3046FFF71A
:1026500024FD002408E0202101FB074110316F4ACE
:10266000505CFFF72CFD641C102CF4D3BDE8F08106
:102670002DE9F04107460D46164698463846FFF7C5
:1026800076FD06F03F062846FFF7F7FC3046FFF7D9
:1026900004FD002400E0641C102CFCD3681CC0B2B4
:1026A000FFF7EBFC3046FFF7F8FC002400E0641C69
:1026B000102CFCD3BDE8F0812DE9F04180460D4699
:1026C00016461F464046FFF752FD06F03F062846D5
:1026D000FFF7D3FC3046FFF7E0FC002407E01021B1
:1026E00001FB07414E4A505CFFF7E9FC641C082CD3
:1026F000F5D3681CC0B2FFF7C0FC3046FFF7CDFC35
:10270000002408E0102101FB07410831444A505CD5
:10271000FFF7D5FC641C082CF4D3BDE8F0817047AA
:102720002DE9F04180460D4616461F464046FFF70C
:102730001EFD06F03F062846FFF79FFC3046FFF7D8
:10274000ACFC002406E0374901EB0711085DFFF7F8
:10275000B6FC641C082CF6D3681CC0B2FFF78DFCD5
:102760003046FFF79AFC082406E02E4901EB0711DA
:10277000085DFFF7A4FC641C102CF6D3BDE8F081C3
:102780002DE9F04180460D4616461F464046FFF7AC
:10279000EEFC06F03F062846FFF76FFC3046FFF7D9
:1027A0007CFC002406E01F4901EB0711085DFFF7E0
:1027B000BEFC641C082CF6D3681CC0B2FFF75DFC9D
:1027C0003046FFF76AFC082406E0164901EB0711C2
:1027D000085DFFF7ACFC641C102CF6D3BDE8F0815B
:1027E0002DE9F04180460C4615461E464046FFF74F
:1027F000EAFC2046FFF741FC2846FFF74EFC002785
:1028000004E0FF20FFF75BFC781CC7B2F000B84281
:10281000F7DCBDE8F0810000BAE900005ADD0000F5
:102820005C0200103C0100103EB5044620780A21ED
:1028300090FBF1F201FB120021780A2291FBF2F1E8
:1028400040EA0110C0B28DF8040060780A2190FBC4
:10285000F1F201FB120061780A2291FBF2F140EAE9
:102860000110C0B28DF80500A0780A2190FBF1F2AA
:1028700001FB1200A1780A2291FBF2F140EA01105B
:10288000C0B28DF80600E0780A2190FBF1F201FB5E
:102890001200E1780A2291FBF2F140EA0110C0B285
:1028A0008DF8070020790A2190FBF1F201FB12005C
:1028B00021790A2291FBF2F140EA0110C0B28DF8B1
:1028C000080060790A2190FBF1F201FB12006179A6
:1028D0000A2291FBF2F140EA0110C0B28DF8090022
:1028E000E088B0F5FA6F17DB9DF8090040F0800032
:1028F0008DF80900E088A0F5FA60C5B20A2095FBC2
:10290000F0F100FB11500A2195FBF1F140EA0110B2
:10291000C0B28DF80A0010E0E088A0F26C70C5B279
:102920000A2095FBF0F100FB11500A2195FBF1F113
:1029300040EA0110C0B28DF80A00072001AB022264
:1029400001210090A220FEF77FF93EBD3EB504466E
:10295000072001AB022201210090A220FEF735F9E9
:1029600008B900203EBD9DF8040000F00F009DF85E
:102970000410C1F3021101EB810100EB4100207052
:102980009DF8050000F00F009DF80510C1F302113D
:1029900001EB810100EB410060709DF8060000F042
:1029A0000F009DF80610C1F3011101EB810100EB4E
:1029B0004100A0709DF8070000F00F009DF807107F
:1029C000C1F3011101EB810100EB4100E0709DF8C2
:1029D000080000F007009DF8081001F00701091138
:1029E00001EB810100EB410020719DF8090010F01E
:1029F000800F1BD09DF8090000F00F009DF8091012
:102A0000C1F3001101EB810100EB410060719DF801
:102A10000A0000F00F009DF80A10091101EB810176
:102A200000EB410000F5FA60E0801AE09DF8090033
:102A300000F00F009DF80910C1F3001101EB8101B6
:102A400000EB410060719DF80A0000F00F009DF856
:102A50000A10091101EB810100EB410000F26C70DA
:102A6000E08001207EE71CB50446012C02D1002045
:102A7000019001E020200190012001AB00220146DD
:102A80000090A220FEF7E0F81CBDFEB505460C46FE
:102A90000127082D3CD1022002AB07220121009022
:102AA000A220FEF792F807409DF8080000F09F0072
:102AB0008DF80800B4F5FA6F0BDA9DF8080040F0C5
:102AC00080008DF80800A4F26C70C0B28DF8090087
:102AD0000AE09DF8080020F080008DF80800A4F5B9
:102AE000FA60C0B28DF809009DF809000A2190FB38
:102AF000F1F201FB12009DF809100A2291FBF2F19C
:102B000040EA0110C0B28DF809000226072541E015
:102B1000072D2AD1012001AB072201460090A220F7
:102B2000FEF753F807409DF8040000F08000019084
:102B3000E0B28DF808009DF808000A2190FBF1F240
:102B400001FB12009DF808100A2291FBF2F140EA05
:102B50000110C0B28DF808009DF808009DF804101F
:102B600008438DF80800012614E0E0B28DF8080053
:102B70009DF808000A2190FBF1F201FB12009DF87C
:102B800008100A2291FBF2F140EA0110C0B28DF860
:102B90000800012602AB2A460121A2200096FEF77A
:102BA00053F807403846FEBD1CB50446082C27D113
:102BB000022001AB072201210090A220FEF705F8B8
:102BC00008B900201CBD9DF8050000F00F009DF81D
:102BD0000510091101EB810100EB4100C0B28DF835
:102BE00005009DF8040010F0800F04D09DF805004A
:102BF00000F26C70E6E79DF8050000F5FA60E1E789
:102C0000012001AB224601460090A220FDF7DDFF26
:102C1000A01E062822D2DFE800F004030B0C1A13D2
:102C200000BF9DF8040000F07F008DF8040016E05E
:102C300000BF9DF8040000F03F008DF804000EE096
:102C40009DF8040000F01F008DF8040007E09DF8D7
:102C5000040000F007008DF8040000E000BF00BF92
:102C60009DF8040000F00F009DF80410091101EB1D
:102C7000810100EB4100C0B28DF804009DF8040012
:102C8000A0E701B582B0012002AB0D220146009001
:102C9000A220FDF7D9FF0EBD7CB504460D460020ED
:102CA000019014F0800F0CD10A2095FBF0F100FB8D
:102CB00011500A2195FBF1F140EA0110C0B20190D8
:102CC00001E08020019004F00F04012001ABA21D5F
:102CD00001460090A220FDF7B7FF7CBD7CB50446FD
:102CE0000D468DF804408DF80550022001AB0E22F0
:102CF00001210090A220FDF7A7FF7CBD7CB5044612
:102D00000020019004F08000802817D104F01F00FB
:102D10000190012001AB024601460090A220FDF780
:102D200093FF012001AB024601460090A220FDF76F
:102D30004CFF9DF8040000F01F007CBD04F0400033
:102D400040281AD1012001AB024601460090A22082
:102D5000FDF73BFF9DF8040000F01F059DF80400FF
:102D600000F013000190012001AB024601460090E3
:102D7000A220FDF769FF2846DFE70020DDE710B558
:102D80000020FFF770FE40F2DD700E49C880012080
:102D900048711720C870032008710A208870092024
:102DA00048701E2008700846FFF73EFD4021812034
:102DB000FFF794FF9120FFF7A1FF0120FFF753FEDB
:102DC00010BD0000CC0500108D4800787047002031
:102DD0008B490870704710B58A48406910F4806FBD
:102DE0000ED189480068401C874908600846006881
:102DF000032802D10120FEF7ECFFFEF7C8FF02E036
:102E00000020814908607F48406910F4006F17D1A5
:102E10007D484068401C7C4948600846406803285B
:102E200002D10120FEF7D5FF0021084607F04AFE37
:102E300006F05CFD08B100F08FF9FEF7A8FF02E094
:102E40000020714948606F48406910F0007F13D13D
:102E50006D488068401C6C4988600846806803287B
:102E600002D10120FEF7B5FF06F040FD08B900F0E1
:102E7000E2F8FEF78CFF02E00020634988606148B9
:102E8000406910F0806F0ED15F48C068401C5E49F9
:102E9000C8600846C068032802D10120FEF799FFE8
:102EA000FEF775FF02E000205749C86055484069A9
:102EB00010F0804F0ED154480069401C52490861FF
:102EC00008460069032802D10120FEF782FFFEF7C1
:102ED0005EFF02E000204C4908614A48406910F05A
:102EE000005F0ED148484069401C47494861084688
:102EF0004069032802D10120FEF76BFFFEF747FF70
:102F000002E000204049486110BD10B500243E4851
:102F1000006803280BD13B48406910F4806F06D04D
:102F20000020394908600120FEF73BFF04243648A1
:102F30004068032817D13348406910F4006F12D05D
:102F40000020314948600120FEF72BFF06242D4860
:102F5000C06D40F008002B49C865FFF704F8002158
:102F6000084607F0F7FD2848806803280BD125485C
:102F7000406910F0007F06D00020234988600120BE
:102F8000FEF70FFF05242048C068032816D11D480E
:102F9000406910F0806F11D000201B49C8600120EB
:102FA000FEF7FFFE09F089FF10B1FFF710FF04E004
:102FB00013480078401C1249087001241248006927
:102FC00003280BD10F48406910F0804F06D0002035
:102FD0000D4908610120FEF7E4FE02240A48406919
:102FE00003280BD10748406910F0005F06D000208D
:102FF000054948610120FEF7D4FE0324204610BD98
:10300000D405001000C00920042400106548C06DDC
:1030100040F040006349C86570476248C06D40F0A9
:1030200020006049C86570475E48C06D40F01000E0
:103030005C49C86570475B48C06940F480305949B5
:10304000C86170475748C06940F400405549C8619D
:1030500070475548006920F0010053490861514804
:10306000006C40F006004F4908640846806D40F04F
:103070004000886570474C48006920F001004A49CB
:1030800008614848006C40F005004649086408465D
:10309000806D40F02000886570474348006920F04B
:1030A0000100414908613F48006C40F004003D497F
:1030B00008640846806D40F01000886570473A4803
:1030C0000068394908603748006840F01000354909
:1030D00008600846806940F4803088617047324853
:1030E000006820F00100304908602E48006840F474
:1030F00040402C4908600846806940F400408861DF
:10310000704700B5FFF7EBFFFFF7D9FFFFF7C5FFEB
:10311000FFF7B1FFFFF79DFFFFF794FFFFF78BFF6E
:10312000FFF782FFFFF779FFFFF770FF00BD1D4833
:10313000806D40F040001B49886570471948806DDC
:1031400040F020001749886570471648806D40F0B0
:1031500010001449886570471248806940F4803037
:103160001049886170470F48806940F400400D495C
:103170008861704700B5FFF7F6FFFFF7EDFFFFF737
:10318000E4FFFFF7DBFFFFF7D2FF00BD00B5FFF75D
:1031900059FFFFF750FFFFF747FFFFF73EFFFFF72D
:1031A00035FF00BD00C0092000C00240174800687C
:1031B000164908600846006808601548006840F035
:1031C0000300134908600846C06940F00300C86165
:1031D00070470F48806940F001000D4988617047D1
:1031E0000B48C06940F001000949C86170470848B0
:1031F000806940F002000649886170470448C06950
:1032000040F002000249C8617047000000C002405F
:1032100000C00920EE4A11547047ED49095C491C71
:10322000EB4A11547047EA49095C491EE84A1154B7
:1032300070470146E648405C7047E6480078401C0D
:10324000E44908707047E34908707047E148007826
:103250007047E14A10707047DF480078401CDE4933
:1032600008707047DC480078401EDB4908707047E2
:10327000D94800787047D94908707047D748007816
:103280007047D7480078401CD54908707047D4492A
:1032900008707047D24800787047D249088070475C
:1032A000D0480088401CCF4908807047CD4800882E
:1032B000401ECC4908807047CA4800887047CA49F8
:1032C00008807047C8480088401CC749088070477C
:1032D000C5480088401EC44908807047C24800881D
:1032E0007047C24908707047C0480078401CBF4909
:1032F00008707047BD480078401EBC490870704790
:10330000BA4800787047BA480088401CB84908801D
:103310007047B7480088401EB54908807047B448D8
:1033200000887047B24908807047B2480088401C46
:10333000B04908807047AF480088401EAD490880FA
:103340007047AC4800887047AA4908807047AA496E
:1033500008707047A8480078401CA749087070475B
:10336000A5480078401EA44908707047A24800781C
:103370007047A2480078401CA049087070479F48D9
:103380000078401E9D49087070479C48007870473F
:103390009A49087070479A49088070479848008891
:1033A000401C97490880704795480088401E944902
:1033B000088070479248008800F5FA6080B2704734
:1033C0009049088070478F480088401C8D490880CC
:1033D00070478C480088401E8A4908807047894899
:1033E0000088704788480088401C874908807047DB
:1033F00085480088401E84490880704782480088BC
:1034000070478149088070478049088070477F482D
:103410000088401C7D49088070477C480088401E19
:103420007A49088070477948008870477849088051
:10343000704777480088401C754908807047744879
:103440000088401E724908807047714800887047A4
:103450007049088070476F480088401C6D4908809B
:1034600070476C480088401E6A4908807047694868
:103470000088704768490870704767480078401CAA
:103480006549087070476448007870476349088050
:10349000704762480088401C6049088070475F4858
:1034A0000088401E5D49088070475C48008870476E
:1034B0005B49088070475A480088401C584908807A
:1034C000704757480088401E554908807047544847
:1034D0000088704753490870704752480078401C74
:1034E0005049087070474F48007870474E48007840
:1034F000401C4D49087070474B480078401E4A49AF
:10350000087070474849087070474748007870470E
:1035100046480078401C4549087070474348007889
:10352000401E4249087070474049087070473F4844
:10353000007870473E480078401C3D49087070474D
:103540003B480078401E3A49087070473849087077
:10355000704737480078704736480078401C354936
:1035600008707047334908707047324800787047D8
:1035700031480078401C3049087070472E48007868
:10358000401E2D49087070472B49087070472A4823
:103590000078704729480078401C28490870704717
:1035A00026480078401E2549087070472349087056
:1035B000704722480078704721480078401C204915
:1035C000087070471E49087070471D4800787047A2
:1035D000DC050010E0050010DF050010E10500101B
:1035E000E7050010E2050010E4050010E6050010F4
:1035F000E8050010EA050010EC050010ED050010CC
:10360000EE050010F0050010F2050010F4050010A2
:10361000F6050010F8050010FA050010FC05001072
:10362000FE05001000060010010600100206001042
:103630000306001004060010050600100606001020
:10364000070600100C48806940F4C0000A498861F0
:1036500070470948806940F40010074988610846AE
:10366000C06940F48000C86170470348C06940F4F5
:10367000C0000149C861704700C00920F6490880B0
:103680007047F5480088704738B5002407E004F516
:10369000C020FDF722F90DF80400601CC4B2022C12
:1036A000F5DB9DF801109DF8002001EB022188B2A6
:1036B000FFF7E4FFFFF7E5FFB0F57A7F02DD0020BA
:1036C000FFF7DCFF38BDE54908707047E348007834
:1036D000704710B500EB4003E14C04EB83035A54F0
:1036E00010BD10B500200DE0002108E0FF2200EB26
:1036F0004003DB4C04EB83035A544A1CD1B20C291F
:10370000F4DB401CB0F57A7FEED310BD024602EB2D
:103710004200D34B03EB8000405C7047D1480078F7
:10372000401CD04908707047CE4908707047CD489A
:103730000078704770B500241AE0002515E004EB0E
:103740004402C74B03EB8202515D04EB440292003A
:1037500002F580225019FDF751F8002601E0701C97
:10376000C6B20A2EFBDB681CC5B20C2DE7DB641C5D
:10377000B4F57A7FE1D370BD70B5002414E0002564
:103780000FE004EB4401890001F580214819FDF7A1
:10379000A4F804EB4401B24A02EB81014855681CCD
:1037A000C5B20C2DEDDB641CB4F57A7FE7D370BD98
:1037B000A9480088401CA8490880704738B50024F3
:1037C00007E004F5C020FDF788F80DF80400601C40
:1037D000C4B2022CF5DB9DF801109DF8002001EB2E
:1037E000022188B2FFF74AFFFFF74BFFB0F57A7F5F
:1037F00002DD0020FFF742FF38BD2DE9F04304460B
:1038000007AD95E8E01044EA012949EA024949EA8E
:103810000368B8F1000F54D000204FE0DFF8489261
:1038200019F83090B9F1FF0F47D1DFF83C9209EB5E
:10383000C00999F80190B9F1FF0F3ED1DFF8289245
:1038400009EBC00999F80290B9F1FF0F35D1DFF803
:10385000189209EBC00999F80390B9F1FF0F2CD128
:10386000DFF8049209F8304009EBC00989F801102B
:10387000DFF8F49109EBC00989F80220DFF8E8913C
:1038800009EBC00989F80330DFF8DC9109EBC009C6
:1038900089F80450DFF8D09109EBC00989F8056078
:1038A000DFF8C49109EBC00989F80670DFF8B89118
:1038B00009EBC00989F807C002E0401C6428ADD3B9
:1038C00000BFBDE8F08310B502460B46002110E0B2
:1038D000654C04EBC1042479944207D1624C04EB9B
:1038E000C10464799C4201D1012004E000204C1CF9
:1038F000E1B26429ECDB00BF10BD002000210FE025
:10390000594A02EBC102D279FF2A07DA564A02EB82
:10391000C102D279002A01DD421CD0B24A1CD1B2C8
:103920006429EDDB704702460020002109E04E4B80
:1039300003EBC1031B79934201D1431CD8B24B1C4A
:10394000D9B26429F3DB7047474A02F8301002EB22
:10395000C0025170444A02EBC0029170424A02EB2D
:10396000C002D170404A02EBC00211713E4A02EB24
:10397000C00251713C4A02EBC00291713A4A02EB1B
:10398000C002D171704770B54FF48030FCF7F8FE7B
:10399000002417E0002511E0334A02EBC402515D18
:1039A000E20002F580325019FCF728FF002601E002
:1039B000701CC6B20A2EFBDB681CC5B2082DEBDBFF
:1039C000601CC4B2642CE5DB70BD70B5002411E04E
:1039D00000250BE0E10001F580314819FCF77DFF7F
:1039E000214901EBC4014855681CC5B2082DF1DB23
:1039F000601CC4B2642CEBDB70BD00200CE0002125
:103A000006E0FF22184B03EBC0035A544A1CD1B204
:103A10000829F6DB421CD0B26428F0DB704702466E
:103A2000114800EBC200405C704701460E4A12F894
:103A300031200D4B03EBC1035B7842EA03220A4BB2
:103A400003EBC1039B7842EA0342074B03EBC1033C
:103A5000DB7842EA036070470A0600100C0600108B
:103A6000B22F00100D060010922C001070B5044605
:103A70000D4600211AE07D4E16F83160A64213D1A2
:103A80007A4E06EBC1067678AE420DD1774E06EB44
:103A9000C106B678964207D1744E06EBC106F67899
:103AA0009E4201D1C8B203E04E1CB1B26429E2DBF0
:103AB00000BF70BD6E480078401C6D4908707047AB
:103AC0006B49087070476A480078704710B5024625
:103AD0000B4600210FE0654C04EBC10424799442AD
:103AE00007D1624C04EBC10464799C4201D10846C1
:103AF00003E04C1CE1B26429EDDB00BF10BD10B542
:103B00004FF44030FCF73CFE00240CE004EB840052
:103B100000EBC400574A81180D224FF44030FCF7E7
:103B2000A1FE601CC4B2642CF0DB10BD00210DE0CE
:103B300001EB810202EBC1024E4B1A44D278332AC8
:103B400001D1002004E001204A1CD1B26429EFDB3E
:103B500000BF70470146002001EB810202EBC10269
:103B6000444B1A44D278332A00D116E001EB81028B
:103B700002EBC1023F4B1A44D278312A01D1002016
:103B80000BE001EB810202EBC1023A4B1A44D278FE
:103B9000322A01D1002000E00120704710B500EB6F
:103BA000800303EBC003334C23445A5410BD024638
:103BB00002EB820000EBC2002E4B1844405C7047C1
:103BC00010B500200FE0032109E0002200EB800384
:103BD00003EBC003274C23445A544A1CD1B20D298D
:103BE000F3DB421CD0B26428EDDB10BD014601EBD3
:103BF000810000EBC1001F4A104440787047014625
:103C000001EB810000EBC1001A4A1044C0787047F4
:103C1000194A11547047194A115470470146174800
:103C2000405C704770B5002411E000250BE02101D5
:103C300001F540314819FCF750FE114901EBC40170
:103C40004855681CC5B2042DF1DB601CC4B2642C5D
:103C5000EBDB70BD02460A4800EBC200405C7047D7
:103C6000084B03EB001323F811207047922C00102F
:103C7000080600101C2400106229001030290010D2
:103C8000722900108061001010B5002406E0204663
:103C9000FCF723FE7C490855601CC4B2642CF6D3A3
:103CA00010BD794A1154704770B50020FCF768FDCB
:103CB00000240CE07448015D2046FCF79FFD0025C0
:103CC00001E0681CC5B20A2DFBDB601CC4B2642C89
:103CD000F0D370BD01466C48405C704710B50024BD
:103CE00009E02046FCF7F9FD6749095D884201D0EB
:103CF00000BFFEE7641C642CF3D310BD70472DE9B0
:103D0000F843054605212846FFF789FE8046042131
:103D10002846FFF784FE81464146FDF748F90746ED
:103D2000FFF7AFFC80462A460021FFF7D2FC0121B5
:103D30002846FFF73CFF8046FFF7A3FC814642463A
:103D40000121FFF7C6FC02212846FFF730FF80461D
:103D5000FFF797FC814642460221FFF7BAFC032198
:103D60002846FFF724FF8046FFF78BFC814642463A
:103D70000321FFF7AEFC04212846FFF718FF804619
:103D8000FFF77FFC814642460421FFF7A2FC052194
:103D90002846FFF70CFF8046FFF773FC814642463A
:103DA0000521FFF796FC06212846FFF700FF804615
:103DB000FFF767FC814642460621FFF78AFC072190
:103DC0002846FFF7F4FE8046FFF75BFC814642463B
:103DD0000721FFF77EFC08212846FFF7E8FE804612
:103DE000FFF74FFC814642460821FFF772FC09218C
:103DF0002846FFF7DCFE8046FFF743FC814642463B
:103E00000921FFF766FC0A212846FFF7D0FE80460D
:103E1000FFF737FC814642460A21FFF75AFCFFF7BD
:103E200030FC80463A460B21FFF753FCFFF7C0FCFD
:103E3000FFF727FCB0F57A7F02D10020FFF71EFCC8
:103E4000FFF71FFC00128DF80000FFF71AFCC0B24C
:103E50008DF801004FF4C020FCF792FC00240DE027
:103E60001DF8041004F5C020FCF7C8FC002601E092
:103E7000701CC6B20A2EFBDB601CC4B2022CEFDB46
:103E8000FFF758FCBDE8F883C0670010FEB50026B8
:103E90000020009001900290002411E0E01CC0B2CC
:103EA000FFF718FF642803DD00200DF8040005E08B
:103EB000E01CC0B2FFF70EFF0DF80400601CC4B296
:103EC0000A2CEBDB002505E01DF805003044C6B2E6
:103ED000681CC5B20A2DF7DB3046FEBD70B504463E
:103EE00000250B2C39D2DFE804F038060B10151A28
:103EF0001F24292E33000320FFF7ECFE05462DE09A
:103F00000420FFF7E7FE054628E00520FFF7E2FE64
:103F1000054623E00620FFF7DDFE05461EE00720EC
:103F2000FFF7D8FE054619E00820FFF7D3FE054647
:103F300014E00920FFF7CEFE05460FE00A20FFF748
:103F4000C9FE05460AE00B20FFF7C4FE054605E062
:103F50000C20FFF7BFFE054600E000BF00BF642D48
:103F600000DD0025284670BD3248C06D40F00800D5
:103F70003049C865704710B50446012C02D0022CA8
:103F800031D117E0FDF743FE142805DB2948C06D49
:103F900040F008002749C865FDF739FE232808DBF3
:103FA0000020FDF731FE2348806D40F008002149D4
:103FB000886519E0FDF72BFE022805DB1D48C06D62
:103FC00040F008001B49C865FDF721FEB0F57A7F77
:103FD00008DB0020FDF718FE1648806D40F0080051
:103FE0001449886500E000BF00BF10BD70B50446ED
:103FF0000D460026204604EBD0714E10FDF707FE5B
:10400000B04206DC0B48806D40F008000949886525
:104010000EE0FDF7FCFD6119884206DC0548C06D25
:1040200040F008000349C86502E00020FDF7ECFD00
:1040300070BD000000C0092010B5FDF73EFAFCF786
:104040007EFD0020FDF7C5FE0120FDF7C2FE012028
:104050000B490860FDF70AFC10BD10B5FDF735FAF5
:10406000FCF776FD0020FDF79CFE0120FDF799FE90
:104070004FF0807003490860FDF700FC10BD0000A0
:104080008C8002409080024010B5FCF795F9FDF756
:10409000B1FA4FF416610020FDF782F94FF4165182
:1040A0000120FDF77DF9FEF7E0F8FDF79BFBFDF73A
:1040B000B7FB1D48FCF70CFDFCF7C6F8044621468B
:1040C0000020FDF7ABFCFCF7F6F804462146012082
:1040D000FDF7A4FCFCF74FFAFFF713F8FFF766F8BB
:1040E000FDF7F6FE00210846FDF72AFF10BD10B5CA
:1040F00001F0C8FFFFF769FCFFF7C6FD0221382079
:1041000005F027FC07F010FEFCF726FF06F0E8FCA0
:10411000FFF732FB06F037FD06F09DFDFCF79FFF31
:10412000FFF7B2FA10BD0000A08601002DE9F04FA4
:104130008FB00746884691469A46189D002600246F
:1041400001200E900D902C22FEA101A809F092FDF5
:10415000002F7DD0B8F1000FFBD09DF805009DF831
:10416000041000EB012083B2002211460120FEF76B
:1041700073F99DF807009DF8061000EB012083B24B
:10418000102200210120FEF767F90A2320220021D6
:104190000120FEF7C5FA642097FBF0F100FB1170D7
:1041A0000A2190FBF1F000F0FF0B5B462822002172
:1041B0000120FEF7B5FA0A2097FBF0F100FB117021
:1041C00000F0FF0B5B46302200210120FEF7A8FA29
:1041D0000C23382200210120FEF7A2FA642098FB6C
:1041E000F0F100FB11800A2190FBF1F000F0FF0BD1
:1041F0005B46002211460220FEF792FA0A2098FB45
:10420000F0F100FB118000F0FF0B5B46082200215B
:104210000220FEF785FA9DF809009DF8081000EBD2
:10422000012083B2002202210120FEF715F99DF83A
:104230000B009DF80A1000EB012083B2102202212E
:104240000120FEF709F90A2320220221012000E0C3
:104250007CE2FEF765FA642099FBF0F000F0FF0BBA
:104260005B46282202210120FEF75AFA642099FBBE
:10427000F0F100FB11900A2190FBF1F000F0FF0B30
:104280005B46302202210120FEF74AFA0A2099FB00
:10429000F0F100FB119000F0FF0B5B463822022189
:1042A0000120FEF73DFA9DF80D009DF80C1000EB83
:1042B000012083B2002202210846FEF7CDF89DF8C6
:1042C0000F009DF80E1000EB012083B21022022196
:1042D0000846FEF7C1F80A23202202210846FEF70D
:1042E0001FFA64209AFBF0F000F0FF0B5B462822D7
:1042F00002210846FEF714FA64209AFBF0F100FB55
:1043000011A00A2190FBF1F000F0FF0B5B46302278
:1043100002210846FEF704FA0A209AFBF0F100FB9E
:1043200011A000F0FF0B5B46382202210846FEF781
:10433000F7F9302D18D19DF811009DF8101000EB01
:10434000012083B2002204210120FEF785F89DF8A8
:1043500013009DF8121000EB012083B210220421FB
:104360000120FEF779F8A0E0312D18D19DF8150055
:104370009DF8141000EB012083B2002204210120DB
:10438000FEF76AF89DF817009DF8161000EB012063
:1043900083B2102204210120FEF75EF885E0322D61
:1043A00018D19DF819009DF8181000EB012083B278
:1043B000002204210120FEF74FF89DF81B009DF814
:1043C0001A1000EB012083B2102204210120FEF715
:1043D00043F86AE0332D18D19DF81D009DF81C109C
:1043E00000EB012083B2002204210120FEF734F803
:1043F0009DF81F009DF81E1000EB012083B21022D3
:1044000004210120FEF728F84FE0342D18D19DF843
:1044100021009DF8201000EB012083B2002204212E
:104420000120FEF719F89DF823009DF8221000EBFB
:10443000012083B2102204210120FEF70DF834E0A0
:10444000352D18D19DF825009DF8241000EB012092
:1044500083B2002204210120FDF7FEFF9DF8270012
:104460009DF8261000EB012083B2102204210120C8
:10447000FDF7F2FF19E0362D17D19DF829009DF8C0
:10448000281000EB012083B2002204210120FDF757
:10449000E3FF9DF82B009DF82A1000EB012083B26A
:1044A000102204210120FDF7D7FFBDF86A004FF468
:1044B0007A7190FBF1F201FB1200642190FBF1F2A2
:1044C00001FB12000A2190FBF1F000F0FF0B5B46AC
:1044D000202204210120FEF723F9BDF86A000A21F9
:1044E00090FBF1F201FB120000F0FF0B5B4628226B
:1044F00004210120FEF714F99DF869000A2190FBC0
:10450000F1F000F0FF0B5B46302204210120FEF7A2
:1045100007F99DF869000A2190FBF1F201FB1200F6
:1045200000F0FF0B5B46382204210120FEF7F8F86B
:104530009DF867000A2190FBF1F000F0FF0B5B464D
:10454000002215E0CAD7BEAFBBF0BEAFD7DCCAFDB4
:10455000B8D0D1CCB8D0CEC2CAD6B1A8CFFBB1A802
:10456000CAE4C8EBCAE4B3F6C9F9B9E20000000036
:1045700004210220FEF7D4F89DF867000A2190FB81
:10458000F1F201FB120000F0FF0B5B460822042150
:104590000220FEF7C5F89DF866000A2190FBF1F0B5
:1045A00000F0FF0B5B46102204210220FEF7B8F852
:1045B0009DF866000A2190FBF1F201FB120000F069
:1045C000FF0B5B46182204210220FEF7A9F89DF894
:1045D00065000A2190FBF1F000F0FF0B5B46202202
:1045E00004210220FEF79CF89DF865000A2190FB4B
:1045F000F1F201FB120000F0FF0B5B4628220421C0
:104600000220FEF78DF89DF864000A2190FBF1F07E
:1046100000F0FF0B5B46302204210220FEF780F8F9
:104620009DF864000A2190FBF1F201FB120000F0FA
:10463000FF0B5B46382204210220FEF771F8414649
:104640003846FCF7B4FC0C900C9864287EDA002FF6
:104650007CDDB8F1000FFBDD03210C98FCF79AFC20
:10466000302813DB03210C98FCF794FC39280DDC6F
:1046700003210C98FCF78EFC83465B460022062142
:104680000120FEF74DF8042601243AE003210C989E
:10469000FCF780FC612813DB03210C98FCF77AFC03
:1046A0007A280DDC03210C98FCF774FC83465B46EA
:1046B000002206210120FDF7FFFF0426012420E04F
:1046C00003210C98FCF766FCB0281ADB03210C9838
:1046D000FCF760FCFF2814DA04210C98FCF75AFC64
:1046E000834603210C98FCF755FC0BEB002080B2AD
:1046F00003460022062100900120FDF7ADFE0526AD
:1047000002249BE031460C98FCF744FCB02829DBDE
:1047100031460C98FCF73EFCFF2823DA072C05D124
:104720000D98012802D102200D900024701CC1B206
:104730000C98FCF72FFC834631460C98FCF72AFCBA
:104740000BEB002080B20090E00600E07AE0020E61
:104750000621009B0D98FDF77FFEB01CC6B2A01C81
:10476000C4B25EE031460C98FCF714FC302818DB2C
:1047700031460C98FCF70EFC392812DC31460C98B7
:10478000FCF708FC303800F0FF0BE006020E5B4639
:1047900006210D98FDF7C4FF701CC6B2601CC4B2A0
:1047A0003FE031460C98FCF7F5FB412818DB314619
:1047B0000C98FCF7EFFB5A2812DC31460C98FCF7FA
:1047C000E9FB273800F0FF0BE006020E5B460621EE
:1047D0000D98FDF771FF701CC6B2601CC4B220E0DA
:1047E00031460C98FCF7D6FB612818DB31460C9853
:1047F000FCF7D0FB7A2812DC31460C98FCF7CAFB98
:10480000613800F0FF0BE006020E5B4606210D98B2
:10481000FDF752FF701CC6B2601CC4B201E000205C
:104820000E9031460C98FCF7B5FB872801D100208B
:104830000E90082C02DB002402200D900E98002818
:104840007FF460AF0FB0BDE8F08F00002DE9F04FAE
:104850008FB00746884691461D4600260024012059
:104860000E900D902C22FEA102A809F003FA002F51
:104870007DD0B8F1000FFBD09DF809009DF808101D
:1048800000EB012083B2002211460120FDF7E4FD78
:104890009DF80B009DF80A1000EB012083B2102256
:1048A00000210120FDF7D8FD9DF80D009DF80C10AA
:1048B00000EB012083B2202200210120FDF7CCFD76
:1048C0009DF80F009DF80E1000EB012083B23022FE
:1048D00000210120FDF7C0FD0A230022114602201D
:1048E000FDF71EFF642099FBF0F000F0FF0B5B4624
:1048F000082200210220FDF713FF642099FBF0F14C
:1049000000FB11900A2190FBF1F000F0FF0B5B46D9
:10491000102200210220FDF703FF0A2099FBF0F18D
:1049200000FB119000F0FF0B5B46182200210220D3
:10493000FDF7F6FE9DF811009DF8101000EB012028
:1049400083B2002202210120FDF786FD9DF81300AD
:104950009DF8121000EB012083B2102202210120E9
:10496000FDF77AFD0A2320220221012000E04BE21C
:10497000FDF7D6FE642097FBF0F100FB11700A21D1
:1049800090FBF1F000F0FF0B5B4628220221012092
:10499000FDF7C6FE0A2097FBF0F100FB117000F056
:1049A000FF0B5B46302202210120FDF7B9FE0C23EC
:1049B000382202210120FDF7B3FE642098FBF0F1BC
:1049C00000FB11800A2190FBF1F000F0FF0B5B4629
:1049D000002202210846FDF7A3FE0A2098FBF0F111
:1049E00000FB118000F0FF0B5B4608220221084605
:1049F000FDF796FE9DF815009DF8141000EB0120C0
:104A000083B2202202210846FDF726FD9DF81700FB
:104A10009DF8161000EB012083B2302202210846D7
:104A2000FDF71AFD012D18D19DF819009DF81810F9
:104A300000EB012083B2002204210120FDF70CFDD0
:104A40009DF81B009DF81A1000EB012083B2102284
:104A500004210120FDF700FD85E0022D18D19DF80D
:104A60001D009DF81C1000EB012083B200220421E0
:104A70000120FDF7F1FC9DF81F009DF81E1000EBD2
:104A8000012083B2102204210120FDF7E5FC6AE039
:104A9000032D18D19DF821009DF8201000EB012076
:104AA00083B2002204210120FDF7D6FC9DF82300EB
:104AB0009DF8221000EB012083B210220421012076
:104AC000FDF7CAFC4FE0042D18D19DF825009DF894
:104AD000241000EB012083B2002204210120FDF705
:104AE000BBFC9DF827009DF8261000EB012083B247
:104AF000102204210120FDF7AFFC34E0052D18D170
:104B00009DF829009DF8281000EB012083B20022B7
:104B100004210120FDF7A0FC9DF82B009DF82A1030
:104B200000EB012083B2102204210120FDF794FC48
:104B300019E0062D17D19DF82D009DF82C1000EBE3
:104B4000012083B2002204210120FDF785FC9DF89D
:104B50002F009DF82E1000EB012083B210220421BB
:104B60000120FDF779FCBDF866004FF47A7190FBE7
:104B7000F1F201FB1200642190FBF1F201FB120043
:104B80000A2190FBF1F000F0FF0B5B46202204218C
:104B90000120FDF7C5FDBDF866000A2190FBF1F28A
:104BA00001FB120000F0FF0B5B46282204210120CC
:104BB000FDF7B6FD9DF865000A2190FBF1F000F0CD
:104BC000FF0B5B46302204210120FDF7A9FD9DF873
:104BD00065000A2190FBF1F201FB120000F0FF0BCF
:104BE0005B46382204210120FDF79AFD9DF8630001
:104BF0000A2190FBF1F000F0FF0B5B46002204213C
:104C00000220FDF78DFD9DF863000A2190FBF1F273
:104C100001FB120000F0FF0B5B460822042102207A
:104C2000FDF77EFD9DF862000A2190FBF1F000F097
:104C3000FF0B5B46102204210220FDF771FD9DF859
:104C400062000A2190FBF1F201FB120000F0FF0B61
:104C50005B46182204210220FDF762FD16E00000E9
:104C6000B9CAD5CFD7DCCAFDB9CAD5CFC7B7D1B974
:104C7000B8D0D1CCB8D0CEC2CAD6B1A8CAE4C8EB9D
:104C8000CAE4B3F6C9F9B9E2000000009DF861007A
:104C90000A2190FBF1F000F0FF0B5B46202204217B
:104CA0000220FDF73DFD9DF861000A2190FBF1F225
:104CB00001FB120000F0FF0B5B46282204210220BA
:104CC000FDF72EFD9DF860000A2190FBF1F000F049
:104CD000FF0B5B46302204210220FDF721FD9DF8E9
:104CE00060000A2190FBF1F201FB120000F0FF0BC3
:104CF0005B46382204210220FDF712FD414638466A
:104D0000FCF755F98246BAF1640F7DDA002F7BDD9E
:104D1000B8F1000FFBDD03215046FCF73BF93028CA
:104D200013DB03215046FCF735F939280DDC03214C
:104D30005046FCF72FF983465B46002206210120EE
:104D4000FDF7EEFC042601243AE003215046FCF76F
:104D500021F9612813DB03215046FCF71BF97A285F
:104D60000DDC03215046FCF715F983465B46002213
:104D700006210120FDF7A0FC0426012420E00321E8
:104D80005046FCF707F9B0281ADB03215046FCF720
:104D900001F9FF2814DA04215046FCF7FBF883469A
:104DA00003215046FCF7F6F80BEB002080B20346D7
:104DB0000022062101900120FDF74EFB052602246A
:104DC0009BE031465046FCF7E5F8B02829DB314638
:104DD0005046FCF7DFF8FF2823DA072C05D10D98A1
:104DE000012802D102200D900024701CC1B250464F
:104DF000FCF7D0F8834631465046FCF7CBF80BEB76
:104E0000002080B2019000E07BE0E006020E062167
:104E1000019B0D98FDF720FBB01CC6B2A01CC4B2CC
:104E20005EE031465046FCF7B5F8302818DB3146D5
:104E30005046FCF7AFF8392812DC31465046FCF7F3
:104E4000A9F8303800F0FF0BE006020E5B460621A1
:104E50000D98FDF765FC701CC6B2601CC4B23FE043
:104E600031465046FCF796F8412818DB314650464B
:104E7000FCF790F85A2812DC31465046FCF78AF8C5
:104E8000273800F0FF0BE006020E5B4606210D9866
:104E9000FDF712FC701CC6B2601CC4B220E03146A3
:104EA0005046FCF777F8612818DB31465046FCF78E
:104EB00071F87A2812DC31465046FCF76BF86138FD
:104EC00000F0FF0BE006020E5B4606210D98FDF791
:104ED000F3FB701CC6B2601CC4B201E000200E904F
:104EE00031465046FCF756F8872801D100200E9035
:104EF000082C02DB002402200D900E9800287FF47D
:104F000060AF0FB0BDE8F08F2DE9F04F8DB00746D0
:104F1000884691461D460026002401200C900B90E7
:104F20002822FEA101A808F0A5FE002F7DD0B8F12F
:104F3000000FFBD09DF805009DF8041000EB012048
:104F400083B2002211460120FDF786FA9DF8070082
:104F50009DF8061000EB012083B2102200210120F1
:104F6000FDF77AFA9DF809009DF8081000EB012082
:104F700083B2202200210120FDF76EFA9DF80B007C
:104F80009DF80A1000EB012083B23022002101209D
:104F9000FDF762FA0A23002211460220FDF7C0FB4A
:104FA000642099FBF0F000F0FF0B5B460822002123
:104FB0000220FDF7B5FB642099FBF0F100FB119096
:104FC0000A2190FBF1F000F0FF0B5B46102200215C
:104FD0000220FDF7A5FB0A2099FBF0F100FB1190E0
:104FE00000F0FF0B5B46182200210220FDF798FB22
:104FF0009DF805009DF8041000EB012083B200220B
:1050000002210120FDF728FA9DF807009DF80610FF
:1050100000EB012083B2102202210120FDF71CFACF
:105020000A2320220221012000E049E2FDF778FB5B
:10503000642097FBF0F100FB11700A2190FBF1F066
:1050400000F0FF0B5B46282202210120FDF768FBE0
:105050000A2097FBF0F100FB117000F0FF0B5B469C
:10506000302202210120FDF75BFB0C2338220221B4
:105070000120FDF755FB642098FBF0F100FB118047
:105080000A2190FBF1F000F0FF0B5B4600220221A9
:105090000846FDF745FB0A2098FBF0F100FB118064
:1050A00000F0FF0B5B46082202210846FDF738FBA3
:1050B0009DF80D009DF80C1000EB012083B220221A
:1050C00002210846FDF7C8F99DF80F009DF80E1063
:1050D00000EB012083B2302202210846FDF7BCF923
:1050E000012D18D19DF811009DF8101000EB012042
:1050F00083B2002204210120FDF7AEF99DF81300D0
:105100009DF8121000EB012083B21022042101202F
:10511000FDF7A2F985E0022D18D19DF815009DF844
:10512000141000EB012083B2002204210120FDF7BE
:1051300093F99DF817009DF8161000EB012083B23B
:10514000102204210120FDF787F96AE0032D18D110
:105150009DF819009DF8181000EB012083B2002281
:1051600004210120FDF778F99DF81B009DF81A1025
:1051700000EB012083B2102204210120FDF76CF91D
:105180004FE0042D18D19DF81D009DF81C1000EB78
:10519000012083B2002204210120FDF75DF99DF872
:1051A0001F009DF81E1000EB012083B21022042185
:1051B0000120FDF751F934E0052D18D19DF82100AB
:1051C0009DF8201000EB012083B200220421012071
:1051D000FDF742F99DF823009DF8221000EB012015
:1051E00083B2102204210120FDF736F919E0062DC3
:1051F00017D19DF825009DF8241000EB012083B203
:10520000002204210120FDF727F99DF827009DF8D1
:10521000261000EB012083B2102204210120FDF7AB
:105220001BF9BDF85E004FF47A7190FBF1F201FBBF
:105230001200642190FBF1F201FB12000A2190FBA5
:10524000F1F000F0FF0B5B46202204210120FDF766
:1052500067FABDF85E000A2190FBF1F201FB120033
:1052600000F0FF0B5B46282204210120FDF758FACD
:105270009DF85D000A2190FBF1F000F0FF0B5B460A
:10528000302204210120FDF74BFA9DF85D000A2130
:1052900090FBF1F201FB120000F0FF0B5B4638229D
:1052A00004210120FDF73CFA9DF85B000A2190FBE8
:1052B000F1F000F0FF0B5B46002204210220FDF715
:1052C0002FFA9DF85B000A2190FBF1F201FB12001E
:1052D00000F0FF0B5B46082204210220FDF720FAB4
:1052E0009DF85A000A2190FBF1F000F0FF0B5B469D
:1052F000102204210220FDF713FA9DF85A000A211A
:1053000090FBF1F201FB120000F0FF0B5B4618224C
:1053100004210220FDF704FA14E00000B9CAD5CF39
:10532000D7DCCAFDC6E4CBFBB8D0D1CCB8D0CEC256
:10533000CAD6B1A8CAE4C8EBCAE4B3F6C9F9B9E25F
:10534000000000009DF859000A2190FBF1F000F0E8
:10535000FF0B5B46202204210220FDF7E1F99DF8B6
:1053600059000A2190FBF1F201FB120000F0FF0B43
:105370005B46282204210220FDF7D2F99DF858004F
:105380000A2190FBF1F000F0FF0B5B463022042174
:105390000220FDF7C5F99DF858000A2190FBF1F2B3
:1053A00001FB120000F0FF0B5B46382204210220B3
:1053B000FDF7B6F941463846FBF7F9FD8246BAF1EA
:1053C000640F7DDA002F7BDDB8F1000FFBDD0321D8
:1053D0005046FBF7DFFD302813DB03215046FBF777
:1053E000D9FD39280DDC03215046FBF7D3FD834658
:1053F0005B46002206210120FDF792F904260124D4
:105400003AE003215046FBF7C5FD612813DB032179
:105410005046FBF7BFFD7A280DDC03215046FBF711
:10542000B9FD83465B46002206210120FDF744F9C1
:105430000426012420E003215046FBF7ABFDB028F1
:105440001ADB03215046FBF7A5FDFF2814DA0421DF
:105450005046FBF79FFD834603215046FBF79AFD1C
:105460000BEB002080B203460022062100900120B1
:10547000FCF7F2FF052602249BE031465046FBF77D
:1054800089FDB02829DB31465046FBF783FDFF2814
:1054900023DA072C05D10B98012802D102200B90AA
:1054A0000024701CC1B25046FBF774FD83463146A0
:1054B0005046FBF76FFD0BEB002080B2009000E040
:1054C0007BE0E006020E0621009B0B98FCF7C4FF70
:1054D000B01CC6B2A01CC4B25EE031465046FBF719
:1054E00059FD302818DB31465046FBF753FD39286B
:1054F00012DC31465046FBF74DFD303800F0FF0B13
:10550000E006020E5B4606210B98FDF709F9701CB8
:10551000C6B2601CC4B23FE031465046FBF73AFDCC
:10552000412818DB31465046FBF734FD5A2812DC7F
:1055300031465046FBF72EFD273800F0FF0BE00602
:10554000020E5B4606210B98FDF7B6F8701CC6B23A
:10555000601CC4B220E031465046FBF71BFD6128B9
:1055600018DB31465046FBF715FD7A2812DC314630
:105570005046FBF70FFD613800F0FF0BE006020E0E
:105580005B4606210B98FDF797F8701CC6B2601CAD
:10559000C4B201E000200C9031465046FBF7FAFC03
:1055A000872801D100200C90082C02DB0024022067
:1055B0000B900C9800287FF460AF0DB0BDE8F08F21
:1055C00010B588B004461C2269A101A808F052FB5E
:1055D000012C06D100231A4619460120FDF715F8C3
:1055E00010E0022C06D100231A4602210120FDF70B
:1055F0000CF807E0032C05D100231A4604210120F2
:10560000FDF703F801230A2200211846FDF788F868
:105610000A23122200210120FDF782F89DF80500DF
:105620009DF8041000EB012083B22022002101200C
:10563000FCF712FF9DF807009DF8061000EB012013
:1056400083B2302200210120FCF706FF9DF80900FB
:105650009DF8081000EB012083B2002211460220C1
:10566000FCF7FAFE9DF80B009DF80A1000EB0120F4
:1056700083B2102200210220FCF7EEFE02230A2250
:1056800019460120FDF74CF80A23122202210120BD
:10569000FDF746F89DF80D009DF80C1000EB012079
:1056A00083B2202202210120FCF7D6FE9DF80F00D4
:1056B0009DF80E1000EB012083B230220221012060
:1056C000FCF7CAFE9DF811009DF8101000EB0120B8
:1056D00083B2002202210846FCF7BEFE9DF81300AB
:1056E0009DF8121000EB012083B21022022108461F
:1056F000FCF7B2FE03230A2204210120FDF710F873
:105700000A23122204210120FDF70AF89DF8150052
:105710009DF8141000EB012083B220220421012007
:10572000FCF79AFE9DF817009DF8161000EB01207B
:1057300083B2302204210120FCF78EFE9DF819006F
:105740009DF8181000EB012083B2002204210220F2
:10575000FCF782FE9DF81B009DF81A1000EB01205B
:1057600083B2102204210220FCF776FE08B010BD9F
:10577000CFB5CDB3B2E9D1AFB2BFBCFED7B4CCACDC
:10578000C0FACAB7BCC7C2BC0000000010B58CB0DC
:1057900004462C22FCA101A808F06CFA012C06D1C9
:1057A00000231A4619460120FCF72FFF34E0022C93
:1057B00006D100231A4602210120FCF726FF2BE028
:1057C000032C06D100231A4604210120FCF71DFFFB
:1057D00022E0042C06D100231A4606210120FCF702
:1057E00014FF19E0052C06D100231A4619460120A2
:1057F000FCF70BFF10E0062C06D100231A4602210D
:105800000120FCF702FF07E0072C05D100231A4610
:1058100004210120FCF7F9FE052C7CDA01230A2281
:1058200000211846FCF77CFF0A23122200210120E8
:10583000FCF776FF9DF805009DF8041000EB0120B1
:1058400083B2202200210120FCF706FE9DF807000C
:105850009DF8061000EB012083B2302200210120C8
:10586000FCF7FAFD02230A2219460120FCF758FF33
:105870000A23122202210120FCF752FF9DF80900A1
:105880009DF8081000EB012083B2202202210120A4
:10589000FCF7E2FD9DF80B009DF80A1000EB0120DB
:1058A00083B2302202210120FCF7D6FD03230A2215
:1058B00004210120FCF734FF0A23122204210120D5
:1058C000FCF72EFF9DF80D009DF80C1000EB012059
:1058D00083B2202204210120FCF7BEFD9DF80F00B9
:1058E0009DF80E1000EB012083B23022042101202C
:1058F000FCF7B2FD04230A2206210120FCF710FF69
:105900000A23122206210120FCF70AFF9DF811004C
:105910009DF8101000E014E000EB012083B220227B
:1059200006210120FCF798FD9DF813009DF8121048
:1059300000EB012083B2302206210120FCF78CFD10
:10594000CBE005230A2200210120FCF7E9FE0A230F
:10595000122200210120FCF7E3FE9DF815009DF8BE
:10596000141000EB012083B2202200210120FCF75B
:1059700073FD9DF817009DF8161000EB012083B20F
:10598000302200210120FCF767FD9DF819009DF8E9
:10599000181000EB012083B2002211460220FCF710
:1059A0005BFD9DF81B009DF81A1000EB012083B2EF
:1059B000102200210220FCF74FFD06230A220221BB
:1059C0000120FCF7ADFE0A23122202210120FCF780
:1059D000A7FE9DF81D009DF81C1000EB012083B26E
:1059E000202202210120FCF737FD9DF81F009DF8C1
:1059F0001E1000EB012083B2302202210120FCF7AF
:105A00002BFD9DF821009DF8201000EB012083B2B2
:105A1000002202210846FCF71FFD9DF823009DF897
:105A2000221000EB012083B2102202210846FCF76D
:105A300013FD9DF825009DF8241000EB012083B292
:105A4000202202210846FCF707FD07230A22042131
:105A50000120FCF765FE0A23122204210120FCF735
:105A60005FFE9DF805009DF8041000EB012083B255
:105A7000202204210120FCF7EFFC9DF807009DF88F
:105A8000061000EB012083B2302204210120FCF734
:105A9000E3FC9DF827009DF8261000EB012083B25F
:105AA000002204210220FCF7D7FC9DF829009DF874
:105AB000281000EB012083B2102204210220FCF701
:105AC000CBFC9DF82B009DF82A1000EB012083B23F
:105AD000202204210220FCF7BFFC0CB010BD1CB535
